:10000000F01F0010855A0000835A0000835A000038
:10001000835A0000835A0000835A00000000000049
:10002000000000000000000000000000835A0000F3
:10003000835A000000000000835A00007528000069
:100040007526000075260000752600007526000044
:100050007526000075260000752600007526000034
:100060007526000075260000752600007526000024
:1000700075260000815A0000815A0000C10000006E
:100080001129000029290000292B0000412B000024
:10009000815A0000892C0000815A0000815A00001A
:1000A000815A0000815A0000815A0000815A0000E4
:1000B000815A0000815A0000815A0000815A0000D4
:1000C000594A10B5136801331360584B584A1B68DE
:1000D000DBB2302B00D176E018D8182B5AD005D8D7
:1000E000082B37D0102B46D0082351E0202B00D10D
:1000F0007AE0282BF8D14F4B4F491868096888429D
:1001000052D21968481C18604C4B48E0482B00D16B
:100110006AE00AD8382B60D0402BE5D1484B1968EB
:10012000042301295DD11360DEE7502B66D0582BE4
:10013000DAD14448444B1B680168DBB24C1C0460B4
:10014000424843540221424BFF3119608023F13968
:10015000DB0530E00021374B19601968481C186036
:10016000364B5B5C3849DBB20B60282313600122FD
:10017000374B1A6010BD0021324B19602D490B68B6
:10018000581C08602D49CB5C2F49DBB20B6028233B
:100190001360EFE727490B68581C086027495B5C30
:1001A0002949DBB20B609FE7254B19688023DB05EB
:1001B000002902D02021196096E702202449FF304F
:1001C00008601021F7E780231021DB051960082360
:1001D000136081221E4B5200CBE782211C4B490049
:1001E000E9E78021C905DDE780231021DB051960DF
:1001F000082313600422164BFF32BAE71149124B51
:100200001B680868DBB2441C0C60104C23540C4B78
:100210001B680868013B0421834202D98023DB0567
:10022000C9E7116060E7C046EC040010040000401C
:1002300018000040E8040010E0040010B8040010AA
:10024000CC040010E404001008000040D0040010AA
:10025000C804001002231B4A70B511681A4D0B43E5
:1002600013602023194A040011680B431360184BD4
:100270001A682A401A600122186810431860154B4A
:1002800019682940196019680A431A606C22124BD8
:1002900012491A60124B186805F0C6FC114B186021
:1002A000114B1860022C02D1A022104B1A60802240
:1002B0000F4B12021A6080234022DB0501201A60D6
:1002C00070BDC04604800440F8FCFFFF80800440FD
:1002D000304004403440044018000040400D03000A
:1002E0007C03001014000040100000400C0000408F
:1002F00000E100E00000000000000000FFFFFFFF41
:10030000202303490A681A42FCD0024B1860704748
:10031000148000400080004070B504000D002900EA
:10032000200002F0A3FA024B1B68002BF7D170BD2E
:100330009804001010B502F0CBFA10BD10B50020E3
:1003400001F0B8FA01F0A0FA10BD70477FB50500C2
:1003500000200C0001F054FC002801D003F06AF8E2
:10036000002323602B60174B1E78002E28D121001C
:10037000280001F073FC300001F042FC002807D097
:1003800003F058F82660210028002E6001F066FC7A
:100390000D4B1B78002B13D00C4B2A6818680C49A6
:1003A000824203D120680D68A84209D01A602368F0
:1003B00001A80B60074902F097FE01A802F034FF84
:1003C0007FBDC046480100105801001040010010D8
:1003D00044010010585E000070B504000D00FFF7E6
:1003E000B5FF094A1368002B09D0013B1360032BAA
:1003F00006DD064B1B682360054B1B682B6070BD38
:1004000000232B602360FAE7540100104C01001018
:1004100050010010002310B50B60036001F01EFCBA
:1004200010BD000010B5012402F0CAFF0C4B0020E3
:10043000196802F0EFFB002002F0DCFB002002F064
:10044000B9FB084B20001C60074B196889B202F009
:10045000A7FA200002F094FA200002F071FA10BD11
:1004600084030010B40400108003001037B50C247E
:100470000321012002F0FAF9684601A9FFF7ACFF59
:10048000009D002D02D1013C002CF1D1FFF7CAFFE5
:1004900028003EBD10B5002002F09CFB012002F0B8
:1004A0005FFA02F093FF10BD70B50D000400FFF776
:1004B000B9FFF8230121064ADB00D15020002900B2
:1004C00004F0D0FBFFF7E6FF04F084FA70BDC046ED
:1004D0009C05001010B50400FFF7A4FF200004F0F5
:1004E00055FB0400FFF7D6FF200010BD10B500201B
:1004F000FFF7F0FF10BD37B504000025FFF7F6FF4A
:10050000A54203DBFFF7F2FF00983EBD0321062062
:1005100002F0ACF9684601A9FFF75EFF009B002BD3
:10052000F0D10135ECE7000010B5020002490348A4
:1005300002F0CFFD10BDC046665E00006B5E00009D
:10054000F0B5354B85B01B6800900193002805D0AD
:10055000019B002B02D0002001F0BAFD01F05FF9F1
:10056000002001F0A7F901F08FF92C4C0322236839
:100570000221013323602A482A4B01F09FFA2368A5
:10058000FA26013B236001F09BF9FFF7AFFF2648F5
:10059000FFF7CAFF96230024244D9B002B60B60072
:1005A00002F048FC002807D001F026FF00242B6849
:1005B0000134A342F4DC1AE0009B002B27D01C4F2F
:1005C0003100386805F030FB6423584302F068F9C5
:1005D00001F0D4FF3100386805F026FB02F060F925
:1005E00003A902A8FFF7F8FE029B002BDFD0009BB7
:1005F000002B05D0019B002B02D0012001F068FDEB
:10060000FFF774FF0B4802F064FD05B0F0BD0A204F
:1006100002F05EF9E4E7C0460C0000100400001090
:10062000735E000040730000825E00003C01001019
:100630007C030010885E00001A4B73B504001A4951
:10064000186805F0F1FA194B194A1A490090200070
:1006500002F04AFD01F0E8FB002812D001F002FC94
:10066000FA218900060005F0DFFA0500200002F0FB
:1006700089FD114B2A006B4310499B19201802F089
:1006800033FD200002F07EFD0D4B0E4A1B68201842
:10069000002B02D00C4A00DB0C4A0D4902F024FD6D
:1006A00073BDC0467C03001040420F00995E0000FD
:1006B000665E00009D5E000018FCFFFFAA5E000061
:1006C00078030010935E0000965E0000DB7300006C
:1006D000B55E000070B50D0006001400002001F0AA
:1006E000E9F801F0D1F8310028000022054B01F0B3
:1006F000E5F909220121044B200001F0DFF901F0A6
:10070000DFF870BD407300002873000007B5144A7D
:1007100014490120FFF7DEFF642002F0D9F872B619
:100720000021114B114A19600123136011601360FD
:1007300011681942FCD00E4A6846136080230D4AA6
:100740005B0211680B43136080230B4A11680B4353
:100750001360392301A90093084B984707BDC04691
:10076000BD5E0000CC5E00007080044074800440D8
:10077000788004408080044038820440F11FFF1FCD
:1007800000B5084B084A89B01B78684612780749BB
:1007900002F0AAFC69460120054AFFF79BFF09B059
:1007A00000BDC046010000106B030010DF5E0000BA
:1007B000ED5E0000F0B52C4C2C4D237885B00193F4
:1007C0002F780026FFF7DCFFFFF790FE02A803A9B1
:1007D000FFF702FE0298002815D0C0B201F08CF994
:1007E000492805D83F281ED830282CD0392835D0A4
:1007F00001F036F8FFF7C4FF029E002E03D0C82098
:1008000002F066F80026032104200136FFF784FD7C
:100810001E2EDBD1019B2F70237001F021F8FFF712
:1008200065FE05B0F0BD40380928E1D805F04AF969
:1008300005F2E0E0E0E0F7E0E0102B783E2BD7D8BF
:1008400001332B70D4E72B78002BD1D0013BF8E794
:100850002378062BCCD801332370C9E72378002BEB
:10086000C6D0013BF8E7C046010000106B03001042
:1008700010B590B06846FFF7DFFE002001F01AF8CF
:1008800001F002F80122084C11002300684601F033
:1008900015F9230009220121044801F00FF901F0A4
:1008A0000FF810B010BDC04628730000015F0000B3
:1008B00000B52B228DB0002800D1023268460D49C8
:1008C00002F012FC04A802F045FE6946012004AAC9
:1008D000FFF700FF03200021FFF71EFD0220FFF7B6
:1008E000F9FD0028EED000210A20FFF715FD0DB01C
:1008F00000BDC0461B5F0000F8B5040016000D00E7
:10090000002702F027FE2100E7741431681C02F072
:1009100041FC380000F0CEFF00F0B6FF3A000421A1
:1009200020000A4B01F0CAF8094C092223000421D7
:10093000280001F0C3F8BE4205D023000922782127
:10094000044801F0BBF800F0BBFFF8BD40730000A5
:10095000287300001474000030B58DB0134902A84C
:1009600002F018FC2E24002202A904A8FFF7C4FFFD
:100970000025FFF7BBFDFF34002202A904A8FFF702
:10098000BBFF0321002001F071FF684601A901951A
:100990000095FFF721FD009B002B02D1013C002CAC
:1009A000EAD1FFF7A3FD0DB030BDC046F48A0000C8
:1009B000F0B5002491B020009626039400F07AFF51
:1009C000FFF794FD0223270000940193760000F0C6
:1009D0005BFF009B002B00D0ABE008AD280002F0CD
:1009E000B9FD009BEB742B746B73AB72EB712B71C5
:1009F000002C01D1012F05D10022042128008F4BAA
:100A000001F05CF88D4D00222B001E218C4801F076
:100A100055F8012C01D1012F07D11D202B0002AD6B
:100A200000222521401901F049F8844D00222B00B5
:100A30003321834801F042F8022C6FD1012F6DD091
:100A4000232002AD00224D217C4B401901F036F8E5
:100A50007A4D00222B0059217A4801F02FF8042CFE
:100A600001D1012F07D126202B0002AD00225F21EA
:100A7000401901F023F8714D00222B006C217148C0
:100A800001F01CF8052C01D1012F07D129202B00E2
:100A900002AD00227221401901F010F80922042150
:100AA000694B0DA801F00AF800F00AFF039B002B28
:100AB00007D0143B012B41D8052C3FD0962001F0E4
:100AC00007FF03210800FFF727FC002001F098F83A
:100AD0000023050004A903A804930393FFF77CFCFB
:100AE000039B002B00D199E006AE05AD3100280034
:100AF00007AA02F063FD0090002828D1280002F028
:100B000043FE070003981238052800D97EE004F060
:100B1000E3FF217D56237D181E0058E72B0000229D
:100B20003A210AA800F0CAFF032C89D1012F8FD1E6
:100B300086E700220421414B4448B3E7FFF7D6FC87
:100B4000BFE7601C062105F055F900270C0096262A
:100B5000760067E0601DF5E7601E042804D804F005
:100B6000BBFF0D141D2647002B88013300242B806A
:100B7000280002F009FE0523070016E00C21A878E2
:100B800005F04EF80131A970F2E70137290038006D
:100B900002F02CFE0523022401932BE03078013073
:100BA000182105F027F904233170019322E07078B1
:100BB00001303C2105F01EF903237170F5E7601E3A
:100BC000042804D804F088FF060C0E1114002B88AA
:100BD000013BCBE7A8780C210A3005F00BF9D1E7EF
:100BE000013FD3E730781730DAE770783B30E0E741
:100BF0000023B3700721380005F0FCF80A000791C4
:100C0000052C05D13100280002F030FD01279EE7B8
:100C100031002800019B02F0E9FCF7E7002D01D12B
:100C200001235F40039B842B05D0182B03D0731E38
:100C3000002E00D070E711B0F0BDC0464073000038
:100C4000245F0000625F000028730000265F000040
:100C500010B5002802D1FFF759FD10BD002000F0AB
:100C600029FE00F011FE01220A4C0121230052420C
:100C7000094800F023FF230007220121074800F064
:100C80001DFF00F01DFE7820FFF735FC8428E4D11D
:100C9000E1E7C04630730000345F0000465F0000AB
:100CA00070B504000D0000F0BAFD262C13DC002006
:100CB000102C1BDD20001138152810D804F00CFF73
:100CC000110F21632B33420F250F0F0F0F0F0F0F43
:100CD0001A360F0F0F39442C48D0452C4DD0002028
:100CE00004E02B4B1B68002B01D1012070BDFFF7E6
:100CF00033FEFAE7264B1B68002BF6D0FFF758FEB1
:100D0000F3E70120FFF71CFCEFE70120214B1B68F4
:100D1000C01A01F0DDF90120FFF7AAFDFFF7E6FB9D
:100D2000FFF7A4FBE1E7FFF745FDDEE704F0F2FA89
:100D3000DBE70022184B1A70184B05321A7000F0CE
:100D40008FFDD2E704F0F0FA154B002806D01968A1
:100D50000322022900DD00221A60C6E71A68511C2E
:100D6000062A01D01960C0E71860BEE70D4802F0FE
:100D700097FC0020FFF79CFDB7E7E120000102F09F
:100D80008FFC0120F6E72800FFF762FFADE7C046C1
:100D9000780300100C0000106B030010010000101D
:100DA00070000010F0F1FFFFF8B5012706000C00FD
:100DB000002000F07FFD00F067FD0B4D7F422B000F
:100DC0003A000121094800F079FE2B003A0030007A
:100DD0002A2100F073FE2B0007220121200000F0E1
:100DE0006DFE00F06DFDF8BD307300005D5F00002A
:100DF000030010B503480449002B00D09968FFF7A1
:100E0000D3FF10BDDB730000645F0000F0B5002766
:100E100087B000F004FD2A4D2A492800FFF7C4FFDF
:100E20003C00FFF763FB0C260321062001F01EFDAA
:100E3000684601A9FFF7D0FA0098002804D10137CD
:100E4000772FF1DD07B0F0BDC0B200F055FE020013
:100E5000462808D0002C0AD00023E356834206D14E
:100E600000202056EEE7002CFAD10027DCE7352AD7
:100E700001D0412A21D114481449FFF795FFFFF70B
:100E800035FB0020DEE7934206D124182000FFF74F
:100E9000AFFFFFF72BFBE8E7013130004843235653
:100EA000002BF0DCF1D00A4902A802F01DF928005D
:100EB0000849FFF779FF0024EBE70021064CECE737
:100EC000DB730000645F0000835F0000705F000060
:100ED000855F00008C5F0000C8600000F0B585B041
:100EE00002F0CEFAF82700211820FFF7DDFA0024DF
:100EF000644EFF00FFF7CEFA0023634DEB51200054
:100F000002F0E0FA002C54D00121002001F0AEFCE8
:100F1000200002F0D1FA03A90300019002A8002BDF
:100F20004AD0FFF777FA01230193002C11D002F089
:100F3000C8FA029B182B02D0019B002BDAD00020AC
:100F400000F0B8FC00F0D2FC5048FFF7EDFA0123A6
:100F5000EB6602F0FFF9029E182E0DD1002C64D032
:100F6000039BD8B200F0C8FD0121FFF799FEE851BC
:100F7000002801D000230393FFF754FA0399029845
:100F800003F070FEEB59002B01D0FFF7AFFA943558
:100F90002B685C425C41002B65D100F029FC3C4B86
:100FA0001A78002A03D000221A70FFF79FFA354EF4
:100FB000A0E703210620A9E7FFF72CFA029B002BEC
:100FC000B3D1002C9BD1334B1B68002B97D12B0046
:100FD00098331B68002B1CD12F4B0024F6188ED59C
:100FE0002E4B1B78002B0BD02D4802F01DF96420EE
:100FF00001F06EFC2B4802F017F9642001F068FC48
:1010000000F0F6FB2B000022943302241D4E1A60E0
:1010100075E7254A13681133136003F093FD029BB3
:1010200001330293102BF8DDD6E704F01BFD0028F6
:10103000A2D004F01FFD30002100FFF735FAFFF7C2
:10104000E5FE0394061E97D02100FFF729FE002835
:1010500092D1F0B200F06CFD0390482E8CD00122AA
:10106000124B1A7088E700F013FF002000F022FCFA
:1010700000F00AFC012004F0B3FC04F069FC00F06D
:101080001FFC8CE720BF02009C050010AB5F000036
:1010900048010010980400100CFEFFFF58010010DA
:1010A000975F0000A15F0000F8040010B80D001069
:1010B00073B54A4C4A4B22684A4D9A4202D1256088
:1010C00001F0A6F82368AB4201D100232360072674
:1010D00002F09AF800F054FD0021434801F01CFA98
:1010E00001250021414801F017FA00F029FE00F027
:1010F000CDFF00223E4C100023680B21B343236038
:1011000023682B43236001F099F92000394C10210A
:1011100001F002FA23680022B34323602368280009
:101120002360042101F08AF90021200001F0F4F984
:1011300001F06EF99620000201F0E2FD01232E4D30
:101140005B4200202B60FFF793FB002350242B60B1
:101150000120FFF77FF800F099FF02F05BF92B68A0
:10116000002B05D16420043C01F0B2FB142CEFD11C
:101170000020FFF77DFB2821204802F09FFB142070
:1011800001F0A6FB1D48282102F098FB1C4801F045
:10119000A0FF192001F09CFB01F04CFE002819D0A3
:1011A0000020FFF7CDF90821164801F0B5F902F04B
:1011B000E4FB03F047FB0A23019314330022124996
:1011C00012480093124B03F057FB124803F088FBC0
:1011D000FFF784FE013C002CDBD1E4E7080000109F
:1011E000BE153E37E45BE173984004409C400440E8
:1011F000744004409440044078030010DE03000073
:10120000B55F000010400440D9030000055A0000FB
:10121000F8040010B4040010F7B5031E019137D094
:101220000278303A504242419B181A78782A13D1FA
:101230001026012501331A7800242D2A01D101330B
:10124000013400221878002809D1002C00D0524225
:10125000019B01201A601BE00A260025EBE707002E
:10126000303FF9B2092903D87243BA180133E9E7CC
:1012700020210843002D07D00700613F052F03D828
:10128000120157380243F1E7024801F022FF002023
:10129000FEBDC046886100000378202B00D0704757
:1012A0000130F9E703003038C2B2092A08D92020FA
:1012B00018430300613B5738052B01D901204042F8
:1012C000704770B50E00FFF7E7FF00250400207897
:1012D000002802D13560200070BDFFF7E3FF002831
:1012E000F8DB2D0105430134F1E7000010B500F0F3
:1012F000B9FD0100014801F0ECFE10BD966100004F
:1013000000B589B0684602F025F96946024801F047
:10131000E0FE09B000BDC046D5610000F7B50E0083
:1013200001A91500FFF778FF002814D0019F0B4991
:10133000380004F05FFD0C006421200004F05AFD29
:1013400020003170642104F06FFC044928703800DB
:1013500004F06AFCFEBD01204042FBE710270000BC
:1013600013B50C006B4660689A1DD91DFFF7D6FFB8
:101370006B4698805A1C991CA068FFF7CFFF6B46FC
:101380006A4618709288044B9A4203D9694601A8AC
:1013900002F06CF913BDC0466B0700000B0007B5E7
:1013A000586801A9FFF738FF3C20019B584302F021
:1013B00077F907BD07235843074B9C30C018831D9E
:1013C0000138834201D1012070471A78013B002A7D
:1013D000F7D00020F8E7C0469C0500107FB51948FB
:1013E00001F077FE00240326651C34421DD1200045
:1013F000FFF7E0FF002814D02800FFF7DBFF0028EC
:101400000FD0A01CFFF7D6FF00280AD0E01CFFF782
:10141000D1FF002805D00434FF2CE5DD01F01EFFCC
:101420007FBD2100084801F054FE2100684602F00B
:10143000B5FA684601F002FF044801F04AFE2C00AC
:10144000EAE7C046665E0000A2610000F38A000081
:1014500070B50D00FFF720FF060004000D350E36B5
:1014600020780134FFF71EFF002807DB2870013DBC
:10147000B442F5D12000FFF70FFF70BD0020FCE75C
:1014800070B53F4C86B02368002B07D13D4801F072
:1014900020FE03F0D7F9012323602DE00868012B1B
:1014A0000FD10422384901F07CFE002802D12368C4
:1014B0000133F1E7354801F00CFE03F0C3F934497C
:1014C0003FE00378412B19D132490230FFF7C0FFCA
:1014D0000028F2D00378422BEFD12F490230FFF7DA
:1014E000B7FF0028E9D00378432BE6D12B4902301F
:1014F000FFF7AEFF0028E0D006B070BD532B02D13D
:1015000027490230F4E74D2B20D126490230FFF75E
:101510009FFF0028D1D003784E2BCED12249023034
:10152000FFF796FF0028C8D00378472BC5D10230BB
:1015300001A9FFF7C6FE019B002BBEDB154A1B4924
:1015400053651B4801F0C5FD0023A5E701A9FFF77E
:10155000B8FE2023057806009D43AED1300002A9D5
:10156000FFF776FF019B0600E918FF2902DC02A8BD
:1015700002F02AFA002EA0D00135042DEED1BBE7EF
:1015800090040010AB610000665E0000C1610000C5
:10159000DA6100009C050010AA050010B8050010D3
:1015A000E2050010C6050010D4050010CD61000052
:1015B000D061000037B54C682378002B00D137BDCF
:1015C0002000FFF769FE01A9FFF77BFE019B0400E5
:1015D000002BF4D0D8B2FF2B13DD00F0A9FA019B49
:1015E00005001812C0B200F0A3FA0190019800287B
:1015F00002D02900FEF758FF23785A1E9341E418C1
:10160000DAE700F095FA00250190EFE70123064A9A
:1016100010B511784B401370044900D104490548B6
:1016200001F057FD10BDC04659010010B25F000027
:10163000E1610000E56100000123064A10B5117860
:101640004B401370044900D10449054801F041FDA5
:1016500010BDC04658010010B25F0000E1610000FB
:10166000F46100000B0007B5586801A9FFF7D4FD2D
:10167000019B002B0CDC012301939623019A9B0014
:101680005343054A01990548136001F022FD07BD47
:101690001E2BF2DD1E23EFE73C0100100462000068
:1016A00010B50C4A1378013BDBB21370002B0AD043
:1016B000012B05D10849094A094801F00AFD10BD6E
:1016C0000849094AF8E7094801F003FDFFF71EF849
:1016D000F5E7C046000000102C620000DB7300003C
:1016E00030620000286200004D7600005462000065
:1016F00070B50400002C00D170BD642500210220CB
:10170000013D00F0BDFE002DF8D1013CF2E70000E4
:10171000F0B580250F4B6D001A6804262A431A6025
:1017200008220D4F0D491C683C401C6044B2002C3F
:101730000CDA0C6834430C601C68013A2C434000FE
:10174000D2B21C60C0B2002AEDD1F0BD0C68B44327
:10175000F1E7C046FC3F0150FFFEFFFFFC3F005099
:101760000121044A10B513688B431360FFF7D0FFC3
:1017700010BDC046FC3F0250F0B583B072B60123E5
:10178000843001270600194D0193B0202B683400E6
:10179000BB432B60019B843C1843FFF7B9FF2B68C8
:1017A0000020BB432B60FFF7B3FF2B681020BB4327
:1017B0002B60FFF7ADFF2B68E020BB432B60FFF7EA
:1017C000A7FF2B683B432B6020780134FFF7A0FF75
:1017D000B442F6D1019B84342600002B02D162B6BC
:1017E00003B0F0BD00230193CFE7C046FC3F025099
:1017F00010B5AC20FFF7B4FFAE20FFF7B1FFA52076
:10180000FFF7AEFF10BD70B50D000400012200F01F
:1018100015FE29000122200000F05CFE70BD10B50D
:10182000AF20FFF79DFFA420FFF79AFF10BD10B572
:10183000AE20FFF795FF10BD10B50400F820FFF7AC
:101840008FFF2000FFF78CFF10BD10B50400812032
:10185000FFF786FF3F202040FFF782FF10BD00000A
:10186000202010B5064B1B781843FFF779FF0A209C
:10187000FFF73EFF034B1878FFF7E7FF10BDC046A8
:10188000010000106B030010842210B5064B0748BE
:1018900019785200002903D0054901F030FC10BD31
:1018A00001F04EFCFBE7C0466C0300106202001022
:1018B0005A010010014B18707047C0466C030010AD
:1018C000002310B5074AD356002B07D0013B59B26D
:1018D0001B0601D4117010BD002313700248FFF7DE
:1018E0004BFFF8E76A0300106202001010B50821F0
:1018F0000120FFF788FF02210020FFF784FF00216D
:101900000220FFF780FF06210220FFF77CFF032162
:101910000800FFF778FF03210022080000F0DAFD3D
:1019200000220621022000F0D5FD0122062102201E
:1019300000F0D0FDFFF7A8FFFFF7C2FFA220FFF7DE
:101940000FFFA020FFF70CFFC020FFF709FF0020CA
:10195000FFF772FF0A20FFF7CBFE4020FFF700FFE2
:101960002C20FFF7FDFE3220FFF7C2FE2E20FFF7EE
:10197000F7FE3220FFF7BCFE2F20FFF7F1FE0A2012
:10198000FFF7B6FEFFF76CFFFFF749FF10BD000041
:10199000030083280DD80F290BD88420CA08504390
:1019A000C0180723194079330B41024A115C0B43DD
:1019B0001354704762020010F0B5072580265B18AB
:1019C00085B0DBB2104F029003920193019B9942C4
:1019D00001D305B0F0BD8422CB085343029A3000F6
:1019E0009B180A002A401041039AC0B29446DA19A3
:1019F0009C44634502DB0131C9B2E7E71478013347
:101A0000044314700132F4E762020010F0B587B0AD
:101A100005921E00DB78834203D23778380007B086
:101A2000F0BDB4787268244B041B00209A4216D192
:101A300003231F005C43A418E318CDB20393EB19F2
:101A4000DBB2049300230193049BAB42E6D008234E
:101A500002930023009327E00233D2180130137859
:101A6000A042F9DB5778941CE6E7029B082B07D1CC
:101A7000039B9C42D2D0237801340193002302932C
:101A80000122019B134206D0059B009A2800991859
:101A9000C9B2FFF77DFF019B5B100193009B0133EF
:101AA0000093029B013302937378009A9342DCDC2B
:101AB0000135EDB2C8E7C0466F620000F7B505001A
:101AC0001F000C00160001F05DFB2B180193019B19
:101AD0009D4201D0832C01D92000FEBD3B00210096
:101AE00028783200FFF792FF024B01351B68C018BF
:101AF0002418ECE70400001000210122042330B573
:101B00000A4C0D5D854203D118011043C0B230BDAF
:101B1000013B002B04D101320433092A00DD0022ED
:101B200001312829EDD10020F1E7C04652730000B1
:101B30003C2310B5040980001840011F00D528314E
:101B4000621E0020032A06D8242904DC0423024A4A
:101B50001B1B5218D05C10BD5273000070B50500FD
:101B60000024054B2900E05C044B0134C01800F050
:101B7000D3FC0A2CF5D170BD48730000004004402E
:101B8000F7B50E4E3468002C16D11020FFF7E6FF93
:101B90000B4D2B786F781800002239000193013427
:101BA00000F04CFC01223900019800F093FC023552
:101BB0000A2CEED101233360F7BDC046700300103C
:101BC00082730000F8B500250B4C26786778012257
:101BD0003900300000F032FC0135002239003000BD
:101BE00000F078FC02340A2DEFD10020FFF7B6FF99
:101BF0000022024B1A60F8BD8273000070030010CF
:101C000070B50500FFF7BCFF002D09D001220721A8
:101C1000022000F013FC80210F4A13688B431360ED
:101C20000B21002000F02CFC0124002805D00B2102
:101C3000002000F025FC44424441002D09D0002240
:101C40000721022000F0FAFB8023034A11680B43AE
:101C50001360200070BDC046FC3F02500023F0B569
:101C60008BB00690012009930791FFF7C9FF04008C
:101C7000031E01D018230124089300232C4E019346
:101C80003778757801222900380000F0D7FB002250
:101C90002900380000F01EFC264B0293019B043300
:101CA0000593022C1CD0029B9B790393029B039803
:101CB000DB791900049300F0E3FB00282AD1019995
:101CC0001D4AA3008A5C08A95A500134019B0133C4
:101CD0000193029B019A023B0293059B9342E0D140
:101CE00000222900380000F0A9FB01222900380059
:101CF00000F0F0FB114B0236B342C1D1002C06D0EC
:101D00000124069B089A1A60079B099A1A60200012
:101D10000BB0F0BD0499039800F0B2FB0028CED0C0
:101D20000499039800F0ACFB0028C8D0CEE7C04669
:101D3000827300007A7300005273000096730000F3
:101D4000012210B510000B2100F078FB00220B21BE
:101D5000012000F0BFFB01220221032000F06EFBF6
:101D600000220221032000F0B5FB10BD37B5102181
:101D7000244A0500136801208B4313608023224A04
:101D80009B011168214C0B4313600B21002200F0D2
:101D900055FB00220B21012000F09CFB9F211C4BD6
:101DA0001A688A431A601A681A491A601A4B186826
:101DB00003F03AFF03028020184320602A0003202A
:101DC000022100F087FB0A20002D00D0012000F046
:101DD0007FFDFF2223689343236022680F4B134348
:101DE0000F4A236013680193019B002BFADA2368E2
:101DF0000C4A13402360FFF7A3FF01980004800DF5
:101E00003EBDC046388204408080044000C001408E
:101E10009840044000093D007C0300108000000150
:101E20002CC00140FFFFFFF810B50D4C20680028C2
:101E300014DA00202060FFF799FF0A280BDC01204C
:101E4000FFF794FFE0234138FF385B00984202D847
:101E5000C03BFF3B2360FFF773FF206810BDC04607
:101E60000800001010B5FFF7DFFF002801D10020A7
:101E700010BD0020FFF77AFF0120FFF777FF011E5A
:101E8000F5D0024803F0D0FEF2E7C0462D4713001C
:101E900010B5FFF7C9FF002809D0FFF7E3FF0021C5
:101EA0000300034AC00F9A424841024B186010BD1C
:101EB00034080000740300100222074B10B51A60AA
:101EC000064BA0321960064B1A70013258709A7096
:101ED00000F0F0FD10BDC046E0040010CC0400107E
:101EE000B80400100022064B023110B51960054BF2
:101EF0001A60054BA2321A70587000F0DBFD10BD5D
:101F0000E0040010CC040010B804001070B5050007
:101F10000E00032431002800FFF7CEFF0223FF3319
:101F2000984202D0013C002CF4D170BD70B5050080
:101F30000E00032431002800FFF7D4FF0223FF33F3
:101F4000984202D0013C002CF4D170BD0A4B10B570
:101F50001B68002B0ED0094CA31CA270140A5C70E5
:101F6000140C120EDA709C70FFF7E0FF831EFF3B2B
:101F70005A425341180010BD78030010B8040010F5
:101F800070B50E4C2468002C15D00D4C160AA270AA
:101F9000E670160C120E6271A371A21D26711C0A46
:101FA00054701C0C1B0E9470D370FFF7BFFF841E7F
:101FB000FF3C63425C41200070BDC04678030010C6
:101FC000B8040010064B10B51B68002B05D0FFF7B6
:101FD0009DFF831EFF3B5A425341180010BDC0466F
:101FE00078030010064B10B51868002807D00721A9
:101FF0000220FFF78BFF0238FF384342584110BDE3
:10200000780300100E4B70B504001868002813D038
:10201000A11E062911D807256D1A072D04D00948DD
:102020002A00091801F06BF82900E0B2FFF77EFFE3
:102030000238FF384342584170BD01204042FBE75F
:1020400078030010BA040010012110B50800FFF752
:102050005DFF0223FF3398420FD10120084B186027
:10206000084B1C78230706D00323074A23400100AE
:102070009370FFF75BFF200010BD01246442FAE774
:1020800078030010D0040010B804001010B5FFF75A
:10209000DBFF01210220FFF739FF0223FF339842C3
:1020A0000FD1084B1B787F2B06D9842207210220F1
:1020B000054B5204FFF764FF04210920034AFFF790
:1020C00045FF10BDD0040010020114008080808004
:1020D00010B5002848D08021254A13688B4313602F
:1020E000012324490A681A42FCD00322224B1A60B9
:1020F00001230021214A1360116013601168194205
:10210000FCD01F4A1F49136080230C685B022343E5
:102110000B60002804D1802315490C6823430B6011
:10212000194B196881421ED01860431E9841174B05
:1021300040421840164B1168C01803F0EBFCFA211E
:10214000144B89001860040003F06EFD1E23C821A3
:102150004343114A20001360490103F065FD0F4B12
:10216000186001F03BF810BD034B1860C0E7C04693
:10217000388204400C800440708004407480044025
:1021800078800440808004400C000010005125023B
:10219000001BB7007C0300108403001080030010B4
:1021A00010B500F03DF9134A002113681B0B1B0307
:1021B0001360114A13681B0B1B0313600F4A13684B
:1021C0001B0B1B0313600E4A13681B0B1B031360CE
:1021D00001220C4B19600C4B1A6019601A601968C7
:1021E0001142FCD02322094B00201A60FFF770FF38
:1021F00010BDC04600800050008001500080025099
:102200000080035040800440448004400880044023
:10221000014B024A1A60FEE70CED00E00400FA05EB
:1022200070B500250B490C4800F053FF0B4E3000F1
:1022300000F04FFF0A4CE26821683300094801357D
:1022400000F047FF14340C2DF5D1074800F041FF92
:1022500070BDC046665E000096730000D973000032
:1022600014750000A8730000B3730000F0B50025DA
:102270003D4F04003B6828008BB0AB425ED03B4B27
:1022800002941B6802A99B68013098473B68002BA9
:1022900002D1374800F01DFF0BB0F0BD01342378A8
:1022A000202BFBD0002B2FD0431C0193800002ABCE
:1022B000C450FF2D06D1019B1800022B45D10025EB
:1022C00026E01C002278002A05D0631C202AF8D1C1
:1022D000002222701C00019B012B2ED10C26234DC5
:1022E000244B2B602B680298196800F06AFF2B685A
:1022F000002821D01433013E2B60002EF2D1310092
:102300003000FFF78DFFC4E70028BFD002281AD1A4
:102310001949039800F055FF00280BD1134C1748BA
:102320002368D96800F0D5FE23681548196900F0C4
:10233000D0FEABE7022006E01D7901982378002B40
:10234000E2D00828ABD18542E8D2084CC0B223685D
:1023500002A99B68984722680A4B92689A4295D0D6
:102360000322094B1A7091E79004001088030010B3
:10237000DC73000014750000975E0000D573000048
:10238000D5610000A11600000000001070B5040027
:10239000154D0D281BD00CD808280CD00A2816D0B3
:1023A0002100124800F095FE2B685A1C2A601C7010
:1023B00018E07F28F4D10E4B2A689A4212D92100E6
:1023C0000A4800F086FE2B68013B2B600AE00023E0
:1023D0002A680848137000F07CFE054C2000FFF7C7
:1023E00045FF2C6070BDC0468C040010E8730000EF
:1023F0008C030010D973000010B500F01BFD0028FD
:1024000000D110BD00F0F4FCFFF7C0FFF5E70000BD
:10241000014B024A1A6070478C0400108C030010B4
:102420004023044A11680B4313600122024B1A70C7
:102430007047C04680800440940400100E4B70B575
:102440001B7804000E001500002B01D1FFF7E8FFF8
:10245000631E022B0AD8094B2004C018012302680E
:10246000B340012D04D11343036070BD0348F5E769
:102470009A430260F9E7C0469404001000800050BF
:102480000F4B70B51B7805000C00002B01D1FFF736
:10249000C7FF0020032D0BD82800012303F01CFBED
:1024A00002090B0D074AA34010681840431E9841CB
:1024B00070BD054AF7E7054AF5E7054AF3E7C04668
:1024C00094040010FC3F0050FC3F0150FC3F0250C0
:1024D000FC3F03500E4B70B51B7804000E00150036
:1024E000002B01D1FFF79CFF631E022B0AD8094B7A
:1024F0002004C01801230268B340012D04D1134306
:10250000036070BD0348F5E79A430260F9E7C046EF
:1025100094040010FC3F0050084B70B51B78040079
:102520000D00002B01D1FFF77BFF18222368934396
:10253000236021680D43256070BDC04694040010DF
:102540003F224021044B1A60044B3E3A1A60044A71
:1025500013688B431360704724800440D880044084
:10256000388204404021044A10B513688B4313603D
:10257000FFF7E6FF10BDC0463882044009490A4A09
:102580000B681A4080235B0013430B600421074A49
:1025900013688B431360064B1A68064B1A6030BFF2
:1025A0007047C04600800340FFF7FFFF10ED00E0DA
:1025B000388204403482044010B500F041FAFFF73D
:1025C00001FB00210948FFF7A7FF00210848FFF79A
:1025D000A3FF00210748FFF79FFF00210648FFF7F0
:1025E0009BFF00210548FFF797FF10BD08400440FE
:1025F00000400440AC400440144004401C400440EF
:1026000010B50120FDF726FE10BD00008022124B00
:1026100010B5DA679218DA678022D200DA67802272
:102620005201DA6780221201DA6780229200DA67AB
:1026300000230121094A49421360094A1160094AED
:102640001360094A1360094A01331360084A136092
:10265000FFF7D6FF10BDC04604E100E0048204404D
:102660000882044004C000403CC0004000C000405C
:1026700000400140064A10B5136801331360054B52
:102680001868FFF725FDFFF7C1FFC046C04610BD23
:102690009C0400100C000010F0B585B00C000190F7
:1026A00072B6FFF789FF554B554D1A68554B1A60A6
:1026B000019B5A1E93413F225B429343524A9B180F
:1026C000524A13600423524A11680B4313600023DB
:1026D0002B60A3071AD04F4A4F4913680B40136071
:1026E00029684E4BA20700D482E0EC2252010A4333
:1026F0002A6080221A6092181A608022D2001A6022
:10270000802252011A60802212011A60019B002B64
:1027100053D00024424B434F434E3C601C60434B1C
:1027200021001C60424B30001C60FFF7F5FE2200C8
:1027300009212000FFF782FE220009212000FFF777
:10274000C9FE80213B4A3C4813680B4313600722B3
:1027500033687639934333603368053A1343336003
:10276000019B584303F0D6F90322344B34491860D7
:10277000344B1C60344B1A60344B1A680A40802179
:102780001A601A680A431A608023244A21499B0070
:1027900013600A681A430A602A68022113432B60F7
:1027A00001232B4A13602B4A11602B4A13601460DB
:1027B000136011681942FCD03B6001220021274BB5
:1027C00052421A60264A13680393264B196062B678
:1027D00030BFC04603991268914207D101221A60A6
:1027E000214B1868FFF774FCFFF710FF05B0F0BD30
:1027F000802212010A432A6085E7C04638820440DD
:102800000482044034820440FF18000030820440F7
:1028100010ED00E0008204407FE2FFFF00E100E0F5
:102820000400014004C000406440044004400140F2
:102830000480014080800440841E000018C00040D5
:102840000FF0FFFF08C0004014C000403CC0004033
:102850007880044070800440748004400882044002
:102860009C040010980400100C00001010B5FFF735
:1028700013FF10BD074B1A68013203D106490A68DD
:1028800001320A601A6801321A60044A136801337F
:1028900013607047AC040010A8040010A4040010DA
:1028A00080235B0498420AD20023054A0138136052
:1028B000044A1060044A13600722044B1A607047F0
:1028C000AC04001014E000E018E000E010E000E0CC
:1028D0000B4A1368002800D10130C143994209D244
:1028E000591C08181168994200D270471168884233
:1028F000FCD8F7E71168C91A8142FBD3F5E7C04657
:10290000AC040010014B18687047C046AC040010BE
:102910000122034B1A60034A1368013313607047A6
:1029200000C00040B00400100122034B1A60034AAB
:10293000136801331360704700000140B4040010B5
:10294000002803D10122044B1A6070470128FCD1F2
:10295000024B1860F9E7C04604C000400400014083
:10296000002802D1044B186070470128FCD10022D6
:10297000024B1A60F8E7C04604C000400400014062
:10298000002805D1044A022311680B4313607047E5
:102990000128FCD1014AF6E704C0004004000140D0
:1029A00010B5002900D11449002810D18023134A02
:1029B0001468234313600322114B1860114B1960F4
:1029C000114B1A608022114B52021A6010BD01286F
:1029D000FCD18023094A5B00106803431360002286
:1029E0000B4B1A600B4B033219600B4B1A608022A1
:1029F000064B9202E9E7C046FFFF000080800440DA
:102A0000B004001018C0004014C0004000E100E015
:102A1000B40400101800014014000140802210216D
:102A20000820064BD2051160186080235B011068F6
:102A3000084202D0013B002BF9D17047180000403A
:102A40008022164B120210B5DA676C22144B15481F
:102A50001A60154B1968014019601A6804211A6040
:102A6000124B1A6802401A601A6800201A6001228C
:102A7000FFF7E4FC012204210020FFF72BFD0122D7
:102A800005210020FFF7DAFC012205210020FFF7D5
:102A900021FD0022064B1A6010BDC04604E100E093
:102AA00018000040F8FCFFFF304004403440044070
:102AB00004800440F8B50023164A174C20212360F7
:102AC0001360164A13608022D2051160144A2168EF
:102AD000012907D0934203D1FFF7A0FF0020F8BDE2
:102AE0000133F4E79342F7D000250E4F3E68013ED4
:102AF0002368FF2B01D92068F1E73B68B34204D07B
:102B00003E68FFF7FFFE0A300500FFF7FBFEA84214
:102B1000EED1E1E7E4040010C8040010E80400105E
:102B2000FF0F0000EC0400100122034B1A60034A5F
:102B3000136801331360704700400140F80400102F
:102B400070B50124164B174A1C6013681B191360DB
:102B5000154B1A68002A13D01A68144D013A1A60EE
:102B60001E68002E0DD0210020002A68FFF7B2FC5D
:102B70002B680221E31A2B6020002A68FFF7AAFCC9
:102B800070BD1B6821002B6020002A68FFF7A2FCA3
:102B9000022120002A68FFF79DFC054B1E60EFE72D
:102BA00000800140FC040010F0040010F404001048
:102BB00004800140002803D10122044B1A607047B1
:102BC0000128FCD1024B1860F9E7C04604400140DF
:102BD00004800140002802D1044B1860704701288E
:102BE000FCD10022024B1A60F8E7C04604400140C5
:102BF00004800140002805D1044A022311680B43D8
:102C0000136070470128FCD1014AF6E704400140F7
:102C10000480014010B5002811D18023124A9B0086
:102C20001468234313600322104B1860104B196083
:102C3000104B1A608022104BD2021A6010BD01287E
:102C4000FCD18023084ADB00106803431360002294
:102C50000A4B1A600A4B033219600A4B1A60802231
:102C6000054B1203E9E7C04680800440F8040010D9
:102C7000184001401440014000E100E0FC04001055
:102C800018800140148001400E22174B10B51B68BC
:102C90001340062B12D1154B90321B68134205D0FE
:102CA000134ADBB25360134B1B6810BDDB07FCD526
:102CB000104B1868C0B200F0ACF8F6E7042BF7D060
:102CC0000C2B05D10A4AF43351680B435360ECE7EF
:102CD000022BEAD1054B1A68054B920602D5002259
:102CE0009A60E2E70122FBE7088000401480004080
:102CF00000050010008000400048704700050010EB
:102D0000F7B58022002107252A4B2B4C92030700A0
:102D100001912000DA67902200F012FA019B274E01
:102D2000A360274B1A68AA431A600122196811434D
:102D30001960244B1968A943196019681143196077
:102D4000802321495B01086803430B601F4B1A6015
:102D5000823232601E4A126819681E4B186850434E
:102D600002F0D8FE3900000902F0D4FE10221A4BFE
:102D70001A491A60030A0B600323194FC0B2386066
:102D800060203360174B1D60174B1A6801921A6858
:102D90000240602AFBD15F3A1868104207D12270C6
:102DA0008022124B92031A6005230B60F7BD38682E
:102DB0000190F1E704E100E0000500100C80004004
:102DC000A4400440A840044080800440988004400F
:102DD000788004407C03001028800040048000407C
:102DE00000800040088000401480004000E100E0C6
:102DF00010B5FFF781FF0200837BC318D87B937B5C
:102E00000133DBB293735BB2002B01DA00239373BF
:102E100010BD10B50400FFF76FFF437BC318DC73D0
:102E2000437B0133DBB243735BB2002B01DA002337
:102E3000437310BD10B5FFF75FFF0300807B5B7B22
:102E4000C01A431E9841C0B210BD70B504001D00E9
:102E500000202E5C2318002E09D1121AD518EC1A66
:102E6000002C07DCD343DB171A40101870BD265422
:102E70000130EEE719700133F1E7F8B5541E0F0089
:102E80001E00050023000100092E16D90A2130007A
:102E900002F040FE2200030039002800FFF7EDFF9A
:102EA00004002D1830000A2102F0BAFE30312970DA
:102EB000601CF8BD0F70013B0131002BFADC0020D3
:102EC000824200DD20002D18002A00DC0122541E61
:102ED000E8E7F7B50E00D9175F18040001934F40DB
:102EE000551E092F17D90A21380002F013FE019A46
:102EF0000300002A00DA43422A0020003100FFF7D5
:102F0000E8FF0500241838000A2102F089FE30315C
:102F1000681C2170FEBD019B002B00DA951E23006A
:102F20006119CA1A002A0CDCE843019AC01705404F
:102F300064196B1C002AE6DA2D221D002270013470
:102F4000E1E71E700133ECE7F7B51E00089B1400A3
:102F5000013A1F0905001300002F11D0330000971C
:102F6000FFF7F2FF2D180F23089F1F40FAB2092F19
:102F700012D830322A700130FEBD0170013B0130A1
:102F8000002BFADC0020844200DD10002D18201EEA
:102F900000DC01200138E6E7002E01D03732E9E7F6
:102FA0005732E7E7F0B505000F001C0085B0002898
:102FB00001D00023037000261378002B00D16DE0B0
:102FC000B74204D80023013D2B70013E32E0252B8F
:102FD00004D001322B7001360135EDE751782529F7
:102FE00002D129700232F6E7931C0393302902D0F4
:102FF0002021531C0393039B1B782D3B5A425341C2
:10300000039AD31800220393039B1B7818003038CF
:10301000092812D99019B84201D9BA1BD2B2692B2A
:103020001FD013D8632B35D0642B1AD0582B2DD03A
:1030300001267642300005B0F0BD0A2042439A18BE
:10304000039B303A0133D2B20393DDE7752B11D0E5
:10305000782B14D0732BEBD1280008CCFFF7F5FEAA
:1030600003E0280008CCFFF734FF039A2D18013243
:103070003618A1E7280008CCFFF7FFFEF5E708CCDB
:10308000009300232800FFF75FFFEEE708CC0093D2
:103090000123F7E708CC01202B70E6E7B74200D800
:1030A00090E72B70C6E710B513000A006421FFF704
:1030B00079FF10BD00B59BB00A00010001A8FFF721
:1030C000F2FF632800DDFEE701A800F0ADF81BB0B9
:1030D00000BD0FB407B504A901C90191FFF7EAFFCC
:1030E00003B008BC04B018470EB403B503AA02CA63
:1030F0000192FFF7D8FF02B008BC03B0184770B5C3
:1031000006000E430325340003002C402E420FD14D
:10311000AA420DD90B5903510434131B032BF9D8C0
:103120000324131F9B0801339B00C9182240C318B6
:103130000024A24200D170BD0D5D1D550134F8E799
:1031400070B5830704D003009A189A4217D170BD56
:103150000300032AF8D90C040B0623430B430C028B
:1031600023430400861808C4351B032DFBD8032411
:10317000131F9B0801339B00C3182240E4E719701A
:103180000133E2E7030000201A5C002A00D17047F7
:103190000130F9E70023CA5CC2540133002AFAD196
:1031A000704770B5002304009A4201D1002007E067
:1031B000E55CCE5CA81BB54202D10133002DF3D1F2
:1031C00070BD0200002310B5D05CCC5CA04201D0E1
:1031D000001B02E001330028F6D110BDFA21094B93
:1031E00010B51868890002F01FFDFFF759FB962003
:1031F0000002FFF785FD0120FDF72CF8FEF746FFE2
:1032000010BDC0467C03001010B5FEF7C9FFFFF7E4
:1032100007F9FFF7A7F9FEF769FBFEF735FBFFF7A4
:10322000DDFFFFF7F5F810BD10B504002078002889
:1032300000D110BD0134FDF763F8F7E770B5050064
:10324000441E0D35A54200D170BD29780248FFF714
:1032500040FF013DF6E7C046895F000070B51748A2
:10326000FFF737FF164D2800FFF7E8FF154C422106
:103270002000FFF72EFF1448FFF7E0FF4321200056
:10328000FFF727FF1148FFF7D9FF1148FFF721FF8C
:103290001048FFF7D3FF1048FFF71BFF0F48FFF759
:1032A000CDFF4E212000FFF714FF0D48FFF7C6FFAA
:1032B000696D0C48FFF70DFF70BDC0460476000035
:1032C0009C0500100A760000AA050010B805001041
:1032D00011760000E205001017760000C605001008
:1032E000D40500101D7600000A23021153430F225B
:1032F00010401818704770B50A21050002F094FCC0
:103300000A210401280002F075FD2000084370BD69
:10331000C12210B5520002210E20FEF717FE012235
:10332000014B5A7110BDC0469205001010B5084CF3
:103330006379002B01D1FFF7EBFFA27923795200CB
:1033400001211A430C2308001A43FEF7FFFD10BDAC
:103350009205001010B5074C2379002B08D1637932
:10336000002B01D1FFF7D4FF01232371FFF7DEFF0C
:1033700010BDC0469205001010B5054B1A79002A01
:1033800005D000221A711A72DA70FFF7CFFF10BD54
:103390009205001010B501210220FEF713FE064B26
:1033A000040018787F231840FFF79EFF034B5870E6
:1033B000DC71200010BDC046D00400109205001042
:1033C0000122014B9A707047920500100022024BB7
:1033D0009A701A727047C0469205001010B5FFF738
:1033E000D9FF094B09499A78002A03D01A7A012A91
:1033F00002D801321A7202E00868054A1060002201
:10340000DA700A6010BDC04692050010A4040010D6
:10341000A004001010B5FEF717FE0C2203001340A5
:10342000104203D0024A11780B43137010BDC046FE
:103430009205001010B5FFF7EDFF044C23785B07F1
:1034400001D5FFF7CBFF0023237010BD92050010BC
:1034500010B50020FEF7D4FB002801D0FFF7EAFFEB
:1034600010BD0000002310B5044CE371FFF7F0FF1E
:10347000E379002B01D1FFF78DFF10BD92050010FD
:1034800010B50921084802F0BBFCFA22074BD20014
:103490001A80FFF7E7FF0022054B1A60FA22054B5E
:1034A00092001A6010BDC0469205001090050010F1
:1034B000A4040010A004001010B5FFF7C9FF0020FD
:1034C00010BD704710B5FFF757FF10BD70B51D4C0C
:1034D0000D0061782378A27809021943E378120479
:1034E00011431B06184A0B4313401A0A23706270DB
:1034F0001A0C1B0EE37063792179A2701B02134A28
:103500000B43134023711B0A06006371A079FFF778
:10351000EBFE0F4B1B881B1833806079FFF7E4FE2E
:10352000B070E078FFF7E0FEF070A078FFF7DCFE07
:1035300028706078FFF7D8FE68702078FFF7D4FE17
:10354000A87070BDD00400107F7F3F3F071F0000B0
:1035500090050010F0B58DB00400FEF743FD002883
:1035600005D120001249FFF7BFFD0DB0F0BD0AAE36
:103570000BAD29003000FFF7A9FF33880793F378DC
:10358000B77808932B7809930A4B6E781879AD7841
:1035900000F0D2F8099B04900193089B200000934F
:1035A000079A3B00044903950296FFF79DFDDCE76F
:1035B00029760000D00400102E76000070B50500BA
:1035C0000E001400FEF70EFD00280AD0280031007E
:1035D000FFF77CFF201E03D00020034B1B792360E4
:1035E00070BD01204042FBE7D0040010F7B504880D
:1035F0000E000500642120000092019302F010FBF0
:10360000114B8FB2E41B1C80B078FFF774FE0F4C97
:10361000A0707078FFF76FFEE0703078FFF76BFEF8
:103620002071E878FFF767FE009B6071A371A878AE
:10363000FFF761FEE0713800FFF75DFE2072019830
:10364000FEF7E0FCFEBDC04690050010B804001077
:1036500010B50223FFF7CAFF10BD431E984110B5F5
:10366000420101210020FEF771FC10BD70B504007D
:1036700001200D00FFF7F1FF200000F085F8072181
:1036800002F0B8FB20000A002900FFF7E1FF9620B6
:103690004000FFF71DF90020FFF7DFFF70BD0000BD
:1036A00073B50400FFF776FE002801D1002076BD37
:1036B0001D4D6E780A20FFF70BF9FFF76BFE00280F
:1036C000F4D06B78B342F5D0FEF78CFC0028EDD037
:1036D00001A96846FFF7FAFE684600F055F80500B4
:1036E00001A800F031F8114B04199C420DD90122B8
:1036F000E3171343ED186946280000F077F80C4AE9
:10370000E31713400B4A9B18E418200001A900F0AE
:1037100025F82800072102F06DFB68460A0001A980
:10372000FFF796FFC3E7C046920500107F510100E6
:1037300000A3020080AEFEFF07231840014B80006B
:10374000C05870476C7600003C2302000078517826
:1037500058434018434390781818704770B50C00D0
:103760003C21050002F046FB2800A1703C2102F03C
:103770005BFA3C2102F03EFB6170E1212800090167
:1037800002F052FA207070BD70B5962283780688D8
:10379000050000205201B618010002229A42414160
:1037A000761A022B00D80C30C018992303385843DE
:1037B0006E240521023002F037FA6421FF3474438D
:1037C0000419B01024184942300002F02DFAC82123
:1037D00024184900300002F027FA034B2018EC7837
:1037E000C018001970BDC046D382FFFFF8B5214B49
:1037F000050080000E00C0181F4902F015FA0327CB
:1038000003007B43D8173840C01880101B4B2D187D
:10381000AD00ED1828001A4902F0ECFACC173C4034
:1038200064180237A4107C4302342000992102F06E
:10383000E1FA0800390002F0F7F90130F07099213F
:10384000200002F0F1F90C21023002F0D3FA01312C
:10385000C8B20E21B070081A023902F0E5F9084921
:103860000400280002F0E0F9064BC0182418348048
:10387000F8BDC046652F0400B13A02004F150000A4
:10388000B505000094EDFFFF012210B511001000F6
:10389000FEF720FE012202211000FEF71BFE01218F
:1038A00000220800FEF7CAFD002202210120FEF7D7
:1038B000C5FD0120FFF78EF910BD000070B50D00A9
:1038C000072101240600174B20001A688A431A605A
:1038D0001A6822431A60144B1A688A431A601A68DD
:1038E000210022431A602200FEF7A8FD22000221D7
:1038F0002000FEF7A3FD0D4B3100186802F094F98B
:1039000001002000FFF786F92000FFF773F9084E49
:1039100020003560FFF74EF93368002BFCD1FFF72C
:10392000B3FF70BD7C400440804004407C03001025
:10393000F00400100300F8200A00C00089010140D3
:103940005005800E0143F8200002024011430A2274
:10395000514330B5CC101A191000EB30557800786F
:10396000EA32684012781B5D00021043584007237A
:10397000194008418005800D30BD7047C02301000B
:1039800010B55B01984201DB024BC1180248FFF7FA
:10399000D1FF10BD00F8FFFFA27500000723020051
:1039A00010B50F245943074B9C31C9180E320B78C0
:1039B000234003700B7801311B09437002309042A1
:1039C000F5D110BD9C05001007230200594310B526
:1039D000064B9C31C9180E32437804781B012343EF
:1039E00002300B7001318242F6D110BD9C050010EF
:1039F00070B5B64D1726EB6E86B05A1E93416E44D5
:103A00003370B34BEA58D006400F0138062808D867
:103A100002F062F8443104363C3F42000D2300249A
:103A200004E06B6E16339B005C59230050111F2875
:103A30003BD802F065F835003F00440048004E00D6
:103A4000560059005F006300690078008300900011
:103A50009F00AC00B700C400D100DF00EC00FD0007
:103A6000FB000A011101160123012E013301370168
:103A70003D01410145016B6E16339B00EB58CEE7CB
:103A8000AC6DEB6D9C42D1DD0D23CFE702231C0012
:103A9000CCE70C230324C9E70D23F8E70223BEE794
:103AA000191B0131281902F0ABF901203378EB66BC
:103AB00006B070BD191B874801312018F3E7191BA8
:103AC00085480131F9E722008249280001F04BFACC
:103AD000EBE71A1B7F48013229192018FFF70FFB6B
:103AE000E3E722007C49F0E77A491A1B7A48013261
:103AF0006118F2E7220078497648E7E776491A1B11
:103B0000013261182819E9E7296E0A22002900D13B
:103B100006320093230002926E4A01962900280083
:103B200001F02BFAC1E7296E0A22002900D10632E2
:103B300002920093684A23000196EFE70122296E62
:103B400032700932002900D106320292009300221D
:103B500023000196E2E7296E0A22002900D10632ED
:103B60000093230002925B4A01962900280001F08D
:103B70002FFA9AE70122296E32700932002900D10A
:103B8000063202920093002223000196EDE7296E8F
:103B90000A22002900D10632029200934E4A2300E5
:103BA0000196E2E7296E0A22002900D106324A482E
:103BB000029200930200230001960100B0E7296EF3
:103BC0000A22002900D106324348029200930200E3
:103BD000230029000196A3E70122296E32700932E1
:103BE000002900D1063202920093002223003A48B5
:103BF0000196E2E7296E0A22002900D106323648F2
:103C0000029200930200230029000196AFE70122EF
:103C1000296E32700932002900D106322E480292F4
:103C200000930022230001000196A0E701223270D8
:103C3000296E0A22002900D10632274802920093F9
:103C4000020023000021019691E722000021214873
:103C5000009601F01FFA28E7220000211E48009676
:103C6000F7E7296E0A22002900D1063200932300CB
:103C70000292194A01962900002078E7296E0A224B
:103C8000002900D1063202920093124A23000196C5
:103C9000F1E72200002100962800DAE722000E4911
:103CA0000096F9E71A002100280001F00AFAFCE664
:103CB0001A0021000748F8E71A0021000648F4E737
:103CC0001A002100280001F00DFAEEE69C05001014
:103CD000C4070000AA050010B8050010064B10B577
:103CE00019001A1DD46F0831CC67D96FD1679A6F4C
:103CF0009867DA6710BDC0469C050010064BDA6F66
:103D0000986F9A671A1DD16F08335967D96FD167B9
:103D10000022DA677047C0469C050010F8B5134DC5
:103D20002F008C373B68581CFFF728FEF923DB0077
:103D3000E8500123AA6E040003409A4213D10C4BB1
:103D4000EE58830703D438680230FFF7C7FFFF201F
:103D50002B000122A40100020440B6108C3334432E
:103D60001C60044BEA500220F8BDC0469C050010C0
:103D7000C4070000AC0700000D4B0E490120CA58D3
:103D800010B5D3059B0E94050ED5403B8C6E92105A
:103D90000240944206D10A008C321468E318136082
:103DA000054BC850012010BD002BEFD10300EDE7FB
:103DB000C40700009C050010AC07000010B5084BBC
:103DC0005A1CD07F9A1CD27F000112021043033389
:103DD0001A7FDB7F10431B031843FFF77FFF10BDE3
:103DE0009C05001010B5FFF789FF0F240323044A38
:103DF00001002140D15401330011072BF8D110BD2F
:103E0000B805001010B5FFF779FF044B01211A0027
:103E10008C321060024A995010BDC0469C050010BB
:103E2000AC07000010B5064CA36E002B07D0FFF7BF
:103E300065FF230001228C331860024BE25010BD55
:103E40009C050010AC07000010B5064CA36E002BBB
:103E500007D1FFF753FF230001228C331860024B78
:103E6000E25010BD9C050010AC0700000121054B7D
:103E7000054A10B5D150054B1B68002B00D0984760
:103E800010BDC046BC0700009C050010700D00105E
:103E90000020144B144A70B5985004329A5882424C
:103EA0001AD0F622D2009958814214DD012909D195
:103EB000F721C9005C58844204D058500A210B4DA8
:103EC00099505C51F621C9005A58032A01DD01209E
:103ED000D866013A5A5070BD054B1B68002BFAD0CA
:103EE0009847F8E79C050010BC070000B4070000E5
:103EF000700D0010F822094BD2009A58002A04D005
:103F0000F622D2009A58002A07DD0F21044A9A5857
:103F10000133114012119977DA7770479C05001030
:103F2000B4070000044A537F917F1B0109020B4331
:103F3000117F0B43536770479C0500100B00093B32
:103F400030B5012B0BD80023074AD55CC45CA542D1
:103F500006D0064A064B0839D0580143D15030BD2F
:103F600001330E2BF1D1FAE7B80500109C050010C3
:103F7000A407000010B508290FD0192908D108237B
:103F800042781A4205D0002202704370FFF71CFDF0
:103F900010BD0F230370083BF7E702000300002465
:103FA0000E321C7001339342FBD1EFE730B5114B59
:103FB00085B05C6F002802D00F22944304430E4D5D
:103FC0005C67FF2C05DD0E21280001F019FF05B00C
:103FD00030BD21006846FFF7E1FC21006846FFF78D
:103FE000C9FF00236A46D25CEA5401330E2BF9D193
:103FF000EDE7C0469C050010B80500101FB50F2264
:10400000104B5C6F944304435C67082C18D0FF2C62
:1040100016DC21006846FFF7C1FC21006846FFF767
:104020008DFF002308496846CA5CC25401330E2B39
:10403000F9D12100FFF79EFF21006846FFF7C4FC7D
:104040001FBDC0469C050010B80500101FB50E4CE2
:10405000616F082917D0FF2915DC6846FFF79EFC21
:10406000616F6846FFF76AFF002308496846CA5C2B
:10407000C25401330E2BF9D1616FFFF77BFF684605
:10408000616FFFF7A1FC1FBD9C050010B805001073
:1040900010B50D4C631CD87FA31CDB7F00011B02F5
:1040A0001843E37F1843E31CDB7F1B031843FFF730
:1040B00065FC0F2203001340237703111340001205
:1040C0006377A07710BDC0469C050010024A536E6E
:1040D00016339B00D05070479C05001004494A6E6F
:1040E0001632920053581B1A5A425341CB667047FE
:1040F0009C050010054A536E16339B0099580139F0
:1041000001D4995070470D21FBE7C0469C05001073
:10411000064A536E16339B009958481C0D2901D04E
:104120009850704700219950FBE7C0469C0500104D
:104130000F4B5A6E16329200D05819180A7F0C286D
:1041400004DC497F09010A435A657047F520094993
:10415000120159588000814205D007480140B7201C
:104160008000814202D1596D0911ECE7197FEAE71D
:104170009C050010CC070000FFFEFFFF224B30B56E
:104180005A6E16329200D2580C2A05D1F5211F48DA
:1041900089001858884204D0FA21C90059580029CA
:1041A0000DD00F20596D9A1808400C1150771477D4
:1041B000FF220901114021431877596530BD0F25B1
:1041C000586D041105400C2A03DC9B181D775C77A1
:1041D000F4E70E4A9958F5229200914205D00C4A14
:1041E0001140B7229200914208D11A00FF212932D2
:1041F000157002010A4022435A65DFE71A0029328E
:1042000014701D77DAE7C0469C050010CC0700004B
:10421000FFFEFFFF0F21254B70B55A6E586D163209
:104220009200D258014000110C2A05D1F524204DEE
:10423000A4005D59A54204D0FA24E4001C59002CC6
:104240000CD0551C5D192C7F9A18167F240134431D
:104250005C651C7F2C77107719770CE0C9B20C2AAB
:104260000ADC551C5D192C7F9A18167F24013443F3
:1042700028775C65117770BD1D00F5260C4A29353D
:104280009C582A78B6001201B44205D0094E344039
:10429000B726B600B44204D102435A6529331970D7
:1042A000E9E71C7F287022435A65D5E79C0500107A
:1042B000CC070000FFFEFFFF10B50E2202490348A5
:1042C000FEF71DFF10BDC046B8050010D405001054
:1042D00010B50E2202490348FEF711FF10BDC0467B
:1042E000D4050010B805001010B50D2300220249B6
:1042F000024800F038FE10BDD4050010B8050010CB
:1043000010B50E2202490348FEF7F9FE10BDC04663
:10431000B8050010C605001010B50E22024903486A
:10432000FEF7EDFE10BDC046C6050010B805001032
:1043300010B50D2300220249024800F014FE10BD02
:10434000C6050010B8050010024B18184630027858
:10435000DA6670479C050010044B002219009A642D
:1043600008314C33CA871A807047C0469C0500103C
:10437000C21C431E002010B504499A4200D110BD52
:104380008C5C40002043013AF7E7C046E20500108C
:1043900030B50124054A0B1D994200D130BD0500FE
:1043A0002540555440100131F6E7C046E2050010A3
:1043B00070B50020FFF7DCFF0500084C0021207FCE
:1043C000FFF7E6FF25770420FFF7D2FF0500042161
:1043D000607FFFF7DDFF657770BDC0469C0500106C
:1043E00010B50020FFF7C4FF034C20770420FFF72F
:1043F000BFFF607710BDC0469C05001010B5054C8E
:104400000021207FFFF7C4FF0421607FFFF7C0FF7A
:1044100010BDC0469C05001010B50A4C23008C331B
:1044200018680130FFF7AAFAF923DB000F22E050E9
:104430000300134023770311134000126377A07722
:1044400010BDC0469C05001010B50E21054801F0B6
:10445000D7FC0E21044801F0D3FC0E21034801F0E3
:10446000CFFC10BD9C050010AA050010B805001077
:104470000022054B197F1878013201431977013367
:104480000E2AF7D17047C0469C0500100022054B4C
:10449000187F197801320140197701330E2AF7D1BC
:1044A0007047C0469C0500101FB500230A4A6C46A1
:1044B0001118097F013019550D2800DD0020013346
:1044C0000E2BF4D10023054A6946C95CD15401334F
:1044D0000E2BF9D11FBDC0469C050010B805001079
:1044E000074A10B5536E16339B0099584C1E51184D
:1044F0009C500877002C01DA0D21995010BDC04660
:104500009C050010034B00221900983394310A6077
:104510001A6070479C0500100122034B9433196800
:104520004A401A607047C0469C050010074B0022A5
:1045300019008C310A6001211A67054A99501A0046
:104540009432126851424A41DA6670479C05001065
:10455000AC07000070B5874B874DEC58874BA21015
:10456000A41119570F231340581E0E283DD801F0EF
:10457000B3FA0810171E223C283C3C2E3C3C3C322F
:104580003600002931DB0022691846310A70180014
:1045900070BD002929DB0123691846310B70F6E74D
:1045A000002922DB0800FFF7CFFE0123EFE7200000
:1045B000FFF796FFF9E7002917DB0800FFF78EFDEC
:1045C000F3E7002911DB0800FFF780FDEDE720008D
:1045D000FFF714FDE9E72000FFF7E8FCE5E7002915
:1045E00003DB0800FFF760FFDFE7982A00D19CE0BB
:1045F00063DC382A00D186E03DDC1C2A00D179E05A
:1046000029DC162A70D021DC0123002ABFD0023B0E
:104610000C2ABCD1012398352B60B8E7D63A10009C
:10462000222A15D801F058FA9014931414149614F1
:10463000141414141414141499149C1414149F14A2
:10464000141414A2ACAF14B2B5B8BB00182A4ED0E3
:1046500001235B429BE72C2A52D007DC262A4CD050
:10466000282AF5D100236B66013390E7362AEFD173
:10467000FFF7D0FD99E7662A4ED00FDC562A48D0C6
:1046800007DC3C2A42D04C2AE2D1FFF7C5FE0223C8
:104690007DE75C2ADCD1FFF791FB86E7762A41D0E3
:1046A00006DC682A3BD06C2AD2D1FFF79BFB7CE763
:1046B000882ACDD1FFF71EFC77E7F82AC8DCD52A77
:1046C000ACDCBC2A3AD008DCA82A31D0B82A32D0D7
:1046D0009C2ABDD1FFF726FC67E7C82A31D0CC2A37
:1046E000B6D1FFF7D5FC60E7FFF722FD5DE7FFF7E6
:1046F0001DFF5AE7FFF7E0FD57E7FFF73FFD54E7DF
:10470000FFF7E6FD51E701236B6640E7FFF7ECFD9D
:104710004BE7FFF7F5FD48E7FFF7FEFD45E7FFF73D
:1047200093FE42E7FFF704FE3FE700232B669BE77B
:1047300001232B662BE7FFF7E5FE36E7FFF786FC44
:1047400033E7FFF7E9FE30E7FFF758FE2DE7FFF705
:1047500069FB2AE7FFF78CFE27E7FFF741FE24E716
:10476000FFF772FB21E7FFF791FE1EE7FFF7F4FD6D
:104770001BE7C046C40700009C0500108C8A00009F
:10478000FFF774FB11E7FFF783FB0EE7FFF7B2FCBF
:104790000BE7FFF70DFE08E7FFF7BAFC05E7FFF7A9
:1047A00031FB02E770B51D4C1D4D1E4B6259E250A6
:1047B00023008C331868FFF7E1F8E36E6051A366BD
:1047C0000023194DE36663510333184002281FD0BC
:1047D000984220D0012818D0FFF7BCFE00280CDD3D
:1047E0006359002B04D122008C3213681B1813600C
:1047F0002200903213681B181360FA22D200A358CB
:10480000002B01D0013BA35070BDFFF787FAE5E70D
:10481000FFF7EEF8E2E7FFF7AFFADFE79C050010DD
:10482000C4070000CC070000AC0700000122034BC6
:10483000DA66034A9A830F229A7770479C05001024
:104840000F0F000070B5F425074CED0066592000ED
:10485000064901F0D5FA6651FFF7E8FF0123044A43
:104860006366A35470BDC0469C050010D4070000C9
:104870009C0700007047000030B50D4D049C286077
:104880000C4801600C490A600C4A13600C4B039AF7
:104890001A600C4B0C4A1C60F423DB00D4500B4B09
:1048A0000B4A1A600B4B0C4A13600C4A136030BD64
:1048B000780D0010900D0010AC0D0010980D001038
:1048C000B40D0010100000109C050010700D0010B9
:1048D000414A000075480000800D0010B00D001026
:1048E000014B18607047C0468C0D0010084B10B586
:1048F0001968084A002906D1074C24682160106015
:1049000001221A6010BD11688842F8DA0800F6E743
:10491000840D0010880D00108C0D0010034B1B68D7
:10492000002B01D1024A13607047C0467C0D001075
:10493000840D001070B51A4D2B0098331B68002BA6
:104940000DD0184B1C6801231C40F523DB00EB58ED
:10495000A34208D1144BEB58002B10D170BD2B0093
:1049600094331C68F1E7002C0BD1002BF6D00F4BD1
:104970001B68002B0FD02100200098470BE0002C73
:10498000ECD00A4B084E1B68002B02D02000A9591E
:1049900098470023AB51F523DB00EC50DEE7C0461F
:1049A0009C050010740D0010A4070000780D001085
:1049B000054B10B51B68002B04D00449044A0120A4
:1049C0008958984710BDC046780D00109C0500100E
:1049D000A40700000023F821054AC9001370054A06
:1049E00053500549535004315350044A13707047D3
:1049F000950D00109C050010B40700009C0D0010E0
:104A0000084B1860084B196000280AD001230021C8
:104A1000064A1370064A1170064A07498850074A29
:104A200013707047A00D0010A40D0010950D00101C
:104A3000940D0010B40700009C0500109C0D0010A0
:104A40002C4B73B51A682C4B1168186881421AD028
:104A500000210091019112681A60284B1B688B425B
:104A600002D0684601A99847254900980C68019A28
:104A7000244BA04202D11C68944202D00125224C52
:104A8000257008601A60214C214BE358002B10D090
:104A900000231D49CB56002B0AD000221D4B9A56ED
:104AA000012A05D100220A701B490A7002321A70CD
:104AB00073BD134B174D1868002807D00023EB5621
:104AC000002B03D10F4B1968FFF79AFF0023EB5619
:104AD000114E022B08D10023104A3370A3502B70C3
:104AE0000023F356E366E3E7002BF9D00A20FFF733
:104AF000FDFEF5E7980D001018000010900D001055
:104B0000A00D0010A40D0010940D00109C050010C5
:104B1000BC0700009C0D0010950D0010B4070000AC
:104B2000F82370B5054CDB00E358002B05D1E56E8A
:104B3000034AA350FFF784FFE56670BD9C05001093
:104B4000BC070000084A094B11681B6810B5CB1A56
:104B500003D41360FFF7EEFE10BDFA235B00136071
:104B6000034A13680133F4E714000010B40D001079
:104B7000740D00100122034B1A60034BF432FF3214
:104B80001A607047740D00101400001073B5040013
:104B900000250026134B00961B680196B34218D1DE
:104BA00001350220FBF7C6FB0F4B1A680F4B11684B
:104BB0001868814208D012681A60FFF7C3FF002C02
:104BC00002D0013C002C02D0042DE2D101242000AF
:104BD00076BD684601A99847009B002BE0D03500C0
:104BE000DFE7C046900D0010980D0010A80D0010D2
:104BF000F7B50D000E210400019201F001F9184BE8
:104C000003260A279D4211DD09236373083B2373A2
:104C1000F7BD2800390001F0EDF82800A155390052
:104C200001F002F8013605000D2E01D0002DF0D163
:104C3000019BA11CF21A033A22700D22A319921BA8
:104C4000013B8B4208D10F2300229E1B731E032EB3
:104C5000DEDD1E00E254F9E718789854F0E7C0460C
:104C6000FFC99A3BF7B56C4B6C4C0500E050043320
:104C7000E150230094331B680E00002B1BD1182831
:104C800017D1C32907D0F723DB00E358332B10D10A
:104C900000F0F2F80DE0624B1B680F2B09D11622D1
:104CA0000E21604800F04AF95B4BE3580093182B43
:104CB000E9D0FFF7BBFD00239D4200D00A33F62266
:104CC00031002800D200A350FFF79AFE564B574DF3
:104CD0001B6826001B688C362B60FFF71FFE012324
:104CE00023671D33019300230093514B1B68002B56
:104CF00014D0504F3B68002B10D01B68002B5BD0AA
:104D00003A681368013B13604B4A1368002B05DDBA
:104D1000013B1360002B01D1FFF700FEFFF742FDBE
:104D2000002807DA220033689032013333601368B9
:104D300001331360414B009A414F9A420CD04023FB
:104D40009A43404B9A4207D03F4B009A9A4203D075
:104D50005333FF339A4211D1E3593C4A93420AD06C
:104D60001A0020203A4982438A4204D040229343C9
:104D7000384A934202D10A20FFF7B8FDE359364A78
:104D80000093336893421CD0344A934220D0344A73
:104D9000934206D1FFF7CEFDFBF7D7FA2B68013B14
:104DA0002B60019B002B21DD013B0193236F002B26
:104DB0009BD1FFF7BFFDF7BD2A4B1B6898473B68A7
:104DC0009BE7FBF7BBFAFFF7D5FEFFF7F1FDE8E73E
:104DD000FFF7EEFDFBF74AFB234B18600E4BE0504C
:104DE0002B68013B2B60214B3360DAE7204B1B68BB
:104DF00098471E200C4B01901A681E4B11681868CA
:104E00008142D3D012681A60FFF78AFEFFF79AFE3C
:104E1000144B1B689847C9E7B40700009C050010B5
:104E200010000010D4050010980D0010180000109C
:104E3000840D00108C0D0010880D00106E02000013
:104E4000C4070000260200007A020000FB030000F5
:104E5000CB030000A303000016060000070C0000AF
:104E6000F7050000800D0010A00D00100B0C0000D5
:104E7000B00D0010A80D0010F8B52A4D00202B68C9
:104E80001C68FFF783FE2B681A68A242FCD01F68DB
:104E9000FFF7CCFCF6230A22234CDB00E250182358
:104EA000224A0126A350F7231522DB00E2500833E3
:104EB000E6502300002290332D371A60FF37FFF7AA
:104EC000B5FC26672B681B68BB421ED12300F82661
:104ED0000127F6009033002118201D68A751FFF725
:104EE000C1FE134B2800196800F09EFE0422010049
:104EF0001048FFF77DFE18230C4A2800A350F72323
:104F00000022DB00A751E250F8BDFFF74BFC2A68F6
:104F1000094B116818688142D4D012681A60FFF7F3
:104F200011FECFE7980D00109C050010B40700009B
:104F3000B40D0010D4050010A80D0010F0B5012527
:104F4000002A00DCF0BD03784C1E2B40002C01DA57
:104F5000013AF5E7065DDB0077083B430355330074
:104F6000013C2B40F2E730B59A4200DD30BD845C55
:104F70008D5C85548C540132F6E7F0B5060007A825
:104F80000578069801240078002A1DD0059CA342CC
:104F900004DD01231840069B1870F0BDD75CCC5C83
:104FA000BC46644424180020A54201DC641B013087
:104FB000F4540133EAE7CA5C12180020954201DC80
:104FC0002000521BF2540133059A9342F3DDE0E7CF
:104FD000F7B50AAC2478089F0194099C247800282E
:104FE00039D00F25002933D0002A1ED1019E0F325F
:104FF000013E1640BB421ADCCA5C121B0024551C41
:1050000001D132000134C2540133F3E7CD5C2E00EC
:10501000D55C751B2D1B0024A54204DA019C651983
:105020000F2425400E3CC5540133BB42EEDD012365
:105030001C40099B1C70F7BDD15C49420C1B002130
:105040008C4203D00199091901242940C15401332C
:10505000BB42F1DDEBE7002919D0002A0ED1BB429B
:10506000E5DCCA5C0133141B013462425441F6E7AB
:10507000C85CD55C0133401B041BE40FBB42F7DD69
:10508000D5E7D15C013349420C1B611E8C41BB4208
:10509000F7DDCCE770B50125049C257000290BD104
:1050A0009A420BDC815C00290AD10132F8E7865C68
:1050B0008D5CAE4204D101329A42F8DD00232370A8
:1050C00070BD0B0030B5441C934207DB0024230065
:1050D000914200DC531A4018C45430BDE55CC554FD
:1050E0000133F1E7130030B5441E8B4207DC002486
:1050F00023008A4200DB8B1A8018C45430BDE55C63
:10510000C554013BF1E70000F0B5114A01241378C2
:10511000C15C53780B405A1E93410E499B010B60B2
:105120000D4B00221F0001254A6012371A785E7865
:10513000825C164202D04A682A434A6002336D00FC
:10514000BB42F3D1013404310B2CEAD10020F0BD75
:105150003A0100104C0F001086000010122230B5EA
:1051600005254A43324C01311319A25C5C78825CFC
:105170006943144204D05F242E4A5218947054702C
:105180009A78DC78825C144204D07C24294A521834
:10519000533214701A795C79825C144204D07C24F6
:1051A000244A5218A33214709A79DC79825C144232
:1051B00007D0204A5F2452181500A132A2352C7066
:1051C00014701A7A5C7A825C144204D07C24194AE6
:1051D0005218A03214709A7ADC7A825C144204D09D
:1051E0007C24144A5218503214701A7B5C7B825C07
:1051F000144207D00F4A5F2452181500513252351D
:105200002C7014709A7BDC7B825C144204D02E24B8
:10521000084A5218A43214701A7C5B7C825C1342D8
:1052200004D0044B59182723F4310B70002030BDF3
:1052300086000010BB0D0010F7B5040000262D4DB0
:105240002F00393F4F2220213800FDF779FF002E33
:1052500002D07C233B702B7000210136A97550359C
:10526000052EEDD1244B2D22180038300270180085
:1052700037300270A1209A705A70400032321A54AE
:105280004220FF301A54053019541C4908784978D7
:10529000205C014204D01900523353310A701A7055
:1052A0000027390020000137FFF758FF0A2FF8D1F7
:1052B0000025134E0197134BAA00D158337872780A
:1052C000E35C114F1A420CD03800013500F09EFD0E
:1052D0000236092DEFD138000C4900F097FD05206A
:1052E000FEBD0800FDF74EFF019B0949181A091879
:1052F000EAE7C046F40D0010BB0D00103A010010A3
:10530000740000101C000010FB0E00109C8A0000AE
:10531000640000100020034B185642425041C0B2B6
:1053200018707047B90D001000207047034B06201D
:105330001B785BB2002B00D118007047B90D00102C
:10534000154B10B51900DE314A880888134912043C
:10535000024300208A421DD1E3335A781C789978A1
:105360001202DB78144309040D4A21431B060B4348
:1053700093420FD1FFF7DAFF0A4C0200236809219C
:10538000033323600848094BFCF798FB012023688E
:10539000033B236010BDC0469C05001010C544446B
:1053A000F421007404000010A48A0000407300007F
:1053B000F0B5B14B89B01C680194022C03DD231FAA
:1053C0005A425A410192FFF7B1FFAC4B00901B7853
:1053D0005BB25A1E93415B420493052C00D19EE0C0
:1053E000A74B0393062C05D0A64B0393A64B042C86
:1053F00000D198E0002301270225A44C02930C3C25
:105400009D4B1B68022B14DD00227F2007AB5A70D6
:10541000E26810404E2800DD8BE0212800D14FE1EA
:1054200000DDCAE078231A4200D1B9E01C2800D17F
:105430004AE1019B012B00D163E1022B00D1F2E193
:10544000002B00D0E0E0E26801331A4206D06A4641
:10545000B81C1178C0B20522FCF7AEFAE3682B4203
:1054600008D0009BF81D591C01220323C9B2C0B209
:10547000FCF7A2FA0422E368134208D0009BF81D4F
:10548000591DC9B21300C0B2033AFCF795FAE3689C
:105490001B0708D50099B81C093101230522C9B2A0
:1054A000C0B2FCF789FAE368DB0608D5009B781CDC
:1054B000591D01220423C9B2C0B2FCF77DFAE3688A
:1054C0009B0608D5009B781C591C01220323C9B2F6
:1054D000C0B2FCF771FAE3685B0608D5009BB81C04
:1054E000191D05220123C9B2C0B2FCF765FAE368B1
:1054F000DA0500D4F8E0009B049AFFB29E18F6B2D9
:10550000310038000A310930C9B2C0B209360A3751
:10551000FCF73EFAF1B2F8B2FCF73AFA74E0012374
:105520005B4204935A4B039364E70C27029B5F434F
:1055300066E74F38302800D97BE700F0D7FA8400BF
:10554000C1007AFF7AFF7AFFC8007AFF7AFF7AFFFC
:105550007AFF7AFF7AFF8200C3007AFFB7007AFFF2
:105560007AFF7AFFC5007AFF7AFF7AFF86007AFF1A
:105570007AFF7AFF7AFF7AFF7AFF88007AFF91003C
:105580007AFFBB007AFFBF00BD007AFFBD00B1000B
:105590007AFFB9007AFF7AFFB3008A007AFF8F00A2
:1055A000072800D945E700F0A1FA1A0044FF94004B
:1055B00044FF44FF44FF37005600232800D186E013
:1055C0003838082800D934E700F090FA39006E0026
:1055D00033FF33FF33FF33FF33FF660068002022C1
:1055E00007AB1A70039B3900009A07A8FCF766FA0C
:1055F000E368DA0500D46FE0049B009A25489A1806
:10560000039BF91DFCF75AFA029B04340133029301
:105610000B2B8AD109B0F0BD312207AB1A70029B67
:10562000022BDFDD7F2362681A40542A06D0029ADB
:10563000032AD7DD22681340542BD3D107AB4C2269
:10564000CFE73222CDE73322CBE73422C9E7352238
:10565000C7E73622C5E7372207ABC2E73822C0E7E3
:1056600039221A70029A062ABCDD7F22A1680A40FC
:10567000232AB7D12432B4E770000010B90D00100E
:105680001873000040730000387300004C0F0010C6
:1056900020730000B18A00003022A2E72D22A0E78B
:1056A00041229EE742229CE743229AE7442298E760
:1056B000452296E7462294E7482292E7502290E757
:1056C00052228EE74F228CE7552207AB89E74E2204
:1056D00087E7492207AB84E71B0600D494E7039BC6
:1056E000009A7D48F91D8DE71B0600D48CE7012345
:1056F000009909370931C9B2F8B22A00FCF75CF900
:1057000082E7E368019A134213D06B461978FEB220
:105710000596B01C0E001300C0B20522FCF74CF930
:10572000731CD9B2059B0322DE1CF0B2019BFCF76F
:1057300043F9E3682B4208D0009BB81D591C2A008E
:105740000323C9B2C0B2FCF737F90422E36813425D
:1057500008D0009BB81D591DC9B21300C0B22A0061
:10576000FCF72AF9E3681B0715D56B461B78FEB2D8
:105770001900B01C093105220593C9B20123C0B23A
:10578000FCF71AF905990336083101230322C9B23F
:10579000F0B2FCF711F9E368DB0608D5009B781C32
:1057A000591D2A000423C9B2C0B2FCF705F9E36809
:1057B0009B0608D5009B781C591C2A000323C9B2FC
:1057C000C0B2FCF7F9F8E3685B0614D56B461B78AA
:1057D000FEB2191DB01C05220593C9B20123C0B247
:1057E000FCF7EAF8059B03220533D9B201230336FF
:1057F000F0B2FCF7E1F8E368DA0565D5009B049A9E
:10580000FFB29E18F6B23100380008310A30C9B232
:105810002B002A00C0B20936FCF7CEF8F1B20937E6
:105820002B00F8B269E7E368DB0707D56B46781C05
:10583000197807222B00C0B2FCF7BEF8E3682B42B0
:1058400007D06B46B81D19782A000623C0B2FCF7B2
:10585000B3F80422E368134208D0009BB81D9918DE
:10586000C9B206232A00C0B2FCF7A6F8E3681B07FA
:1058700008D50099781C08312B000722C9B2C0B2A4
:10588000FCF79AF8E368DB0608D5009B781C191D25
:105890002A000623C9B2C0B2FCF78EF8E3689B0663
:1058A00007D56B46781C19782A000623C0B2FCF78E
:1058B00083F8E3685B069ED5009B781C191D0722C0
:1058C0002B00C9B2C0B294E71B0600D49CE6009935
:1058D0000831C9B2A3E7C04614740000F7B5154BF0
:1058E00009261B7801905BB2002B01D0022676427C
:1058F000114B1B68002B05D0320000210F4B1048C4
:10590000FCF7DCF800240F4D019A2B78D35C6A7801
:105910001A420AD00C4B0D48E15CA3009C46674636
:105920003200064B3858FCF7C9F801340235092C0F
:10593000EAD1F7BDB90D0010740300102873000000
:1059400097600000740000100A8B000040000010F7
:1059500070B500F085F8002815D006240326310024
:10596000200000F047FA2000CDB2310000F05CF9D1
:105970002900C0B2FCF70CF8092C01D10234EEE783
:1059800001340F2CEBD170BD70B50D000400FFF792
:10599000BBFBFBF779FFFFF7D3FC002806D1002DF6
:1059A00001D0FFF705FD2000FFF798FF094B1B789A
:1059B000002B0ED02000FFF73FFC002450252900CB
:1059C0006143054B0548C9180134FDF782FB052CDE
:1059D000F5D170BD59010010BB0D0010D56100005C
:1059E00010B588B00400092101A8FDF7D7FF1220E7
:1059F0000A216844FDF7D2FF210001A8FFF7C4FF88
:105A000008B010BD10B5124B1B785BB2002B14D13F
:105A1000002813D0FBF703FF0120FFF7E1FFFBF79E
:105A20004FFF00230B4AD356002B06DD013BDBB2B0
:105A30001370002B01D1FEF7CDFF10BDFBF7F7FE71
:105A4000054B1B78002BF8D00448FDF742FBF4E728
:105A5000BA0D0010B80D001059010010B38A0000F3
:105A600000207047024B986D0B38434258417047F5
:105A70009C0500100C22014B9A6570479C05001094
:105A8000FEE7FEE710B50A4A0A4B0B498B4207D3E3
:105A900000210A4B0A4A934207D3FBF709FBFEE7B2
:105AA0001078013218700133F0E719700133F2E712
:105AB000138B0000000000103C0100103C0100109E
:105AC000780F001002B47146490849000956490090
:105AD0008E4402BC7047C04602B471464908490072
