:10000000F01F0010A9660000A7660000A7660000A8
:10001000A7660000A7660000A766000000000000B9
:10002000000000000000000000000000A7660000C3
:10003000A766000000000000A76600005D2E00001B
:100040005D2C00005D2C00005D2C00005D2C00008C
:100050005D2C00005D2C00005D2C00005D2C00007C
:100060005D2C00005D2C00005D2C00005D2C00006C
:100070005D2C0000A5660000A5660000C100000020
:10008000F92E0000112F000011310000293100006D
:10009000A566000071320000A5660000A56600009C
:1000A000A5660000A5660000A5660000A566000024
:1000B000A5660000A5660000A5660000A566000014
:1000C000594A10B5136801331360584B584A1B68DE
:1000D000DBB2302B00D176E018D8182B5AD005D8D7
:1000E000082B37D0102B46D0082351E0202B00D10D
:1000F0007AE0282BF8D14F4B4F491868096888429D
:1001000052D21968481C18604C4B48E0482B00D16B
:100110006AE00AD8382B60D0402BE5D1484B1968EB
:10012000042301295DD11360DEE7502B66D0582BE4
:10013000DAD14448444B1B680168DBB24C1C0460B4
:10014000424843540221424BFF3119608023F13968
:10015000DB0530E00021374B19601968481C186036
:10016000364B5B5C3849DBB20B60282313600122FD
:10017000374B1A6010BD0021324B19602D490B68B6
:10018000581C08602D49CB5C2F49DBB20B6028233B
:100190001360EFE727490B68581C086027495B5C30
:1001A0002949DBB20B609FE7254B19688023DB05EB
:1001B000002902D02021196096E702202449FF304F
:1001C00008601021F7E780231021DB051960082360
:1001D000136081221E4B5200CBE782211C4B490049
:1001E000E9E78021C905DDE780231021DB051960DF
:1001F000082313600422164BFF32BAE71149124B51
:100200001B680868DBB2441C0C60104C23540C4B78
:100210001B680868013B0421834202D98023DB0567
:10022000C9E7116060E7C046000600100400004006
:1002300018000040FC050010F4050010CC0500106B
:10024000E0050010F805001008000040E40500106B
:10025000DC05001002231B4A70B511681A4D0B43D0
:1002600013602023194A040011680B431360184BD4
:100270001A682A401A600122186810431860154B4A
:1002800019682940196019680A431A606C22124BD8
:1002900012491A60124B186806F0D8FA114B186010
:1002A000114B1860022C02D1A022104B1A60802240
:1002B0000F4B12021A6080234022DB0501201A60D6
:1002C00070BDC04604800440F8FCFFFF80800440FD
:1002D000304004403440044018000040400D03000A
:1002E0009004001014000040100000400C0000407A
:1002F00000E100E00000000000000000FFFFFFFF41
:10030000202303490A681A42FCD0024B1860704748
:10031000148000400080004070B504000D002900EA
:10032000200002F097FD024B1B68002BF7D170BD37
:10033000AC05001010B502F0BFFD10BD10B50020D7
:1003400001F0ACFD01F078FD10BD70477FB50500F0
:1003500000200C0001F048FF002801D003F05EFBF4
:10036000002323602B60174B1E78002E28D121001C
:10037000280001F067FF300001F036FF002807D0A9
:1003800003F04CFB2660210028002E6001F05AFF8C
:100390000D4B1B78002B13D00C4B2A6818680C49A6
:1003A000824203D120680D68A84209D01A602368F0
:1003B00001A80B60074903F08BF901A803F028FAA4
:1003C0007FBDC0465C0200106C0200105402001099
:1003D00058020010C46A000070B504000D00FFF759
:1003E000B5FF094A1368002B09D0013B1360032BAA
:1003F00006DD064B1B682360054B1B682B6070BD38
:1004000000232B602360FAE76802001060020010EE
:10041000640200100023034A1360034A1360034A76
:100420001360704764020010680200106002001040
:10043000002310B50B60036001F004FF10BD000045
:1004400010B5012403F0B0FA0C4B0020196802F03B
:10045000D5FE002002F0C2FE002002F09FFE084BF5
:1004600020001C60074B196889B202F08DFD200046
:1004700002F07AFD200002F057FD10BD9804001034
:10048000C80500109404001037B50C240321012086
:1004900002F0E0FC684601A9FFF79EFF009D002DD9
:1004A00002D1013C002CF1D1FFF7CAFF28003EBD6C
:1004B00010B5002002F082FE012002F045FD03F09D
:1004C00079FA10BD70B50D000400FFF7B9FFF823ED
:1004D0000121064ADB00D1502000290004F0B6FEBD
:1004E000FFF7E6FF04F06AFD70BDC046B0060010DD
:1004F00070B504000D00FFF7A3FF0822074B290089
:100500001C60074B20001D60064B1A6004F09EFE25
:10051000FFF780FFFFF7CCFF70BDC0466002001000
:10052000640200106802001010B50400FFF788FF95
:10053000200004F01FFE0400FFF7BAFF200010BDEA
:1005400010B50020FFF7F0FF10BD37B504000025FF
:10055000FFF7F6FFA54203DBFFF7F2FF00983EBD71
:100560000321062002F076FC684601A9FFF734FF5C
:10057000009B002BF0D10135ECE7000010B5020024
:100580000249034803F099F810BDC046D26A000042
:10059000D76A0000F0B5354B85B01B680090019319
:1005A000002805D0019B002B02D0002002F084F827
:1005B00001F00DFC002001F071FC01F03DFC2C4C21
:1005C000032223680221013323602A482A4B01F0C9
:1005D00069FD2368FA26013B236001F065FCFFF703
:1005E000AFFF2648FFF7CAFF96230024244D9B0047
:1005F0002B60B60002F012FF002807D002F0F0F9DD
:1006000000242B680134A342F4DC1AE0009B002B89
:1006100027D01C4F3100386806F018F9642358437E
:1006200002F032FC02F09EFA3100386806F00EF952
:1006300002F02AFC03A902A8FFF7CEFE029B002BC2
:10064000DFD0009B002B05D0019B002B02D00120A6
:1006500002F032F8FFF774FF0B4803F02EF805B0F4
:10066000F0BD0A2002F028FCE4E7C0461C000010A0
:1006700014000010DF6A000050830000EE6A0000E2
:100680002C02001090040010F46A00001A4B73B59D
:1006900004001A49186806F0D9F8194B194A1A4982
:1006A0000090200003F014F801F0B2FE002812D0F0
:1006B00001F0CCFEFA218900060006F0C7F805001B
:1006C000200003F053F8114B2A006B4310499B198B
:1006D000201802F0FDFF200003F048F80D4B0E4AF1
:1006E0001B682018002B02D00C4A00DB0C4A0D4975
:1006F00002F0EEFF73BDC0469004001040420F00B0
:10070000056B0000D26A0000096B000018FCFFFFB7
:10071000166B00008C040010FF6A0000026B0000E2
:10072000EB830000216B000070B50D000600140083
:10073000002001F0B3FB01F07FFB31002800002214
:10074000054B01F0AFFC09220121044B200001F010
:10075000A9FC01F0A9FB70BD5083000038830000A4
:1007600007B5144A14490120FFF7DEFF642002F0A8
:10077000A3FB72B60021114B114A196001231360CB
:100780001160136011681942FCD00E4A684613606C
:1007900080230D4A5B0211680B43136080230B4AD0
:1007A00011680B431360392301A90093084B984744
:1007B00007BDC046296B0000386B00007080044004
:1007C0007480044078800440808004403882044073
:1007D000F11FFF1F00B5084B084A89B01B78684617
:1007E0001278074902F074FF69460120054AFFF7B5
:1007F0009BFF09B000BDC046110000107F0400102F
:100800004B6B0000596B0000F0B52C4C2C4D23783D
:1008100085B001932F780026FFF7DCFFFFF790FEED
:1008200002A803A9FFF7D8FD0298002815D0C0B28E
:1008300001F056FC492805D83F281ED830282CD076
:10084000392835D001F0E4FAFFF7C4FF029E002EEC
:1008500003D0C82002F030FB00260321042001361B
:10086000FFF75AFD1E2EDBD1019B2F70237001F084
:10087000CFFAFFF765FE05B0F0BD40380928E1D892
:1008800005F032FF05F2E0E0E0E0F7E0E0102B7861
:100890003E2BD7D801332B70D4E72B78002BD1D047
:1008A000013BF8E72378062BCCD801332370C9E746
:1008B0002378002BC6D0013BF8E7C046110000109A
:1008C0007F04001010B590B06846FFF7DFFE0020EF
:1008D00001F0E4FA01F0B0FA0122084C1100230003
:1008E000684601F0DFFB230009220121044801F0E2
:1008F000D9FB01F0D9FA10B010BDC0463883000012
:100900006D6B000000B52B228DB0002800D10232A3
:1009100068460D4902F0DCFE04A803F00FF96946B1
:10092000012004AAFFF700FF03200021FFF7F4FCD9
:100930000220FFF7F9FD0028EED000210A20FFF782
:10094000EBFC0DB000BDC046876B0000F8B504009D
:1009500016000D00002703F0F1F82100E7741431B0
:10096000681C02F00BFF380001F098FA01F064FAFD
:100970003A00042120000A4B01F094FB094C0922A3
:1009800023000421280001F08DFBBE4205D0230086
:1009900009227821044801F085FB01F085FAF8BDB1
:1009A0005083000038830000A26D000030B58DB088
:1009B000134902A802F0E2FE2E24002202A904A894
:1009C000FFF7C4FF0025FFF7BBFDFF34002202A99B
:1009D00004A8FFF7BBFF0321002002F03BFA6846A2
:1009E00001A901950095FFF7F7FC009B002B02D1B0
:1009F000013C002CEAD1FFF7A3FD0DB030BDC0468D
:100A0000F8A40000F0B5002491B0200096260394CD
:100A100001F044FAFFF794FD0223270000940193AC
:100A2000760001F009FA009B002B00D0ABE008AD86
:100A3000280003F083F8009BEB742B746B73AB728C
:100A4000EB712B71002C01D1012F05D10022042163
:100A500028008F4B01F026FB8D4D00222B001E211C
:100A60008C4801F01FFB012C01D1012F07D11D2063
:100A70002B0002AD00222521401901F013FB844D0B
:100A800000222B003321834801F00CFB022C6FD194
:100A9000012F6DD0232002AD00224D217C4B401947
:100AA00001F000FB7A4D00222B0059217A4801F019
:100AB000F9FA042C01D1012F07D126202B0002AD19
:100AC00000225F21401901F0EDFA714D00222B0048
:100AD0006C21714801F0E6FA052C01D1012F07D1F4
:100AE00029202B0002AD00227221401901F0DAFA10
:100AF00009220421694B0DA801F0D4FA01F0D4F9C0
:100B0000039B002B07D0143B012B41D8052C3FD071
:100B1000962002F0D1F903210800FFF7FDFB002029
:100B200001F062FB0023050004A903A804930393CA
:100B3000FFF752FC039B002B00D199E006AE05ADF8
:100B40003100280007AA03F02DF80090002828D1D2
:100B5000280003F00DF9070003981238052800D982
:100B60007EE005F0CBFD217D56237D181E0058E761
:100B70002B0000223A210AA801F094FA032C89D113
:100B8000012F8FD186E700220421414B4448B3E76F
:100B9000FFF7D6FCBFE7601C062105F03DFF0027EC
:100BA0000C009626760067E0601DF5E7601E0428BD
:100BB00004D805F0A3FD0D141D2647002B88013332
:100BC00000242B80280003F0D3F80523070016E04B
:100BD0000C21A87805F036FE0131A970F2E7013743
:100BE0002900380003F0F6F80523022401932BE0D6
:100BF00030780130182105F00FFF04233170019384
:100C000022E0707801303C2105F006FF032371706B
:100C1000F5E7601E042804D805F070FD060C0E11DF
:100C200014002B88013BCBE7A8780C210A3005F093
:100C3000F3FED1E7013FD3E730781730DAE7707879
:100C40003B30E0E70023B3700721380005F0E4FEF5
:100C50000A000791052C05D13100280002F0FAFFA7
:100C600001279EE731002800019B02F0B3FFF7E760
:100C7000002D01D101235F40039B842B05D0182B4D
:100C800003D0731E002E00D070E711B0F0BDC04637
:100C9000508300008C6D0000DE6B00003883000084
:100CA000906B0000114B10B59A6D032A1AD11C00ED
:100CB000BB3460782278A178000210430904E278FE
:100CC00008430B49120602438A420BD1BA33187803
:100CD0000F23034000090F2B03D00F2800D00A3345
:100CE000180010BD01204042FBE7C046B0060010CE
:100CF000AFACEAFF10B50C4A0C4B0F24995C0A000C
:100D00000809224021420AD006280BD80721113AAF
:100D1000D2B24A439B181B189C33187810BD01208F
:100D20004042FBE70220FBE78E070000B006001000
:100D300003000348082B02D8024A9B0098587047CA
:100D4000EB830000846E0000CB10C05C07231940C9
:100D50000841063B18407047030010B500200A2BDD
:100D60000ED8084A1278D20701D5022B08D1064ABC
:100D7000D35C064A9B009858FFF7E6FF431E984154
:100D800010BDC046410200100170000000000010BC
:100D9000002370B504000D0016000370292912D835
:100DA000094B8A00D15802F0E9FC012D05D1200041
:100DB00002F0DCFC201805F011FC002E03D020000E
:100DC000024905F059FE70BD0C7000009E6B0000DA
:100DD00010B50022FFF7DCFF10BD70B50025040040
:100DE00008001100AA420EDB28225A435218520072
:100DF000115F4B1C07D0A94207DA02235B42591A44
:100E0000FFF7E6FF0125280070BD05F041FCF9E77A
:100E1000F8B507000D00161E08D033002A0039006F
:100E20000848FFF7DAFF04002000F8BD05F090FB4A
:100E3000041EF2D129000448FFF786FF0028ECD0F9
:100E4000F2E7C046A86E0000F26F0000F8B50E0091
:100E50000400150005F0AEFB070001000022200091
:100E6000FFF796FF38003100FFF776FF071E0AD024
:100E7000200002F07BFC2A0031002018FFF7C8FF99
:100E800005002800F8BD0F49200005F0F5FD200001
:100E900002F06CFC2A0031002018FFF7B9FF051E94
:100EA000EFD131000848FFF74FFF051EE9D02000C1
:100EB00002F05CFC3B00211832000448FFF78DFF74
:100EC000DFE7C046A06B0000F26F0000986F0000E3
:100ED0001FB50D4B1B78002B0AD1FFF70BFF01004C
:100EE000431C05DB431C05D10848023105F0B4F969
:100EF00005B000BD684605F0CBFB6B461B78002BA8
:100F0000F6D001216846F1E751020010A26B000003
:100F100010B504F015FD00280BD0002000F0BEFF36
:100F200000F08AFFFFF7D4FF00F0A6FF012000F0D9
:100F3000B5FF10BDF0B51E4B85B01B78002B05D159
:100F400005F032FB041E03D0FFF7C2FF05B0F0BD71
:100F5000FFF7A8FE051E08DB05F07AF92800FFF769
:100F6000E7FE022105F078F9F0E72100684603F07A
:100F700009F8104F0E223900684605F059FD0E4D54
:100F80000E4E0F4C002803D12B78726D93420AD07D
:100F900069460E22380002F0A6FB736D21006846F8
:100FA0002B7005F081FA200005F072F9CEE7C046FB
:100FB000510200104202001050020010B006001052
:100FC0003002001010B504F0BBFC00280BD000204C
:100FD00000F064FF00F030FFFFF7ACFF00F04CFFC3
:100FE000012000F05BFF10BD10B5FFF7EBFF10BD57
:100FF0001121044ADC3213788B43034909780B43EF
:1010000013707047B006001041020010024B1878B0
:10101000C006C00F7047C0464102001010B5FFF770
:10102000F5FF094B002805D00B21084A91650022E5
:101030001A7010BD1A78D207F9D5044A0221906DB2
:101040000A28F3D00331F1E741020010B006001086
:10105000F0B5050087B0002901D0012412E005F0A9
:101060009BFA041EF9D1344E3278382D0DD110235D
:101070001A4053425A4112013270FFF7B9FF012260
:101080002E4B1A70200007B0F0BD0127782D07D134
:101090003B0093433370FFF7ABFF284B1F70F1E722
:1010A0003A4053000193FFF7B1FF002800D00197A9
:1010B000280005F059FA070005F04AFA6B46390096
:1010C0001A79002812D002A8FFF7C0FE0028C4D069
:1010D00005F06AFA00280DD0FFF7A0FF0122174B98
:1010E000002128001A70FFF7EDF9CBE702A8FFF7FF
:1010F0008FFEEBE70620FFF717FA002804D102A8BD
:1011000005F088F900F0D0FE2A20FFF70DFA041E42
:1011100007D0FFF783FF00212800FFF7E9F900243B
:10112000B0E7074805F076F900F0BEFE3470FFF72F
:101130005FFFFFF705FAA5E7410200105C0200100F
:10114000AB6B000010B5002802D1FFF709FB10BD02
:10115000002000F0A3FE00F06FFE01220A4C0121E6
:1011600023005242094800F09DFF2300072201217D
:10117000074800F097FF00F097FE7820FFF7E5F9A9
:101180008428E4D1E1E7C04640830000B06B000052
:10119000C26B000070B504000D0000F018FE262C94
:1011A00013DC0020102C27DD20001138152814D85E
:1011B00005F0A4FA1D132D6D373F4E133113131391
:1011C00013131313264213131345442C54D006DC77
:1011D000372C58D00120382C56D000200CE0452C5C
:1011E000FBD1E120000102F04FFD012048E02A4B35
:1011F0001B68002B01D1012070BDFFF7D7FBFAE778
:10120000254B1B68002BF6D0FFF7FCFBF3E7012012
:10121000FFF7C0F9EFE70120204B1B68C01A01F06F
:101220004BFA0120FFF74EFBFFF78AF9FFF72CF985
:10123000E1E7FFF7E9FADEE704F072FBDBE7002203
:10124000174B1A70174B05321A7000F0E1FDD2E708
:1012500004F076FB144B002806D0196803220229FB
:1012600000DD00221A60C6E71A68511C062A01D068
:101270001960C0E71860BEE70C4802F005FD0020C9
:10128000FFF740FBB7E7002004F054FBB3E728006A
:10129000FFF758FFAFE7C0468C0400101C00001099
:1012A0007F04001011000010A4000010F0F1FFFFF7
:1012B000F8B5012706000C00002000F0EFFD00F05B
:1012C000BBFD0B4D7F422B003A000121094800F085
:1012D000E9FE2B003A0030002A2100F0E3FE2B004B
:1012E00007220121200000F0DDFE00F0DDFDF8BD49
:1012F00040830000D96B0000030010B50348044987
:10130000002B00D09968FFF7D3FF10BDEB830000DE
:10131000E06B0000F0B5002787B000F058FD2A4DC3
:101320002A492800FFF7C4FF3C00FFF709F90C2603
:101330000321062001F08EFD684601A9FFF74CF855
:101340000098002804D10137772FF1DD07B0F0BDF8
:10135000C0B200F0C5FE0200462808D0002C0AD01A
:101360000023E356834206D100202056EEE7002CEE
:10137000FAD10027DCE7352A01D0412A21D11448CF
:101380001449FFF795FFFFF7DBF80020DEE79342F3
:1013900006D124182000FFF7AFFFFFF7D1F8E8E7E8
:1013A0000131300048432356002BF0DCF1D00A49CC
:1013B00002A802F08DF928000849FFF779FF002400
:1013C000EBE70021064CECE7EB830000E06B00004C
:1013D000FF6B0000EC6B0000016C0000086C00006B
:1013E000B4700000F0B58DB002F03EFB012004F0B7
:1013F000A1FA00211820FFF765F800248B4EFFF7B3
:1014000057F8F82200238A4DD200AB50200002F09A
:101410004DFB002C71D00121002001F01BFD2000AC
:1014200002F03EFB03A9070002A8002F68D0FEF7D8
:10143000FFFF0127002C12D002F037FB029B182B74
:1014400001D0002FDBD000207A4B187000F026FD71
:1014500000F040FD7848FFF791F80123EB6602F0B9
:101460006DFA029E734F182E10D1002C00D183E02C
:10147000039BD8B200F034FE0121FFF78BFEF82366
:10148000DB00E850002801D00023039301263B78BD
:101490006A4C334208D0029B322B05D1002000F069
:1014A000FDFC00F0C9FC267003990298FFF7D0FDFF
:1014B000002807D0FFF7B2FDFEF7C2FF039902989C
:1014C00003F0C4FE00232370F823DB00EB580193E4
:1014D000002B01D0FFF734F894352B685C425C4157
:1014E000002B69D100F05CFC554B1A78002A85D09E
:1014F00000221A70FFF724F880E7032106208CE70A
:10150000FEF796FF029B002B94D1002C00D07DE7C4
:101510004C4B1B68002B00D078E72B0098331B68DE
:10152000002B1DD1484B0024F61800D46EE7474B22
:101530001B78002B0BD0464802F06AF9642001F0BA
:10154000BBFC444802F064F9642001F0B5FC00F0F3
:1015500027FC2B00002294330224344E1A6055E7F6
:101560003D4A13681133136003F0E0FD029B013321
:101570000293102BF8DDD5E7FFF748FD002885D052
:10158000300021003C70FEF79DFFFFF7C3FE03947F
:10159000061E00D17AE72100FFF7FCFD002800D0ED
:1015A00074E7F0B200F0B8FD0390482E00D16DE76B
:1015B00001222A4B1A7069E700F05EFF002000F05C
:1015C0006DFC002500F038FC04F0E6FFA84204D1D1
:1015D00004F0BEFF431E984105000126300068401C
:1015E00004F0F6FD04F0ACF9002806D0FFF7A2FCE9
:1015F00000F042FC300000F051FC002D0DD004F052
:10160000D9FF04AD010001222800FFF7C1FB2B78B0
:10161000002B02D0280004F008FF04F0BDFF0028D2
:1016200001D104F07FFD00F03FFC5DE720BF020028
:10163000B006001041020010276C0000510200109B
:101640005C020010AC0500100CFEFFFF6C020010E5
:10165000136C00001D6C00000C060010CC0E001076
:1016600073B54A4C4A4B22684A4D9A4202D12560D2
:1016700001F0C2F82368AB4201D1002323600726A2
:1016800002F0B6F800F070FD0021434801F038FA8E
:1016900001250021414801F033FA00F045FE00F039
:1016A000E9FF00223E4C100023680B21B343236066
:1016B00023682B43236001F0B5F92000394C102139
:1016C00001F01EFA23680022B34323602368280038
:1016D0002360042101F0A6F90021200001F010FA96
:1016E00001F08AF99620000201F0FEFD01232E4D43
:1016F0005B4200202B60FFF7E5F8002350242B60AD
:101700000120FEF7A7FD00F0B5FF02F077F92B6886
:10171000002B05D16420043C01F0CEFB142CEFD14A
:101720000020FFF7CFF82821204802F0BBFB14204F
:1017300001F0C2FB1D48282102F0B4FB1C4801F057
:10174000BCFF192001F0B8FB01F068FE002819D099
:101750000020FEF71FFF0821164801F0D1F902F022
:1017600000FC03F063FB0C230193123300221249A7
:1017700012480093124B03F073FB124803F0A4FBD2
:10178000FFF730FE013C002CDBD1E4E7080000103D
:10179000BE153E37E45BE173984004409C40044032
:1017A00074400440944004408C040010DE030000A8
:1017B000316C000010400440D9030000F5610000C6
:1017C0000C060010C8050010F7B5031E019137D0B4
:1017D0000278303A504242419B181A78782A13D145
:1017E0001026012501331A7800242D2A01D1013356
:1017F000013400221878002809D1002C00D0524270
:10180000019B01201A601BE00A260025EBE7070078
:10181000303FF9B2092903D87243BA180133E9E716
:1018200020210843002D07D00700613F052F03D872
:10183000120157380243F1E7024801F03EFF002051
:10184000FEBDC046987100000378202B00D0704781
:101850000130F9E703003038C2B2092A08D9202044
:1018600018430300613B5738052B01D90120404242
:10187000704770B50E00FFF7E7FF002504002078E1
:10188000002802D13560200070BDFFF7E3FF00287B
:10189000F8DB2D0105430134F1E7000010B500F03D
:1018A000D5FD0100014801F008FF10BDA671000040
:1018B00000B589B0684602F041F96946024801F076
:1018C000FCFE09B000BDC046E5710000F7B50E0092
:1018D00001A91500FFF778FF002814D0019F0B49DC
:1018E000380005F099F80C006421200005F094F808
:1018F00020003170642104F0A9FF044928703800E9
:1019000004F0A4FFFEBD01204042FBE710270000C9
:1019100013B50C006B4660689A1DD91DFFF7D6FF02
:101920006B4698805A1C991CA068FFF7CFFF6B4646
:101930006A4618709288044B9A4203D9694601A8F6
:1019400002F088F913BDC0466B0700000B0007B515
:10195000586801A9FFF738FF3C20019B584302F06B
:1019600093F907BD07235843074B9C30C018831DCC
:101970000138834201D1012070471A78013B002AC7
:10198000F7D00020F8E7C046B00600107FB5194830
:1019900001F093FE00240326651C34421DD1200073
:1019A000FFF7E0FF002814D02800FFF7DBFF002836
:1019B0000FD0A01CFFF7D6FF00280AD0E01CFFF7CD
:1019C000D1FF002805D00434FF2CE5DD01F03AFFFB
:1019D0007FBD2100084801F070FE2100684602F03A
:1019E000D1FA684601F01EFF044801F066FE2C00A3
:1019F000EAE7C046D26A0000B2710000F7A4000016
:101A000070B50D00FFF720FF060004000D350E36FF
:101A100020780134FFF71EFF002807DB2870013D06
:101A2000B442F5D12000FFF70FFF70BD0020FCE7A6
:101A300070B53F4C86B02368002B07D13D4801F0BC
:101A40003CFE03F0F3F9012323602DE00868012B2D
:101A50000FD10422384901F098FE002802D12368F2
:101A60000133F1E7354801F028FE03F0DFF934498E
:101A70003FE00378412B19D132490230FFF7C0FF14
:101A80000028F2D00378422BEFD12F490230FFF724
:101A9000B7FF0028E9D00378432BE6D12B49023069
:101AA000FFF7AEFF0028E0D006B070BD532B02D187
:101AB00027490230F4E74D2B20D126490230FFF7A9
:101AC0009FFF0028D1D003784E2BCED1224902307F
:101AD000FFF796FF0028C8D00378472BC5D1023006
:101AE00001A9FFF7C6FE019B002BBEDB154A1B496F
:101AF00053651B4801F0E1FD0023A5E701A9FFF7AD
:101B0000B8FE2023057806009D43AED1300002A91F
:101B1000FFF776FF019B0600E918FF2902DC02A807
:101B200002F046FA002EA0D00135042DEED1BBE71D
:101B3000A4050010BB710000D26A0000D171000042
:101B4000EA710000B0060010BE060010CC060010BE
:101B5000F6060010DA060010E8060010DD7100003D
:101B6000E071000037B54C682378002B00D137BDF9
:101B70002000FFF769FE01A9FFF77BFE019B04002F
:101B8000002BF4D0D8B2FF2B13DD00F0C5FA019B77
:101B900005001812C0B200F0BFFA019001980028A9
:101BA00002D02900FEF78EFC23785A1E9341E418D8
:101BB000DAE700F0B1FA00250190EFE70123064AC9
:101BC00010B511784B401370044900D10449054801
:101BD00001F073FD10BDC0466D0200102E6C0000B8
:101BE000F1710000F57100000123064A10B511786B
:101BF0004B401370044900D10449054801F05DFDD4
:101C000010BDC0466C0200102E6C0000F171000087
:101C1000047200000B0007B5586801A9FFF7D4FD56
:101C2000019B002B0CDC012301939623019A9B005E
:101C30005343054A01990548136001F03EFD07BD75
:101C40001E2BF2DD1E23EFE72C02001014720000A1
:101C500010B50C4A1378013BDBB21370002B0AD08D
:101C6000012B05D10849094A094801F026FD10BD9C
:101C70000849094AF8E7094801F01FFDFEF770FD21
:101C8000F5E7C046100000103C720000EB83000036
:101C900040720000387200005D860000647200002F
:101CA00070B50400002C00D170BD64250021022015
:101CB000013D00F0D9FE002DF8D1013CF2E7000013
:101CC000F0B580250F4B6D001A6804262A431A6070
:101CD00008220D4F0D491C683C401C6044B2002C8A
:101CE0000CDA0C6834430C601C68013A2C43400049
:101CF000D2B21C60C0B2002AEDD1F0BD0C68B44372
:101D0000F1E7C046FC3F0150FFFEFFFFFC3F0050E3
:101D10000121044A10B513688B431360FFF7D0FF0D
:101D200010BDC046FC3F0250F0B583B072B601232F
:101D3000843001270600194D0193B0202B68340030
:101D4000BB432B60019B843C1843FFF7B9FF2B6812
:101D50000020BB432B60FFF7B3FF2B681020BB4371
:101D60002B60FFF7ADFF2B68E020BB432B60FFF734
:101D7000A7FF2B683B432B6020780134FFF7A0FFBF
:101D8000B442F6D1019B84342600002B02D162B606
:101D900003B0F0BD00230193CFE7C046FC3F0250E3
:101DA00010B5AC20FFF7B4FFAE20FFF7B1FFA520C0
:101DB000FFF7AEFF10BD70B50D000400012200F06A
:101DC00031FE29000122200000F078FE70BD10B520
:101DD000AF20FFF79DFFA420FFF79AFF10BD10B5BD
:101DE000AE20FFF795FF10BD10B50400F820FFF7F7
:101DF0008FFF2000FFF78CFF10BD10B5040081207D
:101E0000FFF786FF3F202040FFF782FF10BD000054
:101E1000202010B5064B1B781843FFF779FF0A20E6
:101E2000FFF73EFF034B1878FFF7E7FF10BDC046F2
:101E3000110000107F040010842210B5064B0748E3
:101E400019785200002903D0054901F04CFC10BD5F
:101E500001F06AFCFBE7C046800400107603001026
:101E60006E02001010B584220021024801F05CFCD3
:101E700010BDC0467603001010B55822044905482D
:101E800001F031FCB0220021034801F04DFC10BDEF
:101E9000760300106E020010C6020010014B18708D
:101EA0007047C04680040010002310B5074AD3567F
:101EB000002B07D0013B59B21B0601D4117010BD95
:101EC000002313700248FFF72FFFF8E77E0400108D
:101ED0007603001010B508210120FFF76CFF0221E6
:101EE0000020FFF768FF00210220FFF764FF0621B2
:101EF0000220FFF760FF03210800FFF75CFF0321CA
:101F00000022080000F0DAFD00220621022000F085
:101F1000D5FD01220621022000F0D0FDFFF78CFF45
:101F2000FFF7C2FFA220FFF7F3FEA020FFF7F0FEAD
:101F3000C020FFF7EDFE0020FFF756FF0A20FFF755
:101F4000AFFE4020FFF7E4FE2C20FFF7E1FE322039
:101F5000FFF7A6FE2E20FFF7DBFE3220FFF7A0FEE4
:101F60002F20FFF7D5FE0A20FFF79AFEFFF750FF5C
:101F7000FFF72DFF10BD0000030083280DD80F29A7
:101F80000BD88420CA085043C0180723194079335E
:101F90000B41024A115C0B43135470477603001047
:101FA000F0B5072580265B1885B0DBB2104F029094
:101FB00003920193019B994201D305B0F0BD8422A5
:101FC000CB085343029A30009B180A002A40104164
:101FD000039AC0B29446DA199C44634502DB01318E
:101FE000C9B2E7E714780133044314700132F4E70F
:101FF00076030010F0B587B005921E00DB788342AF
:1020000003D23778380007B0F0BDB4787268244B3B
:10201000041B00209A4216D103231F005C43A4181E
:10202000E318CDB20393EB19DBB2049300230193C1
:10203000049BAB42E6D0082302930023009327E0E1
:102040000233D21801301378A042F9DB5778941C80
:10205000E6E7029B082B07D1039B9C42D2D0237852
:1020600001340193002302930122019B134206D005
:10207000059B009A28009918C9B2FFF77DFF019BC4
:102080005B100193009B01330093029B0133029389
:102090007378009A9342DCDC0135EDB2C8E7C046A4
:1020A0007F720000F7B505001F000C00160001F05C
:1020B0005DFB2B180193019B9D4201D0832C01D91C
:1020C0002000FEBD3B00210028783200FFF792FF80
:1020D000024B01351B68C0182418ECE714000010EF
:1020E00000210122042330B50A4C0D5D854203D145
:1020F00018011043C0B230BD013B002B04D10132A6
:102100000433092A00DD002201312829EDD1002005
:10211000F1E7C046628300003C2310B5040980004B
:102120001840011F00D52831621E0020032A06D85E
:10213000242904DC0423024A1B1B5218D05C10BD66
:102140006283000070B505000024054B2900E05CA7
:10215000044B0134C01800F0D3FC0A2CF5D170BD3B
:102160005883000000400440F7B50E4E3468002C40
:1021700016D11020FFF7E6FF0B4D2B786F78180073
:10218000002239000193013400F04CFC0122390097
:10219000019800F093FC02350A2CEED10123336044
:1021A000F7BDC0468404001092830000F8B50025F6
:1021B0000B4C2678677801223900300000F032FCA1
:1021C000013500223900300000F078FC02340A2D7D
:1021D000EFD10020FFF7B6FF0022024B1A60F8BDD6
:1021E000928300008404001070B50500FFF7BCFF67
:1021F000002D09D001220721022000F013FC8021CC
:102200000F4A13688B4313600B21002000F02CFC55
:102210000124002805D00B21002000F025FC4442B9
:102220004441002D09D000220721022000F0FAFBD2
:102230008023034A11680B431360200070BDC04621
:10224000FC3F02500023F0B58BB0069001200993AB
:102250000791FFF7C9FF0400031E01D018230124D2
:10226000089300232C4E01933778757801222900BA
:10227000380000F0D7FB00222900380000F01EFCD7
:10228000264B0293019B04330593022C1CD0029B26
:102290009B790393029B0398DB791900049300F068
:1022A000E3FB00282AD101991D4AA3008A5C08A9F2
:1022B0005A500134019B01330193029B019A023B66
:1022C0000293059B9342E0D100222900380000F0E0
:1022D000A9FB01222900380000F0F0FB114B023667
:1022E000B342C1D1002C06D00124069B089A1A6083
:1022F000079B099A1A6020000BB0F0BD049903985F
:1023000000F0B2FB0028CED00499039800F0ACFB9B
:102310000028C8D0CEE7C046928300008A83000020
:1023200062830000A6830000012210B510000B217B
:1023300000F078FB00220B21012000F0BFFB0122FE
:102340000221032000F06EFB00220221032000F096
:10235000B5FB10BD37B51021244A050013680120D4
:102360008B4313608023224A9B011168214C0B434D
:1023700013600B21002200F055FB00220B210120ED
:1023800000F09CFB9F211C4B1A688A431A601A6854
:102390001A491A601A4B186804F058FA0302802090
:1023A000184320602A000320022100F087FB0A2046
:1023B000002D00D0012000F07FFDFF222368934311
:1023C000236022680F4B13430F4A23601368019365
:1023D000019B002BFADA23680C4A13402360FFF7B5
:1023E000A3FF01980004800D3EBDC0463882044022
:1023F0008080044000C001409840044000093D0036
:1024000090040010800000012CC00140FFFFFFF885
:1024100010B50D4C2068002814DA00202060FFF76A
:1024200099FF0A280BDC0120FFF794FFE0234138D5
:10243000FF385B00984202D8C03BFF3B2360FFF7A8
:1024400073FF206810BDC0461800001010B5FFF7DC
:10245000DFFF002801D1002010BD0020FFF77AFF28
:102460000120FFF777FF011EF5D0024804F0EEF9D6
:10247000F2E7C0462D47130010B5FFF7C9FF00284B
:1024800009D0FFF7E3FF00210300034AC00F9A427F
:102490004841024B186010BD340800008804001049
:1024A0000222074B10B51A60064BA0321960064B8A
:1024B0001A70013258709A7000F0F0FD10BDC046DD
:1024C000F4050010E0050010CC0500100022064BBA
:1024D000023110B51960054B1A60054BA2321A7013
:1024E000587000F0DBFD10BDF4050010E005001091
:1024F000CC05001070B505000E0003243100280043
:10250000FFF7CEFF0223FF33984202D0013C002C9C
:10251000F4D170BD70B505000E0003243100280011
:10252000FFF7D4FF0223FF33984202D0013C002C76
:10253000F4D170BD0A4B10B51B68002B0ED0094CAE
:10254000A31CA270140A5C70140C120EDA709C703A
:10255000FFF7E0FF831EFF3B5A425341180010BDB6
:102560008C040010CC05001070B50E4C2468002CB3
:1025700015D00D4C160AA270E670160C120E627180
:10258000A371A21D26711C0A54701C0C1B0E9470A2
:10259000D370FFF7BFFF841EFF3C63425C41200005
:1025A00070BDC0468C040010CC050010064B10B561
:1025B0001B68002B05D0FFF79DFF831EFF3B5A428F
:1025C0005341180010BDC0468C040010064B10B5D6
:1025D0001868002807D007210220FFF78BFF023878
:1025E000FF384342584110BD8C0400100E4B70B5AB
:1025F00004001868002813D0A11E062911D8072549
:102600006D1A072D04D009482A00091801F06BF84B
:102610002900E0B2FFF77EFF0238FF3843425841FD
:1026200070BD01204042FBE78C040010CE05001075
:10263000012110B50800FFF75DFF0223FF33984228
:102640000FD10120084B1860084B1C78230706D0D7
:102650000323074A234001009370FFF75BFF20002C
:1026600010BD01246442FAE78C040010E405001058
:10267000CC05001010B5FFF7DBFF01210220FFF7AA
:1026800039FF0223FF3398420FD1084B1B787F2B71
:1026900006D9842207210220054B5204FFF764FF6C
:1026A00004210920034AFFF745FF10BDE40500108F
:1026B000020114008080808010B5002848D080215D
:1026C000254A13688B431360012324490A681A4280
:1026D000FCD00322224B1A6001230021214A1360FF
:1026E0001160136011681942FCD01F4A1F49136022
:1026F00080230C685B0223430B60002804D18023F5
:1027000015490C6823430B60194B196881421ED090
:102710001860431E9841174B40421840164B1168F1
:10272000C01804F009F8FA21144B8900186004005D
:1027300004F08CF81E23C8214343114A2000136083
:10274000490104F083F80F4B186001F03BF810BD0D
:10275000034B1860C0E7C046388204400C80044038
:10276000708004407480044078800440808004407D
:102770001C00001000512502001BB700900400103F
:10278000980400109404001010B500F03DF9134AAD
:10279000002113681B0B1B031360114A13681B0BEA
:1027A0001B0313600F4A13681B0B1B0313600E4AB5
:1027B00013681B0B1B03136001220C4B19600C4B9D
:1027C0001A6019601A6019681142FCD02322094B63
:1027D00000201A60FFF770FF10BDC0460080005057
:1027E000008001500080025000800350408004406F
:1027F0004480044008800440014B024A1A60FEE70E
:102800000CED00E00400FA0570B500250B490C48FA
:1028100000F053FF0B4E300000F04FFF0A4CE2680F
:10282000216833000948013500F047FF14340C2DAE
:10283000F5D1074800F041FF70BDC046D26A0000E4
:10284000A6830000E983000024850000B88300000F
:10285000C3830000F0B500253D4F04003B6828000D
:102860008BB0AB425ED03B4B02941B6802A99B68C5
:10287000013098473B68002B02D1374800F01DFF1C
:102880000BB0F0BD01342378202BFBD0002B2FD0D0
:10289000431C0193800002ABC450FF2D06D1019B65
:1028A0001800022B45D1002526E01C002278002AC2
:1028B00005D0631C202AF8D1002222701C00019B45
:1028C000012B2ED10C26234D244B2B602B68029814
:1028D000196800F06AFF2B68002821D01433013EEC
:1028E0002B60002EF2D131003000FFF78DFFC4E7DE
:1028F0000028BFD002281AD11949039800F055FFCB
:1029000000280BD1134C17482368D96800F0D5FE76
:1029100023681548196900F0D0FEABE7022006E0F5
:102920001D7901982378002BE2D00828ABD185428D
:10293000E8D2084CC0B2236802A99B689847226875
:102940000A4B92689A4295D00322094B1A7091E77C
:10295000A40500109C040010EC83000024850000F6
:10296000036B0000E5830000E5710000511C0000CE
:102970001000001070B50400154D0D281BD00CD8A8
:1029800008280CD00A2816D02100124800F095FE25
:102990002B685A1C2A601C7018E07F28F4D10E4B5B
:1029A0002A689A4212D921000A4800F086FE2B6854
:1029B000013B2B600AE000232A680848137000F0EE
:1029C0007CFE054C2000FFF745FF2C6070BDC04623
:1029D000A0050010F8830000A0040010E9830000A7
:1029E00010B500F01BFD002800D110BD00F0F4FC74
:1029F000FFF7C0FFF5E70000014B024A1A6070477D
:102A0000A0050010A00400104023044A11680B43E5
:102A100013600122024B1A707047C0468080044048
:102A2000A80500100E4B70B51B7804000E001500B1
:102A3000002B01D1FFF7E8FF631E022B0AD8094BD8
:102A40002004C01801230268B340012D04D11343B0
:102A5000036070BD0348F5E79A430260F9E7C0469A
:102A6000A8050010008000500F4B70B51B780500C2
:102A70000C00002B01D1FFF7C7FF0020032D0BD85E
:102A80002800012303F03AFE02090B0D074AA34078
:102A900010681840431E984170BD054AF7E7054A83
:102AA000F5E7054AF3E7C046A8050010FC3F0050D3
:102AB000FC3F0150FC3F0250FC3F03500E4B70B5F1
:102AC0001B7804000E001500002B01D1FFF79CFFBE
:102AD000631E022B0AD8094B2004C0180123026888
:102AE000B340012D04D11343036070BD0348F5E7E3
:102AF0009A430260F9E7C046A8050010FC3F005069
:102B0000084B70B51B7804000D00002B01D1FFF7B6
:102B10007BFF182223689343236021680D432560BF
:102B200070BDC046A80500103F224021044B1A602A
:102B3000044B3E3A1A60044A13688B431360704793
:102B400024800440D8800440388204404021044A54
:102B500010B513688B431360FFF7E6FF10BDC04646
:102B60003882044009490A4A0B681A4080235B00F6
:102B700013430B600421074A13688B431360064B11
:102B80001A68064B1A6030BF7047C0460080034089
:102B9000FFF7FFFF10ED00E038820440348204406C
:102BA00010B500F041FAFFF701FB00210948FFF7DB
:102BB000A7FF00210848FFF7A3FF00210748FFF700
:102BC0009FFF00210648FFF79BFF00210548FFF704
:102BD00097FF10BD0840044000400440AC40044052
:102BE000144004401C40044010B50120FDF732FBA6
:102BF00010BD00008022124B10B5DA679218DA6718
:102C00008022D200DA6780225201DA678022120124
:102C1000DA6780229200DA6700230121094A4942DB
:102C20001360094A1160094A1360094A1360094A8E
:102C300001331360084A1360FFF7D6FF10BDC0468A
:102C400004E100E0048204400882044004C0004023
:102C50003CC0004000C0004000400140064A10B5A2
:102C6000136801331360054B1868FFF725FDFFF764
:102C7000C1FFC046C04610BDB00500101C000010CA
:102C8000F0B585B00C00019072B6FFF789FF554B87
:102C9000554D1A68554B1A60019B5A1E93413F22AD
:102CA0005B429343524A9B18524A13600423524A90
:102CB00011680B43136000232B60A3071AD04F4AFF
:102CC0004F4913680B40136029684E4BA20700D48C
:102CD00082E0EC2252010A432A6080221A60921894
:102CE0001A608022D2001A60802252011A6080226B
:102CF00012011A60019B002B53D00024424B434F1A
:102D0000434E3C601C60434B21001C60424B300032
:102D10001C60FFF7F5FE220009212000FFF782FE6C
:102D2000220009212000FFF7C9FE80213B4A3C48D0
:102D300013680B431360072233687639934333607B
:102D40003368053A13433360019B584303F0F4FCA6
:102D50000322344B34491860344B1C60344B1A60E6
:102D6000344B1A680A4080211A601A680A431A60B4
:102D70008023244A21499B0013600A681A430A6091
:102D80002A68022113432B6001232B4A13602B4A2C
:102D900011602B4A13601460136011681942FCD053
:102DA0003B6001220021274B52421A60264A1368D9
:102DB0000393264B196062B630BFC0460399126870
:102DC000914207D101221A60214B1868FFF774FC69
:102DD000FFF710FF05B0F0BD802212010A432A6000
:102DE00085E7C046388204400482044034820440AF
:102DF000FF1800003082044010ED00E00082044023
:102E00007FE2FFFF00E100E00400014004C0004059
:102E1000644004400440014004800140808004403C
:102E2000841E000018C000400FF0FFFF08C00040E3
:102E300014C000403CC000407880044070800440D2
:102E40007480044008820440B0050010AC050010F6
:102E50001C00001010B5FFF713FF10BD074B1A68D8
:102E6000013203D106490A6801320A601A68013248
:102E70001A60044A1368013313607047C0050010DC
:102E8000BC050010B805001080235B0498420AD2EC
:102E90000023054A01381360044A1060044A136095
:102EA0000722044B1A607047C005001014E000E0D0
:102EB00018E000E010E000E00B4A1368002800D1A1
:102EC0000130C143994209D2591C0818116899422E
:102ED00000D2704711688842FCD8F7E71168C91A18
:102EE0008142FBD3F5E7C046C0050010014B1868CE
:102EF0007047C046C00500100122034B1A60034A08
:102F0000136801331360704700C00040C40500100F
:102F10000122034B1A60034A1368013313607047A0
:102F200000000140C8050010002803D10122044B15
:102F30001A6070470128FCD1024B1860F9E7C046BF
:102F400004C0004004000140002802D1044B186076
:102F500070470128FCD10022024B1A60F8E7C046F6
:102F600004C0004004000140002805D1044A0223A7
:102F700011680B43136070470128FCD1014AF6E742
:102F800004C000400400014010B5002900D11449DC
:102F9000002810D18023134A1468234313600322AE
:102FA000114B1860114B1960114B1A608022114BA4
:102FB00052021A6010BD0128FCD18023094A5B002F
:102FC00010680343136000220B4B1A600B4B033253
:102FD00019600B4B1A608022064B9202E9E7C0464B
:102FE000FFFF000080800440C405001018C00040AE
:102FF00014C0004000E100E0C805001018000140C6
:1030000014000140802210210820064BD2051160D7
:10301000186080235B011068084202D0013B002B3E
:10302000F9D17047180000408022164B120210B5EB
:10303000DA676C22144B15481A60154B1968014069
:1030400019601A6804211A60124B1A6802401A604B
:103050001A6800201A600122FFF7E4FC0122042113
:103060000020FFF72BFD012205210020FFF7DAFCED
:10307000012205210020FFF721FD0022064B1A60E6
:1030800010BDC04604E100E018000040F8FCFFFF5E
:10309000304004403440044004800440F8B500232C
:1030A000164A174C202123601360164A13608022B1
:1030B000D2051160144A2168012907D0934203D137
:1030C000FFF7A0FF0020F8BD0133F4E79342F7D0EB
:1030D00000250E4F3E68013E2368FF2B01D9206872
:1030E000F1E73B68B34204D03E68FFF7FFFE0A30C9
:1030F0000500FFF7FBFEA842EED1E1E7F80500105E
:10310000DC050010FC050010FF0F00000006001099
:103110000122034B1A60034A13680133136070479E
:10312000004001400C06001070B50124164B174AF0
:103130001C6013681B191360154B1A68002A13D002
:103140001A68144D013A1A601E68002E0DD0210035
:1031500020002A68FFF7B2FC2B680221E31A2B60DB
:1031600020002A68FFF7AAFC70BD1B6821002B60B5
:1031700020002A68FFF7A2FC022120002A68FFF73E
:103180009DFC054B1E60EFE700800140100600101B
:10319000040600100806001004800140002803D136
:1031A0000122044B1A6070470128FCD1024B1860C1
:1031B000F9E7C0460440014004800140002802D1E4
:1031C000044B186070470128FCD10022024B1A60A2
:1031D000F8E7C0460440014004800140002805D1C2
:1031E000044A022311680B43136070470128FCD185
:1031F000014AF6E7044001400480014010B5002870
:1032000011D18023124A9B001468234313600322C8
:10321000104B1860104B1960104B1A608022104B35
:10322000D2021A6010BD0128FCD18023084ADB00BD
:1032300010680343136000220A4B1A600A4B0332E2
:1032400019600A4B1A608022054B1203E9E7C04659
:10325000808004400C0600101840014014400140DA
:1032600000E100E0100600101880014014800140C9
:103270000E22174B10B51B681340062B12D1154BAD
:1032800090321B68134205D0134ADBB25360134BD4
:103290001B6810BDDB07FCD5104B1868C0B200F0EE
:1032A000ACF8F6E7042BF7D00C2B05D10A4AF4331F
:1032B00051680B435360ECE7022BEAD1054B1A68C7
:1032C000054B920602D500229A60E2E70122FBE755
:1032D0000880004014800040140600100080004068
:1032E0000048704714060010F7B58022002107251A
:1032F0002A4B2B4C9203070001912000DA679022A1
:1033000000F012FA019B274EA360274B1A68AA43CC
:103310001A600122196811431960244B1968A943E6
:103320001960196811431960802321495B010868FD
:1033300003430B601F4B1A60823232601E4A1268D0
:1033400019681E4B1868504303F0F6F9390000095C
:1033500003F0F2F910221A4B1A491A60030A0B60A3
:103360000323194FC0B2386060203360174B1D60D3
:10337000174B1A6801921A680240602AFBD15F3A23
:103380001868104207D122708022124B92031A60F3
:1033900005230B60F7BD38680190F1E704E100E018
:1033A000140600100C800040A4400440A8400440D3
:1033B000808004409880044078800440900400108D
:1033C00028800040048000400080004008800040C9
:1033D0001480004000E100E010B5FFF781FF02001B
:1033E000837BC318D87B937B0133DBB293735BB2CF
:1033F000002B01DA0023937310BD10B50400FFF712
:103400006FFF437BC318DC73437B0133DBB2437331
:103410005BB2002B01DA0023437310BD10B5FFF738
:103420005FFF0300807B5B7BC01A431E9841C0B2E4
:1034300010BD70B504001D0000202E5C2318002E66
:1034400009D1121AD518EC1A002C07DCD343DB176C
:103450001A40101870BD26540130EEE71970013380
:10346000F1E7F8B5541E0F001E000500230001000F
:10347000092E16D90A21300003F05EF9220003005C
:1034800039002800FFF7EDFF04002D1830000A2155
:1034900003F0D8F930312970601CF8BD0F70013B82
:1034A0000131002BFADC0020824200DD20002D18C3
:1034B000002A00DC0122541EE8E7F7B50E00D917F8
:1034C0005F18040001934F40551E092F17D90A2198
:1034D000380003F031F9019A0300002A00DA434270
:1034E0002A0020003100FFF7E8FF0500241838000B
:1034F0000A2103F0A7F93031681C2170FEBD019B41
:10350000002B00DA951E23006119CA1A002A0CDC70
:10351000E843019AC017054064196B1C002AE6DADB
:103520002D221D0022700134E1E71E700133ECE70B
:10353000F7B51E00089B1400013A1F09050013008F
:10354000002F11D033000097FFF7F2FF2D180F2343
:10355000089F1F40FAB2092F12D830322A7001306A
:10356000FEBD0170013B0130002BFADC00208442DB
:1035700000DD10002D18201E00DC01200138E6E7D8
:10358000002E01D03732E9E75732E7E7F0B5050002
:103590000F001C0085B0002801D000230370002616
:1035A0001378002B00D16DE0B74204D80023013D11
:1035B0002B70013E32E0252B04D001322B700136F6
:1035C0000135EDE75178252902D129700232F6E75D
:1035D000931C0393302902D02021531C0393039B97
:1035E0001B782D3B5A425341039AD3180022039370
:1035F000039B1B7818003038092812D99019B8425B
:1036000001D9BA1BD2B2692B1FD013D8632B35D086
:10361000642B1AD0582B2DD001267642300005B0ED
:10362000F0BD0A2042439A18039B303A0133D2B2CC
:103630000393DDE7752B11D0782B14D0732BEBD1CE
:10364000280008CCFFF7F5FE03E0280008CCFFF7C0
:1036500034FF039A2D1801323618A1E7280008CC50
:10366000FFF7FFFEF5E708CC009300232800FFF7E3
:103670005FFFEEE708CC00930123F7E708CC0120B9
:103680002B70E6E7B74200D890E72B70C6E710B57D
:1036900013000A006421FFF779FF10BD00B59BB04D
:1036A0000A00010001A8FFF7F2FF632800DDFEE732
:1036B00001A800F0ADF81BB000BD0FB407B504A918
:1036C00001C90191FFF7EAFF03B008BC04B0184735
:1036D0000EB403B503AA02CA0192FFF7D8FF02B0E5
:1036E00008BC03B0184770B506000E43032534002C
:1036F00003002C402E420FD1AA420DD90B59035181
:103700000434131B032BF9D80324131F9B08013324
:103710009B00C9182240C3180024A24200D170BDEA
:103720000D5D1D550134F8E770B5830704D0030023
:103730009A189A4217D170BD0300032AF8D90C04D5
:103740000B0623430B430C0223430400861808C4D2
:10375000351B032DFBD80324131F9B0801339B004B
:10376000C3182240E4E719700133E2E703000020A8
:103770001A5C002A00D170470130F9E70023CA5CC7
:10378000C2540133002AFAD1704770B500230400F7
:103790009A4201D1002007E0E55CCE5CA81BB5424F
:1037A00002D10133002DF3D170BD0200002310B50A
:1037B000D05CCC5CA04201D0001B02E001330028A9
:1037C000F6D110BDFA21094B10B51868890003F035
:1037D0003DF8FFF759FB96200002FFF785FD012019
:1037E000FCF738FDFEF746FF10BDC0469004001000
:1037F00010B5FEF7C9FFFFF707F9FFF7A7F9FEF7C6
:1038000069FBFEF719FBFFF7DDFFFFF7F5F810BDC9
:1038100010B504002078002800D110BD0134FCF759
:103820006FFDF7E770B50500441E0D35A54200D1C8
:1038300070BD29780248FFF740FF013DF6E7C0461A
:10384000056C000070B51748FFF737FF164D2800CC
:10385000FFF7E8FF154C42212000FFF72EFF144828
:10386000FFF7E0FF43212000FFF727FF1148FFF794
:10387000D9FF1148FFF721FF1048FFF7D3FF104889
:10388000FFF71BFF0F48FFF7CDFF4E212000FFF78A
:1038900014FF0D48FFF7C6FF696D0C48FFF70DFFD9
:1038A00070BDC04614860000B00600101A860000E5
:1038B000BE060010CC06001021860000F60600109F
:1038C00027860000DA060010E80600102D860000AA
:1038D0000A23021153430F2210401818704770B585
:1038E0000A21050002F0B2FF0A210401280003F0BA
:1038F00093F82000084370BDC12210B55200022188
:103900000E20FEF717FE0122014B5A7110BDC04672
:10391000A606001010B5084C6379002B01D1FFF703
:10392000EBFFA2792379520001211A430C230800EE
:103930001A43FEF7FFFD10BDA606001010B5074C98
:103940002379002B08D16379002B01D1FFF7D4FF35
:1039500001232371FFF7DEFF10BDC046A60600104D
:1039600010B5054B1A79002A05D000221A711A7277
:10397000DA70FFF7CFFF10BDA606001010B50121C9
:103980000220FEF713FE064B040018787F23184030
:10399000FFF79EFF034B5870DC71200010BDC0463E
:1039A000E4050010A60600100122014B9A70704732
:1039B000A60600100022024B9A701A727047C04689
:1039C000A606001010B5FFF7D9FF094B09499A78F0
:1039D000002A03D01A7A012A02D801321A7202E0B0
:1039E0000868054A10600022DA700A6010BDC046FF
:1039F000A6060010B8050010B405001010B5FEF7BB
:103A000017FE0C2203001340104203D0024A117823
:103A10000B43137010BDC046A606001010B5FFF78B
:103A2000EDFF044C23785B0701D5FFF7CBFF0023A4
:103A3000237010BDA606001010B50020FEF7D4FBC1
:103A4000002801D0FFF7EAFF10BD0000002310B5E9
:103A5000044CE371FFF7F0FFE379002B01D1FFF78E
:103A60008DFF10BDA606001010B50921084802F010
:103A7000D9FFFA22074BD2001A80FFF7E7FF002296
:103A8000054B1A60FA22054B92001A6010BDC04621
:103A9000A6060010A4060010B8050010B40500101A
:103AA00010B5FFF7C9FF002010BD704710B5FFF734
:103AB00057FF10BD70B51D4C0D0061782378A278BA
:103AC00009021943E378120411431B06184A0B43F9
:103AD00013401A0A237062701A0C1B0EE37063798C
:103AE0002179A2701B02134A0B43134023711B0A56
:103AF00006006371A079FFF7EBFE0F4B1B881B18C4
:103B000033806079FFF7E4FEB070E078FFF7E0FE05
:103B1000F070A078FFF7DCFE28706078FFF7D8FE21
:103B200068702078FFF7D4FEA87070BDE40500101F
:103B30007F7F3F3F071F0000A4060010F0B58DB047
:103B40000400FEF743FD002805D120001249FFF7CD
:103B5000BFFD0DB0F0BD0AAE0BAD29003000FFF780
:103B6000A9FF33880793F378B77808932B780993E4
:103B70000A4B6E781879AD7800F0D2F8099B049062
:103B80000193089B20000093079A3B00044903958A
:103B90000296FFF79DFDDCE739860000E405001082
:103BA0003E86000070B505000E001400FEF70EFD05
:103BB00000280AD028003100FFF77CFF201E03D028
:103BC0000020034B1B79236070BD01204042FBE7BE
:103BD000E4050010F7B504880E00050064212000FC
:103BE0000092019302F02EFE114B8FB2E41B1C8059
:103BF000B078FFF774FE0F4CA0707078FFF76FFE7F
:103C0000E0703078FFF76BFE2071E878FFF767FE11
:103C1000009B6071A371A878FFF761FEE071380026
:103C2000FFF75DFE20720198FEF7E0FCFEBDC04686
:103C3000A4060010CC05001010B50223FFF7CAFF40
:103C400010BD431E984110B5420101210020FEF72E
:103C500071FC10BD70B5040001200D00FFF7F1FFED
:103C6000200000F085F8072102F0D6FE20000A00AF
:103C70002900FFF7E1FF96204000FFF71DF9002023
:103C8000FFF7DFFF70BD000073B50400FFF776FE9D
:103C9000002801D1002076BD1D4D6E780A20FFF767
:103CA0000BF9FFF76BFE0028F4D06B78B342F5D028
:103CB000FEF78CFC0028EDD001A96846FFF7FAFE5C
:103CC000684600F055F8050001A800F031F8114BE6
:103CD00004199C420DD90122E3171343ED186946DC
:103CE000280000F077F80C4AE31713400B4A9B18A2
:103CF000E418200001A900F025F82800072102F0AF
:103D00008BFE68460A0001A9FFF796FFC3E7C0468D
:103D1000A60600107F51010000A3020080AEFEFF46
:103D200007231840014B8000C05870477C86000074
:103D30003C23020000785178584340184343907860
:103D40001818704770B50C003C21050002F064FEA5
:103D50002800A1703C2102F079FD3C2102F05CFEBC
:103D60006170E1212800090102F070FD207070BD32
:103D700070B5962283780688050000205201B61897
:103D8000010002229A424141761A022B00D80C30DF
:103D9000C0189923033858436E240521023002F0DD
:103DA00055FD6421FF3474430419B01024184942AE
:103DB000300002F04BFDC82124184900300002F009
:103DC00045FD034B2018EC78C018001970BDC046A3
:103DD000D382FFFFF8B5214B050080000E00C0180C
:103DE0001F4902F033FD032703007B43D8173840F7
:103DF000C01880101B4B2D18AD00ED1828001A4973
:103E000002F00AFECC173C4064180237A4107C4331
:103E100002342000992102F0FFFD0800390002F071
:103E200015FD0130F0709921200002F00FFD0C21EA
:103E3000023002F0F1FD0131C8B20E21B070081A53
:103E4000023902F003FD08490400280002F0FEFCDC
:103E5000064BC01824183480F8BDC046652F0400F6
:103E6000B13A02004F150000B505000094EDFFFFC8
:103E7000012210B511001000FEF720FE01220221E0
:103E80001000FEF71BFE012100220800FEF7CAFD0C
:103E9000002202210120FEF7C5FD0120FFF78EF967
:103EA00010BD000070B50D00072101240600174B5E
:103EB00020001A688A431A601A6822431A60144B59
:103EC0001A688A431A601A68210022431A60220085
:103ED000FEF7A8FD220002212000FEF7A3FD0D4BF6
:103EE0003100186802F0B2FC01002000FFF786F9EB
:103EF0002000FFF773F9084E20003560FFF74EF9F8
:103F00003368002BFCD1FFF7B3FF70BD7C40044049
:103F10008040044090040010040600100300F820C4
:103F20000A00C000890101405005800E0143F820BD
:103F30000002024011430A22514330B5CC101A1935
:103F40001000EB3055780078EA32684012781B5D3B
:103F50000002104358400723194008418005800D96
:103F600030BD7047C023010010B55B01984201DBF2
:103F7000024BC1180248FFF7D1FF10BD00F8FFFF48
:103F8000B28500000723020010B50F245943074BE8
:103F90009C31C9180E320B78234003700B78013125
:103FA0001B09437002309042F5D110BDB0060010DD
:103FB00007230200594310B5064B9C31C9180E3235
:103FC000437804781B01234302300B700131824295
:103FD000F6D110BDB006001070B5B64D1726EB6EC9
:103FE00086B05A1E93416E443370B34BEA58D006E4
:103FF000400F0138062808D802F080FB443104360F
:104000003C3F42000D23002404E06B6E16339B00FE
:104010005C59230050111F283BD802F083FB350068
:104020003F00440048004E00560059005F00630006
:1040300069007800830090009F00AC00B700C400C6
:10404000D100DF00EC00FD00FB000A0111011601A8
:1040500023012E01330137013D01410145016B6E02
:1040600016339B00EB58CEE7AC6DEB6D9C42D1DD77
:104070000D23CFE702231C00CCE70C230324C9E760
:104080000D23F8E70223BEE7191B0131281902F0BE
:10409000C9FC01203378EB6606B070BD191B874858
:1040A00001312018F3E7191B85480131F9E7220097
:1040B0008249280001F05DFAEBE71A1B7F480132C4
:1040C00029192018FFF70FFBE3E722007C49F0E7EE
:1040D0007A491A1B7A4801326118F2E722007849BE
:1040E0007648E7E776491A1B013261182819E9E793
:1040F000296E0A22002900D1063200932300029281
:104100006E4A01962900280001F03DFAC1E7296EA8
:104110000A22002900D1063202920093684A230045
:104120000196EFE70122296E32700932002900D191
:10413000063202920093002223000196E2E7296EE4
:104140000A22002900D106320093230002925B4A22
:1041500001962900280001F041FA9AE70122296E10
:1041600032700932002900D10632029200930022F7
:1041700023000196EDE7296E0A22002900D10632BC
:10418000029200934E4A23000196E2E7296E0A222A
:10419000002900D106324A4802920093020023000F
:1041A00001960100B0E7296E0A22002900D10632EB
:1041B0004348029200930200230029000196A3E7DE
:1041C0000122296E32700932002900D10632029292
:1041D0000093002223003A480196E2E7296E0A2262
:1041E000002900D1063236480292009302002300D3
:1041F00029000196AFE70122296E327009320029A9
:1042000000D106322E4802920093002223000100C2
:104210000196A0E701223270296E0A22002900D1FE
:1042200006322748029200930200230000210196E3
:1042300091E7220000212148009601F031FA28E799
:10424000220000211E480096F7E7296E0A22002965
:1042500000D10632009323000292194A01962900E8
:10426000002078E7296E0A22002900D10632029246
:104270000093124A23000196F1E7220000210096E4
:104280002800DAE722000E490096F9E71A0021001B
:10429000280001F01CFAFCE61A0021000748F8E7A4
:1042A0001A0021000648F4E71A002100280001F056
:1042B0001FFAEEE6B0060010C4070000BE060010AC
:1042C000CC060010064B10B519001A1DD46F08312A
:1042D000CC67D96FD1679A6F9867DA6710BDC0460F
:1042E000B0060010064BDA6F986F9A671A1DD16FEF
:1042F00008335967D96FD1670022DA677047C04623
:10430000B0060010F8B5134D2F008C373B68581CD1
:10431000FFF728FEF923DB00E8500123AA6E040012
:1043200003409A4213D10C4BEE58830703D43868EC
:104330000230FFF7C7FFFF202B000122A40100027B
:104340000440B6108C3334431C60044BEA50022006
:10435000F8BDC046B0060010C4070000AC0700005E
:104360000D4B0E490120CA5810B5D3059B0E94057C
:104370000ED5403B8C6E92100240944206D10A004A
:104380008C321468E3181360054BC850012010BD2F
:10439000002BEFD10300EDE7C4070000B0060010CA
:1043A000AC07000010B5084B5A1CD07F9A1CD27F76
:1043B00000011202104303331A7FDB7F10431B03FB
:1043C0001843FFF77FFF10BDB006001010B5FFF7D0
:1043D00089FF0F240323044A01002140D1540133F3
:1043E0000011072BF8D110BDCC06001010B5FFF757
:1043F00079FF044B01211A008C321060024A995057
:1044000010BDC046B0060010AC07000010B5064C49
:10441000A36E002B07D0FFF765FF230001228C332A
:104420001860024BE25010BDB0060010AC0700004F
:1044300010B5064CA36E002B07D1FFF753FF2300E6
:1044400001228C331860024BE25010BDB006001000
:10445000AC0700000121054B054A10B5D150054BB2
:104460001B68002B00D0984710BDC046BC07000059
:10447000B0060010840E00100020144B144A70B5D2
:10448000985004329A5882421AD0F622D200995893
:10449000814214DD012909D1F721C9005C58844209
:1044A00004D058500A210B4D99505C51F621C90097
:1044B0005A58032A01DD0120D866013A5A5070BDCE
:1044C000054B1B68002BFAD09847F8E7B0060010A0
:1044D000BC070000B4070000840E0010F822094B4E
:1044E000D2009A58002A04D0F622D2009A58002A04
:1044F00007DD0F21044A9A580133114012119977B0
:10450000DA777047B0060010B4070000044A537F02
:10451000917F1B0109020B43117F0B4353677047C7
:10452000B00600100B00093B30B5012B0BD800235F
:10453000074AD55CC45CA54206D0064A064B08393A
:10454000D0580143D15030BD01330E2BF1D1FAE7E1
:10455000CC060010B0060010A407000010B5082912
:104560000FD0192908D1082342781A4205D0002219
:1045700002704370FFF71CFD10BD0F230370083B52
:10458000F7E70200030000240E321C70013393424F
:10459000FBD1EFE730B5114B85B05C6F002802D03E
:1045A0000F22944304430E4D5C67FF2C05DD0E2162
:1045B000280002F037FA05B030BD21006846FFF749
:1045C000E1FC21006846FFF7C9FF00236A46D25C80
:1045D000EA5401330E2BF9D1EDE7C046B0060010C6
:1045E000CC0600101FB50F22104B5C6F94430443A0
:1045F0005C67082C18D0FF2C16DC21006846FFF7FA
:10460000C1FC21006846FFF78DFF0023084968467A
:10461000CA5CC25401330E2BF9D12100FFF79EFF73
:1046200021006846FFF7C4FC1FBDC046B00600105D
:10463000CC0600101FB50E4C616F082917D0FF295A
:1046400015DC6846FFF79EFC616F6846FFF76AFF5E
:10465000002308496846CA5CC25401330E2BF9D1C5
:10466000616FFFF77BFF6846616FFFF7A1FC1FBD1D
:10467000B0060010CC06001010B50D4C631CD87F9E
:10468000A31CDB7F00011B021843E37F1843E31CDC
:10469000DB7F1B031843FFF765FC0F220300134069
:1046A00023770311134000126377A07710BDC04633
:1046B000B0060010024A536E16339B00D05070476C
:1046C000B006001004494A6E1632920053581B1A65
:1046D0005A425341CB667047B0060010054A536EEC
:1046E00016339B009958013901D4995070470D2118
:1046F000FBE7C046B0060010064A536E16339B0017
:104700009958481C0D2901D09850704700219950A4
:10471000FBE7C046B00600100F4B5A6E16329200EF
:10472000D05819180A7F0C2804DC497F09010A4374
:104730005A657047F5200949120159588000814295
:1047400005D007480140B7208000814202D1596D51
:104750000911ECE7197FEAE7B0060010CC0700006A
:10476000FFFEFFFF224B30B55A6E16329200D25830
:104770000C2A05D1F5211F4889001858884204D019
:10478000FA21C900595800290DD00F20596D9A18E7
:1047900008400C1150771477FF2209011140214382
:1047A0001877596530BD0F25586D041105400C2A46
:1047B00003DC9B181D775C77F4E70E4A9958F522C5
:1047C0009200914205D00C4A1140B72292009142CA
:1047D00008D11A00FF212932157002010A40224334
:1047E0005A65DFE71A00293214701D77DAE7C046F0
:1047F000B0060010CC070000FFFEFFFF0F21254B85
:1048000070B55A6E586D16329200D25801400011A0
:104810000C2A05D1F524204DA4005D59A54204D0F1
:10482000FA24E4001C59002C0CD0551C5D192C7F77
:104830009A18167F240134435C651C7F2C7710770F
:1048400019770CE0C9B20C2A0ADC551C5D192C7FC3
:104850009A18167F2401344328775C65117770BD60
:104860001D00F5260C4A29359C582A78B6001201FD
:10487000B44205D0094E3440B726B600B44204D144
:1048800002435A6529331970E9E71C7F28702243D7
:104890005A65D5E7B0060010CC070000FFFEFFFF09
:1048A00010B50E2202490348FEF71DFF10BDC04699
:1048B000CC060010E806001010B50E22024903488D
:1048C000FEF711FF10BDC046E8060010CC06001030
:1048D00010B50D2300220249024800F04AFE10BD27
:1048E000E8060010CC06001010B50E22024903485D
:1048F000FEF7F9FE10BDC046CC060010DA06001027
:1049000010B50E2202490348FEF7EDFE10BDC04669
:10491000DA060010CC06001010B50D230022024963
:10492000024800F026FE10BDDA060010CC0600108A
:10493000024B181846300278DA667047B00600104D
:10494000044B002219009A6408314C33CA871A803C
:104950007047C046B0060010C21C431E002010B5B0
:1049600004499A4200D110BD8C5C40002043013ABA
:10497000F7E7C046F606001030B50124054A0B1DC6
:10498000994200D130BD05002540555440100131F9
:10499000F6E7C046F606001070B50020FFF7DCFF12
:1049A0000500084C0021207FFFF7E6FF2577042053
:1049B000FFF7D2FF05000421607FFFF7DDFF657779
:1049C00070BDC046B006001010B50020FFF7C4FF50
:1049D000034C20770420FFF7BFFF607710BDC0466F
:1049E000B006001010B5054C0021207FFFF7C4FF72
:1049F0000421607FFFF7C0FF10BDC046B006001065
:104A000010B50A4C23008C3318680130FFF7AAFA5E
:104A1000F923DB000F22E05003001340237703113A
:104A2000134000126377A07710BDC046B006001097
:104A300010B50E21054801F0F5FF0E21044801F0E4
:104A4000F1FF0E21034801F0EDFF10BDB00600108C
:104A5000BE060010CC0600100022054B197F187806
:104A600001320143197701330E2AF7D17047C0464E
:104A7000B00600100022054B187F19780132014062
:104A8000197701330E2AF7D17047C046B0060010DF
:104A90001FB500230A4A6C461118097F01301955C9
:104AA0000D2800DD002001330E2BF4D10023054A30
:104AB0006946C95CD15401330E2BF9D11FBDC046E4
:104AC000B0060010CC060010074A10B5536E16331E
:104AD0009B0099584C1E51189C500877002C01DA05
:104AE0000D21995010BDC046B0060010034B0022A6
:104AF0001900983394310A601A607047B0060010AC
:104B00000122034B943319684A401A607047C0462B
:104B1000B0060010074B002219008C310A600121F9
:104B20001A67054A99501A009432126851424A4154
:104B3000DA667047B0060010AC07000070B5874B0E
:104B4000874DEC58874BA210A41119570F2313401F
:104B5000581E0E283DD801F0D1FD0810171E223C2A
:104B6000283C3C2E3C3C3C323600002931DB002204
:104B7000691846310A70180070BD002929DB01232D
:104B8000691846310B70F6E7002922DB0800FFF7B1
:104B9000CFFE0123EFE72000FFF796FFF9E700299A
:104BA00017DB0800FFF78EFDF3E7002911DB080093
:104BB000FFF780FDEDE72000FFF714FDE9E7200097
:104BC000FFF7E8FCE5E7002903DB0800FFF760FFDB
:104BD000DFE7982A00D19CE063DC382A00D186E028
:104BE0003DDC1C2A00D179E029DC162A70D021DCBA
:104BF0000123002ABFD0023B0C2ABCD101239835E7
:104C00002B60B8E7D63A1000222A15D801F076FDBD
:104C100090149314141496141414141414141414D7
:104C200099149C1414149F14141414A2ACAF14B24D
:104C3000B5B8BB00182A4ED001235B429BE72C2A53
:104C400052D007DC262A4CD0282AF5D100236B66E7
:104C5000013390E7362AEFD1FFF7D0FD99E7662AB6
:104C60004ED00FDC562A48D007DC3C2A42D04C2AD2
:104C7000E2D1FFF7C5FE02237DE75C2ADCD1FFF716
:104C800091FB86E7762A41D006DC682A3BD06C2A65
:104C9000D2D1FFF79BFB7CE7882ACDD1FFF71EFC22
:104CA00077E7F82AC8DCD52AACDCBC2A3AD008DC85
:104CB000A82A31D0B82A32D09C2ABDD1FFF726FCD1
:104CC00067E7C82A31D0CC2AB6D1FFF7D5FC60E718
:104CD000FFF722FD5DE7FFF71DFF5AE7FFF7E0FD55
:104CE00057E7FFF73FFD54E7FFF7E6FD51E70123E4
:104CF0006B6640E7FFF7ECFD4BE7FFF7F5FD48E794
:104D0000FFF7FEFD45E7FFF793FE42E7FFF704FEDE
:104D10003FE700232B669BE701232B662BE7FFF77A
:104D2000E5FE36E7FFF786FC33E7FFF7E9FE30E7FD
:104D3000FFF758FE2DE7FFF769FB2AE7FFF78CFE28
:104D400027E7FFF741FE24E7FFF772FB21E7FFF7B4
:104D500091FE1EE7FFF7F4FD1BE7C046C407000005
:104D6000B00600109CA40000FFF774FB11E7FFF7EA
:104D700083FB0EE7FFF7B2FC0BE7FFF70DFE08E73A
:104D8000FFF7BAFC05E7FFF731FB02E770B51D4CF2
:104D90001D4D1E4B6259E25023008C331868FFF7FB
:104DA000E1F8E36E6051A3660023194DE366635199
:104DB0000333184002281FD0984220D0012818D071
:104DC000FFF7BCFE00280CDD6359002B04D1220044
:104DD0008C3213681B1813602200903213681B1862
:104DE0001360FA22D200A358002B01D0013BA3503C
:104DF00070BDFFF787FAE5E7FFF7EEF8E2E7FFF7A8
:104E0000AFFADFE7B0060010C4070000CC070000CF
:104E1000AC0700000122034BDA66034A9A830F2293
:104E20009A777047B00600100F0F000070B5F42598
:104E3000074CED0066592000064901F0F3FD66516C
:104E4000FFF7E8FF0123044A6366A35470BDC04620
:104E5000B0060010D40700009C0700007047000057
:104E600030B50D4D049C28600C4801600C490A6067
:104E70000C4A13600C4B039A1A600C4B0C4A1C60D2
:104E8000F423DB00D4500B4B0B4A1A600B4B0C4A3B
:104E900013600C4A136030BD8C0E0010A40E00107D
:104EA000C00E0010AC0E0010C80E00102000001044
:104EB000B0060010840E0010295000005D4E000066
:104EC000940E0010C40E0010014B18607047C046CD
:104ED000A00E0010084B10B51968084A002906D129
:104EE000074C24682160106001221A6010BD11680F
:104EF0008842F8DA0800F6E7980E00109C0E0010C1
:104F0000A00E0010034B1B68002B01D1024A136056
:104F10007047C046900E0010980E001070B51A4DE4
:104F20002B0098331B68002B0DD0184B1C680123F5
:104F30001C40F523DB00EB58A34208D1144BEB587F
:104F4000002B10D170BD2B0094331C68F1E7002CAE
:104F50000BD1002BF6D00F4B1B68002B0FD021007C
:104F6000200098470BE0002CECD00A4B084E1B6841
:104F7000002B02D02000A95998470023AB51F523FC
:104F8000DB00EC50DEE7C046B0060010880E0010D3
:104F9000A40700008C0E0010054B10B51B68002BF9
:104FA00004D00449044A01208958984710BDC046DE
:104FB0008C0E0010B0060010A40700000023F8219A
:104FC000054AC9001370054A53500549535004312E
:104FD0005350044A13707047A90E0010B006001019
:104FE000B4070000B00E0010084B1860084B1960A1
:104FF00000280AD001230021064A1370064A1170C6
:10500000064A07498850074A13707047B40E0010CB
:10501000B80E0010A90E0010A80E0010B407000072
:10502000B0060010B00E00102C4B73B51A682C4B54
:105030001168186881421AD000210091019112680C
:105040001A60284B1B688B4202D0684601A998471A
:10505000254900980C68019A244BA04202D11C6893
:10506000944202D00125224C257008601A60214C20
:10507000214BE358002B10D000231D49CB56002BA9
:105080000AD000221D4B9A56012A05D100220A702F
:105090001B490A7002321A7073BD134B174D186802
:1050A000002807D00023EB56002B03D10F4B1968C3
:1050B000FFF79AFF0023EB56114E022B08D1002375
:1050C000104A3370A3502B700023F356E366E3E7D6
:1050D000002BF9D00A20FFF7FDFEF5E7AC0E00101B
:1050E00028000010A40E0010B40E0010B80E00101E
:1050F000A80E0010B0060010BC070000B00E001093
:10510000A90E0010B4070000F82370B5054CDB00B1
:10511000E358002B05D1E56E034AA350FFF784FF47
:10512000E56670BDB0060010BC070000084A094BD8
:1051300011681B6810B5CB1A03D41360FFF7EEFE9D
:1051400010BDFA235B001360034A13680133F4E7D0
:1051500024000010C80E0010880E00100122034B1E
:105160001A60034BF432FF321A607047880E001049
:105170002400001073B5040000250026134B009690
:105180001B680196B34218D101350220FBF7D2F813
:105190000F4B1A680F4B11681868814208D01268CB
:1051A0001A60FFF7C3FF002C02D0013C002C02D094
:1051B000042DE2D10124200076BD684601A998475C
:1051C000009B002BE0D03500DFE7C046A40E0010A6
:1051D000AC0E0010BC0E0010F7B50D000E2104003F
:1051E000019201F01FFC184B03260A279D4211DD96
:1051F00009236373083B2373F7BD2800390001F0CE
:105200000BFC2800A155390001F020FB01360500F8
:105210000D2E01D0002DF0D1019BA11CF21A033AF2
:1052200022700D22A319921B013B8B4208D10F2340
:1052300000229E1B731E032EDEDD1E00E254F9E7E2
:1052400018789854F0E7C046FFC99A3BF7B5734BFE
:10525000734C0500E0500433E150230094331B6885
:105260000E00002B1BD1182817D1C32907D0F72314
:10527000DB00E358332B10D100F004F90DE0694B4B
:105280001B680F2B09D116220E21674800F05CF92C
:10529000624BE3580093182BE9D0FFF7BBFD0023C6
:1052A0009D4200D00A33F62231002800D200A350DC
:1052B000FFF79AFE5D4B5E4D1B6826001B688C361F
:1052C0002B60FFF71FFE012323671D33019300238B
:1052D0000093584B1B68002B14D0574F3B68002B92
:1052E00010D01B68002B55D03A681368013B13603F
:1052F000524A1368002B05DD013B1360002B01D1DE
:10530000FFF700FEFFF742FD002807DA22003368AE
:10531000903201333360136801331360484B009AB5
:10532000484F9A420CD040239A43474B9A4207D0A9
:10533000464B009A9A4203D05333FF339A4211D11D
:10534000E359434A93420AD01A002020414982433C
:105350008A4204D0402293433F4A934202D10A201A
:10536000FFF7B8FDE3593D4A00933368934228D0D4
:1053700015DC3B4A93421CD03A4A934228D0019B09
:10538000002B35DD013B0193236F002BA1D1FFF7EB
:10539000C5FDF7BD344B1B6898473B68A1E7334A0E
:1053A0009342ECD1324BA26F9A42E8D1FBF7B0FDA9
:1053B000E5E7FFF7B3FDFAF7C8FF2B68013B2B6069
:1053C000DDE7FAF7BBFFFFF7C9FEFFF7E5FDD6E71C
:1053D000FBF70AFEFFF7E0FDFBF756F8254B1860D8
:1053E0000E4BE0502B68013B2B60234B3360C6E72C
:1053F000224B1B6898471E200C4B01901A68204BCB
:10540000116818688142BFD012681A60FFF77CFEED
:10541000FFF78CFE144B1B689847B5E7B4070000F4
:10542000B006001020000010E8060010AC0E0010BE
:1054300028000010980E0010A00E00109C0E001006
:105440006E020000C4070000260200007A0200007D
:10545000FB030000CB030000A3030000C910000001
:10546000F2070000990D0000940E0010C81700000C
:10547000EF0B0000B40E00109C0D0000C40E0010D5
:10548000BC0E0010F8B52A4D00202B681C68FFF7F1
:1054900071FE2B681A68A242FCD01F68FFF7BAFCA5
:1054A000F6230A22234CDB00E2501823224A01266D
:1054B000A350F7231522DB00E2500833E650230007
:1054C000002290332D371A60FF37FFF7A3FC2667C1
:1054D0002B681B68BB421ED12300F8260127F6006B
:1054E0009033002118201D68A751FFF7AFFE134B22
:1054F0002800196801F0AAF9042201001048FFF7FA
:105500006BFE18230C4A2800A350F7230022DB006F
:10551000A751E250F8BDFFF739FC2A68094B116822
:1055200018688142D4D012681A60FFF7FFFDCFE7F8
:10553000AC0E0010B0060010B4070000C80E00103A
:10554000E8060010BC0E0010F0B50125002A00DCB2
:10555000F0BD03784C1E2B40002C01DA013AF5E730
:10556000065DDB0077083B4303553300013C2B40CD
:10557000F2E730B59A4200DD30BD845C8D5C855425
:105580008C540132F6E7F0B5060007A805780698B6
:1055900001240078002A1DD0059CA34204DD0123CC
:1055A0001840069B1870F0BDD75CCC5CBC466444C8
:1055B00024180020A54201DC641B0130F45401339F
:1055C000EAE7CA5C12180020954201DC2000521B59
:1055D000F2540133059A9342F3DDE0E7F7B50AACE4
:1055E0002478089F0194099C2478002839D00F253D
:1055F000002933D0002A1ED1019E0F32013E1640F1
:10560000BB421ADCCA5C121B0024551C01D13200BB
:105610000134C2540133F3E7CD5C2E00D55C751B19
:105620002D1B0024A54204DA019C65190F24254096
:105630000E3CC5540133BB42EEDD01231C40099BE7
:105640001C70F7BDD15C49420C1B00218C4203D079
:105650000199091901242940C1540133BB42F1DDEC
:10566000EBE7002919D0002A0ED1BB42E5DCCA5C69
:105670000133141B013462425441F6E7C85CD55C27
:105680000133401B041BE40FBB42F7DDD5E7D15CBF
:10569000013349420C1B611E8C41BB42F7DDCCE754
:1056A00070B50125049C257000290BD19A420BDCB2
:1056B000815C00290AD10132F8E7865C8D5CAE423C
:1056C00004D101329A42F8DD0023237070BD0B0033
:1056D00030B5441C934207DB00242300914200DCD8
:1056E000531A4018C45430BDE55CC5540133F1E78A
:1056F000130030B5441E8B4207DC002423008A428D
:1057000000DB8B1A8018C45430BDE55CC554013BE6
:10571000F1E70000F0B5114A01241378C15C537819
:105720000B405A1E93410E499B010B600D4B00220A
:105730001F0001254A6012371A785E78825C164293
:1057400002D04A682A434A6002336D00BB42F3D15B
:10575000013404310B2CEAD10020F0BD6E010010A1
:1057600060100010BA000010122230B505254A431F
:10577000324C01311319A25C5C78825C694314429B
:1057800004D05F242E4A5218947054709A78DC78B2
:10579000825C144204D07C24294A5218533214707B
:1057A0001A795C79825C144204D07C24244A521811
:1057B000A33214709A79DC79825C144207D0204AB3
:1057C0005F2452181500A132A2352C7014701A7A79
:1057D0005C7A825C144204D07C24194A5218A032AC
:1057E00014709A7ADC7A825C144204D07C24144AC5
:1057F0005218503214701A7B5C7B825C144207D0C2
:105800000F4A5F2452181500513252352C70147013
:105810009A7BDC7B825C144204D02E24084A521806
:10582000A43214701A7C5B7C825C134204D0044B5B
:1058300059182723F4310B70002030BDBA00001036
:10584000D00E0010F7B5040000262D4D2F00393F73
:105850004F2220213800FDF767FF002E02D07C2365
:105860003B702B7000210136A9755035052EEDD106
:10587000244B2D2218003830027018003730027087
:10588000A1209A705A70400032321A544220FF30E0
:105890001A54053019541C4908784978205C014293
:1058A00004D01900523353310A701A70002739009E
:1058B00020000137FFF758FF0A2FF8D10025134EBB
:1058C0000197134BAA00D15833787278E35C114FDB
:1058D0001A420CD03800013501F0CEF80236092DFD
:1058E000EFD138000C4901F0C7F80520FEBD0800D3
:1058F000FDF73CFF019B0949181A0918EAE7C04661
:10590000090F0010D00E00106E010010A80000104A
:105910005000001010100010ACA4000098000010FF
:105920000020034B185642425041C0B218707047D5
:10593000CE0E0010014B40B218707047CD0E001013
:105940000020014B18567047CD0E001070B50C00AA
:10595000C3050FD5CCB2D5B2A01DE91DC9B2C0B2E6
:10596000FCF70AFB290005340831C9B2E0B2FCF7A4
:1059700003FB70BD0306FCD506320634D1B2022308
:105980000122E0B2FCF70CFBF3E7012370B506003F
:105990000C001500184206D0D118E0180322C9B235
:1059A000C0B2FCF7FDFA02231E4206D0E918201D02
:1059B0000122C9B2C0B2FCF7F3FA730707D5691D1B
:1059C000201D02230122C9B2C0B2FCF7E9FA330755
:1059D00007D5E91D601C01230322C9B2C0B2FCF740
:1059E000DFFAF30606D5691D02230122C9B2E0B22F
:1059F000FCF7D6FAB30606D5A91C02230122C9B2C8
:105A0000E0B2FCF7CDFA730607D5291D0134012356
:105A10000322C9B2E0B2FCF7C3FA70BD064B0720FF
:105A20001B785BB2002B06D1044B01381B785BB2AC
:105A3000002B00D118007047CD0E0010CE0E0010C4
:105A40001C4B10B51900DE314A8808881A49120427
:105A5000024300208A4222D1E3335A781C78997895
:105A60001202DB7814430904144A21431B060B433A
:105A7000934214D1FFF7D2FF1149124C097802006A
:105A800049B22368104800290AD0023323600F214D
:105A90000E4BFCF707FB2368023B0120236010BD7F
:105AA0000333236009210A4BFCF7FCFA2368033B0C
:105AB000F3E7C046B00600103D001D1111444C80B4
:105AC000CD0E001014000010B4A4000040830000AC
:105AD00050830000F0B5A24B89B01C680394022CDF
