:10000000F01F0010256F0000236F0000236F000019
:10001000236F0000236F0000236F0000000000002A
:10002000000000000000000000000000236F00003E
:10003000236F000000000000236F0000AD350000BA
:10004000AD330000AD330000AD330000AD33000030
:10005000AD330000AD330000AD330000AD33000020
:10006000AD330000AD330000AD330000AD33000010
:10007000AD330000216F0000216F0000C1000000BF
:100080004936000061360000613800007938000010
:10009000216F0000C1390000216F0000216F0000B6
:1000A000216F0000216F0000216F0000216F000010
:1000B000216F0000216F0000216F0000216F000000
:1000C000594A10B5136801331360584B584A1B68DE
:1000D000DBB2302B00D176E018D8182B5AD005D8D7
:1000E000082B37D0102B46D0082351E0202B00D10D
:1000F0007AE0282BF8D14F4B4F491868096888429D
:1001000052D21968481C18604C4B48E0482B00D16B
:100110006AE00AD8382B60D0402BE5D1484B1968EB
:10012000042301295DD11360DEE7502B66D0582BE4
:10013000DAD14448444B1B680168DBB24C1C0460B4
:10014000424843540221424BFF3119608023F13968
:10015000DB0530E00021374B19601968481C186036
:10016000364B5B5C3849DBB20B60282313600122FD
:10017000374B1A6010BD0021324B19602D490B68B6
:10018000581C08602D49CB5C2F49DBB20B6028233B
:100190001360EFE727490B68581C086027495B5C30
:1001A0002949DBB20B609FE7254B19688023DB05EB
:1001B000002902D02021196096E702202449FF304F
:1001C00008601021F7E780231021DB051960082360
:1001D000136081221E4B5200CBE782211C4B490049
:1001E000E9E78021C905DDE780231021DB051960DF
:1001F000082313600422164BFF32BAE71149124B51
:100200001B680868DBB2441C0C60104C23540C4B78
:100210001B680868013B0421834202D98023DB0567
:10022000C9E7116060E7C0462806001004000040DE
:1002300018000040240600101C060010F4050010F1
:100240000806001020060010080000400C060010F0
:100250000406001002231B4A70B511681A4D0B43A7
:1002600013602023194A040011680B431360184BD4
:100270001A682A401A600122186810431860154B4A
:1002800019682940196019680A431A606C22124BD8
:1002900012491A60124B186806F016FF114B1860CD
:1002A000114B1860022C02D1A022104B1A60802240
:1002B0000F4B12021A6080234022DB0501201A60D6
:1002C00070BDC04604800440F8FCFFFF80800440FD
:1002D000304004403440044018000040400D03000A
:1002E000B804001014000040100000400C00004052
:1002F00000E100E00000000000000000FFFFFFFF41
:10030000202303490A681A42FCD0024B1860704748
:10031000148000400080004070B504000D002900EA
:10032000200003F03FF9024B1B68002BF7D170BD92
:10033000D405001010B503F067F910BD10B500200A
:1003400002F054F902F020F910BD00007FB505005D
:1003500000200C0002F0F0FA002801D003F006FFA4
:10036000002323602B60174B1E78002E28D121001C
:10037000280002F00FFB300002F0DEFA002807D060
:1003800003F0F4FE2660210028002E6002F002FB3C
:100390000D4B1B78002B13D00C4B2A6818680C49A6
:1003A000824203D120680D68A84209D01A602368F0
:1003B00001A80B60074903F033FD01A803F0D0FD4D
:1003C0007FBDC04684020010940200107C02001021
:1003D000800200104073000070B504000D00FFF7AC
:1003E000B5FF094A1368002B09D0013B1360032BAA
:1003F00006DD064B1B682360054B1B682B6070BD38
:1004000000232B602360FAE790020010880200109E
:100410008C0200100023034A1360034A1360034A4E
:10042000136070478C0200109002001088020010C8
:10043000002310B50B60036002F0ACFA10BD0000A1
:1004400010B5012403F058FE0C4B0020196803F08E
:100450007DFA002003F06AFA002003F047FA084B07
:1004600020001C60074B196889B203F035F92000A1
:1004700003F022F9200003F0FFF810BDC0040010C3
:10048000F0050010BC04001037B50C240321012036
:1004900003F088F8684601A9FFF79EFF009D002D34
:1004A00002D1013C002CF1D1FFF7CAFF002005F07A
:1004B00047FE28003EBD10B5002003F027FA0120BA
:1004C00003F0EAF803F01EFE10BD000070B50D0049
:1004D0000400FFF7B5FFF8230121064ADB00D150E5
:1004E0002000290005F0B6FAFFF7E5FF05F00EF948
:1004F00070BDC046D806001070B504000D00FFF7AF
:100500009FFF0822074B29001C60074B20001D603D
:10051000064B1A6005F09EFAFFF77CFFFFF7CBFF52
:1005200070BDC046880200108C02001090020010BE
:1005300010B50400FFF784FF200005F0C3F90400A4
:10054000FFF7B9FF200010BD10B50020FFF7F0FF46
:1005500010BD37B504000025FFF7F6FFA54203DB09
:10056000FFF7F2FF00983EBD0321062003F01AF8C2
:10057000684601A9FFF730FF009B002BF0D1013541
:10058000ECE7000010B502000249034803F03DFC0F
:1005900010BDC0464E73000057730000F0B5354BD8
:1005A00085B01B6800900193002805D0019B002BAB
:1005B00002D0002002F028FC01F0B1FF002002F080
:1005C00015F801F0E1FF2C4C0322236802210133CE
:1005D00023602A482A4B02F00DF92368FA26013BD2
:1005E000236002F009F8FFF7AFFF2648FFF7CAFFC4
:1005F00096230024244D9B002B60B60003F0B6FA2E
:10060000002807D002F094FD00242B680134A34297
:10061000F4DC1AE0009B002B27D01C4F3100386817
:1006200006F052FD6423584302F0D6FF02F042FE6A
:100630003100386806F048FD02F0CEFF03A902A899
:10064000FFF7CAFE029B002BDFD0009B002B05D0DA
:10065000019B002B02D0012002F0D6FBFFF774FFB4
:100660000B4803F0D2FB05B0F0BD0A2002F0CCFF2E
:10067000E4E7C04640000010380000105F7300003F
:10068000589800006E73000050020010B80400106B
:10069000747300001A4B73B504001A49186806F009
:1006A00013FD194B194A1A490090200003F0B8FBBA
:1006B00002F056FA002812D002F070FAFA218900EE
:1006C000060006F001FD0500200003F0F7FB114BCA
:1006D0002A006B4310499B19201803F0A1FB20004E
:1006E00003F0ECFB0D4B0E4A1B682018002B02D0C8
:1006F0000C4A00DB0C4A0D4903F092FB73BDC04667
:10070000B804001040420F00857300004E730000D3
:100710008973000018FCFFFF96730000B4040010FA
:100720007F73000082730000F3980000A173000043
:1007300070B50D0006001400002001F057FF01F015
:1007400023FF310028000022054B02F053F8092254
:100750000121044B200002F04DF801F04DFF70BD67
:10076000589800004098000007B5144A1449012029
:10077000FFF7DEFF642002F047FF72B60021114B45
:10078000114A196001231360116013601168194246
:10079000FCD00E4A6846136080230D4A5B02116844
:1007A0000B43136080230B4A11680B4313603923FA
:1007B00001A90093084B984707BDC046A9730000E4
:1007C000B873000070800440748004407880044056
:1007D0008080044038820440F11FFF1F00B5084BA1
:1007E000084A89B01B7868461278074903F018FB5D
:1007F00069460120054AFFF79BFF09B000BDC046CE
:1008000035000010A7040010CB730000D97300005E
:10081000F0B52C4C2C4D237885B001932F78002611
:10082000FFF7DCFFFFF790FE02A803A9FFF7D4FD56
:100830000298002815D0C0B201F0FAFF492805D867
:100840003F281ED830282CD0392835D001F088FE1A
:10085000FFF7C4FF029E002E03D0C82002F0D4FE92
:100860000026032104200136FFF756FD1E2EDBD1A2
:10087000019B2F70237001F073FEFFF765FE05B03A
:10088000F0BD40380928E1D806F06CFB05F2E0E045
:10089000E0E0F7E0E0102B783E2BD7D801332B7047
:1008A000D4E72B78002BD1D0013BF8E72378062B37
:1008B000CCD801332370C9E72378002BC6D0013B85
:1008C000F8E7C04635000010A704001070B50D0011
:1008D000040001F024FE2A0021000120FFF728FF78
:1008E000012005F02DFC70BD10B590B06846FFF7F3
:1008F000D1FE002001F07AFE01F046FE0122084CF4
:1009000011002300684601F075FF23000922012130
:10091000044801F06FFF01F06FFE10B010BDC0463B
:1009200040980000ED73000000B52B228DB0002828
:1009300000D1023268460D4903F072FA04A803F0B0
:10094000A5FC6946012004AAFFF7F2FE032000215E
:10095000FFF7E2FC0220FFF7EBFD0028EED00021BC
:100960000A20FFF7D9FC0DB000BDC0460774000097
:10097000F8B5040016000D00002703F087FC2100E5
:10098000E7741431681C03F0A1FA380001F02EFE60
:1009900001F0FAFD3A00042120000A4B01F02AFF81
:1009A000094C092223000421280001F023FFBE4244
:1009B00005D0230009227821044801F01BFF01F033
:1009C0001BFEF8BD5898000040980000477A0000D0
:1009D00030B58DB0134902A803F078FA2E24002216
:1009E00002A904A8FFF7C4FF0025FFF7ADFDFF34FF
:1009F000002202A904A8FFF7BBFF0321002002F098
:100A0000D1FD684601A901950095FFF7E5FC009B23
:100A1000002B02D1013C002CEAD1FFF795FD0DB06F
:100A200030BDC04618D80000F0B5002491B02000B9
:100A30009626039401F0DAFDFFF786FD02232700D6
:100A400000940193760001F09FFD009B002B00D0E5
:100A5000ABE008AD280003F019FC009BEB742B748D
:100A60006B73AB72EB712B71002C01D1012F05D18F
:100A70000022042128008F4B01F0BCFE8D4D002286
:100A80002B001E218C4801F0B5FE012C01D1012F55
:100A900007D11D202B0002AD00222521401901F0B5
:100AA000A9FE844D00222B003321834801F0A2FED1
:100AB000022C6FD1012F6DD0232002AD00224D21D9
:100AC0007C4B401901F096FE7A4D00222B005921F3
:100AD0007A4801F08FFE042C01D1012F07D1262086
:100AE0002B0002AD00225F21401901F083FE714D01
:100AF00000222B006C21714801F07CFE052C01D1F5
:100B0000012F07D129202B0002AD002272214019AC
:100B100001F070FE09220421694B0DA801F06AFE64
:100B200001F06AFD039B002B07D0143B012B41D839
:100B3000052C3FD0962002F067FD03210800FFF747
:100B4000EBFB002001F0F8FE0023050004A903A838
:100B500004930393FFF740FC039B002B00D199E023
:100B600006AE05AD3100280007AA03F0C3FB0090D4
:100B7000002828D1280003F0A3FC070003981238AE
:100B8000052800D97EE006F0F7F9217D56237D186F
:100B90001E0058E72B0000223A210AA801F02AFE85
:100BA000032C89D1012F8FD186E700220421414BEC
:100BB0004448B3E7FFF7C8FCBFE7601C062106F016
:100BC00069FB00270C009626760067E0601DF5E7BC
:100BD000601E042804D806F0CFF90D141D26470026
:100BE0002B88013300242B80280003F069FC0523A7
:100BF000070016E00C21A87806F062FA0131A9700E
:100C0000F2E701372900380003F08CFC05230224A9
:100C100001932BE030780130182106F03BFB0423D0
:100C20003170019322E0707801303C2106F032FBF4
:100C300003237170F5E7601E042804D806F09CF9C0
:100C4000060C0E1114002B88013BCBE7A8780C2171
:100C50000A3006F01FFBD1E7013FD3E730781730A9
:100C6000DAE770783B30E0E70023B3700721380003
:100C700006F010FB0A000791052C05D13100280071
:100C800003F090FB01279EE731002800019B03F051
:100C900049FBF7E7002D01D101235F40039B842B23
:100CA00005D0182B03D0731E002E00D070E711B0B2
:100CB000F0BDC04658980000107400006074000039
:100CC0004098000012740000114B10B59A6D032A71
:100CD0001AD11C00BB3460782278A178000210433E
:100CE0000904E27808430B49120602438A420BD1F9
:100CF000BA3318780F23034000090F2B03D00F28B5
:100D000000D00A33180010BD01204042FBE7C04666
:100D1000D8060010AFACEAFF3E230F2230B51349CE
:100D2000FF33CC5C0133CB5C1340013BDBB2002CC6
:100D300016D0062B17D80720020062438A18D21853
:100D400015009C352D78062B07D1013C4443091929
:100D50009C3108780002284330BD9D321078F9E7B5
:100D600001204042F8E70220FBE7C046D806001009
:100D7000030003480B2B02D8024A9B009858704787
:100D8000F39800006C7C0000CB10C05C0723194076
:100D90000841063B184070470300103B70B5040043
:100DA0000D000020B72B13D9FA2C11D80F2C10DC12
:100DB000144B1B5D144A9B0029009858FFF7E4FF71
:100DC00000281CD1032C09D129001048FFF7DCFFB3
:100DD00070BD0F4B1B19C83B1B78EBE7042C02D1ED
:100DE00029000C48F2E7252DF2D10F2C02DC0A4B2A
:100DF000185DEDE709480419C83C2078E8E70120B0
:100E0000E6E7C046E8830000080000109683000073
:100E1000F8830000A0830000A5830000B5830000D4
:100E2000002370B505000C001600037099421DDB0D
:100E30002A2925DC032905D11B4B1B78DB0707D5A5
:100E4000083405E0042912D1174B1B78DB0715D4B1
:100E5000164BA2002800D15803F038F8012C18D006
:100E6000002E03D02800124906F044FA70BD07296D
:100E7000EED1104B9B6D082BEAD1E1E70C24E7E79C
:100E8000C83C322CF2D80C4BA400E15803F01EF8F9
:100E9000E6E7084B9B6D042BE2D1280003F00EF827
:100EA000281805F0B5FFDBE7690200102C8400006C
:100EB00020740000D8060010D884000010B500226D
:100EC000FFF7AEFF10BD70B500250400080011004B
:100ED000AA420EDB28225A4352185200115F4B1CC3
:100EE00007D0A94207DA02235B42591AFFF7E6FF4F
:100EF0000125280070BD06F009F8F9E770B5060075
:100F00000D00140005F050FF002806D0042D04DC6D
:100F1000022C02D00122141BE4B22A00310023006B
:100F20000148FFF7D0FF70BD9C7C0000F7B50500BD
:100F30000F00019205F058FF060001000022280072
:100F4000FFF76EFF33000D3B012B0AD8280002F09B
:100F5000B5FF3900019A2818FFF7D0FF04002000E0
:100F6000FEBD284B1A78012314001C401A4213D0EE
:100F7000F31E012BEAD8300039000830FFF70CFFD0
:100F80000028E3D0280002F099FF002329183A0036
:100F90001D48FFF798FFE1E7072E28D11B4B9B6DFB
:100FA000082B00D1083630003900FFF7F5FE061E89
:100FB000E8D11749280006F09DF9280002F07EFFCD
:100FC0003900019A2818FFF799FF041EC7D139008C
:100FD0001048FFF7D9FE041EC1D0280002F06EFFB2
:100FE000330029183A000848FFF76DFFB7E7F31EF2
:100FF000012BD8D839000848FFF7C6FE0028D2D008
:10100000ADE7C0466902001014830000D806001046
:101010002274000082830000878300001FB50D4BFF
:101020001B78002B0AD1FFF777FE0100431C05DB7C
:10103000431C05D10848023105F024FD05B000BD70
:10104000684605F063FF6B461B78002BF6D0012144
:101050006846F1E7790200102474000010B505F02D
:1010600085F800280BD0002001F0C0FA01F08CFABE
:10107000FFF7D4FF01F0A8FA012001F0B7FA10BD84
:10108000F0B51E4B85B01B78002B05D105F086FE10
:10109000041E03D0FFF7C2FF05B0F0BDFFF714FE3A
:1010A000051E08DB05F0EAFC2800FFF761FE0221BF
:1010B00005F0E8FCF0E72100684603F00BFB104F59
:1010C0000E223900684606F0F1F80E4D0E4E0F4C18
:1010D000002803D12B78726D93420BD00E22694603
:1010E000380002F0A8FE736D2200694601202B70C3
:1010F00005F0E4FD200005F0E1FCCDE779020010E9
:101100006A02001078020010D80600105802001081
:1011100010B505F02BF800280BD0002001F066FA7E
:1011200001F032FAFFF7ACFF01F04EFA012001F0B6
:101130005DFA10BD10B5FFF7EBFF10BD1121044A99
:10114000DC3213788B43034909780B4313707047E3
:10115000D806001069020010024B1878C006C00FB4
:101160007047C0466902001070B5FFF7F5FF012512
:10117000041E0D4E05D00D4B53331D7000233370EC
:1011800070BD33782B42F9D005F02EFE03380128CC
:1011900006D8074B210078201D70FFF797F9EDE77F
:1011A0000B22024B9A65E9E769020010D80600108D
:1011B00084020010F0B5050087B0002901D0012499
:1011C00012E005F0FDFD041EF9D1344E3278382DC1
:1011D0000DD110231A4053425A4112013270FFF7C9
:1011E000ADFF01222E4B1A70200007B0F0BD012781
:1011F000782D07D13B0093433370FFF79FFF284BB7
:101200001F70F1E73A4053000193FFF7A5FF002854
:1012100000D00197280005F0A9FD070005F0A0FD0A
:101220006B4639001A79002812D002A8FFF77EFE1B
:101230000028C4D005F0B2FD00280DD0FFF794FFC0
:101240000122174B002128001A70FFF73FF9CBE766
:1012500002A8FFF753FEEBE70620FFF769F9002825
:1012600004D102A805F0ECFC01F0C6F92A20FFF732
:101270005FF9041E07D0FFF777FF00212800FFF772
:101280003BF90024B0E7074805F0DAFC01F0B4F9B7
:101290003470FFF753FFFFF757F9A5E76902001015
:1012A000840200102D74000010B5002802D1FFF751
:1012B0005BFA10BD002001F099F901F065F90122F7
:1012C0000A4C012123005242094801F093FA2300FD
:1012D00007220121074801F08DFA01F08DF97820ED
:1012E000FFF737F98428E4D1E1E7C04648980000C9
:1012F000327400004474000070B504000D0001F069
:101300000EF9262C13DC0020102C27DD20001138CC
:10131000152814D805F030FE1D132D6D373F4E13E0
:101320003113131313131313264213131345442CB1
:1013300054D006DC372C58D00120382C56D0002051
:101340000CE0452CFBD1E120000103F045F8012021
:1013500048E02A4B1B68002B01D1012070BDFFF72C
:1013600037FBFAE7254B1B68002BF6D0FFF75CFB39
:10137000F3E70120FFF712F9EFE70120204B1B688C
:10138000C01A01F041FD0120FFF7AEFAFFF7DCF8CB
:10139000FFF77AF8E1E7FFF73BFADEE704F0D6FE65
:1013A000DBE70022174B1A70174B05321A7001F059
:1013B000D7F8D2E704F0DAFE144B002806D01968FB
:1013C0000322022900DD00221A60C6E71A68511CB8
:1013D000062A01D01960C0E71860BEE70C4802F089
:1013E000FBFF0020FFF7A0FAB7E7002004F0B8FEEB
:1013F000B3E72800FFF758FFAFE7C046B40400107A
:1014000040000010A704001035000010C8000010B4
:10141000F0F1FFFFF8B5012706000C00002001F0F5
:10142000E5F801F0B1F80B4D7F422B003A000121A5
:10143000094801F0DFF92B003A0030002A2101F0C1
:10144000D9F92B0007220121200001F0D3F901F086
:10145000D3F8F8BD489800005B740000030010B595
:1014600003480449002B00D09968FFF7D3FF10BD53
:10147000F398000062740000F0B5002787B001F017
:101480004EF82A4D2A492800FFF7C4FF3C00FFF719
:101490005BF80C260321062002F084F8684601A9B7
:1014A000FEF79AFF0098002804D10137772FF1DD6D
:1014B00007B0F0BDC0B201F0BBF90200462808D069
:1014C000002C0AD00023E356834206D10020205688
:1014D000EEE7002CFAD10027DCE7352A01D0412ABB
:1014E00021D114481449FFF795FFFFF72DF800208C
:1014F000DEE7934206D124182000FFF7AFFFFFF785
:1015000023F8E8E70131300048432356002BF0DC94
:10151000F1D00A4902A802F083FC28000849FFF72D
:1015200079FF0024EBE70021064CECE7F39800007C
:1015300062740000817400006E7400008374000007
:101540008A740000A4850000020010B50F240E323A
:101550000B78234003700B7801311B094370023074
:101560009042F5D110BD000010B50722024B01F0EA
:10157000E9F8013010BDC04648980000F0B50A25D2
:1015800089B004AE0C0001003000FFF7DDFF737876
:101590005D433378ED18B378002B00D0643D737B46
:1015A000002B05D021002D20FFF7DEFF013024188D
:1015B000307B21003030C0B2FFF7D6FF6B1E0B2707
:1015C0002418022B11D837000195F87A2100303009
:1015D000C0B2FFF7C9FF019B2418013B0193013FF3
:1015E000002BF2D10B277F1B1D0003230193019BCE
:1015F000F35C002B11D021002E20FFF7B5FF02383D
:101600002418F05D21003030C0B2FFF7ADFF019B20
:10161000013F24189F42F4DA04E0019B0133019357
:101620009F42E4DA002D18D02A000D4902A802F0EA
:10163000F7FB21009E20FFF797FFB37801380419CC
:10164000002B03D021002D20FFF78EFF2100072261
:10165000044B02A801F0CEF80400200009B0F0BD50
:10166000D67300004898000010B5084B08481B7856
:10167000012B03D00748022B00D1074809227D2106
:10168000064B01F0B7F800F0B7FF10BD00000010E6
:101690009774000095740000817400004898000061
:1016A000F0B543688DB0040086680020019300F017
:1016B0009DFF00F069FF0023E3564A4D002B00D147
:1016C00088E02A78012A0BD0022A00D17FE032007C
:1016D000022B00D0019A444904A802F0A1FB05E0C6
:1016E0003300019A414904A802F09AFB0122404FBD
:1016F00001213B00524204A801F07CF82A78012520
:10170000931E591E8B41DBB202930023E356023B2A
:1017100059424B41DBB203931523E356552B11D1AC
:10172000002A0FD0029B039A93420BD129003B0061
:1017300007222D2001F006F8411920002030FFF784
:101740001DFF0500274B2A4F1B78002B0BD0029B57
:10175000039A2A20934200D1653029003B000722DA
:1017600000F0F0FF2D18200029000C30FFF706FFD5
:101770001523E3560500552B13D11A4B1B78002B6C
:101780000FD0029B039A93420BD001003B0007222B
:101790002B2000F0D7FF291820002030FFF7EEFEA5
:1017A000050000230F4AE3561278002B05D0022AC9
:1017B00015D0002A01D1022B11D03B000722E91CD1
:1017C000300001F017F8FFF74FFF0DB0F0BD320009
:1017D000019B87E7019904A802F078FB86E7019E48
:1017E000EBE7C04600000010A274000099740000EE
:1017F0004898000070B5050000200C0000F0F6FECF
:1018000000F0C2FE0122084E28003300012152429E
:1018100000F0F0FF330007220121200000F0EAFF72
:10182000FFF722FF70BDC04648980000064B074AEC
:101830001B6810B5990088580549002B00D105494F
:10184000FFF7D8FF10BDC046040000103480000030
:10185000A9740000BC74000010B5084B1B78012B64
:1018600004D0022B07D00649064801E00649074884
:10187000FFF7C0FF10BD06490648F9E70000001059
:101880001E7500002E750000D1740000E474000085
:10189000F77400000A75000010B5002802D0FFF7A9
:1018A000FFFE10BDFFF7C2FFFBE7000010B505F01B
:1018B0008FFA002808D036230720044AFF33D35C70
:1018C000043B58439C30801810BDC046D806001019
:1018D00010B5040005F082FA002803D00021712021
:1018E000FEF7F4FD07222100064802F0A4FA05F0F5
:1018F0006FFA002805D0FFF7D9FF0722002102F078
:10190000BBFA10BD82070010F0B53F4E87B004004F
:101910000D000722310002A802F08DFA05F058FAF6
:10192000002806D0FFF7C2FF0722010004A802F03A
:1019300082FA27000C373800FFF7CAFF002D60D06D
:10194000324B1D78023D6B1E9D410023E356EDB2E4
:10195000023B5A425341DBB201931523E356552B08
:1019600015D1019B9D4212D120002030FFF7B0FF1E
:1019700000217820FEF7AAFD00217120FEF7A6FDC8
:1019800014200021FEF7A2FD3800FFF7A1FF00217F
:101990007820FEF79BFD71200021FEF797FD019B4B
:1019A00017209D4200D105380021FEF78FFD152339
:1019B000E356552B12D1019B9D420FD020002030C1
:1019C000FFF786FF00217820FEF780FD00217120BF
:1019D000FEF77CFD00211520FEF778FD072202A905
:1019E000300002F028FA05F0F3F9002805D0FFF7DF
:1019F0005DFF072204A902F01EFA00217120FEF704
:101A000065FD712007B0F0BD8207001000000010D6
:101A100030B58BB000F083FD3A4D2868FFF73CFFEE
:101A200044E004000321062001F0BCFD684601A942
:101A3000FEF7D2FC0098002804D10134772CF1DDA8
:101A40000BB030BDC0B200F0F3FE020042280FD14F
:101A50002D4A1378023B591E8B415B001370FFF730
:101A6000FBFEFEF771FD2868FFF716FF0024D9E79B
:101A7000432805D1244A1378013B591E8B41EDE7D9
:101A8000462807D128680028CBD01F4B1978FFF7CC
:101A90003BFFD5E734280ED11C4A002113680133DF
:101AA000012B06DC13602960FFF7C0FEFEF74CFD3A
:101AB000DCE71160F7E7352801D0412807D1144849
:101AC0001449FFF797FEFEF73FFD0020B8E70F4BE4
:101AD00011491B689B005B580121595618000029C9
:101AE0000BDC0DD000230D4902A82B6002F098F901
:101AF0000B4902A8FFF77EFED8E714339142EBD1E1
:101B000028608BE754020010000000100400001051
:101B100081740000457500003C8000005C75000089
:101B2000F3980000F0B58DB002F046FB012004F000
:101B300017FBF82700211820FEF7C8FC00248E4E62
:101B4000FF00FEF7B8FC00238C4DEB51200002F0A3
:101B500055FB002C73D00121002001F023FD200053
:101B600002F046FB03A90300019002A8002B69D0F4
:101B7000FEF75EFC01230193002C13D002F03DFB25
:101B8000029B182B02D0019B002BDAD000207C4B4B
:101B9000187000F02BFD00F045FD7A48FEF7F2FCCE
:101BA0000123EB6602F072FA029E182E0ED1002C71
:101BB00000D183E0039BD8B200F03AFE0121FFF789
:101BC0009BFBE851002801D00023039305F0E6F8C1
:101BD00004430CD1029B182B09D1694B1B78DB07FE
:101BE00005D5FFF715FF002800D188E00290039982
:101BF0000298FFF7DFFA002807D0FFF7B5FAFEF7E3
:101C00001FFC0399029803F025FF00225E4B1A7017
:101C1000EB59934201D0FEF797FC94352B685C4258
:101C20005C41002B6ED100F063FC584B1A78002AFF
:101C300003D000221A70FEF787FC4F4E81E7032184
:101C400006208AE7FEF7F4FB029B002B94D1002CC0
:101C500000D07BE74E4B1B68002B00D076E72B00B3
:101C600098331B68002B1DD14A4B0024F61800D472
:101C70006CE7494B1B78002B0BD0484802F070F9F9
:101C8000642001F0C1FC464802F06AF9642001F0CA
:101C9000BBFC00F02DFC2B00002294330224364EB6
:101CA0001A6053E73F4A13681133136003F0E6FDEF
:101CB000029B01330293102BF8DDD5E7FFF74CFAB6
:101CC000002883D02E4B300021001C70FEF7FEFB55
:101CD000FFF7D2FB0394061E00D177E72100FFF740
:101CE0000BFB002800D071E7F0B200F0BDFD0390BF
:101CF000482E00D16AE701222B4B1A7066E7782341
:101D0000029374E700F060FF002000F06FFC0025F4
:101D100000F03AFC05F054F8A84204D105F020F890
:101D2000431E9841050001263000684004F066FE1D
:101D300004F01CFA002806D0FFF7A2F900F044FCDA
:101D4000300000F053FC002D0DD005F04DF804AD2F
:101D5000010001222800FFF763F82B78002B02D046
:101D6000280004F078FF05F02BF8002801D104F0DA
:101D7000EFFD00F041FC58E720BF0200D80600103C
:101D8000690200107E7500007902001084020010C4
:101D9000D40500100CFEFFFF940200106A750000CD
:101DA0007475000034060010F40E001073B54A4C30
:101DB0004A4B22684A4D9A4202D1256001F0C4F88C
:101DC0002368AB4201D100232360072602F0B8F854
:101DD00000F072FD0021434801F03AFA012500218C
:101DE000414801F035FA00F047FE00F0EBFF002219
:101DF0003E4C100023680B21B343236023682B4320
:101E0000236001F0B7F92000394C102101F020FACD
:101E100023680022B3432360236828002360042141
:101E200001F0A8F90021200001F012FA01F08CF96C
:101E30009620000201F000FE01232E4D5B4200209F
:101E40002B60FEF751FD002350242B600120FEF78C
:101E500001FA00F0B7FF02F079F92B68002B05D1E9
:101E60006420043C01F0D0FB142CEFD10020FEF7DD
:101E70003BFD2821204802F0BDFB142001F0C4FBEB
:101E80001D48282102F0B6FB1C4801F0BEFF1920B6
:101E900001F0BAFB01F06AFE002819D00020FEF71D
:101EA0007DFB0821164801F0D3F902F002FC03F093
:101EB00065FB0F230193DB18124A13491348009363
:101EC000134B03F075FB134803F0A6FBFFF72AFE44
:101ED000013C002CDBD1E4E708000010BE153E37C2
:101EE000E45BE173984004409C400440744004402B
:101EF00094400440B4040010DE0300008875000024
:101F000010400440CD080000D9030000216A000001
:101F100034060010F0050010F7B5031E019137D00C
:101F20000278303A504242419B181A78782A13D1ED
:101F30001026012501331A7800242D2A01D10133FE
:101F4000013400221878002809D1002C00D0524218
:101F5000019B01201A601BE00A260025EBE7070021
:101F6000303FF9B2092903D87243BA180133E9E7BF
:101F700020210843002D07D00700613F052F03D81B
:101F8000120157380243F1E7024801F03EFF0020FA
:101F9000FEBDC046A08600000378202B00D070470D
:101FA0000130F9E703003038C2B2092A08D92020ED
:101FB00018430300613B5738052B01D901204042EB
:101FC000704770B50E00FFF7E7FF0025040020788A
:101FD000002802D13560200070BDFFF7E3FF002824
:101FE000F8DB2D0105430134F1E7000010B500F0E6
:101FF000D5FD0100014801F008FF10BDAE860000CC
:1020000000B589B0684602F041F96946024801F01E
:10201000FCFE09B000BDC046ED860000F7B50E001D
:1020200001A91500FFF778FF002814D0019F0B4984
:10203000380005F02FF90C006421200005F02AF982
:1020400020003170642105F03FF804492870380001
:1020500005F03AF8FEBD01204042FBE710270000E2
:1020600013B50C006B4660689A1DD91DFFF7D6FFAB
:102070006B4698805A1C991CA068FFF7CFFF6B46EF
:102080006A4618709288044B9A4203D9694601A89F
:1020900002F088F913BDC0466B0700000B0007B5BE
:1020A000586801A9FFF738FF3C20019B584302F014
:1020B00093F907BD07235843074B9C30C018831D75
:1020C0000138834201D1012070471A78013B002A70
:1020D000F7D00020F8E7C046D80600107FB51948B1
:1020E00001F093FE00240326651C34421DD120001C
:1020F000FFF7E0FF002814D02800FFF7DBFF0028DF
:102100000FD0A01CFFF7D6FF00280AD0E01CFFF775
:10211000D1FF002805D00434FF2CE5DD01F03AFFA3
:102120007FBD2100084801F070FE2100684602F0E2
:10213000D1FA684601F01EFF044801F066FE2C004B
:10214000EAE7C0464E730000BA86000017D80000C8
:1021500070B50D00FFF720FF060004000D350E36A8
:1021600020780134FFF71EFF002807DB2870013DAF
:10217000B442F5D12000FFF70FFF70BD0020FCE74F
:1021800070B53F4C86B02368002B07D13D4801F065
:102190003CFE03F0F3F9012323602DE00868012BD6
:1021A0000FD10822384901F098FE002802D1236897
:1021B0000133F1E7354801F028FE03F0DFF9344937
:1021C0003FE00378412B19D132490230FFF7C0FFBD
:1021D0000028F2D00378422BEFD12F490230FFF7CD
:1021E000B7FF0028E9D00378432BE6D12B49023012
:1021F000FFF7AEFF0028E0D006B070BD532B02D130
:1022000027490230F4E74D2B20D126490230FFF751
:102210009FFF0028D1D003784E2BCED12249023027
:10222000FFF796FF0028C8D00378472BC5D10230AE
:1022300001A9FFF7C6FE019B002BBEDB154A1B4917
:1022400053651B4801F0E1FD0023A5E701A9FFF755
:10225000B8FE2023057806009D43AED1300002A9C8
:10226000FFF776FF019B0600E918FF2902DC02A8B0
:1022700002F046FA002EA0D00135042DEED1BBE7C6
:10228000CC050010C38600004E730000D986000004
:10229000F2860000D8060010E6060010F4060010D2
:1022A0001E0700100207001010070010E58600004E
:1022B000E886000037B54C682378002B00D137BD85
:1022C0002000FFF769FE01A9FFF77BFE019B0400D8
:1022D000002BF4D0D8B2FF2B13DD00F0C5FA019B20
:1022E00005001812C0B200F0BFFA01900198002852
:1022F00002D02900FEF7EAF823785A1E9341E41829
:10230000DAE700F0B1FA00250190EFE70123064A71
:1023100010B511784B401370044900D104490548A9
:1023200001F073FD10BDC0469502001085750000D8
:10233000F9860000FD8600000123064A10B51178D9
:102340004B401370044900D10449054801F05DFD7C
:1023500010BDC0469402001085750000F98600008B
:102360000C8700000B0007B5586801A9FFF7D4FDE2
:10237000019B002B0CDC012301939623019A9B0007
:102380005343054A01990548136001F03EFD07BD1E
:102390001E2BF2DD1E23EFE7500200101C87000009
:1023A00010B50C4A1378013BDBB21370002B0AD036
:1023B000012B05D10849094A094801F026FD10BD45
:1023C0000849094AF8E7094801F01FFDFEF7CCF972
:1023D000F5E7C0463400001044870000F398000081
:1023E0004887000040870000767600006C87000078
:1023F00070B50400002C00D170BD642500210220BE
:10240000013D00F0D9FE002DF8D1013CF2E70000BB
:10241000F0B580250F4B6D001A6804262A431A6018
:1024200008220D4F0D491C683C401C6044B2002C32
:102430000CDA0C6834430C601C68013A2C434000F1
:10244000D2B21C60C0B2002AEDD1F0BD0C68B4431A
:10245000F1E7C046FC3F0150FFFEFFFFFC3F00508C
:102460000121044A10B513688B431360FFF7D0FFB6
:1024700010BDC046FC3F0250F0B583B072B60123D8
:10248000843001270600194D0193B0202B683400D9
:10249000BB432B60019B843C1843FFF7B9FF2B68BB
:1024A0000020BB432B60FFF7B3FF2B681020BB431A
:1024B0002B60FFF7ADFF2B68E020BB432B60FFF7DD
:1024C000A7FF2B683B432B6020780134FFF7A0FF68
:1024D000B442F6D1019B84342600002B02D162B6AF
:1024E00003B0F0BD00230193CFE7C046FC3F02508C
:1024F00010B5AC20FFF7B4FFAE20FFF7B1FFA52069
:10250000FFF7AEFF10BD70B50D000400012200F012
:1025100031FE29000122200000F078FE70BD10B5C8
:10252000AF20FFF79DFFA420FFF79AFF10BD10B565
:10253000AE20FFF795FF10BD10B50400F820FFF79F
:102540008FFF2000FFF78CFF10BD10B50400812025
:10255000FFF786FF3F202040FFF782FF10BD0000FD
:10256000202010B5064B1B781843FFF779FF0A208F
:10257000FFF73EFF034B1878FFF7E7FF10BDC0469B
:1025800035000010A7040010842210B5064B074840
:1025900019785200002903D0054901F04CFC10BD08
:1025A00001F06AFCFBE7C046A80400109E0300107F
:1025B0009602001010B584220021024801F05CFC54
:1025C00010BDC0469E03001010B5582204490548AE
:1025D00001F031FCB0220021034801F04DFC10BD98
:1025E0009E03001096020010EE020010014B1870BE
:1025F0007047C046A8040010002310B5074AD35600
:10260000002B07D0013B59B21B0601D4117010BD3D
:10261000002313700248FFF72FFFF8E7A60400100D
:102620009E03001010B508210120FFF76CFF022166
:102630000020FFF768FF00210220FFF764FF06215A
:102640000220FFF760FF03210800FFF75CFF032172
:102650000022080000F0DAFD00220621022000F02E
:10266000D5FD01220621022000F0D0FDFFF78CFFEE
:10267000FFF7C2FFA220FFF7F3FEA020FFF7F0FE56
:10268000C020FFF7EDFE0020FFF756FF0A20FFF7FE
:10269000AFFE4020FFF7E4FE2C20FFF7E1FE3220E2
:1026A000FFF7A6FE2E20FFF7DBFE3220FFF7A0FE8D
:1026B0002F20FFF7D5FE0A20FFF79AFEFFF750FF05
:1026C000FFF72DFF10BD0000030083280DD80F2950
:1026D0000BD88420CA085043C01807231940793307
:1026E0000B41024A115C0B43135470479E030010C8
:1026F000F0B5072580265B1885B0DBB2104F02903D
:1027000003920193019B994201D305B0F0BD84224D
:10271000CB085343029A30009B180A002A4010410C
:10272000039AC0B29446DA199C44634502DB013136
:10273000C9B2E7E714780133044314700132F4E7B7
:102740009E030010F0B587B005921E00DB7883422F
:1027500003D23778380007B0F0BDB4787268244BE4
:10276000041B00209A4216D103231F005C43A418C7
:10277000E318CDB20393EB19DBB20493002301936A
:10278000049BAB42E6D0082302930023009327E08A
:102790000233D21801301378A042F9DB5778941C29
:1027A000E6E7029B082B07D1039B9C42D2D02378FB
:1027B00001340193002302930122019B134206D0AE
:1027C000059B009A28009918C9B2FFF77DFF019B6D
:1027D0005B100193009B01330093029B0133029332
:1027E0007378009A9342DCDC0135EDB2C8E7C0464D
:1027F00087870000F7B505001F000C00160001F0E8
:102800005DFB2B180193019B9D4201D0832C01D9C4
:102810002000FEBD3B00210028783200FFF792FF28
:10282000024B01351B68C0182418ECE73800001073
:1028300000210122042330B50A4C0D5D854203D1ED
:1028400018011043C0B230BD013B002B04D101324E
:102850000433092A00DD002201312829EDD10020AE
:10286000F1E7C0466A9800003C2310B504098000D7
:102870001840011F00D52831621E0020032A06D807
:10288000242904DC0423024A1B1B5218D05C10BD0F
:102890006A98000070B505000024054B2900E05C33
:1028A000044B0134C01800F0D3FC0A2CF5D170BDE4
:1028B0006098000000400440F7B50E4E3468002CCC
:1028C00016D11020FFF7E6FF0B4D2B786F7818001C
:1028D000002239000193013400F04CFC0122390040
:1028E000019800F093FC02350A2CEED101233360ED
:1028F000F7BDC046AC0400109A980000F8B500255A
:102900000B4C2678677801223900300000F032FC49
:10291000013500223900300000F078FC02340A2D25
:10292000EFD10020FFF7B6FF0022024B1A60F8BD7E
:102930009A980000AC04001070B50500FFF7BCFFCA
:10294000002D09D001220721022000F013FC802174
:102950000F4A13688B4313600B21002000F02CFCFE
:102960000124002805D00B21002000F025FC444262
:102970004441002D09D000220721022000F0FAFB7B
:102980008023034A11680B431360200070BDC046CA
:10299000FC3F02500023F0B58BB006900120099354
:1029A0000791FFF7C9FF0400031E01D0182301247B
:1029B000089300232C4E0193377875780122290063
:1029C000380000F0D7FB00222900380000F01EFC80
:1029D000264B0293019B04330593022C1CD0029BCF
:1029E0009B790393029B0398DB791900049300F011
:1029F000E3FB00282AD101991D4AA3008A5C08A99B
:102A00005A500134019B01330193029B019A023B0E
:102A10000293059B9342E0D100222900380000F088
:102A2000A9FB01222900380000F0F0FB114B02360F
:102A3000B342C1D1002C06D00124069B089A1A602B
:102A4000079B099A1A6020000BB0F0BD0499039807
:102A500000F0B2FB0028CED00499039800F0ACFB44
:102A60000028C8D0CEE7C0469A980000929800008F
:102A70006A980000AE980000012210B510000B21EA
:102A800000F078FB00220B21012000F0BFFB0122A7
:102A90000221032000F06EFB00220221032000F03F
:102AA000B5FB10BD37B51021244A0500136801207D
:102AB0008B4313608023224A9B011168214C0B43F6
:102AC00013600B21002200F055FB00220B21012096
:102AD00000F09CFB9F211C4B1A688A431A601A68FD
:102AE0001A491A601A4B186804F0EEFA03028020A3
:102AF000184320602A000320022100F087FB0A20EF
:102B0000002D00D0012000F07FFDFF2223689343B9
:102B1000236022680F4B13430F4A2360136801930D
:102B2000019B002BFADA23680C4A13402360FFF75D
:102B3000A3FF01980004800D3EBDC04638820440CA
:102B40008080044000C001409840044000093D00DE
:102B5000B8040010800000012CC00140FFFFFFF806
:102B600010B50D4C2068002814DA00202060FFF713
:102B700099FF0A280BDC0120FFF794FFE02341387E
:102B8000FF385B00984202D8C03BFF3B2360FFF751
:102B900073FF206810BDC0463C00001010B5FFF761
:102BA000DFFF002801D1002010BD0020FFF77AFFD1
:102BB0000120FFF777FF011EF5D0024804F084FAE8
:102BC000F2E7C0462D47130010B5FFF7C9FF0028F4
:102BD00009D0FFF7E3FF00210300034AC00F9A4228
:102BE0004841024B186010BD34080000B0040010CA
:102BF0000222074B10B51A60064BA0321960064B33
:102C00001A70013258709A7000F0F0FD10BDC04685
:102C10001C06001008060010F40500100022064BE8
:102C2000023110B51960054B1A60054BA2321A70BB
:102C3000587000F0DBFD10BD1C06001008060010E7
:102C4000F405001070B505000E00032431002800C3
:102C5000FFF7CEFF0223FF33984202D0013C002C45
:102C6000F4D170BD70B505000E00032431002800BA
:102C7000FFF7D4FF0223FF33984202D0013C002C1F
:102C8000F4D170BD0A4B10B51B68002B0ED0094C57
:102C9000A31CA270140A5C70140C120EDA709C70E3
:102CA000FFF7E0FF831EFF3B5A425341180010BD5F
:102CB000B4040010F405001070B50E4C2468002C0C
:102CC00015D00D4C160AA270E670160C120E627129
:102CD000A371A21D26711C0A54701C0C1B0E94704B
:102CE000D370FFF7BFFF841EFF3C63425C412000AE
:102CF00070BDC046B4040010F4050010064B10B5BA
:102D00001B68002B05D0FFF79DFF831EFF3B5A4237
:102D10005341180010BDC046B4040010064B10B556
:102D20001868002807D007210220FFF78BFF023820
:102D3000FF384342584110BDB40400100E4B70B52B
:102D400004001868002813D0A11E062911D80725F1
:102D50006D1A072D04D009482A00091801F06BF8F4
:102D60002900E0B2FFF77EFF0238FF3843425841A6
:102D700070BD01204042FBE7B4040010F6050010CE
:102D8000012110B50800FFF75DFF0223FF339842D1
:102D90000FD10120084B1860084B1C78230706D080
:102DA0000323074A234001009370FFF75BFF2000D5
:102DB00010BD01246442FAE7B40400100C060010B0
:102DC000F405001010B5FFF7DBFF01210220FFF72B
:102DD00039FF0223FF3398420FD1084B1B787F2B1A
:102DE00006D9842207210220054B5204FFF764FF15
:102DF00004210920034AFFF745FF10BD0C0600100F
:102E0000020114008080808010B5002848D0802105
:102E1000254A13688B431360012324490A681A4228
:102E2000FCD00322224B1A6001230021214A1360A7
:102E30001160136011681942FCD01F4A1F491360CA
:102E400080230C685B0223430B60002804D180239D
:102E500015490C6823430B60194B196881421ED039
:102E60001860431E9841174B40421840164B11689A
:102E7000C01804F09FF8FA21144B89001860040070
:102E800004F022F91E23C8214343114A2000136095
:102E9000490104F019F90F4B186001F03BF810BD1F
:102EA000034B1860C0E7C046388204400C800440E1
:102EB0007080044074800440788004408080044026
:102EC0004000001000512502001BB700B80400109C
:102ED000C0040010BC04001010B500F03DF9134A06
:102EE000002113681B0B1B031360114A13681B0B93
:102EF0001B0313600F4A13681B0B1B0313600E4A5E
:102F000013681B0B1B03136001220C4B19600C4B45
:102F10001A6019601A6019681142FCD02322094B0B
:102F200000201A60FFF770FF10BDC04600800050FF
:102F30000080015000800250008003504080044017
:102F40004480044008800440014B024A1A60FEE7B6
:102F50000CED00E00400FA0570B500250B490C48A3
:102F600000F053FF0B4E300000F04FFF0A4CE268B8
:102F7000216833000948013500F047FF14340C2D57
:102F8000F5D1074800F041FF70BDC0464E73000008
:102F9000AE980000F19800002C9A0000C098000044
:102FA000CB980000F0B500253D4F04003B68280099
:102FB0008BB0AB425ED03B4B02941B6802A99B686E
:102FC000013098473B68002B02D1374800F01DFFC5
:102FD0000BB0F0BD01342378202BFBD0002B2FD079
:102FE000431C0193800002ABC450FF2D06D1019B0E
:102FF0001800022B45D1002526E01C002278002A6B
:1030000005D0631C202AF8D1002222701C00019BED
:10301000012B2ED10C26234D244B2B602B680298BC
:10302000196800F06AFF2B68002821D01433013E94
:103030002B60002EF2D131003000FFF78DFFC4E786
:103040000028BFD002281AD11949039800F055FF73
:1030500000280BD1134C17482368D96800F0D5FE1F
:1030600023681548196900F0D0FEABE7022006E09E
:103070001D7901982378002BE2D00828ABD1854236
:10308000E8D2084CC0B2236802A99B68984722681E
:103090000A4B92689A4295D00322094B1A7091E725
:1030A000CC050010C4040010F49800002C9A000015
:1030B00083730000ED980000ED860000A12300005E
:1030C0003400001070B50400154D0D281BD00CD82D
:1030D00008280CD00A2816D02100124800F095FECE
:1030E0002B685A1C2A601C7018E07F28F4D10E4B04
:1030F0002A689A4212D921000A4800F086FE2B68FD
:10310000013B2B600AE000232A680848137000F096
:103110007CFE054C2000FFF745FF2C6070BDC046CB
:10312000C805001000990000C8040010F1980000C4
:1031300010B500F01BFD002800D110BD00F0F4FC1C
:10314000FFF7C0FFF5E70000014B024A1A60704725
:10315000C8050010C80400104023044A11680B433E
:1031600013600122024B1A707047C04680800440F1
:10317000D00500100E4B70B51B7804000E00150032
:10318000002B01D1FFF7E8FF631E022B0AD8094B81
:103190002004C01801230268B340012D04D1134359
:1031A000036070BD0348F5E79A430260F9E7C04643
:1031B000D0050010008000500F4B70B51B78050043
:1031C0000C00002B01D1FFF7C7FF0020032D0BD807
:1031D0002800012303F0D0FE02090B0D074AA3408B
:1031E00010681840431E984170BD054AF7E7054A2C
:1031F000F5E7054AF3E7C046D0050010FC3F005054
:10320000FC3F0150FC3F0250FC3F03500E4B70B599
:103210001B7804000E001500002B01D1FFF79CFF66
:10322000631E022B0AD8094B2004C0180123026830
:10323000B340012D04D11343036070BD0348F5E78B
:103240009A430260F9E7C046D0050010FC3F0050E9
:10325000084B70B51B7804000D00002B01D1FFF75F
:103260007BFF182223689343236021680D43256068
:1032700070BDC046D00500103F224021044B1A60AB
:10328000044B3E3A1A60044A13688B43136070473C
:1032900024800440D8800440388204404021044AFD
:1032A00010B513688B431360FFF7E6FF10BDC046EF
:1032B0003882044009490A4A0B681A4080235B009F
:1032C00013430B600421074A13688B431360064BBA
:1032D0001A68064B1A6030BF7047C0460080034032
:1032E000FFF7FFFF10ED00E0388204403482044015
:1032F00010B500F041FAFFF701FB00210948FFF784
:10330000A7FF00210848FFF7A3FF00210748FFF7A8
:103310009FFF00210648FFF79BFF00210548FFF7AC
:1033200097FF10BD0840044000400440AC400440FA
:10333000144004401C40044010B50120FCF78AFFF3
:1033400010BD00008022124B10B5DA679218DA67C0
:103350008022D200DA6780225201DA6780221201CD
:10336000DA6780229200DA6700230121094A494284
:103370001360094A1160094A1360094A1360094A37
:1033800001331360084A1360FFF7D6FF10BDC04633
:1033900004E100E0048204400882044004C00040CC
:1033A0003CC0004000C0004000400140064A10B54B
:1033B000136801331360054B1868FFF725FDFFF70D
:1033C000C1FFC046C04610BDD80500104000001027
:1033D000F0B585B00C00019072B6FFF789FF554B30
:1033E000554D1A68554B1A60019B5A1E93413F2256
:1033F0005B429343524A9B18524A13600423524A39
:1034000011680B43136000232B60A3071AD04F4AA7
:103410004F4913680B40136029684E4BA20700D434
:1034200082E0EC2252010A432A6080221A6092183C
:103430001A608022D2001A60802252011A60802213
:1034400012011A60019B002B53D00024424B434FC2
:10345000434E3C601C60434B21001C60424B3000DB
:103460001C60FFF7F5FE220009212000FFF782FE15
:10347000220009212000FFF7C9FE80213B4A3C4879
:1034800013680B4313600722336876399343336024
:103490003368053A13433360019B584303F08AFDB8
:1034A0000322344B34491860344B1C60344B1A608F
:1034B000344B1A680A4080211A601A680A431A605D
:1034C0008023244A21499B0013600A681A430A603A
:1034D0002A68022113432B6001232B4A13602B4AD5
:1034E00011602B4A13601460136011681942FCD0FC
:1034F0003B6001220021274B52421A60264A136882
:103500000393264B196062B630BFC0460399126818
:10351000914207D101221A60214B1868FFF774FC11
:10352000FFF710FF05B0F0BD802212010A432A60A8
:1035300085E7C04638820440048204403482044057
:10354000FF1800003082044010ED00E000820440CB
:103550007FE2FFFF00E100E00400014004C0004002
:1035600064400440044001400480014080800440E5
:10357000841E000018C000400FF0FFFF08C000408C
:1035800014C000403CC0004078800440708004407B
:103590007480044008820440D8050010D40500104F
:1035A0004000001010B5FFF713FF10BD074B1A685D
:1035B000013203D106490A6801320A601A680132F1
:1035C0001A60044A1368013313607047E80500105D
:1035D000E4050010E005001080235B0498420AD245
:1035E0000023054A01381360044A1060044A13603E
:1035F0000722044B1A607047E805001014E000E051
:1036000018E000E010E000E00B4A1368002800D149
:103610000130C143994209D2591C081811689942D6
:1036200000D2704711688842FCD8F7E71168C91AC0
:103630008142FBD3F5E7C046E8050010014B18684E
:103640007047C046E80500100122034B1A60034A88
:10365000136801331360704700C00040EC05001090
:103660000122034B1A60034A136801331360704749
:1036700000000140F0050010002803D10122044B96
:103680001A6070470128FCD1024B1860F9E7C04668
:1036900004C0004004000140002802D1044B18601F
:1036A00070470128FCD10022024B1A60F8E7C0469F
:1036B00004C0004004000140002805D1044A022350
:1036C00011680B43136070470128FCD1014AF6E7EB
:1036D00004C000400400014010B5002900D1144985
:1036E000002810D18023134A146823431360032257
:1036F000114B1860114B1960114B1A608022114B4D
:1037000052021A6010BD0128FCD18023094A5B00D7
:1037100010680343136000220B4B1A600B4B0332FB
:1037200019600B4B1A608022064B9202E9E7C046F3
:10373000FFFF000080800440EC05001018C000402E
:1037400014C0004000E100E0F00500101800014046
:1037500014000140802210210820064BD205116080
:10376000186080235B011068084202D0013B002BE7
:10377000F9D17047180000408022164B120210B594
:10378000DA676C22144B15481A60154B1968014012
:1037900019601A6804211A60124B1A6802401A60F4
:1037A0001A6800201A600122FFF7E4FC01220421BC
:1037B0000020FFF72BFD012205210020FFF7DAFC96
:1037C000012205210020FFF721FD0022064B1A608F
:1037D00010BDC04604E100E018000040F8FCFFFF07
:1037E000304004403440044004800440F8B50023D5
:1037F000164A174C202123601360164A136080225A
:10380000D2051160144A2168012907D0934203D1DF
:10381000FFF7A0FF0020F8BD0133F4E79342F7D093
:1038200000250E4F3E68013E2368FF2B01D920681A
:10383000F1E73B68B34204D03E68FFF7FFFE0A3071
:103840000500FFF7FBFEA842EED1E1E720060010DD
:103850000406001024060010FF0F000028060010C8
:103860000122034B1A60034A136801331360704747
:10387000004001403406001070B50124164B174A71
:103880001C6013681B191360154B1A68002A13D0AB
:103890001A68144D013A1A601E68002E0DD02100DE
:1038A00020002A68FFF7B2FC2B680221E31A2B6084
:1038B00020002A68FFF7AAFC70BD1B6821002B605E
:1038C00020002A68FFF7A2FC022120002A68FFF7E7
:1038D0009DFC054B1E60EFE700800140380600109C
:1038E0002C0600103006001004800140002803D18F
:1038F0000122044B1A6070470128FCD1024B18606A
:10390000F9E7C0460440014004800140002802D18C
:10391000044B186070470128FCD10022024B1A604A
:10392000F8E7C0460440014004800140002805D16A
:10393000044A022311680B43136070470128FCD12D
:10394000014AF6E7044001400480014010B5002818
:1039500011D18023124A9B00146823431360032271
:10396000104B1860104B1960104B1A608022104BDE
:10397000D2021A6010BD0128FCD18023084ADB0066
:1039800010680343136000220A4B1A600A4B03328B
:1039900019600A4B1A608022054B1203E9E7C04602
:1039A000808004403406001018400140144001405B
:1039B00000E100E03806001018800140148001404A
:1039C0000E22174B10B51B681340062B12D1154B56
:1039D00090321B68134205D0134ADBB25360134B7D
:1039E0001B6810BDDB07FCD5104B1868C0B200F097
:1039F000ACF8F6E7042BF7D00C2B05D10A4AF433C8
:103A000051680B435360ECE7022BEAD1054B1A686F
:103A1000054B920602D500229A60E2E70122FBE7FD
:103A200008800040148000403C06001000800040E8
:103A3000004870473C060010F7B58022002107259A
:103A40002A4B2B4C9203070001912000DA67902249
:103A500000F012FA019B274EA360274B1A68AA4375
:103A60001A600122196811431960244B1968A9438F
:103A70001960196811431960802321495B010868A6
:103A800003430B601F4B1A60823232601E4A126879
:103A900019681E4B1868504303F08CFA390000096E
:103AA00003F088FA10221A4B1A491A60030A0B60B5
:103AB0000323194FC0B2386060203360174B1D607C
:103AC000174B1A6801921A680240602AFBD15F3ACC
:103AD0001868104207D122708022124B92031A609C
:103AE00005230B60F7BD38680190F1E704E100E0C1
:103AF0003C0600100C800040A4400440A840044054
:103B0000808004409880044078800440B80400100D
:103B10002880004004800040008000400880004071
:103B20001480004000E100E010B5FFF781FF0200C3
:103B3000837BC318D87B937B0133DBB293735BB277
:103B4000002B01DA0023937310BD10B50400FFF7BA
:103B50006FFF437BC318DC73437B0133DBB24373DA
:103B60005BB2002B01DA0023437310BD10B5FFF7E1
:103B70005FFF0300807B5B7BC01A431E9841C0B28D
:103B800010BD70B504001D0000202E5C2318002E0F
:103B900009D1121AD518EC1A002C07DCD343DB1715
:103BA0001A40101870BD26540130EEE71970013329
:103BB000F1E7F8B5541E0F001E00050023000100B8
:103BC000092E16D90A21300003F0F4F9220003006F
:103BD00039002800FFF7EDFF04002D1830000A21FE
:103BE00003F06EFA30312970601CF8BD0F70013B94
:103BF0000131002BFADC0020824200DD20002D186C
:103C0000002A00DC0122541EE8E7F7B50E00D917A0
:103C10005F18040001934F40551E092F17D90A2140
:103C2000380003F0C7F9019A0300002A00DA434282
:103C30002A0020003100FFF7E8FF050024183800B3
:103C40000A2103F03DFA3031681C2170FEBD019B52
:103C5000002B00DA951E23006119CA1A002A0CDC19
:103C6000E843019AC017054064196B1C002AE6DA84
:103C70002D221D0022700134E1E71E700133ECE7B4
:103C8000F7B51E00089B1400013A1F090500130038
:103C9000002F11D033000097FFF7F2FF2D180F23EC
:103CA000089F1F40FAB2092F12D830322A70013013
:103CB000FEBD0170013B0130002BFADC0020844284
:103CC00000DD10002D18201E00DC01200138E6E781
:103CD000002E01D03732E9E75732E7E7F0B50500AB
:103CE0000F001C0085B0002801D0002303700026BF
:103CF0001378002B00D16DE0B74204D80023013DBA
:103D00002B70013E32E0252B04D001322B7001369E
:103D10000135EDE75178252902D129700232F6E705
:103D2000931C0393302902D02021531C0393039B3F
:103D30001B782D3B5A425341039AD3180022039318
:103D4000039B1B7818003038092812D99019B84203
:103D500001D9BA1BD2B2692B1FD013D8632B35D02F
:103D6000642B1AD0582B2DD001267642300005B096
:103D7000F0BD0A2042439A18039B303A0133D2B275
:103D80000393DDE7752B11D0782B14D0732BEBD177
:103D9000280008CCFFF7F5FE03E0280008CCFFF769
:103DA00034FF039A2D1801323618A1E7280008CCF9
:103DB000FFF7FFFEF5E708CC009300232800FFF78C
:103DC0005FFFEEE708CC00930123F7E708CC012062
:103DD0002B70E6E7B74200D890E72B70C6E710B526
:103DE00013000A006421FFF779FF10BD00B59BB0F6
:103DF0000A00010001A8FFF7F2FF632800DDFEE7DB
:103E000001A800F0ADF81BB000BD0FB407B504A9C0
:103E100001C90191FFF7EAFF03B008BC04B01847DD
:103E20000EB403B503AA02CA0192FFF7D8FF02B08D
:103E300008BC03B0184770B506000E4303253400D4
:103E400003002C402E420FD1AA420DD90B59035129
:103E50000434131B032BF9D80324131F9B080133CD
:103E60009B00C9182240C3180024A24200D170BD93
:103E70000D5D1D550134F8E770B5830704D00300CC
:103E80009A189A4217D170BD0300032AF8D90C047E
:103E90000B0623430B430C0223430400861808C47B
:103EA000351B032DFBD80324131F9B0801339B00F4
:103EB000C3182240E4E719700133E2E70300002051
:103EC0001A5C002A00D170470130F9E70023CA5C70
:103ED000C2540133002AFAD1704770B500230400A0
:103EE0009A4201D1002007E0E55CCE5CA81BB542F8
:103EF00002D10133002DF3D170BD0200002310B5B3
:103F0000D05CCC5CA04201D0001B02E00133002851
:103F1000F6D110BDFA21094B10B51868890003F0DD
:103F2000D3F8FFF759FB96200002FFF785FD01202B
:103F3000FCF790F9FEF746FF10BDC046B80400102C
:103F400010B5FEF7C9FFFFF707F9FFF7A7F9FEF76E
:103F500069FBFEF719FBFFF7DDFFFFF7F5F810BD72
:103F600010B504002078002800D110BD0134FCF702
:103F7000C7F9F7E770B50500441E0D35A54200D11D
:103F800070BD29780248FFF740FF013DF6E7C046C3
:103F90008774000070B51748FFF737FF164D2800EB
:103FA000FFF7E8FF154C42212000FFF72EFF1448D1
:103FB000FFF7E0FF43212000FFF727FF1148FFF73D
:103FC000D9FF1148FFF721FF1048FFF7D3FF104832
:103FD000FFF71BFF0F48FFF7CDFF4E212000FFF733
:103FE00014FF0D48FFF7C6FF696D0C48FFF70DFF82
:103FF00070BDC0461C9B0000D8060010229B00002C
:10400000E6060010F4060010299B00001E070010B1
:104010002F9B00000207001010070010359B0000C6
:104020000A23021153430F2210401818704770B52D
:104030000A21050003F048F80A210401280003F0D2
:1040400029F92000084370BDC12210B55200022199
:104050000E20FEF717FE0122014B5A7110BDC0461B
:10406000CE06001010B5084C6379002B01D1FFF784
:10407000EBFFA2792379520001211A430C23080097
:104080001A43FEF7FFFD10BDCE06001010B5074C19
:104090002379002B08D16379002B01D1FFF7D4FFDE
:1040A00001232371FFF7DEFF10BDC046CE060010CE
:1040B00010B5054B1A79002A05D000221A711A7220
:1040C000DA70FFF7CFFF10BDCE06001010B501214A
:1040D0000220FEF713FE064B040018787F231840D9
:1040E000FFF79EFF034B5870DC71200010BDC046E7
:1040F0000C060010CE0600100122014B9A7070478A
:10410000CE0600100022024B9A701A727047C04609
:10411000CE06001010B5FFF7D9FF094B09499A7870
:10412000002A03D01A7A012A02D801321A7202E058
:104130000868054A10600022DA700A6010BDC046A7
:10414000CE060010E0050010DC05001010B5FEF7EB
:1041500017FE0C2203001340104203D0024A1178CC
:104160000B43137010BDC046CE06001010B5FFF70C
:10417000EDFF044C23785B0701D5FFF7CBFF00234D
:10418000237010BDCE06001010B50020FEF7D4FB42
:10419000002801D0FFF7EAFF10BD0000002310B592
:1041A000044CE371FFF7F0FFE379002B01D1FFF737
:1041B0008DFF10BDCE06001010B50921084803F090
:1041C0006FF8FA22074BD2001A80FFF7E7FF0022B0
:1041D000054B1A60FA22054B92001A6010BDC046CA
:1041E000CE060010CC060010E0050010DC05001023
:1041F00010B5FFF7C9FF002010BD704710B5FFF7DD
:1042000057FF10BD70B51D4C0D0061782378A27862
:1042100009021943E378120411431B06184A0B43A1
:1042200013401A0A237062701A0C1B0EE370637934
:104230002179A2701B02134A0B43134023711B0AFE
:1042400006006371A079FFF7EBFE0F4B1B881B186C
:1042500033806079FFF7E4FEB070E078FFF7E0FEAE
:10426000F070A078FFF7DCFE28706078FFF7D8FECA
:1042700068702078FFF7D4FEA87070BD0C0600109F
:104280007F7F3F3F071F0000CC060010F0B58DB0C8
:104290000400FEF743FD002805D120001249FFF776
:1042A000BFFD0DB0F0BD0AAE0BAD29003000FFF729
:1042B000A9FF33880793F378B77808932B7809938D
:1042C0000A4B6E781879AD7800F0D2F8099B04900B
:1042D0000193089B20000093079A3B000449039533
:1042E0000296FFF79DFDDCE7419B00000C060010E5
:1042F000469B000070B505000E001400FEF70EFD91
:1043000000280AD028003100FFF77CFF201E03D0D0
:104310000020034B1B79236070BD01204042FBE766
:104320000C060010F7B504880E000500642120007B
:104330000092019302F0C4FE114B8FB2E41B1C806B
:10434000B078FFF774FE0F4CA0707078FFF76FFE27
:10435000E0703078FFF76BFE2071E878FFF767FEBA
:10436000009B6071A371A878FFF761FEE0713800CF
:10437000FFF75DFE20720198FEF7E0FCFEBDC0462F
:10438000CC060010F405001010B50223FFF7CAFF99
:1043900010BD431E984110B5420101210020FEF7D7
:1043A00071FC10BD70B5040001200D00FFF7F1FF96
:1043B000200000F085F8072102F06CFF20000A00C1
:1043C0002900FFF7E1FF96204000FFF71DF90020CC
:1043D000FFF7DFFF70BD000073B50400FFF776FE46
:1043E000002801D1002076BD1D4D6E780A20FFF710
:1043F0000BF9FFF76BFE0028F4D06B78B342F5D0D1
:10440000FEF78CFC0028EDD001A96846FFF7FAFE04
:10441000684600F055F8050001A800F031F8114B8E
:1044200004199C420DD90122E3171343ED18694684
:10443000280000F077F80C4AE31713400B4A9B184A
:10444000E418200001A900F025F82800072102F057
:1044500021FF68460A0001A9FFF796FFC3E7C0469F
:10446000CE0600107F51010000A3020080AEFEFFC7
:1044700007231840014B8000C0587047849B000000
:104480003C23020000785178584340184343907809
:104490001818704770B50C003C21050002F0FAFEB8
:1044A0002800A1703C2102F00FFE3C2102F0F2FE38
:1044B0006170E1212800090102F006FE207070BD44
:1044C00070B5962283780688050000205201B61840
:1044D000010002229A424141761A022B00D80C3088
:1044E000C0189923033858436E240521023002F086
:1044F000EBFD6421FF3474430419B01024184942C1
:10450000300002F0E1FDC82124184900300002F01B
:10451000DBFD034B2018EC78C018001970BDC046B5
:10452000D382FFFFF8B5214B050080000E00C018B4
:104530001F4902F0C9FD032703007B43D817384009
:10454000C01880101B4B2D18AD00ED1828001A491B
:1045500002F0A0FECC173C4064180237A4107C4344
:1045600002342000992102F095FE0800390002F083
:10457000ABFD0130F0709921200002F0A5FD0C2167
:10458000023002F087FE0131C8B20E21B070081A65
:10459000023902F099FD08490400280002F094FD58
:1045A000064BC01824183480F8BDC046652F04009F
:1045B000B13A02004F150000B505000094EDFFFF71
:1045C000012210B511001000FEF720FE0122022189
:1045D0001000FEF71BFE012100220800FEF7CAFDB5
:1045E000002202210120FEF7C5FD0120FFF78EF910
:1045F00010BD000070B50D00072101240600174B07
:1046000020001A688A431A601A6822431A60144B01
:104610001A688A431A601A68210022431A6022002D
:10462000FEF7A8FD220002212000FEF7A3FD0D4B9E
:104630003100186802F048FD01002000FFF786F9FC
:104640002000FFF773F9084E20003560FFF74EF9A0
:104650003368002BFCD1FFF7B3FF70BD7C400440F2
:1046600080400440B80400102C0600100300F8201D
:104670000A00C000890101405005800E0143F82066
:104680000002024011430A22514330B5CC101A19DE
:104690001000EB3055780078EA32684012781B5DE4
:1046A0000002104358400723194008418005800D3F
:1046B00030BD7047C023010010B55B01984201DB9B
:1046C000024BC1180248FFF7D1FF10BD00F8FFFFF1
:1046D000BA9A00000723020010B50F245943074B74
:1046E0009C31C9180E320B78234003700B780131CE
:1046F0001B09437002309042F5D110BDD80600105E
:1047000007230200594310B5064B9C31C9180E32DD
:10471000437804781B01234302300B70013182423D
:10472000F6D110BDD806001070B5B64D1726EB6E49
:1047300086B05A1E93416E443370B34BEA58D0068C
:10474000400F0138062808D802F016FC4431043620
:104750003C3F42000D23002404E06B6E16339B00A7
:104760005C59230050111F283BD802F019FC35007A
:104770003F00440048004E00560059005F006300AF
:1047800069007800830090009F00AC00B700C4006F
:10479000D100DF00EC00FD00FB000A011101160151
:1047A00023012E01330137013D01410145016B6EAB
:1047B00016339B00EB58CEE7AC6DEB6D9C42D1DD20
:1047C0000D23CFE702231C00CCE70C230324C9E709
:1047D0000D23F8E70223BEE7191B0131281902F067
:1047E0005FFD01203378EB6606B070BD191B87486A
:1047F00001312018F3E7191B85480131F9E7220040
:104800008249280001F0C5FAEBE71A1B7F48013204
:1048100029192018FFF70FFBE3E722007C49F0E796
:104820007A491A1B7A4801326118F2E72200784966
:104830007648E7E776491A1B013261182819E9E73B
:10484000296E0A22002900D1063200932300029229
:104850006E4A01962900280001F0A5FAC1E7296EE9
:104860000A22002900D1063202920093684A2300EE
:104870000196EFE70122296E32700932002900D13A
:10488000063202920093002223000196E2E7296E8D
:104890000A22002900D106320093230002925B4ACB
:1048A00001962900280001F0A9FA9AE70122296E51
:1048B00032700932002900D10632029200930022A0
:1048C00023000196EDE7296E0A22002900D1063265
:1048D000029200934E4A23000196E2E7296E0A22D3
:1048E000002900D106324A480292009302002300B8
:1048F00001960100B0E7296E0A22002900D1063294
:104900004348029200930200230029000196A3E786
:104910000122296E32700932002900D1063202923A
:104920000093002223003A480196E2E7296E0A220A
:10493000002900D10632364802920093020023007B
:1049400029000196AFE70122296E32700932002951
:1049500000D106322E48029200930022230001006B
:104960000196A0E701223270296E0A22002900D1A7
:10497000063227480292009302002300002101968C
:1049800091E7220000212148009601F099FA28E7DA
:10499000220000211E480096F7E7296E0A2200290E
:1049A00000D10632009323000292194A0196290091
:1049B000002078E7296E0A22002900D106320292EF
:1049C0000093124A23000196F1E72200002100968D
:1049D0002800DAE722000E490096F9E71A002100C4
:1049E000280001F084FAFCE61A0021000748F8E7E5
:1049F0001A0021000648F4E71A002100280001F0FF
:104A000087FAEEE6D8060010C4070000E60600109C
:104A1000F4060010064B10B519001A1DD46F0831AA
:104A2000CC67D96FD1679A6F9867DA6710BDC046B7
:104A3000D8060010064BDA6F986F9A671A1DD16F6F
:104A400008335967D96FD1670022DA677047C046CB
:104A5000D8060010F8B5134D2F008C373B68581C52
:104A6000FFF728FEF923DB00E8500123AA6E0400BB
:104A700003409A4213D10C4BEE58830703D4386895
:104A80000230FFF7C7FFFF202B000122A401000224
:104A90000440B6108C3334431C60044BEA500220AF
:104AA000F8BDC046D8060010C4070000AC070000DF
:104AB0000D4B0E490120CA5810B5D3059B0E940525
:104AC0000ED5403B8C6E92100240944206D10A00F3
:104AD0008C321468E3181360054BC850012010BDD8
:104AE000002BEFD10300EDE7C4070000D80600104B
:104AF000AC07000010B5084B5A1CD07F9A1CD27F1F
:104B000000011202104303331A7FDB7F10431B03A3
:104B10001843FFF77FFF10BDD806001010B5FFF750
:104B200089FF0F240323044A01002140D15401339B
:104B30000011072BF8D110BDF406001010B5FFF7D7
:104B400079FF044B01211A008C321060024A9950FF
:104B500010BDC046D8060010AC07000010B5064CCA
:104B6000A36E002B07D0FFF765FF230001228C33D3
:104B70001860024BE25010BDD8060010AC070000D0
:104B800010B5064CA36E002B07D1FFF753FF23008F
:104B900001228C331860024BE25010BDD806001081
:104BA000AC0700000121054B054A10B5D150054B5B
:104BB0001B68002B00D0984710BDC046BC07000002
:104BC000D8060010AC0E00100020144B144A70B52B
:104BD000985004329A5882421AD0F622D20099583C
:104BE000814214DD012909D1F721C9005C588442B2
:104BF00004D058500A210B4D99505C51F621C90040
:104C00005A58032A01DD0120D866013A5A5070BD76
:104C1000054B1B68002BFAD09847F8E7D806001020
:104C2000BC070000B4070000AC0E0010F822094BCE
:104C3000D2009A58002A04D0F622D2009A58002AAC
:104C400007DD0F21044A9A58013311401211997758
:104C5000DA777047D8060010B4070000044A537F83
:104C6000917F1B0109020B43117F0B435367704770
:104C7000D80600100B00093B30B5012B0BD80023E0
:104C8000074AD55CC45CA54206D0064A064B0839E3
:104C9000D0580143D15030BD01330E2BF1D1FAE78A
:104CA000F4060010D8060010A407000010B508296B
:104CB0000FD0192908D1082342781A4205D00022C2
:104CC00002704370FFF71CFD10BD0F230370083BFB
:104CD000F7E70200030000240E321C7001339342F8
:104CE000FBD1EFE730B5114B85B05C6F002802D0E7
:104CF0000F22944304430E4D5C67FF2C05DD0E210B
:104D0000280002F0CDFA05B030BD21006846FFF75B
:104D1000E1FC21006846FFF7C9FF00236A46D25C28
:104D2000EA5401330E2BF9D1EDE7C046D806001046
:104D3000F40600101FB50F22104B5C6F9443044320
:104D40005C67082C18D0FF2C16DC21006846FFF7A2
:104D5000C1FC21006846FFF78DFF00230849684623
:104D6000CA5CC25401330E2BF9D12100FFF79EFF1C
:104D700021006846FFF7C4FC1FBDC046D8060010DE
:104D8000F40600101FB50E4C616F082917D0FF29DB
:104D900015DC6846FFF79EFC616F6846FFF76AFF07
:104DA000002308496846CA5CC25401330E2BF9D16E
:104DB000616FFFF77BFF6846616FFFF7A1FC1FBDC6
:104DC000D8060010F406001010B50D4C631CD87FF7
:104DD000A31CDB7F00011B021843E37F1843E31C85
:104DE000DB7F1B031843FFF765FC0F220300134012
:104DF00023770311134000126377A07710BDC046DC
:104E0000D8060010024A536E16339B00D0507047EC
:104E1000D806001004494A6E1632920053581B1AE5
:104E20005A425341CB667047D8060010054A536E6C
:104E300016339B009958013901D4995070470D21C0
:104E4000FBE7C046D8060010064A536E16339B0097
:104E50009958481C0D2901D098507047002199504D
:104E6000FBE7C046D80600100F4B5A6E1632920070
:104E7000D05819180A7F0C2804DC497F09010A431D
:104E80005A657047F520094912015958800081423E
:104E900005D007480140B7208000814202D1596DFA
:104EA0000911ECE7197FEAE7D8060010CC070000EB
:104EB000FFFEFFFF224B30B55A6E16329200D258D9
:104EC0000C2A05D1F5211F4889001858884204D0C2
:104ED000FA21C900595800290DD00F20596D9A1890
:104EE00008400C1150771477FF220901114021432B
:104EF0001877596530BD0F25586D041105400C2AEF
:104F000003DC9B181D775C77F4E70E4A9958F5226D
:104F10009200914205D00C4A1140B7229200914272
:104F200008D11A00FF212932157002010A402243DC
:104F30005A65DFE71A00293214701D77DAE7C04698
:104F4000D8060010CC070000FFFEFFFF0F21254B05
:104F500070B55A6E586D16329200D2580140001149
:104F60000C2A05D1F524204DA4005D59A54204D09A
:104F7000FA24E4001C59002C0CD0551C5D192C7F20
:104F80009A18167F240134435C651C7F2C771077B8
:104F900019770CE0C9B20C2A0ADC551C5D192C7F6C
:104FA0009A18167F2401344328775C65117770BD09
:104FB0001D00F5260C4A29359C582A78B6001201A6
:104FC000B44205D0094E3440B726B600B44204D1ED
:104FD00002435A6529331970E9E71C7F2870224380
:104FE0005A65D5E7D8060010CC070000FFFEFFFF8A
:104FF00010B50E2202490348FEF71DFF10BDC04642
:10500000F40600101007001010B50E2202490348E4
:10501000FEF711FF10BDC04610070010F406001087
:1050200010B50D2300220249024800F0B2FE10BD67
:1050300010070010F406001010B50E2202490348B4
:10504000FEF7F9FE10BDC046F4060010020700107E
:1050500010B50E2202490348FEF7EDFE10BDC04612
:1050600002070010F406001010B50D2300220249BB
:10507000024800F08EFE10BD02070010F40600107A
:10508000024B181846300278DA667047D8060010CE
:10509000044B002219009A6408314C33CA871A80E5
:1050A0007047C046D8060010C21C431E002010B531
:1050B00004499A4200D110BD8C5C40002043013A63
:1050C000F7E7C0461E07001030B50124054A0B1D46
:1050D000994200D130BD05002540555440100131A2
:1050E000F6E7C0461E07001070B50020FFF7DCFF92
:1050F0000500084C0021207FFFF7E6FF25770420FC
:10510000FFF7D2FF05000421607FFFF7DDFF657721
:1051100070BDC046D806001010B50020FFF7C4FFD0
:10512000034C20770420FFF7BFFF607710BDC04617
:10513000D806001010B5054C0021207FFFF7C4FFF2
:105140000421607FFFF7C0FF10BDC046D8060010E5
:1051500010B50A4C23008C3318680130FFF7AAFA07
:10516000F923DB000F22E0500300134023770311E3
:10517000134000126377A07710BDC046D806001018
:1051800010B50E21054802F08BF80E21044802F0FC
:1051900087F80E21034802F083F810BDD8060010EE
:1051A000E6060010F40600100022054B197F18785F
:1051B00001320143197701330E2AF7D17047C046F7
:1051C000D80600100022054B187F197801320140E3
:1051D000197701330E2AF7D17047C046D806001060
:1051E0001FB500230A4A6C461118097F0130195572
:1051F0000D2800DD002001330E2BF4D10023054AD9
:105200006946C95CD15401330E2BF9D11FBDC0468C
:10521000D8060010F4060010074A10B5536E163376
:105220009B0099584C1E51189C500877002C01DAAD
:105230000D21995010BDC046D8060010034B002226
:105240001900983394310A601A607047D80600102C
:105250000122034B943319684A401A607047C046D4
:10526000D8060010074B002219008C310A6001217A
:105270001A67054A99501A009432126851424A41FD
:10528000DA667047D8060010AC07000070B5874B8F
:10529000874DEC58874BA210A41119570F231340C8
:1052A000581E0E283DD801F067FE0810171E223C3C
:1052B000283C3C2E3C3C3C323600002931DB0022AD
:1052C000691846310A70180070BD002929DB0123D6
:1052D000691846310B70F6E7002922DB0800FFF75A
:1052E000CFFE0123EFE72000FFF796FFF9E7002943
:1052F00017DB0800FFF78EFDF3E7002911DB08003C
:10530000FFF780FDEDE72000FFF714FDE9E720003F
:10531000FFF7E8FCE5E7002903DB0800FFF760FF83
:10532000DFE7982A00D19CE063DC382A00D186E0D0
:105330003DDC1C2A00D179E029DC162A70D021DC62
:105340000123002ABFD0023B0C2ABCD1012398358F
:105350002B60B8E7D63A1000222A15D801F00CFECF
:105360009014931414149614141414141414141480
:1053700099149C1414149F14141414A2ACAF14B2F6
:10538000B5B8BB00182A4ED001235B429BE72C2AFC
:1053900052D007DC262A4CD0282AF5D100236B6690
:1053A000013390E7362AEFD1FFF7D0FD99E7662A5F
:1053B0004ED00FDC562A48D007DC3C2A42D04C2A7B
:1053C000E2D1FFF7C5FE02237DE75C2ADCD1FFF7BF
:1053D00091FB86E7762A41D006DC682A3BD06C2A0E
:1053E000D2D1FFF79BFB7CE7882ACDD1FFF71EFCCB
:1053F00077E7F82AC8DCD52AACDCBC2A3AD008DC2E
:10540000A82A31D0B82A32D09C2ABDD1FFF726FC79
:1054100067E7C82A31D0CC2AB6D1FFF7D5FC60E7C0
:10542000FFF722FD5DE7FFF71DFF5AE7FFF7E0FDFD
:1054300057E7FFF73FFD54E7FFF7E6FD51E701238C
:105440006B6640E7FFF7ECFD4BE7FFF7F5FD48E73C
:10545000FFF7FEFD45E7FFF793FE42E7FFF704FE87
:105460003FE700232B669BE701232B662BE7FFF723
:10547000E5FE36E7FFF786FC33E7FFF7E9FE30E7A6
:10548000FFF758FE2DE7FFF769FB2AE7FFF78CFED1
:1054900027E7FFF741FE24E7FFF772FB21E7FFF75D
:1054A00091FE1EE7FFF7F4FD1BE7C046C4070000AE
:1054B000D8060010A4D70000FFF774FB11E7FFF730
:1054C00083FB0EE7FFF7B2FC0BE7FFF70DFE08E7E3
:1054D000FFF7BAFC05E7FFF731FB02E770B51D4C9B
:1054E0001D4D1E4B6259E25023008C331868FFF7A4
:1054F000E1F8E36E6051A3660023194DE366635142
:105500000333184002281FD0984220D0012818D019
:10551000FFF7BCFE00280CDD6359002B04D12200EC
:105520008C3213681B1813602200903213681B180A
:105530001360FA22D200A358002B01D0013BA350E4
:1055400070BDFFF787FAE5E7FFF7EEF8E2E7FFF750
:10555000AFFADFE7D8060010C4070000CC07000050
:10556000AC0700000122034BDA66034A9A830F223C
:105570009A777047D80600100F0F000070B5F42519
:10558000074CED0066592000064901F089FE66517E
:10559000FFF7E8FF0123044A6366A35470BDC046C9
:1055A000D8060010D40700009C07000070470000D8
:1055B00030B50D4D049C28600C4801600C490A6010
:1055C0000C4A13600C4B039A1A600C4B0C4A1C607B
:1055D000F423DB00D4500B4B0B4A1A600B4B0C4AE4
:1055E00013600C4A136030BDB40E0010CC0E0010D6
:1055F000E80E0010D40E0010F00E00104400001051
:10560000D8060010AC0E001079570000AD55000010
:10561000BC0E0010EC0E0010014B18607047C04625
:10562000C80E0010084B10B51968084A002906D1A9
:10563000074C24682160106001221A6010BD1168B7
:105640008842F8DA0800F6E7C00E0010C40E001019
:10565000C80E0010034B1B68002B01D1024A1360D7
:105660007047C046B80E0010C00E001070B51A4D3D
:105670002B0098331B68002B0DD0184B1C6801239E
:105680001C40F523DB00EB58A34208D1144BEB5828
:10569000002B10D170BD2B0094331C68F1E7002C57
:1056A0000BD1002BF6D00F4B1B68002B0FD0210025
:1056B000200098470BE0002CECD00A4B084E1B68EA
:1056C000002B02D02000A95998470023AB51F523A5
:1056D000DB00EC50DEE7C046D8060010B00E00102C
:1056E000A4070000B40E0010054B10B51B68002B7A
:1056F00004D00449044A01208958984710BDC04687
:10570000B40E0010D8060010A40700000023F821F2
:10571000054AC9001370054A5350054953500431D6
:105720005350044A13707047D10E0010D806001071
:10573000B4070000D80E0010084B1860084B196021
:1057400000280AD001230021064A1370064A11706E
:10575000064A07498850074A13707047DC0E00104C
:10576000E00E0010D10E0010D00E0010B4070000A3
:10577000D8060010D80E00102C4B73B51A682C4BAD
:105780001168186881421AD00021009101911268B5
:105790001A60284B1B688B4202D0684601A99847C3
:1057A000254900980C68019A244BA04202D11C683C
:1057B000944202D00125224C257008601A60214CC9
:1057C000214BE358002B10D000231D49CB56002B52
:1057D0000AD000221D4B9A56012A05D100220A70D8
:1057E0001B490A7002321A7073BD134B174D1868AB
:1057F000002807D00023EB56002B03D10F4B19686C
:10580000FFF79AFF0023EB56114E022B08D100231D
:10581000104A3370A3502B700023F356E366E3E77E
:10582000002BF9D00A20FFF7FDFEF5E7D40E00109B
:105830004C000010CC0E0010DC0E0010E00E00102A
:10584000D00E0010D8060010BC070000D80E0010C3
:10585000D10E0010B4070000F82370B5054CDB0032
:10586000E358002B05D1E56E034AA350FFF784FFF0
:10587000E56670BDD8060010BC070000084A094B59
:1058800011681B6810B5CB1A03D41360FFF7EEFE46
:1058900010BDFA235B001360034A13680133F4E779
:1058A00048000010F00E0010B00E00100122034B53
:1058B0001A60034BF432FF321A607047B00E0010CA
:1058C0004800001073B5040000250026134B009615
:1058D0001B680196B34218D101350220FAF72AFD60
:1058E0000F4B1A680F4B11681868814208D0126874
:1058F0001A60FFF7C3FF002C02D0013C002C02D03D
:10590000042DE2D10124200076BD684601A9984704
:10591000009B002BE0D03500DFE7C046CC0E001026
:10592000D40E0010E40E0010F7B50D000E21040097
:10593000019201F0B5FC184B03260A279D4211DDA8
:1059400009236373083B2373F7BD2800390001F076
:10595000A1FC2800A155390001F0B6FB0136050075
:105960000D2E01D0002DF0D1019BA11CF21A033A9B
:1059700022700D22A319921B013B8B4208D10F23E9
:1059800000229E1B731E032EDEDD1E00E254F9E78B
:1059900018789854F0E7C046FFC99A3B0378002B6B
:1059A00001D10133FF334078002801D10130FF30AD
:1059B000181A70479B23F0B5224E5B00F45C85B04B
:1059C0000D000390002C01D10134FF343023FF334C
:1059D000F35C002B32D002933823FF33F25C373B69
:1059E00007279C4201D0083717401748FFF7D6FF1A
:1059F0000721C91B01918021029B4900E31A0C1B5E
:105A0000421C009411490398FEF70AFA002341242E
:105A10002B702800FEF752FA2F1830007530FF3037
:105A2000001BFFF7BBFF22000300094938000134C7
:105A3000FEF7F6F9462CECD105B0F0BD80235B00F3
:105A4000C9E7C046D80600100C080010B4D7000003
:105A5000C1D70000F0B5784B784C0500E050043316
:105A6000E150230094331B680E0093B0002B1BD130
:105A7000182817D1C32907D0F723DB00E358332BAD
:105A800010D100F00FF90DE06D4B1B680F2B09D101
:105A900016220E216B4800F067F9674BE35801931B
:105AA000182BE9D0FFF75EFD00239D4200D00A339A
:105AB000F62231002800D200A350FFF73DFE624BD2
:105AC00025001B6800261A68604B8C351A60FFF7AA
:105AD000C1FD012323671D3301935D4B1B68002B20
