:10000000F01F0010056F0000036F0000036F000079
:10001000036F0000036F0000036F0000000000008A
:10002000000000000000000000000000036F00005E
:10003000036F000000000000036F00008D3500001A
:100040008D3300008D3300008D3300008D330000B0
:100050008D3300008D3300008D3300008D330000A0
:100060008D3300008D3300008D3300008D33000090
:100070008D330000016F0000016F0000C10000001F
:100080002936000041360000413800005938000090
:10009000016F0000A1390000016F0000016F000036
:1000A000016F0000016F0000016F0000016F000090
:1000B000016F0000016F0000016F0000016F000080
:1000C000594A10B5136801331360584B584A1B68DE
:1000D000DBB2302B00D176E018D8182B5AD005D8D7
:1000E000082B37D0102B46D0082351E0202B00D10D
:1000F0007AE0282BF8D14F4B4F491868096888429D
:1001000052D21968481C18604C4B48E0482B00D16B
:100110006AE00AD8382B60D0402BE5D1484B1968EB
:10012000042301295DD11360DEE7502B66D0582BE4
:10013000DAD14448444B1B680168DBB24C1C0460B4
:10014000424843540221424BFF3119608023F13968
:10015000DB0530E00021374B19601968481C186036
:10016000364B5B5C3849DBB20B60282313600122FD
:10017000374B1A6010BD0021324B19602D490B68B6
:10018000581C08602D49CB5C2F49DBB20B6028233B
:100190001360EFE727490B68581C086027495B5C30
:1001A0002949DBB20B609FE7254B19688023DB05EB
:1001B000002902D02021196096E702202449FF304F
:1001C00008601021F7E780231021DB051960082360
:1001D000136081221E4B5200CBE782211C4B490049
:1001E000E9E78021C905DDE780231021DB051960DF
:1001F000082313600422164BFF32BAE71149124B51
:100200001B680868DBB2441C0C60104C23540C4B78
:100210001B680868013B0421834202D98023DB0567
:10022000C9E7116060E7C0462806001004000040DE
:1002300018000040240600101C060010F4050010F1
:100240000806001020060010080000400C060010F0
:100250000406001002231B4A70B511681A4D0B43A7
:1002600013602023194A040011680B431360184BD4
:100270001A682A401A600122186810431860154B4A
:1002800019682940196019680A431A606C22124BD8
:1002900012491A60124B186806F006FF114B1860DD
:1002A000114B1860022C02D1A022104B1A60802240
:1002B0000F4B12021A6080234022DB0501201A60D6
:1002C00070BDC04604800440F8FCFFFF80800440FD
:1002D000304004403440044018000040400D03000A
:1002E000B804001014000040100000400C00004052
:1002F00000E100E00000000000000000FFFFFFFF41
:10030000202303490A681A42FCD0024B1860704748
:10031000148000400080004070B504000D002900EA
:10032000200003F02FF9024B1B68002BF7D170BDA2
:10033000D405001010B503F057F910BD10B500201A
:1003400002F044F902F010F910BD00007FB505007D
:1003500000200C0002F0E0FA002801D003F0F6FEC5
:10036000002323602B60174B1E78002E28D121001C
:10037000280002F0FFFA300002F0CEFA002807D081
:1003800003F0E4FE2660210028002E6002F0F2FA5D
:100390000D4B1B78002B13D00C4B2A6818680C49A6
:1003A000824203D120680D68A84209D01A602368F0
:1003B00001A80B60074903F023FD01A803F0C0FD6D
:1003C0007FBDC04684020010940200107C02001021
:1003D000800200102073000070B504000D00FFF7CC
:1003E000B5FF094A1368002B09D0013B1360032BAA
:1003F00006DD064B1B682360054B1B682B6070BD38
:1004000000232B602360FAE790020010880200109E
:100410008C0200100023034A1360034A1360034A4E
:10042000136070478C0200109002001088020010C8
:10043000002310B50B60036002F09CFA10BD0000B1
:1004400010B5012403F048FE0C4B0020196803F09E
:100450006DFA002003F05AFA002003F037FA084B37
:1004600020001C60074B196889B203F025F92000B1
:1004700003F012F9200003F0EFF810BDC0040010E3
:10048000F0050010BC04001037B50C240321012036
:1004900003F078F8684601A9FFF79EFF009D002D44
:1004A00002D1013C002CF1D1FFF7CAFF002005F07A
:1004B00037FE28003EBD10B5002003F017FA0120DA
:1004C00003F0DAF803F00EFE10BD000070B50D0069
:1004D0000400FFF7B5FFF8230121064ADB00D150E5
:1004E0002000290005F0A6FAFFF7E5FF05F0FEF869
:1004F00070BDC046D806001070B504000D00FFF7AF
:100500009FFF0822074B29001C60074B20001D603D
:10051000064B1A6005F08EFAFFF77CFFFFF7CBFF62
:1005200070BDC046880200108C02001090020010BE
:1005300010B50400FFF784FF200005F0B3F90400B4
:10054000FFF7B9FF200010BD10B50020FFF7F0FF46
:1005500010BD37B504000025FFF7F6FFA54203DB09
:10056000FFF7F2FF00983EBD0321062003F00AF8D2
:10057000684601A9FFF730FF009B002BF0D1013541
:10058000ECE7000010B502000249034803F02DFC1F
:1005900010BDC0462E73000033730000F0B5354B1C
:1005A00085B01B6800900193002805D0019B002BAB
:1005B00002D0002002F018FC01F0A1FF002002F0A0
:1005C00005F801F0D1FF2C4C0322236802210133EE
:1005D00023602A482A4B02F0FDF82368FA26013BE3
:1005E000236001F0F9FFFFF7AFFF2648FFF7CAFFCE
:1005F00096230024244D9B002B60B60003F0A6FA3E
:10060000002807D002F084FD00242B680134A342A7
:10061000F4DC1AE0009B002B27D01C4F3100386817
:1006200006F042FD6423584302F0C6FF02F032FE9A
:100630003100386806F038FD02F0BEFF03A902A8B9
:10064000FFF7CAFE029B002BDFD0009B002B05D0DA
:10065000019B002B02D0012002F0C6FBFFF774FFC4
:100660000B4803F0C2FB05B0F0BD0A2002F0BCFF4E
:10067000E4E7C04640000010380000103B73000063
:10068000389800004A73000050020010B8040010AF
:10069000507300001A4B73B504001A49186806F02D
:1006A00003FD194B194A1A490090200003F0A8FBDA
:1006B00002F046FA002812D002F060FAFA2189000E
:1006C000060006F0F1FC0500200003F0E7FB114BEB
:1006D0002A006B4310499B19201803F091FB20005E
:1006E00003F0DCFB0D4B0E4A1B682018002B02D0D8
:1006F0000C4A00DB0C4A0D4903F082FB73BDC04677
:10070000B804001040420F00617300002E73000017
:100710006573000018FCFFFF72730000B404001042
:100720005B7300005E730000D39800007D730000CF
:1007300070B50D0006001400002001F047FF01F025
:1007400013FF310028000022054B02F043F8092274
:100750000121044B200002F03DF801F03DFF70BD87
:10076000389800002098000007B5144A1449012069
:10077000FFF7DEFF642002F037FF72B60021114B55
:10078000114A196001231360116013601168194246
:10079000FCD00E4A6846136080230D4A5B02116844
:1007A0000B43136080230B4A11680B4313603923FA
:1007B00001A90093084B984707BDC0468573000008
:1007C000947300007080044074800440788004407A
:1007D0008080044038820440F11FFF1F00B5084BA1
:1007E000084A89B01B7868461278074903F008FB6D
:1007F00069460120054AFFF79BFF09B000BDC046CE
:1008000035000010A7040010A7730000B5730000A6
:10081000F0B52C4C2C4D237885B001932F78002611
:10082000FFF7DCFFFFF790FE02A803A9FFF7D4FD56
:100830000298002815D0C0B201F0EAFF492805D877
:100840003F281ED830282CD0392835D001F078FE2A
:10085000FFF7C4FF029E002E03D0C82002F0C4FEA2
:100860000026032104200136FFF756FD1E2EDBD1A2
:10087000019B2F70237001F063FEFFF765FE05B04A
:10088000F0BD40380928E1D806F05CFB05F2E0E055
:10089000E0E0F7E0E0102B783E2BD7D801332B7047
:1008A000D4E72B78002BD1D0013BF8E72378062B37
:1008B000CCD801332370C9E72378002BC6D0013B85
:1008C000F8E7C04635000010A704001010B590B03E
:1008D0006846FFF7DFFE002001F078FE01F044FEDD
:1008E0000122084C11002300684601F073FF230029
:1008F00009220121044801F06DFF01F06DFE10B0E6
:1009000010BDC04620980000C973000000B52B221E
:100910008DB0002800D1023268460D4903F070FA0C
:1009200004A803F0A3FC6946012004AAFFF700FF16
:1009300003200021FFF7F0FC0220FFF7F9FD00285B
:10094000EED000210A20FFF7E7FC0DB000BDC04645
:10095000E3730000F8B5040016000D00002703F053
:1009600085FC2100E7741431681C03F09FFA3800FD
:1009700001F02CFE01F0F8FD3A00042120000A4BA2
:1009800001F028FF094C092223000421280001F06E
:1009900021FFBE4205D0230009227821044801F03E
:1009A00019FF01F019FEF8BD3898000020980000EA
:1009B000257A000030B58DB0134902A803F076FA0D
:1009C0002E24002202A904A8FFF7C4FF0025FFF788
:1009D000BBFDFF34002202A904A8FFF7BBFF0321DF
:1009E000002002F0CFFD684601A901950095FFF7B0
:1009F000F3FC009B002B02D1013C002CEAD1FFF755
:100A0000A3FD0DB030BDC046F8D70000F0B50024FE
:100A100091B020009626039401F0D8FDFFF794FDD5
:100A20000223270000940193760001F09DFD009BB6
:100A3000002B00D0ABE008AD280003F017FC009BB2
:100A4000EB742B746B73AB72EB712B71002C01D1B7
:100A5000012F05D10022042128008F4B01F0BAFE9E
:100A60008D4D00222B001E218C4801F0B3FE012C7D
:100A700001D1012F07D11D202B0002AD002225211D
:100A8000401901F0A7FE844D00222B00332183483A
:100A900001F0A0FE022C6FD1012F6DD0232002ADFA
:100AA00000224D217C4B401901F094FE7A4D00222A
:100AB0002B0059217A4801F08DFE042C01D1012F21
:100AC00007D126202B0002AD00225F21401901F042
:100AD00081FE714D00222B006C21714801F07AFEDD
:100AE000052C01D1012F07D129202B0002AD0022B6
:100AF0007221401901F06EFE09220421694B0DA8F4
:100B000001F068FE01F068FD039B002B07D0143B49
:100B1000012B41D8052C3FD0962002F065FD032122
:100B20000800FFF7F9FB002001F0F6FE00230500A6
:100B300004A903A804930393FFF74EFC039B002B27
:100B400000D199E006AE05AD3100280007AA03F0F8
:100B5000C1FB0090002828D1280003F0A1FC070069
:100B600003981238052800D97EE006F0F5F9217DBA
:100B700056237D181E0058E72B0000223A210AA8B0
:100B800001F028FE032C89D1012F8FD186E70022A6
:100B90000421414B4448B3E7FFF7D6FCBFE7601C94
:100BA000062106F067FB00270C009626760067E01A
:100BB000601DF5E7601E042804D806F0CDF90D1479
:100BC0001D2647002B88013300242B80280003F0CA
:100BD00067FC0523070016E00C21A87806F060FAF0
:100BE0000131A970F2E701372900380003F08AFCCF
:100BF0000523022401932BE030780130182106F000
:100C000039FB04233170019322E0707801303C21DC
:100C100006F030FB03237170F5E7601E042804D84A
:100C200006F09AF9060C0E1114002B88013BCBE755
:100C3000A8780C210A3006F01DFBD1E7013FD3E76D
:100C400030781730DAE770783B30E0E70023B37094
:100C50000721380006F00EFB0A000791052C05D18C
:100C60003100280003F08EFB01279EE731002800A9
:100C7000019B03F047FBF7E7002D01D101235F4003
:100C8000039B842B05D0182B03D0731E002E00D09D
:100C900070E711B0F0BDC04638980000EC7300005A
:100CA0003C74000020980000EE730000114B10B55A
:100CB0009A6D032A1AD11C00BB3460782278A1787F
:100CC000000210430904E27808430B49120602436C
:100CD0008A420BD1BA3318780F23034000090F2B37
:100CE00003D00F2800D00A33180010BD0120404265
:100CF000FBE7C046D8060010AFACEAFF3E230F2248
:100D000030B51349FF33CC5C0133CB5C1340013B5E
:100D1000DBB2002C16D0062B17D807200200624346
:100D20008A18D21815009C352D78062B07D1013C66
:100D3000444309199C3108780002284330BD9D3294
:100D40001078F9E701204042F8E70220FBE7C046AF
:100D5000D8060010030003480B2B02D8024A9B0060
:100D600098587047D39800004C7C0000CB10C05CB2
:100D7000072319400841063B184070470300103B09
:100D800070B504000D000020B72B13D9FA2C11D830
:100D90000F2C10DC144B1B5D144A9B002900985843
:100DA000FFF7E4FF00281CD1032C09D129001048CB
:100DB000FFF7DCFF70BD0F4B1B19C83B1B78EBE73F
:100DC000042C02D129000C48F2E7252DF2D10F2C7A
:100DD00002DC0A4B185DEDE709480419C83C20788D
:100DE000E8E70120E6E7C046C883000008000010DD
:100DF00076830000D8830000808300008583000094
:100E000095830000002370B505000C0016000370E8
:100E100099421DDB2A2925DC032905D11B4B1B78B0
:100E2000DB0707D5083405E0042912D1174B1B78DE
:100E3000DB0715D4164BA2002800D15803F036F872
:100E4000012C18D0002E03D02800124906F042FAD7
:100E500070BD0729EED1104B9B6D082BEAD1E1E75D
:100E60000C24E7E7C83C322CF2D80C4BA400E15824
:100E700003F01CF8E6E7084B9B6D042BE2D1280039
:100E800003F00CF8281805F0B3FFDBE76902001047
:100E90000C840000FC730000D8060010B884000029
:100EA00010B50022FFF7AEFF10BD70B5002504009D
:100EB00008001100AA420EDB28225A4352185200A1
:100EC000115F4B1C07D0A94207DA02235B42591A73
:100ED000FFF7E6FF0125280070BD06F007F8F9E7E7
:100EE00070B506000D00140005F04EFF002806D076
:100EF000042D04DC022C02D00122141BE4B22A00CF
:100F0000310023000148FFF7D0FF70BD7C7C00005A
:100F1000F7B505000F00019205F056FF060001002D
:100F200000222800FFF76EFF33000D3B012B0AD88B
:100F3000280002F0B3FF3900019A2818FFF7D0FF0C
:100F400004002000FEBD284B1A78012314001C4029
:100F50001A4213D0F31E012BEAD8300039000830B2
:100F6000FFF70CFF0028E3D0280002F097FF0023D2
:100F700029183A001D48FFF798FFE1E7072E28D10E
:100F80001B4B9B6D082B00D1083630003900FFF752
:100F9000F5FE061EE8D11749280006F09BF9280047
:100FA00002F07CFF3900019A2818FFF799FF041E10
:100FB000C7D139001048FFF7D9FE041EC1D0280060
:100FC00002F06CFF330029183A000848FFF76DFF64
:100FD000B7E7F31E012BD8D839000848FFF7C6FE43
:100FE0000028D2D0ADE7C04669020010F4820000AC
:100FF000D8060010FE7300006283000067830000C3
:101000001FB50D4B1B78002B0AD1FFF777FE0100AF
:10101000431C05DB431C05D10848023105F022FDC5
:1010200005B000BD684605F061FF6B461B78002BDC
:10103000F6D001216846F1E7790200100074000043
:1010400010B505F083F800280BD0002001F0BEFA9F
:1010500001F08AFAFFF7D4FF01F0A6FA012001F0AF
:10106000B5FA10BDF0B51E4B85B01B78002B05D12D
:1010700005F084FE041E03D0FFF7C2FF05B0F0BDEB
:10108000FFF714FE051E08DB05F0E8FC2800FFF75B
:1010900061FE022105F0E6FCF0E72100684603F05E
:1010A00009FB104F0E223900684606F0EFF80E4D8E
:1010B0000E4E0F4C002803D12B78726D93420BD04B
:1010C0000E226946380002F0A6FE736D22006946C2
:1010D00001202B7005F0E2FD200005F0DFFCCDE7DC
:1010E000790200106A02001078020010D806001081
:1010F0005802001010B505F029F800280BD0002088
:1011000001F064FA01F030FAFFF7ACFF01F04CFA9D
:10111000012001F05BFA10BD10B5FFF7EBFF10BD29
:101120001121044ADC3213788B43034909780B43BD
:1011300013707047D806001069020010024B18782F
:10114000C006C00F7047C0466902001070B5FFF7B7
:10115000F5FF0125041E0D4E05D00D4B53331D70B8
:101160000023337070BD33782B42F9D005F02CFE8C
:101170000338012806D8074B210078201D70FFF79F
:10118000A5F9EDE70B22024B9A65E9E76902001029
:10119000D806001084020010F0B5050087B00029C1
:1011A00001D0012412E005F0FBFD041EF9D1344EFC
:1011B0003278382D0DD110231A4053425A41120172
:1011C0003270FFF7ADFF01222E4B1A70200007B0DE
:1011D000F0BD0127782D07D13B0093433370FFF713
:1011E0009FFF284B1F70F1E73A4053000193FFF730
:1011F000A5FF002800D00197280005F0A7FD0700F3
:1012000005F09EFD6B4639001A79002812D002A81D
:10121000FFF77EFE0028C4D005F0B0FD00280DD0F9
:10122000FFF794FF0122174B002128001A70FFF7E7
:101230004DF9CBE702A8FFF753FEEBE70620FFF7D7
:1012400077F9002804D102A805F0EAFC01F0C4F9FE
:101250002A20FFF76DF9041E07D0FFF777FF002162
:101260002800FFF749F90024B0E7074805F0D8FC4B
:1012700001F0B2F93470FFF753FFFFF765F9A5E706
:1012800069020010840200100974000010B50028E3
:1012900002D1FFF769FA10BD002001F097F901F0C3
:1012A00063F901220A4C012123005242094801F04E
:1012B00091FA230007220121074801F08BFA01F07F
:1012C0008BF97820FFF745F98428E4D1E1E7C0469F
:1012D000289800000E7400002074000070B504000F
:1012E0000D0001F00CF9262C13DC0020102C27DD5A
:1012F00020001138152814D805F02EFE1D132D6D71
:10130000373F4E13311313131313131326421313C2
:101310001345442C54D006DC372C58D00120382CEF
:1013200056D000200CE0452CFBD1E120000103F059
:1013300043F8012048E02A4B1B68002B01D1012013
:1013400070BDFFF737FBFAE7254B1B68002BF6D083
:10135000FFF75CFBF3E70120FFF720F9EFE701203F
:10136000204B1B68C01A01F03FFD0120FFF7AEFAC9
:10137000FFF7EAF8FFF788F8E1E7FFF749FADEE759
:1013800004F0D4FEDBE70022174B1A70174B05322E
:101390001A7001F0D5F8D2E704F0D8FE144B0028FB
:1013A00006D019680322022900DD00221A60C6E770
:1013B0001A68511C062A01D01960C0E71860BEE700
:1013C0000C4802F0F9FF0020FFF7A0FAB7E7002071
:1013D00004F0B6FEB3E72800FFF758FFAFE7C046BA
:1013E000B404001040000010A704001035000010E5
:1013F000C8000010F0F1FFFFF8B5012706000C004F
:10140000002001F0E3F801F0AFF80B4D7F422B0014
:101410003A000121094801F0DDF92B003A003000C3
:101420002A2101F0D7F92B0007220121200001F029
:10143000D1F901F0D1F8F8BD289800003774000008
:10144000030010B503480449002B00D09968FFF74A
:10145000D3FF10BDD39800003E740000F0B5002704
:1014600087B001F04CF82A4D2A492800FFF7C4FF45
:101470003C00FFF769F80C260321062002F082F8F1
:10148000684601A9FEF7A8FF0098002804D101379B
:10149000772FF1DD07B0F0BDC0B201F0B9F902005D
:1014A000462808D0002C0AD00023E356834206D1F8
:1014B00000202056EEE7002CFAD10027DCE7352A81
:1014C00001D0412A21D114481449FFF795FFFFF7B5
:1014D0003BF80020DEE7934206D124182000FFF7F6
:1014E000AFFFFFF731F8E8E70131300048432356FA
:1014F000002BF0DCF1D00A4902A802F081FC2800A0
:101500000849FFF779FF0024EBE70021064CECE7E0
:10151000D39800003E7400005D7400004A7400001F
:101520005F7400006674000084850000020010B53E
:101530000F240E320B78234003700B7801311B0906
:10154000437002309042F5D110BD000010B5072263
:10155000024B01F0E7F8013010BDC04628980000AA
:10156000F0B50A2589B004AE0C0001003000FFF789
:10157000DDFF73785D433378ED18B378002B00D02E
:10158000643D737B002B05D021002D20FFF7DEFF8B
:1015900001302418307B21003030C0B2FFF7D6FF75
:1015A0006B1E0B272418022B11D837000195F87AEF
:1015B00021003030C0B2FFF7C9FF019B2418013B66
:1015C0000193013F002BF2D10B277F1B1D0003234A
:1015D0000193019BF35C002B11D021002E20FFF71B
:1015E000B5FF02382418F05D21003030C0B2FFF79B
:1015F000ADFF019B013F24189F42F4DA04E0019BF8
:10160000013301939F42E4DA002D18D02A000D49DE
:1016100002A802F0F5FB21009E20FFF797FFB378A8
:1016200001380419002B03D021002D20FFF78EFF75
:1016300021000722044B02A801F0CCF8040020008E
:1016400009B0F0BDB27300002898000010B5084B37
:1016500008481B78012B03D00748022B00D107480C
:1016600009227D21064B01F0B5F800F0B5FF10BD51
:101670000000001073740000717400005D740000BD
:1016800028980000F0B543688DB0040086680020FB
:10169000019300F09BFF00F067FF0023E3564A4DE3
:1016A000002B00D188E02A78012A0BD0022A00D131
:1016B0007FE03200022B00D0019A444904A802F0D6
:1016C0009FFB05E03300019A414904A802F098FB12
:1016D0000122404F01213B00524204A801F07AF858
:1016E0002A780125931E591E8B41DBB202930023F9
:1016F000E356023B59424B41DBB203931523E356B9
:10170000552B11D1002A0FD0029B039A93420BD183
:1017100029003B0007222D2001F004F84119200088
:101720002030FFF71DFF0500274B2A4F1B78002BA9
:101730000BD0029B039A2A20934200D165302900E6
:101740003B00072200F0EEFF2D18200029000C308E
:10175000FFF706FF1523E3560500552B13D11A4B4F
:101760001B78002B0FD0029B039A93420BD00100F1
:101770003B0007222B2000F0D5FF29182000203045
:10178000FFF7EEFE050000230F4AE3561278002B08
:1017900005D0022A15D0002A01D1022B11D03B001E
:1017A0000722E91C300001F015F8FFF74FFF0DB0DC
:1017B000F0BD3200019B87E7019904A802F076FB97
:1017C00086E7019EEBE7C046000000107E74000033
:1017D000757400002898000070B5050000200C000A
:1017E00000F0F4FE00F0C0FE0122084E2800330095
:1017F0000121524200F0EEFF3300072201212000B8
:1018000000F0E8FFFFF722FF70BDC04628980000F7
:10181000064B074A1B6810B5990088580549002BEC
:1018200000D10549FFF7D8FF10BDC04604000010E5
:1018300014800000857400009874000010B5084BF7
:101840001B78012B04D0022B07D00649064801E083
:1018500006490748FFF7C0FF10BD06490648F9E7EB
:1018600000000010FA7400000A750000AD7400005A
:10187000C0740000D3740000E674000010B50028A6
:1018800002D0FFF7FFFE10BDFFF7C2FFFBE700002D
:1018900010B505F08DFA002808D036230720044A39
:1018A000FF33D35C043B58439C30801810BDC046C6
:1018B000D806001010B5040005F080FA002803D007
:1018C00000217120FEF702FE07222100064802F0E7
:1018D000A2FA05F06DFA002805D0FFF7D9FF07221C
:1018E000002102F0B9FA10BD82070010F0B53F4E9A
:1018F00087B004000D000722310002A802F08BFA25
:1019000005F056FA002806D0FFF7C2FF07220100B3
:1019100004A802F080FA27000C373800FFF7CAFF4E
:10192000002D60D0324B1D78023D6B1E9D4100237F
:10193000E356EDB2023B5A425341DBB20193152309
:10194000E356552B15D1019B9D4212D1200020302A
:10195000FFF7B0FF00217820FEF7B8FD00217120CD
:10196000FEF7B4FD14200021FEF7B0FD3800FFF7AC
:10197000A1FF00217820FEF7A9FD71200021FEF7CC
:10198000A5FD019B17209D4200D105380021FEF7DF
:101990009DFD1523E356552B12D1019B9D420FD07F
:1019A00020002030FFF786FF00217820FEF78EFD13
:1019B00000217120FEF78AFD00211520FEF786FD2B
:1019C000072202A9300002F026FA05F0F1F90028FA
:1019D00005D0FFF75DFF072204A902F01CFA0021E1
:1019E0007120FEF773FD712007B0F0BD8207001073
:1019F0000000001030B58BB000F081FD3A4D286832
:101A0000FFF73CFF44E004000321062001F0BAFD8B
:101A1000684601A9FEF7E0FC0098002804D10134D3
:101A2000772CF1DD0BB030BDC0B200F0F1FE02004A
:101A300042280FD12D4A1378023B591E8B415B007F
:101A40001370FFF7FBFEFEF77FFD2868FFF716FF18
:101A50000024D9E7432805D1244A1378013B591EB5
:101A60008B41EDE7462807D128680028CBD01F4BD3
:101A70001978FFF73BFFD5E734280ED11C4A002127
:101A800013680133012B06DC13602960FFF7C0FEE9
:101A9000FEF75AFDDCE71160F7E7352801D0412851
:101AA00007D114481449FFF797FEFEF74DFD0020BB
:101AB000B8E70F4B11491B689B005B580121595631
:101AC000180000290BDC0DD000230D4902A82B6063
:101AD00002F096F90B4902A8FFF77EFED8E714330F
:101AE0009142EBD128608BE75402001000000010F7
:101AF000040000105D740000217500001C800000CF
:101B000038750000D3980000F0B58DB002F044FBAA
:101B1000012004F015FBF82700211820FEF7D6FC61
:101B200000248E4EFF00FEF7C6FC00238C4DEB51C7
:101B3000200002F053FB002C73D00121002001F0A3
:101B400021FD200002F044FB03A90300019002A83C
:101B5000002B69D0FEF76CFC01230193002C13D0FD
:101B600002F03BFB029B182B02D0019B002BDAD02A
:101B700000207C4B187000F029FD00F043FD7A48EE
:101B8000FEF700FD0123EB6602F070FA029E182EAC
:101B90000ED1002C00D183E0039BD8B200F038FEB8
:101BA0000121FFF79BFBE851002801D0002303939C
:101BB00005F0E4F804430CD1029B182B09D1694BC2
:101BC0001B78DB0705D5FFF715FF002800D188E05B
:101BD000029003990298FFF7DFFA002807D0FFF779
:101BE000B5FAFEF72DFC0399029803F023FF0022BB
:101BF0005E4B1A70EB59934201D0FEF7A5FC943569
:101C00002B685C425C41002B6ED100F061FC584BAC
:101C10001A78002A03D000221A70FEF795FC4F4E66
:101C200081E7032106208AE7FEF702FC029B002BD6
:101C300094D1002C00D07BE74E4B1B68002B00D0CA
:101C400076E72B0098331B68002B1DD14A4B0024EC
:101C5000F61800D46CE7494B1B78002B0BD0484892
:101C600002F06EF9642001F0BFFC464802F068F90A
:101C7000642001F0B9FC00F02BFC2B00002294330F
:101C80000224364E1A6053E73F4A1368113313603B
:101C900003F0E4FD029B01330293102BF8DDD5E73E
:101CA000FFF74CFA002883D02E4B300021001C7027
:101CB000FEF70CFCFFF7D2FB0394061E00D177E77A
:101CC0002100FFF70BFB002800D071E7F0B200F015
:101CD000BBFD0390482E00D16AE701222B4B1A70FE
:101CE00066E77823029374E700F05EFF002000F0BF
:101CF0006DFC002500F038FC05F052F8A84204D134
:101D000005F01EF8431E984105000126300068408A
:101D100004F064FE04F01AFA002806D0FFF7A2F9D6
:101D200000F042FC300000F051FC002D0DD005F019
:101D30004BF804AD010001222800FFF763F82B786F
:101D4000002B02D0280004F076FF05F029F80028C7
:101D500001D104F0EDFD00F03FFC58E720BF020088
:101D6000D8060010690200105A75000079020010B0
:101D700084020010D40500100CFEFFFF9402001036
:101D8000467500005075000034060010F40E001077
:101D900073B54A4C4A4B22684A4D9A4202D125609B
:101DA00001F0C2F82368AB4201D10023236007266B
:101DB00002F0B6F800F070FD0021434801F038FA57
:101DC00001250021414801F033FA00F045FE00F002
:101DD000E9FF00223E4C100023680B21B34323602F
:101DE00023682B43236001F0B5F92000394C102102
:101DF00001F01EFA23680022B34323602368280001
:101E00002360042101F0A6F90021200001F010FA5E
:101E100001F08AF99620000201F0FEFD01232E4D0B
:101E20005B4200202B60FEF751FD002350242B6005
:101E30000120FEF70FFA00F0B5FF02F077F92B68EA
:101E4000002B05D16420043C01F0CEFB142CEFD113
:101E50000020FEF73BFD2821204802F0BBFB1420A8
:101E600001F0C2FB1D48282102F0B4FB1C4801F020
:101E7000BCFF192001F0B8FB01F068FE002819D062
:101E80000020FEF78BFB0821164801F0D1F902F083
:101E900000FC03F063FB0F230193DB1800221249BF
:101EA00012480093124B03F073FB124803F0A4FB9B
:101EB000FFF72AFE013C002CDBD1E4E7080000100C
:101EC000BE153E37E45BE173984004409C400440FB
:101ED0007440044094400440B4040010DE03000049
:101EE0006475000010400440D9030000016A00003E
:101EF00034060010F0050010F7B5031E019137D02D
:101F00000278303A504242419B181A78782A13D10D
:101F10001026012501331A7800242D2A01D101331E
:101F2000013400221878002809D1002C00D0524238
:101F3000019B01201A601BE00A260025EBE7070041
:101F4000303FF9B2092903D87243BA180133E9E7DF
:101F500020210843002D07D00700613F052F03D83B
:101F6000120157380243F1E7024801F03EFF00201A
:101F7000FEBDC046808600000378202B00D070474D
:101F80000130F9E703003038C2B2092A08D920200D
:101F900018430300613B5738052B01D9012040420B
:101FA000704770B50E00FFF7E7FF002504002078AA
:101FB000002802D13560200070BDFFF7E3FF002844
:101FC000F8DB2D0105430134F1E7000010B500F006
:101FD000D5FD0100014801F008FF10BD8E8600000C
:101FE00000B589B0684602F041F96946024801F03F
:101FF000FCFE09B000BDC046CD860000F7B50E005E
:1020000001A91500FFF778FF002814D0019F0B49A4
:10201000380005F02FF90C006421200005F02AF9A2
:1020200020003170642105F03FF804492870380021
:1020300005F03AF8FEBD01204042FBE71027000002
:1020400013B50C006B4660689A1DD91DFFF7D6FFCB
:102050006B4698805A1C991CA068FFF7CFFF6B460F
:102060006A4618709288044B9A4203D9694601A8BF
:1020700002F088F913BDC0466B0700000B0007B5DE
:10208000586801A9FFF738FF3C20019B584302F034
:1020900093F907BD07235843074B9C30C018831D95
:1020A0000138834201D1012070471A78013B002A90
:1020B000F7D00020F8E7C046D80600107FB51948D1
:1020C00001F093FE00240326651C34421DD120003C
:1020D000FFF7E0FF002814D02800FFF7DBFF0028FF
:1020E0000FD0A01CFFF7D6FF00280AD0E01CFFF796
:1020F000D1FF002805D00434FF2CE5DD01F03AFFC4
:102100007FBD2100084801F070FE2100684602F002
:10211000D1FA684601F01EFF044801F066FE2C006B
:10212000EAE7C0462E7300009A860000F7D7000049
:1021300070B50D00FFF720FF060004000D350E36C8
:1021400020780134FFF71EFF002807DB2870013DCF
:10215000B442F5D12000FFF70FFF70BD0020FCE76F
:1021600070B53F4C86B02368002B07D13D4801F085
:102170003CFE03F0F3F9012323602DE00868012BF6
:102180000FD10422384901F098FE002802D12368BB
:102190000133F1E7354801F028FE03F0DFF9344957
:1021A0003FE00378412B19D132490230FFF7C0FFDD
:1021B0000028F2D00378422BEFD12F490230FFF7ED
:1021C000B7FF0028E9D00378432BE6D12B49023032
:1021D000FFF7AEFF0028E0D006B070BD532B02D150
:1021E00027490230F4E74D2B20D126490230FFF772
:1021F0009FFF0028D1D003784E2BCED12249023048
:10220000FFF796FF0028C8D00378472BC5D10230CE
:1022100001A9FFF7C6FE019B002BBEDB154A1B4937
:1022200053651B4801F0E1FD0023A5E701A9FFF775
:10223000B8FE2023057806009D43AED1300002A9E8
:10224000FFF776FF019B0600E918FF2902DC02A8D0
:1022500002F046FA002EA0D00135042DEED1BBE7E6
:10226000CC050010A38600002E730000B986000084
:10227000D2860000D8060010E6060010F406001012
:102280001E0700100207001010070010C58600008E
:10229000C886000037B54C682378002B00D137BDC5
:1022A0002000FFF769FE01A9FFF77BFE019B0400F8
:1022B000002BF4D0D8B2FF2B13DD00F0C5FA019B40
:1022C00005001812C0B200F0BFFA01900198002872
:1022D00002D02900FEF7FAF823785A1E9341E41839
:1022E000DAE700F0B1FA00250190EFE70123064A92
:1022F00010B511784B401370044900D104490548CA
:1023000001F073FD10BDC04695020010617500001C
:10231000D9860000DD8600000123064A10B5117839
:102320004B401370044900D10449054801F05DFD9C
:1023300010BDC0469402001061750000D9860000EF
:10234000EC8600000B0007B5586801A9FFF7D4FD23
:10235000019B002B0CDC012301939623019A9B0027
:102360005343054A01990548136001F03EFD07BD3E
:102370001E2BF2DD1E23EFE750020010FC8600004A
:1023800010B50C4A1378013BDBB21370002B0AD056
:10239000012B05D10849094A094801F026FD10BD65
:1023A0000849094AF8E7094801F01FFDFEF7DCF982
:1023B000F5E7C0463400001024870000D3980000E1
:1023C0002887000020870000527600004C8700001C
:1023D00070B50400002C00D170BD642500210220DE
:1023E000013D00F0D9FE002DF8D1013CF2E70000DC
:1023F000F0B580250F4B6D001A6804262A431A6039
:1024000008220D4F0D491C683C401C6044B2002C52
:102410000CDA0C6834430C601C68013A2C43400011
:10242000D2B21C60C0B2002AEDD1F0BD0C68B4433A
:10243000F1E7C046FC3F0150FFFEFFFFFC3F0050AC
:102440000121044A10B513688B431360FFF7D0FFD6
:1024500010BDC046FC3F0250F0B583B072B60123F8
:10246000843001270600194D0193B0202B683400F9
:10247000BB432B60019B843C1843FFF7B9FF2B68DB
:102480000020BB432B60FFF7B3FF2B681020BB433A
:102490002B60FFF7ADFF2B68E020BB432B60FFF7FD
:1024A000A7FF2B683B432B6020780134FFF7A0FF88
:1024B000B442F6D1019B84342600002B02D162B6CF
:1024C00003B0F0BD00230193CFE7C046FC3F0250AC
:1024D00010B5AC20FFF7B4FFAE20FFF7B1FFA52089
:1024E000FFF7AEFF10BD70B50D000400012200F033
:1024F00031FE29000122200000F078FE70BD10B5E9
:10250000AF20FFF79DFFA420FFF79AFF10BD10B585
:10251000AE20FFF795FF10BD10B50400F820FFF7BF
:102520008FFF2000FFF78CFF10BD10B50400812045
:10253000FFF786FF3F202040FFF782FF10BD00001D
:10254000202010B5064B1B781843FFF779FF0A20AF
:10255000FFF73EFF034B1878FFF7E7FF10BDC046BB
:1025600035000010A7040010842210B5064B074860
:1025700019785200002903D0054901F04CFC10BD28
:1025800001F06AFCFBE7C046A80400109E0300109F
:102590009602001010B584220021024801F05CFC74
:1025A00010BDC0469E03001010B5582204490548CE
:1025B00001F031FCB0220021034801F04DFC10BDB8
:1025C0009E03001096020010EE020010014B1870DE
:1025D0007047C046A8040010002310B5074AD35620
:1025E000002B07D0013B59B21B0601D4117010BD5E
:1025F000002313700248FFF72FFFF8E7A60400102E
:102600009E03001010B508210120FFF76CFF022186
:102610000020FFF768FF00210220FFF764FF06217A
:102620000220FFF760FF03210800FFF75CFF032192
:102630000022080000F0DAFD00220621022000F04E
:10264000D5FD01220621022000F0D0FDFFF78CFF0E
:10265000FFF7C2FFA220FFF7F3FEA020FFF7F0FE76
:10266000C020FFF7EDFE0020FFF756FF0A20FFF71E
:10267000AFFE4020FFF7E4FE2C20FFF7E1FE322002
:10268000FFF7A6FE2E20FFF7DBFE3220FFF7A0FEAD
:102690002F20FFF7D5FE0A20FFF79AFEFFF750FF25
:1026A000FFF72DFF10BD0000030083280DD80F2970
:1026B0000BD88420CA085043C01807231940793327
:1026C0000B41024A115C0B43135470479E030010E8
:1026D000F0B5072580265B1885B0DBB2104F02905D
:1026E00003920193019B994201D305B0F0BD84226E
:1026F000CB085343029A30009B180A002A4010412D
:10270000039AC0B29446DA199C44634502DB013156
:10271000C9B2E7E714780133044314700132F4E7D7
:102720009E030010F0B587B005921E00DB7883424F
:1027300003D23778380007B0F0BDB4787268244B04
:10274000041B00209A4216D103231F005C43A418E7
:10275000E318CDB20393EB19DBB20493002301938A
:10276000049BAB42E6D0082302930023009327E0AA
:102770000233D21801301378A042F9DB5778941C49
:10278000E6E7029B082B07D1039B9C42D2D023781B
:1027900001340193002302930122019B134206D0CE
:1027A000059B009A28009918C9B2FFF77DFF019B8D
:1027B0005B100193009B01330093029B0133029352
:1027C0007378009A9342DCDC0135EDB2C8E7C0466D
:1027D00067870000F7B505001F000C00160001F028
:1027E0005DFB2B180193019B9D4201D0832C01D9E5
:1027F0002000FEBD3B00210028783200FFF792FF49
:10280000024B01351B68C0182418ECE73800001093
:1028100000210122042330B50A4C0D5D854203D10D
:1028200018011043C0B230BD013B002B04D101326E
:102830000433092A00DD002201312829EDD10020CE
:10284000F1E7C0464A9800003C2310B50409800017
:102850001840011F00D52831621E0020032A06D827
:10286000242904DC0423024A1B1B5218D05C10BD2F
:102870004A98000070B505000024054B2900E05C73
:10288000044B0134C01800F0D3FC0A2CF5D170BD04
:102890004098000000400440F7B50E4E3468002C0C
:1028A00016D11020FFF7E6FF0B4D2B786F7818003C
:1028B000002239000193013400F04CFC0122390060
:1028C000019800F093FC02350A2CEED1012333600D
:1028D000F7BDC046AC0400107A980000F8B500259A
:1028E0000B4C2678677801223900300000F032FC6A
:1028F000013500223900300000F078FC02340A2D46
:10290000EFD10020FFF7B6FF0022024B1A60F8BD9E
:102910007A980000AC04001070B50500FFF7BCFF0A
:10292000002D09D001220721022000F013FC802194
:102930000F4A13688B4313600B21002000F02CFC1E
:102940000124002805D00B21002000F025FC444282
:102950004441002D09D000220721022000F0FAFB9B
:102960008023034A11680B431360200070BDC046EA
:10297000FC3F02500023F0B58BB006900120099374
:102980000791FFF7C9FF0400031E01D0182301249B
:10299000089300232C4E0193377875780122290083
:1029A000380000F0D7FB00222900380000F01EFCA0
:1029B000264B0293019B04330593022C1CD0029BEF
:1029C0009B790393029B0398DB791900049300F031
:1029D000E3FB00282AD101991D4AA3008A5C08A9BB
:1029E0005A500134019B01330193029B019A023B2F
:1029F0000293059B9342E0D100222900380000F0A9
:102A0000A9FB01222900380000F0F0FB114B02362F
:102A1000B342C1D1002C06D00124069B089A1A604B
:102A2000079B099A1A6020000BB0F0BD0499039827
:102A300000F0B2FB0028CED00499039800F0ACFB64
:102A40000028C8D0CEE7C0467A98000072980000EF
:102A50004A9800008E980000012210B510000B214A
:102A600000F078FB00220B21012000F0BFFB0122C7
:102A70000221032000F06EFB00220221032000F05F
:102A8000B5FB10BD37B51021244A0500136801209D
:102A90008B4313608023224A9B011168214C0B4316
:102AA00013600B21002200F055FB00220B210120B6
:102AB00000F09CFB9F211C4B1A688A431A601A681D
:102AC0001A491A601A4B186804F0EEFA03028020C3
:102AD000184320602A000320022100F087FB0A200F
:102AE000002D00D0012000F07FFDFF2223689343DA
:102AF000236022680F4B13430F4A2360136801932E
:102B0000019B002BFADA23680C4A13402360FFF77D
:102B1000A3FF01980004800D3EBDC04638820440EA
:102B20008080044000C001409840044000093D00FE
:102B3000B8040010800000012CC00140FFFFFFF826
:102B400010B50D4C2068002814DA00202060FFF733
:102B500099FF0A280BDC0120FFF794FFE02341389E
:102B6000FF385B00984202D8C03BFF3B2360FFF771
:102B700073FF206810BDC0463C00001010B5FFF781
:102B8000DFFF002801D1002010BD0020FFF77AFFF1
:102B90000120FFF777FF011EF5D0024804F084FA08
:102BA000F2E7C0462D47130010B5FFF7C9FF002814
:102BB00009D0FFF7E3FF00210300034AC00F9A4248
:102BC0004841024B186010BD34080000B0040010EA
:102BD0000222074B10B51A60064BA0321960064B53
:102BE0001A70013258709A7000F0F0FD10BDC046A6
:102BF0001C06001008060010F40500100022064B09
:102C0000023110B51960054B1A60054BA2321A70DB
:102C1000587000F0DBFD10BD1C0600100806001007
:102C2000F405001070B505000E00032431002800E3
:102C3000FFF7CEFF0223FF33984202D0013C002C65
:102C4000F4D170BD70B505000E00032431002800DA
:102C5000FFF7D4FF0223FF33984202D0013C002C3F
:102C6000F4D170BD0A4B10B51B68002B0ED0094C77
:102C7000A31CA270140A5C70140C120EDA709C7003
:102C8000FFF7E0FF831EFF3B5A425341180010BD7F
:102C9000B4040010F405001070B50E4C2468002C2C
:102CA00015D00D4C160AA270E670160C120E627149
:102CB000A371A21D26711C0A54701C0C1B0E94706B
:102CC000D370FFF7BFFF841EFF3C63425C412000CE
:102CD00070BDC046B4040010F4050010064B10B5DA
:102CE0001B68002B05D0FFF79DFF831EFF3B5A4258
:102CF0005341180010BDC046B4040010064B10B577
:102D00001868002807D007210220FFF78BFF023840
:102D1000FF384342584110BDB40400100E4B70B54B
:102D200004001868002813D0A11E062911D8072511
:102D30006D1A072D04D009482A00091801F06BF814
:102D40002900E0B2FFF77EFF0238FF3843425841C6
:102D500070BD01204042FBE7B4040010F6050010EE
:102D6000012110B50800FFF75DFF0223FF339842F1
:102D70000FD10120084B1860084B1C78230706D0A0
:102D80000323074A234001009370FFF75BFF2000F5
:102D900010BD01246442FAE7B40400100C060010D0
:102DA000F405001010B5FFF7DBFF01210220FFF74B
:102DB00039FF0223FF3398420FD1084B1B787F2B3A
:102DC00006D9842207210220054B5204FFF764FF35
:102DD00004210920034AFFF745FF10BD0C0600102F
:102DE000020114008080808010B5002848D0802126
:102DF000254A13688B431360012324490A681A4249
:102E0000FCD00322224B1A6001230021214A1360C7
:102E10001160136011681942FCD01F4A1F491360EA
:102E200080230C685B0223430B60002804D18023BD
:102E300015490C6823430B60194B196881421ED059
:102E40001860431E9841174B40421840164B1168BA
:102E5000C01804F09FF8FA21144B89001860040090
:102E600004F022F91E23C8214343114A20001360B5
:102E7000490104F019F90F4B186001F03BF810BD3F
:102E8000034B1860C0E7C046388204400C80044001
:102E90007080044074800440788004408080044046
:102EA0004000001000512502001BB700B8040010BC
:102EB000C0040010BC04001010B500F03DF9134A26
:102EC000002113681B0B1B031360114A13681B0BB3
:102ED0001B0313600F4A13681B0B1B0313600E4A7E
:102EE00013681B0B1B03136001220C4B19600C4B66
:102EF0001A6019601A6019681142FCD02322094B2C
:102F000000201A60FFF770FF10BDC046008000501F
:102F10000080015000800250008003504080044037
:102F20004480044008800440014B024A1A60FEE7D6
:102F30000CED00E00400FA0570B500250B490C48C3
:102F400000F053FF0B4E300000F04FFF0A4CE268D8
:102F5000216833000948013500F047FF14340C2D77
:102F6000F5D1074800F041FF70BDC0462E73000048
:102F70008E980000D19800000C9A0000A0980000E4
:102F8000AB980000F0B500253D4F04003B682800D9
:102F90008BB0AB425ED03B4B02941B6802A99B688E
:102FA000013098473B68002B02D1374800F01DFFE5
:102FB0000BB0F0BD01342378202BFBD0002B2FD099
:102FC000431C0193800002ABC450FF2D06D1019B2E
:102FD0001800022B45D1002526E01C002278002A8B
:102FE00005D0631C202AF8D1002222701C00019B0E
:102FF000012B2ED10C26234D244B2B602B680298DD
:10300000196800F06AFF2B68002821D01433013EB4
:103010002B60002EF2D131003000FFF78DFFC4E7A6
:103020000028BFD002281AD11949039800F055FF93
:1030300000280BD1134C17482368D96800F0D5FE3F
:1030400023681548196900F0D0FEABE7022006E0BE
:103050001D7901982378002BE2D00828ABD1854256
:10306000E8D2084CC0B2236802A99B68984722683E
:103070000A4B92689A4295D00322094B1A7091E745
:10308000CC050010C4040010D49800000C9A000075
:103090005F730000CD980000CD8600008123000002
:1030A0003400001070B50400154D0D281BD00CD84D
:1030B00008280CD00A2816D02100124800F095FEEE
:1030C0002B685A1C2A601C7018E07F28F4D10E4B24
:1030D0002A689A4212D921000A4800F086FE2B681D
:1030E000013B2B600AE000232A680848137000F0B7
:1030F0007CFE054C2000FFF745FF2C6070BDC046EC
:10310000C8050010E0980000C8040010D198000025
:1031100010B500F01BFD002800D110BD00F0F4FC3C
:10312000FFF7C0FFF5E70000014B024A1A60704745
:10313000C8050010C80400104023044A11680B435E
:1031400013600122024B1A707047C0468080044011
:10315000D00500100E4B70B51B7804000E00150052
:10316000002B01D1FFF7E8FF631E022B0AD8094BA1
:103170002004C01801230268B340012D04D1134379
:10318000036070BD0348F5E79A430260F9E7C04663
:10319000D0050010008000500F4B70B51B78050063
:1031A0000C00002B01D1FFF7C7FF0020032D0BD827
:1031B0002800012303F0D0FE02090B0D074AA340AB
:1031C00010681840431E984170BD054AF7E7054A4C
:1031D000F5E7054AF3E7C046D0050010FC3F005074
:1031E000FC3F0150FC3F0250FC3F03500E4B70B5BA
:1031F0001B7804000E001500002B01D1FFF79CFF87
:10320000631E022B0AD8094B2004C0180123026850
:10321000B340012D04D11343036070BD0348F5E7AB
:103220009A430260F9E7C046D0050010FC3F005009
:10323000084B70B51B7804000D00002B01D1FFF77F
:103240007BFF182223689343236021680D43256088
:1032500070BDC046D00500103F224021044B1A60CB
:10326000044B3E3A1A60044A13688B43136070475C
:1032700024800440D8800440388204404021044A1D
:1032800010B513688B431360FFF7E6FF10BDC0460F
:103290003882044009490A4A0B681A4080235B00BF
:1032A00013430B600421074A13688B431360064BDA
:1032B0001A68064B1A6030BF7047C0460080034052
:1032C000FFF7FFFF10ED00E0388204403482044035
:1032D00010B500F041FAFFF701FB00210948FFF7A4
:1032E000A7FF00210848FFF7A3FF00210748FFF7C9
:1032F0009FFF00210648FFF79BFF00210548FFF7CD
:1033000097FF10BD0840044000400440AC4004401A
:10331000144004401C40044010B50120FCF79AFF03
:1033200010BD00008022124B10B5DA679218DA67E0
:103330008022D200DA6780225201DA6780221201ED
:10334000DA6780229200DA6700230121094A4942A4
:103350001360094A1160094A1360094A1360094A57
:1033600001331360084A1360FFF7D6FF10BDC04653
:1033700004E100E0048204400882044004C00040EC
:103380003CC0004000C0004000400140064A10B56B
:10339000136801331360054B1868FFF725FDFFF72D
:1033A000C1FFC046C04610BDD80500104000001047
:1033B000F0B585B00C00019072B6FFF789FF554B50
:1033C000554D1A68554B1A60019B5A1E93413F2276
:1033D0005B429343524A9B18524A13600423524A59
:1033E00011680B43136000232B60A3071AD04F4AC8
:1033F0004F4913680B40136029684E4BA20700D455
:1034000082E0EC2252010A432A6080221A6092185C
:103410001A608022D2001A60802252011A60802233
:1034200012011A60019B002B53D00024424B434FE2
:10343000434E3C601C60434B21001C60424B3000FB
:103440001C60FFF7F5FE220009212000FFF782FE35
:10345000220009212000FFF7C9FE80213B4A3C4899
:1034600013680B4313600722336876399343336044
:103470003368053A13433360019B584303F08AFDD8
:103480000322344B34491860344B1C60344B1A60AF
:10349000344B1A680A4080211A601A680A431A607D
:1034A0008023244A21499B0013600A681A430A605A
:1034B0002A68022113432B6001232B4A13602B4AF5
:1034C00011602B4A13601460136011681942FCD01C
:1034D0003B6001220021274B52421A60264A1368A2
:1034E0000393264B196062B630BFC0460399126839
:1034F000914207D101221A60214B1868FFF774FC32
:10350000FFF710FF05B0F0BD802212010A432A60C8
:1035100085E7C04638820440048204403482044077
:10352000FF1800003082044010ED00E000820440EB
:103530007FE2FFFF00E100E00400014004C0004022
:103540006440044004400140048001408080044005
:10355000841E000018C000400FF0FFFF08C00040AC
:1035600014C000403CC0004078800440708004409B
:103570007480044008820440D8050010D40500106F
:103580004000001010B5FFF713FF10BD074B1A687D
:10359000013203D106490A6801320A601A68013211
:1035A0001A60044A1368013313607047E80500107D
:1035B000E4050010E005001080235B0498420AD265
:1035C0000023054A01381360044A1060044A13605E
:1035D0000722044B1A607047E805001014E000E071
:1035E00018E000E010E000E00B4A1368002800D16A
:1035F0000130C143994209D2591C081811689942F7
:1036000000D2704711688842FCD8F7E71168C91AE0
:103610008142FBD3F5E7C046E8050010014B18686E
:103620007047C046E80500100122034B1A60034AA8
:10363000136801331360704700C00040EC050010B0
:103640000122034B1A60034A136801331360704769
:1036500000000140F0050010002803D10122044BB6
:103660001A6070470128FCD1024B1860F9E7C04688
:1036700004C0004004000140002802D1044B18603F
:1036800070470128FCD10022024B1A60F8E7C046BF
:1036900004C0004004000140002805D1044A022370
:1036A00011680B43136070470128FCD1014AF6E70B
:1036B00004C000400400014010B5002900D11449A5
:1036C000002810D18023134A146823431360032277
:1036D000114B1860114B1960114B1A608022114B6D
:1036E00052021A6010BD0128FCD18023094A5B00F8
:1036F00010680343136000220B4B1A600B4B03321C
:1037000019600B4B1A608022064B9202E9E7C04613
:10371000FFFF000080800440EC05001018C000404E
:1037200014C0004000E100E0F00500101800014066
:1037300014000140802210210820064BD2051160A0
:10374000186080235B011068084202D0013B002B07
:10375000F9D17047180000408022164B120210B5B4
:10376000DA676C22144B15481A60154B1968014032
:1037700019601A6804211A60124B1A6802401A6014
:103780001A6800201A600122FFF7E4FC01220421DC
:103790000020FFF72BFD012205210020FFF7DAFCB6
:1037A000012205210020FFF721FD0022064B1A60AF
:1037B00010BDC04604E100E018000040F8FCFFFF27
:1037C000304004403440044004800440F8B50023F5
:1037D000164A174C202123601360164A136080227A
:1037E000D2051160144A2168012907D0934203D100
:1037F000FFF7A0FF0020F8BD0133F4E79342F7D0B4
:1038000000250E4F3E68013E2368FF2B01D920683A
:10381000F1E73B68B34204D03E68FFF7FFFE0A3091
:103820000500FFF7FBFEA842EED1E1E720060010FD
:103830000406001024060010FF0F000028060010E8
:103840000122034B1A60034A136801331360704767
:10385000004001403406001070B50124164B174A91
:103860001C6013681B191360154B1A68002A13D0CB
:103870001A68144D013A1A601E68002E0DD02100FE
:1038800020002A68FFF7B2FC2B680221E31A2B60A4
:1038900020002A68FFF7AAFC70BD1B6821002B607E
:1038A00020002A68FFF7A2FC022120002A68FFF707
:1038B0009DFC054B1E60EFE70080014038060010BC
:1038C0002C0600103006001004800140002803D1AF
:1038D0000122044B1A6070470128FCD1024B18608A
:1038E000F9E7C0460440014004800140002802D1AD
:1038F000044B186070470128FCD10022024B1A606B
:10390000F8E7C0460440014004800140002805D18A
:10391000044A022311680B43136070470128FCD14D
:10392000014AF6E7044001400480014010B5002838
:1039300011D18023124A9B00146823431360032291
:10394000104B1860104B1960104B1A608022104BFE
:10395000D2021A6010BD0128FCD18023084ADB0086
:1039600010680343136000220A4B1A600A4B0332AB
:1039700019600A4B1A608022054B1203E9E7C04622
:10398000808004403406001018400140144001407B
:1039900000E100E03806001018800140148001406A
:1039A0000E22174B10B51B681340062B12D1154B76
:1039B00090321B68134205D0134ADBB25360134B9D
:1039C0001B6810BDDB07FCD5104B1868C0B200F0B7
:1039D000ACF8F6E7042BF7D00C2B05D10A4AF433E8
:1039E00051680B435360ECE7022BEAD1054B1A6890
:1039F000054B920602D500229A60E2E70122FBE71E
:103A000008800040148000403C0600100080004008
:103A1000004870473C060010F7B5802200210725BA
:103A20002A4B2B4C9203070001912000DA67902269
:103A300000F012FA019B274EA360274B1A68AA4395
:103A40001A600122196811431960244B1968A943AF
:103A50001960196811431960802321495B010868C6
:103A600003430B601F4B1A60823232601E4A126899
:103A700019681E4B1868504303F08CFA390000098E
:103A800003F088FA10221A4B1A491A60030A0B60D5
:103A90000323194FC0B2386060203360174B1D609C
:103AA000174B1A6801921A680240602AFBD15F3AEC
:103AB0001868104207D122708022124B92031A60BC
:103AC00005230B60F7BD38680190F1E704E100E0E1
:103AD0003C0600100C800040A4400440A840044074
:103AE000808004409880044078800440B80400102E
:103AF0002880004004800040008000400880004092
:103B00001480004000E100E010B5FFF781FF0200E3
:103B1000837BC318D87B937B0133DBB293735BB297
:103B2000002B01DA0023937310BD10B50400FFF7DA
:103B30006FFF437BC318DC73437B0133DBB24373FA
:103B40005BB2002B01DA0023437310BD10B5FFF701
:103B50005FFF0300807B5B7BC01A431E9841C0B2AD
:103B600010BD70B504001D0000202E5C2318002E2F
:103B700009D1121AD518EC1A002C07DCD343DB1735
:103B80001A40101870BD26540130EEE71970013349
:103B9000F1E7F8B5541E0F001E00050023000100D8
:103BA000092E16D90A21300003F0F4F9220003008F
:103BB00039002800FFF7EDFF04002D1830000A211E
:103BC00003F06EFA30312970601CF8BD0F70013BB4
:103BD0000131002BFADC0020824200DD20002D188C
:103BE000002A00DC0122541EE8E7F7B50E00D917C1
:103BF0005F18040001934F40551E092F17D90A2161
:103C0000380003F0C7F9019A0300002A00DA4342A2
:103C10002A0020003100FFF7E8FF050024183800D3
:103C20000A2103F03DFA3031681C2170FEBD019B72
:103C3000002B00DA951E23006119CA1A002A0CDC39
:103C4000E843019AC017054064196B1C002AE6DAA4
:103C50002D221D0022700134E1E71E700133ECE7D4
:103C6000F7B51E00089B1400013A1F090500130058
:103C7000002F11D033000097FFF7F2FF2D180F230C
:103C8000089F1F40FAB2092F12D830322A70013033
:103C9000FEBD0170013B0130002BFADC00208442A4
:103CA00000DD10002D18201E00DC01200138E6E7A1
:103CB000002E01D03732E9E75732E7E7F0B50500CB
:103CC0000F001C0085B0002801D0002303700026DF
:103CD0001378002B00D16DE0B74204D80023013DDA
:103CE0002B70013E32E0252B04D001322B700136BF
:103CF0000135EDE75178252902D129700232F6E726
:103D0000931C0393302902D02021531C0393039B5F
:103D10001B782D3B5A425341039AD3180022039338
:103D2000039B1B7818003038092812D99019B84223
:103D300001D9BA1BD2B2692B1FD013D8632B35D04F
:103D4000642B1AD0582B2DD001267642300005B0B6
:103D5000F0BD0A2042439A18039B303A0133D2B295
:103D60000393DDE7752B11D0782B14D0732BEBD197
:103D7000280008CCFFF7F5FE03E0280008CCFFF789
:103D800034FF039A2D1801323618A1E7280008CC19
:103D9000FFF7FFFEF5E708CC009300232800FFF7AC
:103DA0005FFFEEE708CC00930123F7E708CC012082
:103DB0002B70E6E7B74200D890E72B70C6E710B546
:103DC00013000A006421FFF779FF10BD00B59BB016
:103DD0000A00010001A8FFF7F2FF632800DDFEE7FB
:103DE00001A800F0ADF81BB000BD0FB407B504A9E1
:103DF00001C90191FFF7EAFF03B008BC04B01847FE
:103E00000EB403B503AA02CA0192FFF7D8FF02B0AD
:103E100008BC03B0184770B506000E4303253400F4
:103E200003002C402E420FD1AA420DD90B59035149
:103E30000434131B032BF9D80324131F9B080133ED
:103E40009B00C9182240C3180024A24200D170BDB3
:103E50000D5D1D550134F8E770B5830704D00300EC
:103E60009A189A4217D170BD0300032AF8D90C049E
:103E70000B0623430B430C0223430400861808C49B
:103E8000351B032DFBD80324131F9B0801339B0014
:103E9000C3182240E4E719700133E2E70300002071
:103EA0001A5C002A00D170470130F9E70023CA5C90
:103EB000C2540133002AFAD1704770B500230400C0
:103EC0009A4201D1002007E0E55CCE5CA81BB54218
:103ED00002D10133002DF3D170BD0200002310B5D3
:103EE000D05CCC5CA04201D0001B02E00133002872
:103EF000F6D110BDFA21094B10B51868890003F0FE
:103F0000D3F8FFF759FB96200002FFF785FD01204B
:103F1000FCF7A0F9FEF746FF10BDC046B80400103C
:103F200010B5FEF7C9FFFFF707F9FFF7A7F9FEF78E
:103F300069FBFEF719FBFFF7DDFFFFF7F5F810BD92
:103F400010B504002078002800D110BD0134FCF722
:103F5000D7F9F7E770B50500441E0D35A54200D12D
:103F600070BD29780248FFF740FF013DF6E7C046E3
:103F70006374000070B51748FFF737FF164D28002F
:103F8000FFF7E8FF154C42212000FFF72EFF1448F1
:103F9000FFF7E0FF43212000FFF727FF1148FFF75D
:103FA000D9FF1148FFF721FF1048FFF7D3FF104852
:103FB000FFF71BFF0F48FFF7CDFF4E212000FFF753
:103FC00014FF0D48FFF7C6FF696D0C48FFF70DFFA2
:103FD00070BDC046FC9A0000D8060010029B00008D
:103FE000E6060010F4060010099B00001E070010F2
:103FF0000F9B00000207001010070010159B000027
:104000000A23021153430F2210401818704770B54D
:104010000A21050003F048F80A210401280003F0F2
:1040200029F92000084370BDC12210B552000221B9
:104030000E20FEF717FE0122014B5A7110BDC0463B
:10404000CE06001010B5084C6379002B01D1FFF7A4
:10405000EBFFA2792379520001211A430C230800B7
:104060001A43FEF7FFFD10BDCE06001010B5074C39
:104070002379002B08D16379002B01D1FFF7D4FFFE
:1040800001232371FFF7DEFF10BDC046CE060010EE
:1040900010B5054B1A79002A05D000221A711A7240
:1040A000DA70FFF7CFFF10BDCE06001010B501216A
:1040B0000220FEF713FE064B040018787F231840F9
:1040C000FFF79EFF034B5870DC71200010BDC04607
:1040D0000C060010CE0600100122014B9A707047AA
:1040E000CE0600100022024B9A701A727047C0462A
:1040F000CE06001010B5FFF7D9FF094B09499A7891
:10410000002A03D01A7A012A02D801321A7202E078
:104110000868054A10600022DA700A6010BDC046C7
:10412000CE060010E0050010DC05001010B5FEF70B
:1041300017FE0C2203001340104203D0024A1178EC
:104140000B43137010BDC046CE06001010B5FFF72C
:10415000EDFF044C23785B0701D5FFF7CBFF00236D
:10416000237010BDCE06001010B50020FEF7D4FB62
:10417000002801D0FFF7EAFF10BD0000002310B5B2
:10418000044CE371FFF7F0FFE379002B01D1FFF757
:104190008DFF10BDCE06001010B50921084803F0B0
:1041A0006FF8FA22074BD2001A80FFF7E7FF0022D0
:1041B000054B1A60FA22054B92001A6010BDC046EA
:1041C000CE060010CC060010E0050010DC05001043
:1041D00010B5FFF7C9FF002010BD704710B5FFF7FD
:1041E00057FF10BD70B51D4C0D0061782378A27883
:1041F00009021943E378120411431B06184A0B43C2
:1042000013401A0A237062701A0C1B0EE370637954
:104210002179A2701B02134A0B43134023711B0A1E
:1042200006006371A079FFF7EBFE0F4B1B881B188C
:1042300033806079FFF7E4FEB070E078FFF7E0FECE
:10424000F070A078FFF7DCFE28706078FFF7D8FEEA
:1042500068702078FFF7D4FEA87070BD0C060010BF
:104260007F7F3F3F071F0000CC060010F0B58DB0E8
:104270000400FEF743FD002805D120001249FFF796
:10428000BFFD0DB0F0BD0AAE0BAD29003000FFF749
:10429000A9FF33880793F378B77808932B780993AD
:1042A0000A4B6E781879AD7800F0D2F8099B04902B
:1042B0000193089B20000093079A3B000449039553
:1042C0000296FFF79DFDDCE7219B00000C06001025
:1042D000269B000070B505000E001400FEF70EFDD1
:1042E00000280AD028003100FFF77CFF201E03D0F1
:1042F0000020034B1B79236070BD01204042FBE787
:104300000C060010F7B504880E000500642120009B
:104310000092019302F0C4FE114B8FB2E41B1C808B
:10432000B078FFF774FE0F4CA0707078FFF76FFE47
:10433000E0703078FFF76BFE2071E878FFF767FEDA
:10434000009B6071A371A878FFF761FEE0713800EF
:10435000FFF75DFE20720198FEF7E0FCFEBDC0464F
:10436000CC060010F405001010B50223FFF7CAFFB9
:1043700010BD431E984110B5420101210020FEF7F7
:1043800071FC10BD70B5040001200D00FFF7F1FFB6
:10439000200000F085F8072102F06CFF20000A00E1
:1043A0002900FFF7E1FF96204000FFF71DF90020EC
:1043B000FFF7DFFF70BD000073B50400FFF776FE66
:1043C000002801D1002076BD1D4D6E780A20FFF730
:1043D0000BF9FFF76BFE0028F4D06B78B342F5D0F1
:1043E000FEF78CFC0028EDD001A96846FFF7FAFE25
:1043F000684600F055F8050001A800F031F8114BAF
:1044000004199C420DD90122E3171343ED186946A4
:10441000280000F077F80C4AE31713400B4A9B186A
:10442000E418200001A900F025F82800072102F077
:1044300021FF68460A0001A9FFF796FFC3E7C046BF
:10444000CE0600107F51010000A3020080AEFEFFE7
:1044500007231840014B8000C0587047649B000040
:104460003C23020000785178584340184343907829
:104470001818704770B50C003C21050002F0FAFED8
:104480002800A1703C2102F00FFE3C2102F0F2FE58
:104490006170E1212800090102F006FE207070BD64
:1044A00070B5962283780688050000205201B61860
:1044B000010002229A424141761A022B00D80C30A8
:1044C000C0189923033858436E240521023002F0A6
:1044D000EBFD6421FF3474430419B01024184942E1
:1044E000300002F0E1FDC82124184900300002F03C
:1044F000DBFD034B2018EC78C018001970BDC046D6
:10450000D382FFFFF8B5214B050080000E00C018D4
:104510001F4902F0C9FD032703007B43D817384029
:10452000C01880101B4B2D18AD00ED1828001A493B
:1045300002F0A0FECC173C4064180237A4107C4364
:1045400002342000992102F095FE0800390002F0A3
:10455000ABFD0130F0709921200002F0A5FD0C2187
:10456000023002F087FE0131C8B20E21B070081A85
:10457000023902F099FD08490400280002F094FD78
:10458000064BC01824183480F8BDC046652F0400BF
:10459000B13A02004F150000B505000094EDFFFF91
:1045A000012210B511001000FEF720FE01220221A9
:1045B0001000FEF71BFE012100220800FEF7CAFDD5
:1045C000002202210120FEF7C5FD0120FFF78EF930
:1045D00010BD000070B50D00072101240600174B27
:1045E00020001A688A431A601A6822431A60144B22
:1045F0001A688A431A601A68210022431A6022004E
:10460000FEF7A8FD220002212000FEF7A3FD0D4BBE
:104610003100186802F048FD01002000FFF786F91C
:104620002000FFF773F9084E20003560FFF74EF9C0
:104630003368002BFCD1FFF7B3FF70BD7C40044012
:1046400080400440B80400102C0600100300F8203D
:104650000A00C000890101405005800E0143F82086
:104660000002024011430A22514330B5CC101A19FE
:104670001000EB3055780078EA32684012781B5D04
:104680000002104358400723194008418005800D5F
:1046900030BD7047C023010010B55B01984201DBBB
:1046A000024BC1180248FFF7D1FF10BD00F8FFFF11
:1046B0009A9A00000723020010B50F245943074BB4
:1046C0009C31C9180E320B78234003700B780131EE
:1046D0001B09437002309042F5D110BDD80600107E
:1046E00007230200594310B5064B9C31C9180E32FE
:1046F000437804781B01234302300B70013182425E
:10470000F6D110BDD806001070B5B64D1726EB6E69
:1047100086B05A1E93416E443370B34BEA58D006AC
:10472000400F0138062808D802F016FC4431043640
:104730003C3F42000D23002404E06B6E16339B00C7
:104740005C59230050111F283BD802F019FC35009A
:104750003F00440048004E00560059005F006300CF
:1047600069007800830090009F00AC00B700C4008F
:10477000D100DF00EC00FD00FB000A011101160171
:1047800023012E01330137013D01410145016B6ECB
:1047900016339B00EB58CEE7AC6DEB6D9C42D1DD40
:1047A0000D23CFE702231C00CCE70C230324C9E729
:1047B0000D23F8E70223BEE7191B0131281902F087
:1047C0005FFD01203378EB6606B070BD191B87488A
:1047D00001312018F3E7191B85480131F9E7220060
:1047E0008249280001F0C5FAEBE71A1B7F48013225
:1047F00029192018FFF70FFBE3E722007C49F0E7B7
:104800007A491A1B7A4801326118F2E72200784986
:104810007648E7E776491A1B013261182819E9E75B
:10482000296E0A22002900D1063200932300029249
:104830006E4A01962900280001F0A5FAC1E7296E09
:104840000A22002900D1063202920093684A23000E
:104850000196EFE70122296E32700932002900D15A
:10486000063202920093002223000196E2E7296EAD
:104870000A22002900D106320093230002925B4AEB
:1048800001962900280001F0A9FA9AE70122296E71
:1048900032700932002900D10632029200930022C0
:1048A00023000196EDE7296E0A22002900D1063285
:1048B000029200934E4A23000196E2E7296E0A22F3
:1048C000002900D106324A480292009302002300D8
:1048D00001960100B0E7296E0A22002900D10632B4
:1048E0004348029200930200230029000196A3E7A7
:1048F0000122296E32700932002900D1063202925B
:104900000093002223003A480196E2E7296E0A222A
:10491000002900D10632364802920093020023009B
:1049200029000196AFE70122296E32700932002971
:1049300000D106322E48029200930022230001008B
:104940000196A0E701223270296E0A22002900D1C7
:1049500006322748029200930200230000210196AC
:1049600091E7220000212148009601F099FA28E7FA
:10497000220000211E480096F7E7296E0A2200292E
:1049800000D10632009323000292194A01962900B1
:10499000002078E7296E0A22002900D1063202920F
:1049A0000093124A23000196F1E7220000210096AD
:1049B0002800DAE722000E490096F9E71A002100E4
:1049C000280001F084FAFCE61A0021000748F8E705
:1049D0001A0021000648F4E71A002100280001F01F
:1049E00087FAEEE6D8060010C4070000E6060010BD
:1049F000F4060010064B10B519001A1DD46F0831CB
:104A0000CC67D96FD1679A6F9867DA6710BDC046D7
:104A1000D8060010064BDA6F986F9A671A1DD16F8F
:104A200008335967D96FD1670022DA677047C046EB
:104A3000D8060010F8B5134D2F008C373B68581C72
:104A4000FFF728FEF923DB00E8500123AA6E0400DB
:104A500003409A4213D10C4BEE58830703D43868B5
:104A60000230FFF7C7FFFF202B000122A401000244
:104A70000440B6108C3334431C60044BEA500220CF
:104A8000F8BDC046D8060010C4070000AC070000FF
:104A90000D4B0E490120CA5810B5D3059B0E940545
:104AA0000ED5403B8C6E92100240944206D10A0013
:104AB0008C321468E3181360054BC850012010BDF8
:104AC000002BEFD10300EDE7C4070000D80600106B
:104AD000AC07000010B5084B5A1CD07F9A1CD27F3F
:104AE00000011202104303331A7FDB7F10431B03C4
:104AF0001843FFF77FFF10BDD806001010B5FFF771
:104B000089FF0F240323044A01002140D1540133BB
:104B10000011072BF8D110BDF406001010B5FFF7F7
:104B200079FF044B01211A008C321060024A99501F
:104B300010BDC046D8060010AC07000010B5064CEA
:104B4000A36E002B07D0FFF765FF230001228C33F3
:104B50001860024BE25010BDD8060010AC070000F0
:104B600010B5064CA36E002B07D1FFF753FF2300AF
:104B700001228C331860024BE25010BDD8060010A1
:104B8000AC0700000121054B054A10B5D150054B7B
:104B90001B68002B00D0984710BDC046BC07000022
:104BA000D8060010AC0E00100020144B144A70B54B
:104BB000985004329A5882421AD0F622D20099585C
:104BC000814214DD012909D1F721C9005C588442D2
:104BD00004D058500A210B4D99505C51F621C90060
:104BE0005A58032A01DD0120D866013A5A5070BD97
:104BF000054B1B68002BFAD09847F8E7D806001041
:104C0000BC070000B4070000AC0E0010F822094BEE
:104C1000D2009A58002A04D0F622D2009A58002ACC
:104C200007DD0F21044A9A58013311401211997778
:104C3000DA777047D8060010B4070000044A537FA3
:104C4000917F1B0109020B43117F0B435367704790
:104C5000D80600100B00093B30B5012B0BD8002300
:104C6000074AD55CC45CA54206D0064A064B083903
:104C7000D0580143D15030BD01330E2BF1D1FAE7AA
:104C8000F4060010D8060010A407000010B508298B
:104C90000FD0192908D1082342781A4205D00022E2
:104CA00002704370FFF71CFD10BD0F230370083B1B
:104CB000F7E70200030000240E321C700133934218
:104CC000FBD1EFE730B5114B85B05C6F002802D007
:104CD0000F22944304430E4D5C67FF2C05DD0E212B
:104CE000280002F0CDFA05B030BD21006846FFF77C
:104CF000E1FC21006846FFF7C9FF00236A46D25C49
:104D0000EA5401330E2BF9D1EDE7C046D806001066
:104D1000F40600101FB50F22104B5C6F9443044340
:104D20005C67082C18D0FF2C16DC21006846FFF7C2
:104D3000C1FC21006846FFF78DFF00230849684643
:104D4000CA5CC25401330E2BF9D12100FFF79EFF3C
:104D500021006846FFF7C4FC1FBDC046D8060010FE
:104D6000F40600101FB50E4C616F082917D0FF29FB
:104D700015DC6846FFF79EFC616F6846FFF76AFF27
:104D8000002308496846CA5CC25401330E2BF9D18E
:104D9000616FFFF77BFF6846616FFFF7A1FC1FBDE6
:104DA000D8060010F406001010B50D4C631CD87F17
:104DB000A31CDB7F00011B021843E37F1843E31CA5
:104DC000DB7F1B031843FFF765FC0F220300134032
:104DD00023770311134000126377A07710BDC046FC
:104DE000D8060010024A536E16339B00D05070470D
:104DF000D806001004494A6E1632920053581B1A06
:104E00005A425341CB667047D8060010054A536E8C
:104E100016339B009958013901D4995070470D21E0
:104E2000FBE7C046D8060010064A536E16339B00B7
:104E30009958481C0D2901D098507047002199506D
:104E4000FBE7C046D80600100F4B5A6E1632920090
:104E5000D05819180A7F0C2804DC497F09010A433D
:104E60005A657047F520094912015958800081425E
:104E700005D007480140B7208000814202D1596D1A
:104E80000911ECE7197FEAE7D8060010CC0700000B
:104E9000FFFEFFFF224B30B55A6E16329200D258F9
:104EA0000C2A05D1F5211F4889001858884204D0E2
:104EB000FA21C900595800290DD00F20596D9A18B0
:104EC00008400C1150771477FF220901114021434B
:104ED0001877596530BD0F25586D041105400C2A0F
:104EE00003DC9B181D775C77F4E70E4A9958F5228E
:104EF0009200914205D00C4A1140B7229200914293
:104F000008D11A00FF212932157002010A402243FC
:104F10005A65DFE71A00293214701D77DAE7C046B8
:104F2000D8060010CC070000FFFEFFFF0F21254B25
:104F300070B55A6E586D16329200D2580140001169
:104F40000C2A05D1F524204DA4005D59A54204D0BA
:104F5000FA24E4001C59002C0CD0551C5D192C7F40
:104F60009A18167F240134435C651C7F2C771077D8
:104F700019770CE0C9B20C2A0ADC551C5D192C7F8C
:104F80009A18167F2401344328775C65117770BD29
:104F90001D00F5260C4A29359C582A78B6001201C6
:104FA000B44205D0094E3440B726B600B44204D10D
:104FB00002435A6529331970E9E71C7F28702243A0
:104FC0005A65D5E7D8060010CC070000FFFEFFFFAA
:104FD00010B50E2202490348FEF71DFF10BDC04662
:104FE000F40600101007001010B50E220249034805
:104FF000FEF711FF10BDC04610070010F4060010A8
:1050000010B50D2300220249024800F0B2FE10BD87
:1050100010070010F406001010B50E2202490348D4
:10502000FEF7F9FE10BDC046F4060010020700109E
:1050300010B50E2202490348FEF7EDFE10BDC04632
:1050400002070010F406001010B50D2300220249DB
:10505000024800F08EFE10BD02070010F40600109A
:10506000024B181846300278DA667047D8060010EE
:10507000044B002219009A6408314C33CA871A8005
:105080007047C046D8060010C21C431E002010B551
:1050900004499A4200D110BD8C5C40002043013A83
:1050A000F7E7C0461E07001030B50124054A0B1D66
:1050B000994200D130BD05002540555440100131C2
:1050C000F6E7C0461E07001070B50020FFF7DCFFB2
:1050D0000500084C0021207FFFF7E6FF257704201C
:1050E000FFF7D2FF05000421607FFFF7DDFF657742
:1050F00070BDC046D806001010B50020FFF7C4FFF1
:10510000034C20770420FFF7BFFF607710BDC04637
:10511000D806001010B5054C0021207FFFF7C4FF12
:105120000421607FFFF7C0FF10BDC046D806001005
:1051300010B50A4C23008C3318680130FFF7AAFA27
:10514000F923DB000F22E050030013402377031103
:10515000134000126377A07710BDC046D806001038
:1051600010B50E21054802F08BF80E21044802F01C
:1051700087F80E21034802F083F810BDD80600100E
:10518000E6060010F40600100022054B197F18787F
:1051900001320143197701330E2AF7D17047C04617
:1051A000D80600100022054B187F19780132014003
:1051B000197701330E2AF7D17047C046D806001080
:1051C0001FB500230A4A6C461118097F0130195592
:1051D0000D2800DD002001330E2BF4D10023054AF9
:1051E0006946C95CD15401330E2BF9D11FBDC046AD
:1051F000D8060010F4060010074A10B5536E163397
:105200009B0099584C1E51189C500877002C01DACD
:105210000D21995010BDC046D8060010034B002246
:105220001900983394310A601A607047D80600104C
:105230000122034B943319684A401A607047C046F4
:10524000D8060010074B002219008C310A6001219A
:105250001A67054A99501A009432126851424A411D
:10526000DA667047D8060010AC07000070B5874BAF
:10527000874DEC58874BA210A41119570F231340E8
:10528000581E0E283DD801F067FE0810171E223C5C
:10529000283C3C2E3C3C3C323600002931DB0022CD
:1052A000691846310A70180070BD002929DB0123F6
:1052B000691846310B70F6E7002922DB0800FFF77A
:1052C000CFFE0123EFE72000FFF796FFF9E7002963
:1052D00017DB0800FFF78EFDF3E7002911DB08005C
:1052E000FFF780FDEDE72000FFF714FDE9E7200060
:1052F000FFF7E8FCE5E7002903DB0800FFF760FFA4
:10530000DFE7982A00D19CE063DC382A00D186E0F0
:105310003DDC1C2A00D179E029DC162A70D021DC82
:105320000123002ABFD0023B0C2ABCD101239835AF
:105330002B60B8E7D63A1000222A15D801F00CFEEF
:1053400090149314141496141414141414141414A0
:1053500099149C1414149F14141414A2ACAF14B216
:10536000B5B8BB00182A4ED001235B429BE72C2A1C
:1053700052D007DC262A4CD0282AF5D100236B66B0
:10538000013390E7362AEFD1FFF7D0FD99E7662A7F
:105390004ED00FDC562A48D007DC3C2A42D04C2A9B
:1053A000E2D1FFF7C5FE02237DE75C2ADCD1FFF7DF
:1053B00091FB86E7762A41D006DC682A3BD06C2A2E
:1053C000D2D1FFF79BFB7CE7882ACDD1FFF71EFCEB
:1053D00077E7F82AC8DCD52AACDCBC2A3AD008DC4E
:1053E000A82A31D0B82A32D09C2ABDD1FFF726FC9A
:1053F00067E7C82A31D0CC2AB6D1FFF7D5FC60E7E1
:10540000FFF722FD5DE7FFF71DFF5AE7FFF7E0FD1D
:1054100057E7FFF73FFD54E7FFF7E6FD51E70123AC
:105420006B6640E7FFF7ECFD4BE7FFF7F5FD48E75C
:10543000FFF7FEFD45E7FFF793FE42E7FFF704FEA7
:105440003FE700232B669BE701232B662BE7FFF743
:10545000E5FE36E7FFF786FC33E7FFF7E9FE30E7C6
:10546000FFF758FE2DE7FFF769FB2AE7FFF78CFEF1
:1054700027E7FFF741FE24E7FFF772FB21E7FFF77D
:1054800091FE1EE7FFF7F4FD1BE7C046C4070000CE
:10549000D806001084D70000FFF774FB11E7FFF770
:1054A00083FB0EE7FFF7B2FC0BE7FFF70DFE08E703
:1054B000FFF7BAFC05E7FFF731FB02E770B51D4CBB
:1054C0001D4D1E4B6259E25023008C331868FFF7C4
:1054D000E1F8E36E6051A3660023194DE366635162
:1054E0000333184002281FD0984220D0012818D03A
:1054F000FFF7BCFE00280CDD6359002B04D122000D
:105500008C3213681B1813602200903213681B182A
:105510001360FA22D200A358002B01D0013BA35004
:1055200070BDFFF787FAE5E7FFF7EEF8E2E7FFF770
:10553000AFFADFE7D8060010C4070000CC07000070
:10554000AC0700000122034BDA66034A9A830F225C
:105550009A777047D80600100F0F000070B5F42539
:10556000074CED0066592000064901F089FE66519E
:10557000FFF7E8FF0123044A6366A35470BDC046E9
:10558000D8060010D40700009C07000070470000F8
:1055900030B50D4D049C28600C4801600C490A6030
:1055A0000C4A13600C4B039A1A600C4B0C4A1C609B
:1055B000F423DB00D4500B4B0B4A1A600B4B0C4A04
:1055C00013600C4A136030BDB40E0010CC0E0010F6
:1055D000E80E0010D40E0010F00E00104400001071
:1055E000D8060010AC0E0010595700008D55000071
:1055F000BC0E0010EC0E0010014B18607047C04646
:10560000C80E0010084B10B51968084A002906D1C9
:10561000074C24682160106001221A6010BD1168D7
:105620008842F8DA0800F6E7C00E0010C40E001039
:10563000C80E0010034B1B68002B01D1024A1360F7
:105640007047C046B80E0010C00E001070B51A4D5D
:105650002B0098331B68002B0DD0184B1C680123BE
:105660001C40F523DB00EB58A34208D1144BEB5848
:10567000002B10D170BD2B0094331C68F1E7002C77
:105680000BD1002BF6D00F4B1B68002B0FD0210045
:10569000200098470BE0002CECD00A4B084E1B680A
:1056A000002B02D02000A95998470023AB51F523C5
:1056B000DB00EC50DEE7C046D8060010B00E00104C
:1056C000A4070000B40E0010054B10B51B68002B9A
:1056D00004D00449044A01208958984710BDC046A7
:1056E000B40E0010D8060010A40700000023F82113
:1056F000054AC9001370054A5350054953500431F7
:105700005350044A13707047D10E0010D806001091
:10571000B4070000D80E0010084B1860084B196041
:1057200000280AD001230021064A1370064A11708E
:10573000064A07498850074A13707047DC0E00106C
:10574000E00E0010D10E0010D00E0010B4070000C3
:10575000D8060010D80E00102C4B73B51A682C4BCD
:105760001168186881421AD00021009101911268D5
:105770001A60284B1B688B4202D0684601A99847E3
:10578000254900980C68019A244BA04202D11C685C
:10579000944202D00125224C257008601A60214CE9
:1057A000214BE358002B10D000231D49CB56002B72
:1057B0000AD000221D4B9A56012A05D100220A70F8
:1057C0001B490A7002321A7073BD134B174D1868CB
:1057D000002807D00023EB56002B03D10F4B19688C
:1057E000FFF79AFF0023EB56114E022B08D100233E
:1057F000104A3370A3502B700023F356E366E3E79F
:10580000002BF9D00A20FFF7FDFEF5E7D40E0010BB
:105810004C000010CC0E0010DC0E0010E00E00104A
:10582000D00E0010D8060010BC070000D80E0010E3
:10583000D10E0010B4070000F82370B5054CDB0052
:10584000E358002B05D1E56E034AA350FFF784FF10
:10585000E56670BDD8060010BC070000084A094B79
:1058600011681B6810B5CB1A03D41360FFF7EEFE66
:1058700010BDFA235B001360034A13680133F4E799
:1058800048000010F00E0010B00E00100122034B73
:105890001A60034BF432FF321A607047B00E0010EA
:1058A0004800001073B5040000250026134B009635
:1058B0001B680196B34218D101350220FAF73AFD70
:1058C0000F4B1A680F4B11681868814208D0126894
:1058D0001A60FFF7C3FF002C02D0013C002C02D05D
:1058E000042DE2D10124200076BD684601A9984725
:1058F000009B002BE0D03500DFE7C046CC0E001047
:10590000D40E0010E40E0010F7B50D000E210400B7
:10591000019201F0B5FC184B03260A279D4211DDC8
:1059200009236373083B2373F7BD2800390001F096
:10593000A1FC2800A155390001F0B6FB0136050095
:105940000D2E01D0002DF0D1019BA11CF21A033ABB
:1059500022700D22A319921B013B8B4208D10F2309
:1059600000229E1B731E032EDEDD1E00E254F9E7AB
:1059700018789854F0E7C046FFC99A3B0378002B8B
:1059800001D10133FF334078002801D10130FF30CD
:10599000181A70479B23F0B5224E5B00F45C85B06B
:1059A0000D000390002C01D10134FF343023FF336C
:1059B000F35C002B32D002933823FF33F25C373B89
:1059C00007279C4201D0083717401748FFF7D6FF3A
:1059D0000721C91B01918021029B4900E31A0C1B7E
:1059E000421C009411490398FEF70AFA002341244F
:1059F0002B702800FEF752FA2F1830007530FF3058
:105A0000001BFFF7BBFF22000300094938000134E7
:105A1000FEF7F6F9462CECD105B0F0BD80235B0013
:105A2000C9E7C046D80600100C08001094D7000043
:105A3000A1D70000F0B5784B784C0500E050043356
:105A4000E150230094331B680E0093B0002B1BD150
:105A5000182817D1C32907D0F723DB00E358332BCD
:105A600010D100F00FF90DE06D4B1B680F2B09D121
:105A700016220E216B4800F067F9674BE35801933B
:105A8000182BE9D0FFF75EFD00239D4200D00A33BA
:105A9000F62231002800D200A350FFF73DFE624BF2
:105AA00025001B6800261A68604B8C351A60FFF7CA
:105AB000C1FD012323671D3301935D4B1B68002B40
:105AC00014D05C4F3B68002B10D01B68002B54D0C7
:105AD0003A681368013B1360574A1368002B05DDD1
