:10000000F01F0010AD6C0000AB6C0000AB6C00008A
:10001000AB6C0000AB6C0000AB6C0000000000009B
:10002000000000000000000000000000AB6C0000B9
:10003000AB6C000000000000AB6C00005D33000002
:100040005D3100005D3100005D3100005D31000078
:100050005D3100005D3100005D3100005D31000068
:100060005D3100005D3100005D3100005D31000058
:100070005D310000A96C0000A96C0000C100000007
:10008000F933000011340000113600002936000059
:10009000A96C000071370000A96C0000A96C000079
:1000A000A96C0000A96C0000A96C0000A96C0000FC
:1000B000A96C0000A96C0000A96C0000A96C0000EC
:1000C000594A10B5136801331360584B584A1B68DE
:1000D000DBB2302B00D176E018D8182B5AD005D8D7
:1000E000082B37D0102B46D0082351E0202B00D10D
:1000F0007AE0282BF8D14F4B4F491868096888429D
:1001000052D21968481C18604C4B48E0482B00D16B
:100110006AE00AD8382B60D0402BE5D1484B1968EB
:10012000042301295DD11360DEE7502B66D0582BE4
:10013000DAD14448444B1B680168DBB24C1C0460B4
:10014000424843540221424BFF3119608023F13968
:10015000DB0530E00021374B19601968481C186036
:10016000364B5B5C3849DBB20B60282313600122FD
:10017000374B1A6010BD0021324B19602D490B68B6
:10018000581C08602D49CB5C2F49DBB20B6028233B
:100190001360EFE727490B68581C086027495B5C30
:1001A0002949DBB20B609FE7254B19688023DB05EB
:1001B000002902D02021196096E702202449FF304F
:1001C00008601021F7E780231021DB051960082360
:1001D000136081221E4B5200CBE782211C4B490049
:1001E000E9E78021C905DDE780231021DB051960DF
:1001F000082313600422164BFF32BAE71149124B51
:100200001B680868DBB2441C0C60104C23540C4B78
:100210001B680868013B0421834202D98023DB0567
:10022000C9E7116060E7C0460806001004000040FE
:100230001800004004060010FC050010D405001052
:10024000E80500100006001008000040EC05001052
:10025000E405001002231B4A70B511681A4D0B43C8
:1002600013602023194A040011680B431360184BD4
:100270001A682A401A600122186810431860154B4A
:1002800019682940196019680A431A606C22124BD8
:1002900012491A60124B186806F0DAFD114B18600B
:1002A000114B1860022C02D1A022104B1A60802240
:1002B0000F4B12021A6080234022DB0501201A60D6
:1002C00070BDC04604800440F8FCFFFF80800440FD
:1002D000304004403440044018000040400D03000A
:1002E0009804001014000040100000400C00004072
:1002F00000E100E00000000000000000FFFFFFFF41
:10030000202303490A681A42FCD0024B1860704748
:10031000148000400080004070B504000D002900EA
:10032000200003F017F8024B1B68002BF7D170BDBB
:10033000B405001010B503F03FF810BD10B5002053
:1003400002F02CF801F0F8FF10BD00007FB50500A9
:1003500000200C0002F0C8F9002801D003F0F4FDE1
:10036000002323602B60174B1E78002E28D121001C
:10037000280002F0E7F9300002F0B6F9002807D0B3
:1003800003F0E2FD2660210028002E6002F0DAF979
:100390000D4B1B78002B13D00C4B2A6818680C49A6
:1003A000824203D120680D68A84209D01A602368F0
:1003B00001A80B60074903F00BFC01A803F0BEFC89
:1003C0007FBDC04664020010740200105C02001081
:1003D000600200102473000070B504000D00FFF7E8
:1003E000B5FF094A1368002B09D0013B1360032BAA
:1003F00006DD064B1B682360054B1B682B6070BD38
:1004000000232B602360FAE77002001068020010DE
:100410006C0200100023034A1360034A1360034A6E
:10042000136070476C020010700200106802001028
:10043000002310B50B60036002F084F910BD0000CA
:1004400010B5012403F046FD0C4B0020196803F0A1
:1004500055F9002003F042F9002003F01FF9084B82
:1004600020001C60074B196889B203F00DF82000CA
:1004700002F0FAFF200002F0D7FF10BDA004001028
:10048000D00500109C04001037B50C240321012076
:1004900002F060FF684601A9FFF79EFF009D002D56
:1004A00002D1013C002CF1D1FFF7CAFF002005F07A
:1004B000A5FC28003EBD10B5002003F0FFF8012088
:1004C00002F0C2FF03F00CFD10BD000070B50D007E
:1004D0000400FFF7B5FFF8230121064ADB00D150E5
:1004E0002000290005F00EF9FFF7E5FF04F0FCFFFE
:1004F00070BDC046B806001070B504000D00FFF7CF
:100500009FFF0822074B29001C60074B20001D603D
:10051000064B1A6005F0F6F8FFF77CFFFFF7CBFFFC
:1005200070BDC046680200106C020010700200101E
:1005300010B50400FFF784FF200005F0B1F80400B7
:10054000FFF7B9FF200010BD10B50020FFF7F0FF46
:1005500010BD37B504000025FFF7F6FFA54203DB09
:10056000FFF7F2FF00983EBD0321062002F0F2FEE5
:10057000684601A9FFF730FF009B002BF0D1013541
:10058000ECE7000010B502000249034803F015FB38
:1005900010BDC046327300003B730000F0B5354B10
:1005A00085B01B6800900193002805D0019B002BAB
:1005B00002D0002002F000FB01F089FE002001F0D3
:1005C000EDFE01F0B9FE2C4C032223680221013319
:1005D00023602A482A4B01F0E5FF2368FA26013BF5
:1005E000236001F0E1FEFFF7AFFF2648FFF7CAFFE7
:1005F00096230024244D9B002B60B60003F08EF957
:10060000002807D002F06CFC00242B680134A342C0
:10061000F4DC1AE0009B002B27D01C4F3100386817
:1006200006F016FC6423584302F0AEFE02F01AFDF9
:100630003100386806F00CFC02F0A6FE03A902A8FF
:10064000FFF7CAFE029B002BDFD0009B002B05D0DA
:10065000019B002B02D0012002F0AEFAFFF774FFDD
:100660000B4803F0AAFA05B0F0BD0A2002F0A4FE80
:10067000E4E7C0462000001018000010437300009B
:10068000FC8B000052730000300200109804001030
:10069000587300001A4B73B504001A49186806F025
:1006A000D7FB194B194A1A490090200003F090FA21
:1006B00002F02EF9002812D002F048F9FA21890040
:1006C000060006F0C5FB0500200003F0E5FA114B1B
:1006D0002A006B4310499B19201803F079FA200077
:1006E00003F0DAFA0D4B0E4A1B682018002B02D0DB
:1006F0000C4A00DB0C4A0D4903F06AFA73BDC04690
:100700009804001040420F0069730000327300002B
:100710006D73000018FCFFFF7A7300009404001052
:100720006373000066730000978C000085730000FF
:1007300070B50D0006001400002001F02FFE01F03E
:10074000FBFD310028000022054B01F02BFF0922A0
:100750000121044B200001F025FF01F025FE70BDB2
:10076000FC8B0000E48B000007B5144A14490120FB
:10077000FFF7DEFF642002F01FFE72B60021114B6E
:10078000114A196001231360116013601168194246
:10079000FCD00E4A6846136080230D4A5B02116844
:1007A0000B43136080230B4A11680B4313603923FA
:1007B00001A90093084B984707BDC0468D73000000
:1007C0009C73000070800440748004407880044072
:1007D0008080044038820440F11FFF1F00B5084BA1
:1007E000084A89B01B7868461278074903F0F0F987
:1007F00069460120054AFFF79BFF09B000BDC046CE
:100800001500001087040010AF730000BD730000D6
:10081000F0B52C4C2C4D237885B001932F78002611
:10082000FFF7DCFFFFF790FE02A803A9FFF7D4FD56
:100830000298002815D0C0B201F0D2FE492805D890
:100840003F281ED830282CD0392835D001F060FD43
:10085000FFF7C4FF029E002E03D0C82002F0ACFDBB
:100860000026032104200136FFF756FD1E2EDBD1A2
:10087000019B2F70237001F04BFDFFF765FE05B063
:10088000F0BD40380928E1D806F030FA05F2E0E082
:10089000E0E0F7E0E0102B783E2BD7D801332B7047
:1008A000D4E72B78002BD1D0013BF8E72378062B37
:1008B000CCD801332370C9E72378002BC6D0013B85
:1008C000F8E7C046150000108704001010B590B07E
:1008D0006846FFF7DFFE002001F060FD01F02CFD0F
:1008E0000122084C11002300684601F05BFE230042
:1008F00009220121044801F055FE01F055FD10B018
:1009000010BDC046E48B0000D173000000B52B225F
:100910008DB0002800D1023268460D4903F058F925
:1009200004A803F0A1FB6946012004AAFFF700FF19
:1009300003200021FFF7F0FC0220FFF7F9FD00285B
:10094000EED000210A20FFF7E7FC0DB000BDC04645
:10095000EB730000F8B5040016000D00002703F04B
:1009600083FB2100E7741431681C03F09DF9380003
:1009700001F014FD01F0E0FC3A00042120000A4BD4
:1009800001F010FE094C092223000421280001F087
:1009900009FEBE4205D0230009227821044801F057
:1009A00001FE01F001FDF8BDFC8B0000E48B0000AE
:1009B0003D76000030B58DB0134902A803F074F9FC
:1009C0002E24002202A904A8FFF7C4FF0025FFF788
:1009D000BBFDFF34002202A904A8FFF7BBFF0321DF
:1009E000002002F0B7FC684601A901950095FFF7C9
:1009F000F3FC009B002B02D1013C002CEAD1FFF755
:100A0000A3FD0DB030BDC046A9AD0000F0B5002477
:100A100091B020009626039401F0C0FCFFF794FDEE
:100A20000223270000940193760001F085FC009BCF
:100A3000002B00D0ABE008AD280003F015FB009BB5
:100A4000EB742B746B73AB72EB712B71002C01D1B7
:100A5000012F05D10022042128008F4B01F0A2FDB7
:100A60008D4D00222B001E218C4801F09BFD012C96
:100A700001D1012F07D11D202B0002AD002225211D
:100A8000401901F08FFD844D00222B003321834853
:100A900001F088FD022C6FD1012F6DD0232002AD13
:100AA00000224D217C4B401901F07CFD7A4D002243
:100AB0002B0059217A4801F075FD042C01D1012F3A
:100AC00007D126202B0002AD00225F21401901F042
:100AD00069FD714D00222B006C21714801F062FD0F
:100AE000052C01D1012F07D129202B0002AD0022B6
:100AF0007221401901F056FD09220421694B0DA80D
:100B000001F050FD01F050FC039B002B07D0143B7B
:100B1000012B41D8052C3FD0962002F04DFC03213B
:100B20000800FFF7F9FB002001F0DEFD00230500BF
:100B300004A903A804930393FFF74EFC039B002B27
:100B400000D199E006AE05AD3100280007AA03F0F8
:100B5000BFFA0090002828D1280003F09FFB07006F
:100B600003981238052800D97EE006F0C9F8217DE7
:100B700056237D181E0058E72B0000223A210AA8B0
:100B800001F010FD032C89D1012F8FD186E70022BF
:100B90000421414B4448B3E7FFF7D6FCBFE7601C94
:100BA000062106F03BFA00270C009626760067E047
:100BB000601DF5E7601E042804D806F0A1F80D14A6
:100BC0001D2647002B88013300242B80280003F0CA
:100BD00065FB0523070016E00C21A87806F034F920
:100BE0000131A970F2E701372900380003F088FBD2
:100BF0000523022401932BE030780130182106F000
:100C00000DFA04233170019322E0707801303C2109
:100C100006F004FA03237170F5E7601E042804D877
:100C200006F06EF8060C0E1114002B88013BCBE782
:100C3000A8780C210A3006F0F1F9D1E7013FD3E79B
:100C400030781730DAE770783B30E0E70023B37094
:100C50000721380006F0E2F90A000791052C05D1BA
:100C60003100280003F08CFA01279EE731002800AC
:100C7000019B03F045FAF7E7002D01D101235F4006
:100C8000039B842B05D0182B03D0731E002E00D09D
:100C900070E711B0F0BDC046FC8B0000F47300009B
:100CA00044740000E48B0000F6730000114B10B593
:100CB0009A6D032A1AD11C00BB3460782278A1787F
:100CC000000210430904E27808430B49120602436C
:100CD0008A420BD1BA3318780F23034000090F2B37
:100CE00003D00F2800D00A33180010BD0120404265
:100CF000FBE7C046B8060010AFACEAFF0F210C4B73
:100D00000C4A985C0C4A9A5C0A40013AD2B200281C
:100D100008D0062A09D8083941435B189B189C3330
:100D20001878704701204042FBE70220FBE7C046ED
:100D3000B80600109507000096070000030003485E
:100D4000062B02D8024A9B0098587047978C0000E7
:100D5000047700000300501E70B50D001D4C0328E1
:100D600003D805F0CDFF0B18222C18000E221A49CB
:100D7000CD3402F038FF23782B7070BD18000021AD
:100D800003F096FB2300CF331B78CE341B0122786F
:100D900012091343F0E71800012103F089FB230037
:100DA000D0331B78CF341B01F1E71800022103F088
:100DB0007FFB2300D1331B78D0341B01E7E71800F9
:100DC000032103F075FB2300D2331B78D1341B01C0
:100DD000DDE7C046B8060010F0060010CB10C05C7E
:100DE000072319400841063B1840704710B5010021
:100DF0000148FFF7F3FF10BD79780000831F10B59D
:100E00000020032B02D80248FFF7E8FF10BDC046C0
:100E100079780000002370B504000D0016000370FF
:100E2000292912D8094B8A00D15802F03DFF0C2D18
:100E300005D1200002F030FF201805F0C7FE002E7B
:100E400003D02000024906F047FA70BDA0780000E8
:100E50000474000010B50022FFF7DCFF10BD70B570
:100E60000025040008001100AA420EDB28225A4384
:100E700052185200115F4B1C07D0A94207DA022317
:100E80005B42591AFFF7E6FF0125280070BD05F007
:100E900001FFF9E7F8B505000E00171E0BD105F0AC
:100EA0000BFE041E1BD131001148FFF797FF0028ED
:100EB00015D02000F8BD012A11D105F0FDFD041E5A
:100EC0000DD13000FFF792FF002808D02800220043
:100ED0000621FFF79FFF280002F0DEFE2D183B00E1
:100EE000320029000348FFF7BAFF0400E1E7C046DB
:100EF0007E780000207700001FB50D4B1B78002B7B
:100F00000AD1FFF7FBFE0100431C05DB431C05D1A2
:100F10000848023105F014FC05B000BD684605F034
:100F2000B9FE6B461B78002BF6D001216846F1E72D
:100F3000580200100674000010B504F075FF002878
:100F40000BD0002001F02AFA01F0F6F9FFF7D4FFE8
:100F500001F012FA012001F021FA10BD70B52D4BFD
:100F600086B01B78002B05D105F0CAFD002803D000
:100F7000FFF7C2FF06B070BDFFF798FE041E08DB46
:100F800005F0DAFB2000FFF7D9FE022105F0D8FBBF
:100F9000F0E76B460122D91D02A8FFF7DBFE05F042
:100FA000BDFDC5B205F0DCFD1B4EC4B20E22310002
:100FB00002A806F06DF9002813D1184B1A78184BC7
:100FC0005B6D9A420DD1174B1B78AB4209D1164B82
:100FD0001A786B46DB799A4203D1144B1B78A342F3
:100FE00014D00E2202A9300002F0FDFD0C4B02A825
:100FF0005A6D0A4B1A700B4B0D4A1D706B46D9790E
:10100000094B1970094B1C7005F0FAFC084805F0F3
:10101000B3FBAFE758020010460200105402001064
:10102000B8060010550200105602001057020010BA
:101030003402001010B504F0F7FE00280BD0002099
:1010400001F0ACF901F078F9FFF788FF01F094F9AD
:10105000012001F0A3F910BD10B5FFF7EBFF10BDA3
:101060001121044ADC3213788B43034909780B437E
:1010700013707047B806001045020010024B187834
:10108000C006C00F7047C0464502001070B504008E
:101090000D0000200C2C09D8FFF7F0FF002806D027
:1010A00029002000FFF7AAFE431E984170BD0B4B9C
:1010B0000B4A1B5D29009B009858FFF78FFE012308
:1010C000002808D1074A12781A42EFD1252DEDD118
:1010D000054B185DEAE71800E8E7C0469078000085
:1010E000000000104502001083780000F7B50E00E4
:1010F0000500140005F04AFD070001000022280049
:10110000FFF788FE31003800FFF7C0FF0190002C88
:1011100006D131003800FFF771FE431E9841C4B27A
:10112000019B002B10D00122164B28001B78134086
:10113000013B1C4002F0B0FD220031002818FFF7EF
:10114000A9FE04002000FEBD0F49280006F0C4F8E7
:10115000280002F0A1FD220031002818FFF79AFEB6
:10116000041EEFD131000948FFF738FE041EE9D014
:10117000280002F091FD32002918019B0448FFF776
:101180006EFEDFE7450200100F7400007478000067
:101190001078000010B5FFF771FF0122011E074C07
:1011A00005D0074B53331A700023237010BD2378EA
:1011B0001342F9D07820FFF789F9F5E745020010CE
:1011C000B8060010F0B5050087B0002901D0012451
:1011D00012E005F09BFC041EF9D1344E3278382D14
:1011E0000DD110231A4053425A4112013270FFF7B9
:1011F00037FF01222E4B1A70200007B0F0BD0127E7
:10120000782D07D13B0093433370FFF729FF284B1C
:101210001F70F1E73A4053000193FFF72FFF0028BA
:1012200000D00197280005F053FC070005F044FCAE
:101230006B4639001A79002812D002A8FFF756FF32
:101240000028C4D005F05CFC00280DD0FFF7A2FFF9
:101250000122174B002128001A70FFF737F9CBE75E
:1012600002A8FFF717FEEBE70620FFF761F9002859
:1012700004D102A805F086FB01F096F82A20FFF7BA
:1012800057F9041E07D0FFF785FF00212800FFF75C
:1012900033F90024B0E7074805F074FB01F084F847
:1012A0003470FFF7DDFEFFF74FF9A5E745020010A8
:1012B000640200101174000010B5002802D1FFF77D
:1012C00053FA10BD002001F069F801F035F8012251
:1012D0000A4C012123005242094801F063F923001E
:1012E00007220121074801F05DF901F05DF878203F
:1012F000FFF72FF98428E4D1E1E7C046EC8B00002A
:10130000167400002874000070B504000D0000F091
:10131000DEFF262C13DC0020102C27DD20001138E6
:10132000152814D805F0ECFC1D132D6D373F4E1316
:101330003113131313131313264213131345442CA1
:1013400054D006DC372C58D00120382C56D0002041
:101350000CE0452CFBD1E120000102F02BFF012025
:1013600048E02A4B1B68002B01D1012070BDFFF71C
:1013700021FBFAE7254B1B68002BF6D0FFF746FB55
:10138000F3E70120FFF70AF9EFE70120204B1B6884
:10139000C01A01F011FC0120FFF798FAFFF7D4F80A
:1013A000FFF772F8E1E7FFF733FADEE704F02CFD10
:1013B000DBE70022174B1A70174B05321A7000F04A
:1013C000A7FFD2E704F030FD144B002806D01968BF
:1013D0000322022900DD00221A60C6E71A68511CA8
:1013E000062A01D01960C0E71860BEE70C4802F079
:1013F000E1FE0020FFF78AFAB7E7002004F00EFDB7
:10140000B3E72800FFF758FFAFE7C0469404001089
:10141000200000108704001015000010A800001024
:10142000F0F1FFFFF8B5012706000C00002000F0E6
:10143000B5FF00F081FF0B4D7F422B003A000121E8
:10144000094801F0AFF82B003A0030002A2101F0E2
:10145000A9F82B0007220121200001F0A3F800F0D9
:10146000A3FFF8BDEC8B00003F740000030010B533
:1014700003480449002B00D09968FFF7D3FF10BD43
:10148000978C000046740000F0B5002787B000F08C
:101490001EFF2A4D2A492800FFF7C4FF3C00FFF732
:1014A00053F80C260321062001F054FF684601A9D9
:1014B000FEF792FF0098002804D10137772FF1DD65
:1014C00007B0F0BDC0B201F08BF80200462808D08A
:1014D000002C0AD00023E356834206D10020205678
:1014E000EEE7002CFAD10027DCE7352A01D0412AAB
:1014F00021D114481449FFF795FFFFF725F8002084
:10150000DEE7934206D124182000FFF7AFFFFFF774
:101510001BF8E8E70131300048432356002BF0DC8C
:10152000F1D00A4902A802F053FB28000849FFF74E
:1015300079FF0024EBE70021064CECE7978C0000D4
:101540004674000065740000527400006774000067
:101550006E74000048790000F0B51D00070013000C
:101560000400160085B015372B4305D11B4902F046
:101570009BFB012005B0F0BD002343752000163011
:10158000C31B174A019330000023290005F064FDB6
:1015900000230290039130002900114A05F05CFD00
:1015A0001300002D02D10F4A964208D9073F0722A7
:1015B0003021380002F0D5F9029E039DDEE72A00B3
:1015C0002021200002F0CDF905003900019A2018F1
:1015D00002F04CFB019B681EC018CBE7827600002E
:1015E000809698007F969800F7B51D00089B140020
:1015F00006005A1E0120002105F022FD0B0002000A
:1016000019002300100013402A000A4013431BD086
:101610002D23337001225242D317801859410122E1
:101620000023001849418018594100900191009F02
:10163000013667403800099C019F6F40E51739006B
:10164000A41A9D4124184D412B0030002200FFF7C1
:1016500083FFFEBDF7B5009203220193099B00268C
:101660000333DC171440E418A41005192F00013FC0
:10167000A64202DB00202870FEBDB200009801994E
:1016800005F0D2FC0F231840024B01361B5C3B7067
:10169000EDE7C04679740000F7B50193099B04009B
:1016A0000321981C009205F0D3FB241805002700A5
:1016B0000026013FAE4202DB00202070FEBD032267
:1016C00000987243019905F0AFFC072318403030B1
:1016D00038700136EDE7F0B5069D0400142D03DDEA
:1016E0009F2114250170013400206E1EA619854229
:1016F00002DC00206055F0BD01218140CF171F4062
:10170000114039434F1EB94147423031F155013044
:10171000EDE703001A000800002130B50D321578FE
:10172000040F09010001214328431400013AA34298
:10173000F5D130BD022210B53C21024B524200F0DF
:1017400031FF10BDE48B000070B5C5B2CCB22800EB
:101750002100013400F090FE2800E1B200F08CFE80
:1017600070BD0000F0B587B00591039002F094FAC7
:101770000625431E4543070005991800049305F00C
:1017800067FB0023013D400040190193842802DDDE
:101790002800013301934B240025241AE3432E0033
:1017A000DB171C40BD4201DB07B0F0BD039B0722E5
:1017B000585D2100144B00F09DFEA31D0293039B76
:1017C0005B5D303B162B01D9002E12D0049B012605
:1017D000AB420EDD781E0599401B05F01FFC002969
:1017E00007D1019B002B07D0601D0631FFF7ACFF2E
:1017F000019E029C0135D5E70E2102980834FFF7BF
:10180000A3FF0294F5E7C046EC8B0000F0B5002082
:1018100093B000F0C3FD00F08FFD05F07FF90F24B9
:10182000039005F083F902ABE41800222100029036
:1018300006A8FFF78FFA217806A8FFF76AFF0C00C9
:10184000050005F07BF90600032005F091F96B46D1
:10185000C7B2187B08282ED805F052FA052D392D6D
:10186000442D2D2D11002548FFF764FF2A00230089
:10187000019600970AA8FFF7EDFE04210CE020482E
:10188000FFF758FF6B461B7A002B16D12A00230066
:101890000AA8FFF761FE03210AA8FFF763FF00F023
:1018A00016FD00F069FD012000F078FD012004F034
:1018B000A5FA00F079FD13B0F0BD6B46187A2A0046
:1018C0000190230000960AA8FFF78EFEE3E70D487B
:1018D000FFF730FF2A002300019600970AA8FFF7C0
:1018E000DBFECAE70848FFF725FF2A002300019620
:1018F00000970AA8FFF7EFFEBFE7C0468A74000012
:10190000937400009C740000A5740000F0B58DB0C5
:1019100002F040FB012004F081FAF8270021182092
:10192000FEF7D4FD0024814EFF00FEF7C4FD002326
:101930007F4DEB51200002F04FFB002C61D00121C4
:10194000002001F007FD200002F040FB03A9030086
:10195000019002A8002B57D0FEF76AFD01230193E6
:10196000002C13D002F037FB029B182B02D0019BF6
:10197000002BDAD000206F4B187000F00FFD00F044
:1019800029FD6D48FEF7FEFD0123EB6602F06CFABF
:10199000029E182E0DD1002C6FD0039BD8B200F000
:1019A0001FFE0121FFF7B0FCE851002801D0002301
:1019B000039303990298FFF705FC002807D0FFF76F
:1019C000E9FBFEF73DFD0399029803F09BFE002220
:1019D0005A4B1A70EB59934201D0FEF7B5FD94357E
:1019E0002B685C425C41002B65D100F059FC544BE4
:1019F0001A78002A03D000221A70FEF7A5FD4B4E7C
:101A000093E7032106209CE7FEF712FD029B002BC3
:101A1000A6D1002C8ED14B4B1B68002B8AD12B00FA
:101A200098331B68002B1CD1474B0024F61881D536
:101A3000464B1B78002B0BD0454802F07FF9642001
:101A400001F0BAFC434802F079F9642001F0B4FCDB
:101A500000F026FC2B00002294330224334E1A603F
:101A600068E73D4A13681133136003F0F5FD029BEC
:101A700001330293102BF8DDD6E7FFF7FFFA0028B9
:101A800097D02C4B300021001C70FEF71FFDFFF794
:101A9000FBFC0394061E8CD02100FFF735FC0028C8
:101AA00087D1F0B200F0B8FD0390482E81D001221A
:101AB0002A4B1A707DE700F05FFF002000F06EFCFB
:101AC000002500F039FC05F021F8A84204D104F00B
:101AD000F3FF431E9841050001263000684004F0E2
:101AE000EBFD04F0A1F9002806D0FFF737FA00F06B
:101AF00043FC300000F052FC002D0DD005F046F8FC
:101B000004AD010001222800FFF784F92B78002B97
:101B100002D0280004F041FF04F0F8FF002801D1B2
:101B200004F074FD00F040FC61E7C04620BF0200F5
:101B3000B806001045020010C274000058020010E0
:101B400064020010B40500100CFEFFFF74020010C8
:101B5000AE740000B874000014060010D80E001017
:101B600073B54A4C4A4B22684A4D9A4202D12560CD
:101B700001F0C2F82368AB4201D10023236007269D
:101B800002F0CCF800F070FD0021434801F038FA73
:101B900001250021414801F033FA00F045FE00F034
:101BA000E9FF00223E4C100023680B21B343236061
:101BB00023682B43236001F0B5F92000394C102134
:101BC00001F01EFA23680022B34323602368280033
:101BD0002360042101F0A6F90021200001F010FA91
:101BE00001F08AF99620000201F0FEFD01232E4D3E
:101BF0005B4200202B60FEF769FE002350242B601F
:101C00000120FEF727FB00F0B5FF02F08DF92B68ED
:101C1000002B05D16420043C01F0CEFB142CEFD145
:101C20000020FEF753FE2821204802F0D1FB1420AB
:101C300001F0C2FB1D48282102F0CAFB1C4801F03C
:101C4000BCFF192001F0B8FB01F068FE002819D094
:101C50000020FEF7A3FC0821164801F0D1F902F09C
:101C600016FC03F079FB102301930E330022124976
:101C700012480093124B03F089FB124803F0BAFBA1
:101C8000FFF744FE013C002CDBD1E4E70800001024
:101C9000BE153E37E45BE173984004409C4004402D
:101CA000744004409440044094040010DE0300009B
:101CB000CC74000010400440D9030000DD66000031
:101CC00014060010D0050010F7B5031E019137D09F
:101CD0000278303A504242419B181A78782A13D140
:101CE0001026012501331A7800242D2A01D1013351
:101CF000013400221878002809D1002C00D052426B
:101D0000019B01201A601BE00A260025EBE7070073
:101D1000303FF9B2092903D87243BA180133E9E711
:101D200020210843002D07D00700613F052F03D86D
:101D3000120157380243F1E7024801F03EFF00204C
:101D4000FEBDC046447A00000378202B00D07047C7
:101D50000130F9E703003038C2B2092A08D920203F
:101D600018430300613B5738052B01D9012040423D
:101D7000704770B50E00FFF7E7FF002504002078DC
:101D8000002802D13560200070BDFFF7E3FF002876
:101D9000F8DB2D0105430134F1E7000010B500F038
:101DA000D5FD0100014801F008FF10BD527A000086
:101DB00000B589B0684602F057F96946024801F05B
:101DC000FCFE09B000BDC046917A0000F7B50E00D8
:101DD00001A91500FFF778FF002814D0019F0B49D7
:101DE000380005F01BF90C006421200005F016F9FD
:101DF00020003170642105F02BF804492870380068
:101E000005F026F8FEBD01204042FBE71027000048
:101E100013B50C006B4660689A1DD91DFFF7D6FFFD
:101E20006B4698805A1C991CA068FFF7CFFF6B4641
:101E30006A4618709288044B9A4203D9694601A8F1
:101E400002F09EF913BDC0466B0700000B0007B5FA
:101E5000586801A9FFF738FF3C20019B584302F066
:101E6000A9F907BD07235843074B9C30C018831DB1
:101E70000138834201D1012070471A78013B002AC2
:101E8000F7D00020F8E7C046B80600107FB5194823
:101E900001F093FE00240326651C34421DD120006E
:101EA000FFF7E0FF002814D02800FFF7DBFF002831
:101EB0000FD0A01CFFF7D6FF00280AD0E01CFFF7C8
:101EC000D1FF002805D00434FF2CE5DD01F050FFE0
:101ED0007FBD2100084801F070FE2100684602F035
:101EE000E7FA684601F034FF044801F066FE2C0072
:101EF000EAE7C046327300005E7A0000A8AD000039
:101F000070B50D00FFF720FF060004000D350E36FA
:101F100020780134FFF71EFF002807DB2870013D01
:101F2000B442F5D12000FFF70FFF70BD0020FCE7A1
:101F300070B53F4C86B02368002B07D13D4801F0B7
:101F40003CFE03F009FA012323602DE00868012B11
:101F50000FD10822384901F0AEFE002802D12368D3
:101F60000133F1E7354801F028FE03F0F5F9344973
:101F70003FE00378412B19D132490230FFF7C0FF0F
:101F80000028F2D00378422BEFD12F490230FFF71F
:101F9000B7FF0028E9D00378432BE6D12B49023064
:101FA000FFF7AEFF0028E0D006B070BD532B02D182
:101FB00027490230F4E74D2B20D126490230FFF7A4
:101FC0009FFF0028D1D003784E2BCED1224902307A
:101FD000FFF796FF0028C8D00378472BC5D1023001
:101FE00001A9FFF7C6FE019B002BBEDB154A1B496A
:101FF00053651B4801F0E1FD0023A5E701A9FFF7A8
:10200000B8FE2023057806009D43AED1300002A91A
:10201000FFF776FF019B0600E918FF2902DC02A802
:1020200002F05CFA002EA0D00135042DEED1BBE702
:10203000AC050010677A0000327300007D7A000062
:10204000967A0000B8060010C6060010D4060010EC
:10205000FE060010E2060010F0060010897A00006B
:102060008C7A000037B54C682378002B00D137BD3F
:102070002000FFF769FE01A9FFF77BFE019B04002A
:10208000002BF4D0D8B2FF2B13DD00F0C5FA019B72
:1020900005001812C0B200F0BFFA019001980028A4
:1020A00002D02900FEF712FA23785A1E9341E41851
:1020B000DAE700F0B1FA00250190EFE70123064AC4
:1020C00010B511784B401370044900D104490548FC
:1020D00001F073FD10BDC04675020010C974000008
:1020E0009D7A0000A17A00000123064A10B51178FC
:1020F0004B401370044900D10449054801F05DFDCF
:1021000010BDC04674020010C97400009D7A000022
:10211000B07A00000B0007B5586801A9FFF7D4FD9D
:10212000019B002B0CDC012301939623019A9B0059
:102130005343054A01990548136001F03EFD07BD70
:102140001E2BF2DD1E23EFE730020010C07A0000E4
:1021500010B50C4A1378013BDBB21370002B0AD088
:10216000012B05D10849094A094801F026FD10BD97
:102170000849094AF8E7094801F01FFDFEF7F4FA9B
:10218000F5E7C04614000010E87A0000978C0000C4
:10219000EC7A0000E47A0000098F0000107B000058
:1021A00070B50400002C00D170BD64250021022010
:1021B000013D00F0D9FE002DF8D1013CF2E700000E
:1021C000F0B580250F4B6D001A6804262A431A606B
:1021D00008220D4F0D491C683C401C6044B2002C85
:1021E0000CDA0C6834430C601C68013A2C43400044
:1021F000D2B21C60C0B2002AEDD1F0BD0C68B4436D
:10220000F1E7C046FC3F0150FFFEFFFFFC3F0050DE
:102210000121044A10B513688B431360FFF7D0FF08
:1022200010BDC046FC3F0250F0B583B072B601232A
:10223000843001270600194D0193B0202B6834002B
:10224000BB432B60019B843C1843FFF7B9FF2B680D
:102250000020BB432B60FFF7B3FF2B681020BB436C
:102260002B60FFF7ADFF2B68E020BB432B60FFF72F
:10227000A7FF2B683B432B6020780134FFF7A0FFBA
:10228000B442F6D1019B84342600002B02D162B601
:1022900003B0F0BD00230193CFE7C046FC3F0250DE
:1022A00010B5AC20FFF7B4FFAE20FFF7B1FFA520BB
:1022B000FFF7AEFF10BD70B50D000400012200F065
:1022C00031FE29000122200000F078FE70BD10B51B
:1022D000AF20FFF79DFFA420FFF79AFF10BD10B5B8
:1022E000AE20FFF795FF10BD10B50400F820FFF7F2
:1022F0008FFF2000FFF78CFF10BD10B50400812078
:10230000FFF786FF3F202040FFF782FF10BD00004F
:10231000202010B5064B1B781843FFF779FF0A20E1
:10232000FFF73EFF034B1878FFF7E7FF10BDC046ED
:102330001500001087040010842210B5064B0748D2
:1023400019785200002903D0054901F04CFC10BD5A
:1023500001F06AFCFBE7C046880400107E03001011
:102360007602001010B584220021024801F05CFCC6
:1023700010BDC0467E03001010B558220449054820
:1023800001F031FCB0220021034801F04DFC10BDEA
:102390007E03001076020010CE020010014B187070
:1023A0007047C04688040010002310B5074AD35672
:1023B000002B07D0013B59B21B0601D4117010BD90
:1023C000002313700248FFF72FFFF8E78604001080
:1023D0007E03001010B508210120FFF76CFF0221D9
:1023E0000020FFF768FF00210220FFF764FF0621AD
:1023F0000220FFF760FF03210800FFF75CFF0321C5
:102400000022080000F0DAFD00220621022000F080
:10241000D5FD01220621022000F0D0FDFFF78CFF40
:10242000FFF7C2FFA220FFF7F3FEA020FFF7F0FEA8
:10243000C020FFF7EDFE0020FFF756FF0A20FFF750
:10244000AFFE4020FFF7E4FE2C20FFF7E1FE322034
:10245000FFF7A6FE2E20FFF7DBFE3220FFF7A0FEDF
:102460002F20FFF7D5FE0A20FFF79AFEFFF750FF57
:10247000FFF72DFF10BD0000030083280DD80F29A2
:102480000BD88420CA085043C01807231940793359
:102490000B41024A115C0B43135470477E0300103A
:1024A000F0B5072580265B1885B0DBB2104F02908F
:1024B00003920193019B994201D305B0F0BD8422A0
:1024C000CB085343029A30009B180A002A4010415F
:1024D000039AC0B29446DA199C44634502DB013189
:1024E000C9B2E7E714780133044314700132F4E70A
:1024F0007E030010F0B587B005921E00DB788342A2
:1025000003D23778380007B0F0BDB4787268244B36
:10251000041B00209A4216D103231F005C43A41819
:10252000E318CDB20393EB19DBB2049300230193BC
:10253000049BAB42E6D0082302930023009327E0DC
:102540000233D21801301378A042F9DB5778941C7B
:10255000E6E7029B082B07D1039B9C42D2D023784D
:1025600001340193002302930122019B134206D000
:10257000059B009A28009918C9B2FFF77DFF019BBF
:102580005B100193009B01330093029B0133029384
:102590007378009A9342DCDC0135EDB2C8E7C0469F
:1025A0002B7B0000F7B505001F000C00160001F0A2
:1025B00073FB2B180193019B9D4201D0832C01D901
:1025C0002000FEBD3B00210028783200FFF792FF7B
:1025D000024B01351B68C0182418ECE718000010E6
:1025E00000210122042330B50A4C0D5D854203D140
:1025F00018011043C0B230BD013B002B04D10132A1
:102600000433092A00DD002201312829EDD1002000
:10261000F1E7C0460E8C00003C2310B50409800091
:102620001840011F00D52831621E0020032A06D859
:10263000242904DC0423024A1B1B5218D05C10BD61
:102640000E8C000070B505000024054B2900E05CED
:10265000044B0134C01800F0D3FC0A2CF5D170BD36
:10266000048C000000400440F7B50E4E3468002C86
:1026700016D11020FFF7E6FF0B4D2B786F7818006E
:10268000002239000193013400F04CFC0122390092
:10269000019800F093FC02350A2CEED1012333603F
:1026A000F7BDC0468C0400103E8C0000F8B5002534
:1026B0000B4C2678677801223900300000F032FC9C
:1026C000013500223900300000F078FC02340A2D78
:1026D000EFD10020FFF7B6FF0022024B1A60F8BDD1
:1026E0003E8C00008C04001070B50500FFF7BCFFA5
:1026F000002D09D001220721022000F013FC8021C7
:102700000F4A13688B4313600B21002000F02CFC50
:102710000124002805D00B21002000F025FC4442B4
:102720004441002D09D000220721022000F0FAFBCD
:102730008023034A11680B431360200070BDC0461C
:10274000FC3F02500023F0B58BB0069001200993A6
:102750000791FFF7C9FF0400031E01D018230124CD
:10276000089300232C4E01933778757801222900B5
:10277000380000F0D7FB00222900380000F01EFCD2
:10278000264B0293019B04330593022C1CD0029B21
:102790009B790393029B0398DB791900049300F063
:1027A000E3FB00282AD101991D4AA3008A5C08A9ED
:1027B0005A500134019B01330193029B019A023B61
:1027C0000293059B9342E0D100222900380000F0DB
:1027D000A9FB01222900380000F0F0FB114B023662
:1027E000B342C1D1002C06D00124069B089A1A607E
:1027F000079B099A1A6020000BB0F0BD049903985A
:1028000000F0B2FB0028CED00499039800F0ACFB96
:102810000028C8D0CEE7C0463E8C0000368C0000B1
:102820000E8C0000528C0000012210B510000B210C
:1028300000F078FB00220B21012000F0BFFB0122F9
:102840000221032000F06EFB00220221032000F091
:10285000B5FB10BD37B51021244A050013680120CF
:102860008B4313608023224A9B011168214C0B4348
:1028700013600B21002200F055FB00220B210120E8
:1028800000F09CFB9F211C4B1A688A431A601A684F
:102890001A491A601A4B186804F0DAFA0302802009
:1028A000184320602A000320022100F087FB0A2041
:1028B000002D00D0012000F07FFDFF22236893430C
:1028C000236022680F4B13430F4A23601368019360
:1028D000019B002BFADA23680C4A13402360FFF7B0
:1028E000A3FF01980004800D3EBDC046388204401D
:1028F0008080044000C001409840044000093D0031
:1029000098040010800000012CC00140FFFFFFF878
:1029100010B50D4C2068002814DA00202060FFF765
:1029200099FF0A280BDC0120FFF794FFE0234138D0
:10293000FF385B00984202D8C03BFF3B2360FFF7A3
:1029400073FF206810BDC0461C00001010B5FFF7D3
:10295000DFFF002801D1002010BD0020FFF77AFF23
:102960000120FFF777FF011EF5D0024804F070FA4E
:10297000F2E7C0462D47130010B5FFF7C9FF002846
:1029800009D0FFF7E3FF00210300034AC00F9A427A
:102990004841024B186010BD34080000900400103C
:1029A0000222074B10B51A60064BA0321960064B85
:1029B0001A70013258709A7000F0F0FD10BDC046D8
:1029C000FC050010E8050010D40500100022064B9D
:1029D000023110B51960054B1A60054BA2321A700E
:1029E000587000F0DBFD10BDFC050010E80500107C
:1029F000D405001070B505000E0003243100280036
:102A0000FFF7CEFF0223FF33984202D0013C002C97
:102A1000F4D170BD70B505000E000324310028000C
:102A2000FFF7D4FF0223FF33984202D0013C002C71
:102A3000F4D170BD0A4B10B51B68002B0ED0094CA9
:102A4000A31CA270140A5C70140C120EDA709C7035
:102A5000FFF7E0FF831EFF3B5A425341180010BDB1
:102A600094040010D405001070B50E4C2468002C9E
:102A700015D00D4C160AA270E670160C120E62717B
:102A8000A371A21D26711C0A54701C0C1B0E94709D
:102A9000D370FFF7BFFF841EFF3C63425C41200000
:102AA00070BDC04694040010D4050010064B10B54C
:102AB0001B68002B05D0FFF79DFF831EFF3B5A428A
:102AC0005341180010BDC04694040010064B10B5C9
:102AD0001868002807D007210220FFF78BFF023873
:102AE000FF384342584110BD940400100E4B70B59E
:102AF00004001868002813D0A11E062911D8072544
:102B00006D1A072D04D009482A00091801F06BF846
:102B10002900E0B2FFF77EFF0238FF3843425841F8
:102B200070BD01204042FBE794040010D605001060
:102B3000012110B50800FFF75DFF0223FF33984223
:102B40000FD10120084B1860084B1C78230706D0D2
:102B50000323074A234001009370FFF75BFF200027
:102B600010BD01246442FAE794040010EC05001043
:102B7000D405001010B5FFF7DBFF01210220FFF79D
:102B800039FF0223FF3398420FD1084B1B787F2B6C
:102B900006D9842207210220054B5204FFF764FF67
:102BA00004210920034AFFF745FF10BDEC05001082
:102BB000020114008080808010B5002848D0802158
:102BC000254A13688B431360012324490A681A427B
:102BD000FCD00322224B1A6001230021214A1360FA
:102BE0001160136011681942FCD01F4A1F4913601D
:102BF00080230C685B0223430B60002804D18023F0
:102C000015490C6823430B60194B196881421ED08B
:102C10001860431E9841174B40421840164B1168EC
:102C2000C01804F08BF8FA21144B890018600400D6
:102C300004F00EF91E23C8214343114A20001360FB
:102C4000490104F005F90F4B186001F051F810BD6F
:102C5000034B1860C0E7C046388204400C80044033
:102C60007080044074800440788004408080044078
:102C70002000001000512502001BB700980400102E
:102C8000A00400109C04001010B500F03DF9134A98
:102C9000002113681B0B1B031360114A13681B0BE5
:102CA0001B0313600F4A13681B0B1B0313600E4AB0
:102CB00013681B0B1B03136001220C4B19600C4B98
:102CC0001A6019601A6019681142FCD02322094B5E
:102CD00000201A60FFF770FF10BDC0460080005052
:102CE000008001500080025000800350408004406A
:102CF0004480044008800440014B024A1A60FEE709
:102D00000CED00E00400FA0570B500250B490C48F5
:102D100000F053FF0B4E300000F04FFF0A4CE2680A
:102D2000216833000948013500F047FF14340C2DA9
:102D3000F5D1074800F041FF70BDC0463273000076
:102D4000528C0000958C0000D08D0000648C000037
:102D50006F8C0000F0B500253D4F04003B68280053
:102D60008BB0AB425ED03B4B02941B6802A99B68C0
:102D7000013098473B68002B02D1374800F01DFF17
:102D80000BB0F0BD01342378202BFBD0002B2FD0CB
:102D9000431C0193800002ABC450FF2D06D1019B60
:102DA0001800022B45D1002526E01C002278002ABD
:102DB00005D0631C202AF8D1002222701C00019B40
:102DC000012B2ED10C26234D244B2B602B6802980F
:102DD000196800F080FF2B68002821D01433013ED1
:102DE0002B60002EF2D131003000FFF78DFFC4E7D9
:102DF0000028BFD002281AD11949039800F06BFFB0
:102E000000280BD1134C17482368D96800F0D5FE71
:102E100023681548196900F0D0FEABE7022006E0F0
:102E20001D7901982378002BE2D00828ABD1854288
:102E3000E8D2084CC0B2236802A99B689847226870
:102E40000A4B92689A4295D00322094B1A7091E777
:102E5000AC050010A4040010988C0000D08D000078
:102E600067730000918C0000917A000051210000EE
:102E70001400001070B50400154D0D281BD00CD89F
:102E800008280CD00A2816D02100124800F095FE20
:102E90002B685A1C2A601C7018E07F28F4D10E4B56
:102EA0002A689A4212D921000A4800F086FE2B684F
:102EB000013B2B600AE000232A680848137000F0E9
:102EC0007CFE054C2000FFF745FF2C6070BDC0461E
:102ED000A8050010A48C0000A8040010958C000028
:102EE00010B500F01BFD002800D110BD00F0F4FC6F
:102EF000FFF7C0FFF5E70000014B024A1A60704778
:102F0000A8050010A80400104023044A11680B43D0
:102F100013600122024B1A707047C0468080044043
:102F2000B00500100E4B70B51B7804000E001500A4
:102F3000002B01D1FFF7E8FF631E022B0AD8094BD3
:102F40002004C01801230268B340012D04D11343AB
:102F5000036070BD0348F5E79A430260F9E7C04695
:102F6000B0050010008000500F4B70B51B780500B5
:102F70000C00002B01D1FFF7C7FF0020032D0BD859
:102F80002800012303F0BCFE02090B0D074AA340F1
:102F900010681840431E984170BD054AF7E7054A7E
:102FA000F5E7054AF3E7C046B0050010FC3F0050C6
:102FB000FC3F0150FC3F0250FC3F03500E4B70B5EC
:102FC0001B7804000E001500002B01D1FFF79CFFB9
:102FD000631E022B0AD8094B2004C0180123026883
:102FE000B340012D04D11343036070BD0348F5E7DE
:102FF0009A430260F9E7C046B0050010FC3F00505C
:10300000084B70B51B7804000D00002B01D1FFF7B1
:103010007BFF182223689343236021680D432560BA
:1030200070BDC046B00500103F224021044B1A601D
:10303000044B3E3A1A60044A13688B43136070478E
:1030400024800440D8800440388204404021044A4F
:1030500010B513688B431360FFF7E6FF10BDC04641
:103060003882044009490A4A0B681A4080235B00F1
:1030700013430B600421074A13688B431360064B0C
:103080001A68064B1A6030BF7047C0460080034084
:10309000FFF7FFFF10ED00E0388204403482044067
:1030A00010B500F041FAFFF701FB00210948FFF7D6
:1030B000A7FF00210848FFF7A3FF00210748FFF7FB
:1030C0009FFF00210648FFF79BFF00210548FFF7FF
:1030D00097FF10BD0840044000400440AC4004404D
:1030E000144004401C40044010B50120FDF7B2F824
:1030F00010BD00008022124B10B5DA679218DA6713
:103100008022D200DA6780225201DA67802212011F
:10311000DA6780229200DA6700230121094A4942D6
:103120001360094A1160094A1360094A1360094A89
:1031300001331360084A1360FFF7D6FF10BDC04685
:1031400004E100E0048204400882044004C000401E
:103150003CC0004000C0004000400140064A10B59D
:10316000136801331360054B1868FFF725FDFFF75F
:10317000C1FFC046C04610BDB805001020000010B9
:10318000F0B585B00C00019072B6FFF789FF554B82
:10319000554D1A68554B1A60019B5A1E93413F22A8
:1031A0005B429343524A9B18524A13600423524A8B
:1031B00011680B43136000232B60A3071AD04F4AFA
:1031C0004F4913680B40136029684E4BA20700D487
:1031D00082E0EC2252010A432A6080221A6092188F
:1031E0001A608022D2001A60802252011A60802266
:1031F00012011A60019B002B53D00024424B434F15
:10320000434E3C601C60434B21001C60424B30002D
:103210001C60FFF7F5FE220009212000FFF782FE67
:10322000220009212000FFF7C9FE80213B4A3C48CB
:1032300013680B4313600722336876399343336076
:103240003368053A13433360019B584303F076FD1E
:103250000322344B34491860344B1C60344B1A60E1
:10326000344B1A680A4080211A601A680A431A60AF
:103270008023244A21499B0013600A681A430A608C
:103280002A68022113432B6001232B4A13602B4A27
:1032900011602B4A13601460136011681942FCD04E
:1032A0003B6001220021274B52421A60264A1368D4
:1032B0000393264B196062B630BFC046039912686B
:1032C000914207D101221A60214B1868FFF774FC64
:1032D000FFF710FF05B0F0BD802212010A432A60FB
:1032E00085E7C046388204400482044034820440AA
:1032F000FF1800003082044010ED00E0008204401E
:103300007FE2FFFF00E100E00400014004C0004054
:103310006440044004400140048001408080044037
:10332000841E000018C000400FF0FFFF08C00040DE
:1033300014C000403CC000407880044070800440CD
:103340007480044008820440B8050010B4050010E1
:103350002000001010B5FFF713FF10BD074B1A68CF
:10336000013203D106490A6801320A601A68013243
:103370001A60044A1368013313607047C8050010CF
:10338000C4050010C005001080235B0498420AD2D7
:103390000023054A01381360044A1060044A136090
:1033A0000722044B1A607047C805001014E000E0C3
:1033B00018E000E010E000E00B4A1368002800D19C
:1033C0000130C143994209D2591C08181168994229
:1033D00000D2704711688842FCD8F7E71168C91A13
:1033E0008142FBD3F5E7C046C8050010014B1868C1
:1033F0007047C046C80500100122034B1A60034AFB
:10340000136801331360704700C00040CC05001002
:103410000122034B1A60034A13680133136070479B
:1034200000000140D0050010002803D10122044B08
:103430001A6070470128FCD1024B1860F9E7C046BA
:1034400004C0004004000140002802D1044B186071
:1034500070470128FCD10022024B1A60F8E7C046F1
:1034600004C0004004000140002805D1044A0223A2
:1034700011680B43136070470128FCD1014AF6E73D
:1034800004C000400400014010B5002900D11449D7
:10349000002810D18023134A1468234313600322A9
:1034A000114B1860114B1960114B1A608022114B9F
:1034B00052021A6010BD0128FCD18023094A5B002A
:1034C00010680343136000220B4B1A600B4B03324E
:1034D00019600B4B1A608022064B9202E9E7C04646
:1034E000FFFF000080800440CC05001018C00040A1
:1034F00014C0004000E100E0D005001018000140B9
:1035000014000140802210210820064BD2051160D2
:10351000186080235B011068084202D0013B002B39
:10352000F9D17047180000408022164B120210B5E6
:10353000DA676C22144B15481A60154B1968014064
:1035400019601A6804211A60124B1A6802401A6046
:103550001A6800201A600122FFF7E4FC012204210E
:103560000020FFF72BFD012205210020FFF7DAFCE8
:10357000012205210020FFF721FD0022064B1A60E1
:1035800010BDC04604E100E018000040F8FCFFFF59
:10359000304004403440044004800440F8B5002327
:1035A000164A174C202123601360164A13608022AC
:1035B000D2051160144A2168012907D0934203D132
:1035C000FFF7A0FF0020F8BD0133F4E79342F7D0E6
:1035D00000250E4F3E68013E2368FF2B01D920686D
:1035E000F1E73B68B34204D03E68FFF7FFFE0A30C4
:1035F0000500FFF7FBFEA842EED1E1E70006001050
:10360000E405001004060010FF0F0000080600107B
:103610000122034B1A60034A136801331360704799
:10362000004001401406001070B50124164B174AE3
:103630001C6013681B191360154B1A68002A13D0FD
:103640001A68144D013A1A601E68002E0DD0210030
:1036500020002A68FFF7B2FC2B680221E31A2B60D6
:1036600020002A68FFF7AAFC70BD1B6821002B60B0
:1036700020002A68FFF7A2FC022120002A68FFF739
:103680009DFC054B1E60EFE700800140180600100E
:103690000C0600101006001004800140002803D121
:1036A0000122044B1A6070470128FCD1024B1860BC
:1036B000F9E7C0460440014004800140002802D1DF
:1036C000044B186070470128FCD10022024B1A609D
:1036D000F8E7C0460440014004800140002805D1BD
:1036E000044A022311680B43136070470128FCD180
:1036F000014AF6E7044001400480014010B500286B
:1037000011D18023124A9B001468234313600322C3
:10371000104B1860104B1960104B1A608022104B30
:10372000D2021A6010BD0128FCD18023084ADB00B8
:1037300010680343136000220A4B1A600A4B0332DD
:1037400019600A4B1A608022054B1203E9E7C04654
:1037500080800440140600101840014014400140CD
:1037600000E100E0180600101880014014800140BC
:103770000E22174B10B51B681340062B12D1154BA8
:1037800090321B68134205D0134ADBB25360134BCF
:103790001B6810BDDB07FCD5104B1868C0B200F0E9
:1037A000ACF8F6E7042BF7D00C2B05D10A4AF4331A
:1037B00051680B435360ECE7022BEAD1054B1A68C2
:1037C000054B920602D500229A60E2E70122FBE750
:1037D00008800040148000401C060010008000405B
:1037E000004870471C060010F7B58022002107250D
:1037F0002A4B2B4C9203070001912000DA6790229C
:1038000000F012FA019B274EA360274B1A68AA43C7
:103810001A600122196811431960244B1968A943E1
:103820001960196811431960802321495B010868F8
:1038300003430B601F4B1A60823232601E4A1268CB
:1038400019681E4B1868504303F078FA39000009D4
:1038500003F074FA10221A4B1A491A60030A0B601B
:103860000323194FC0B2386060203360174B1D60CE
:10387000174B1A6801921A680240602AFBD15F3A1E
:103880001868104207D122708022124B92031A60EE
:1038900005230B60F7BD38680190F1E704E100E013
:1038A0001C0600100C800040A4400440A8400440C6
:1038B0008080044098800440788004409804001080
:1038C00028800040048000400080004008800040C4
:1038D0001480004000E100E010B5FFF781FF020016
:1038E000837BC318D87B937B0133DBB293735BB2CA
:1038F000002B01DA0023937310BD10B50400FFF70D
:103900006FFF437BC318DC73437B0133DBB243732C
:103910005BB2002B01DA0023437310BD10B5FFF733
:103920005FFF0300807B5B7BC01A431E9841C0B2DF
:1039300010BD70B504001D0000202E5C2318002E61
:1039400009D1121AD518EC1A002C07DCD343DB1767
:103950001A40101870BD26540130EEE7197001337B
:10396000F1E7F8B5541E0F001E000500230001000A
:10397000092E16D90A21300003F0E0F922000300D5
:1039800039002800FFF7EDFF04002D1830000A2150
:1039900003F05AFA30312970601CF8BD0F70013BFA
:1039A0000131002BFADC0020824200DD20002D18BE
:1039B000002A00DC0122541EE8E7F7B50E00D917F3
:1039C0005F18040001934F40551E092F17D90A2193
:1039D000380003F0B3F9019A0300002A00DA4342E9
:1039E0002A0020003100FFF7E8FF05002418380006
:1039F0000A2103F029FA3031681C2170FEBD019BB9
:103A0000002B00DA951E23006119CA1A002A0CDC6B
:103A1000E843019AC017054064196B1C002AE6DAD6
:103A20002D221D0022700134E1E71E700133ECE706
:103A3000F7B51E00089B1400013A1F09050013008A
:103A4000002F11D033000097FFF7F2FF2D180F233E
:103A5000089F1F40FAB2092F12D830322A70013065
:103A6000FEBD0170013B0130002BFADC00208442D6
:103A700000DD10002D18201E00DC01200138E6E7D3
:103A8000002E01D03732E9E75732E7E7F0B50500FD
:103A90000F001C0085B0002801D000230370002611
:103AA0001378002B00D16DE0B74204D80023013D0C
:103AB0002B70013E32E0252B04D001322B700136F1
:103AC0000135EDE75178252902D129700232F6E758
:103AD000931C0393302902D02021531C0393039B92
:103AE0001B782D3B5A425341039AD318002203936B
:103AF000039B1B7818003038092812D99019B84256
:103B000001D9BA1BD2B2692B1FD013D8632B35D081
:103B1000642B1AD0582B2DD001267642300005B0E8
:103B2000F0BD0A2042439A18039B303A0133D2B2C7
:103B30000393DDE7752B11D0782B14D0732BEBD1C9
:103B4000280008CCFFF7F5FE03E0280008CCFFF7BB
:103B500034FF039A2D1801323618A1E7280008CC4B
:103B6000FFF7FFFEF5E708CC009300232800FFF7DE
:103B70005FFFEEE708CC00930123F7E708CC0120B4
:103B80002B70E6E7B74200D890E72B70C6E710B578
:103B900013000A006421FFF779FF10BD00B59BB048
:103BA0000A00010001A8FFF7F2FF632800DDFEE72D
:103BB00001A800F0C3F81BB000BD0FB407B504A9FD
:103BC00001C90191FFF7EAFF03B008BC04B0184730
:103BD0000EB403B503AA02CA0192FFF7D8FF02B0E0
:103BE00008BC03B0184770B506000E430325340027
:103BF00003002C402E420FD1AA420DD90B5903517C
:103C00000434131B032BF9D80324131F9B0801331F
:103C10009B00C9182240C3180024A24200D170BDE5
:103C20000D5D1D550134F8E770B5830704D003001E
:103C30009A189A4217D170BD0300032AF8D90C04D0
:103C40000B0623430B430C0223430400861808C4CD
:103C5000351B032DFBD80324131F9B0801339B0046
:103C6000C3182240E4E719700133E2E710B581423E
:103C700008D20139431E002A00D110BD8C5C9C542F
:103C8000013AF8E78142F8D9002302E0CC5CC45441
:103C900001339A42FAD1F0E7030000201A5C002AAF
:103CA00000D170470130F9E70023CA5CC2540133E8
:103CB000002AFAD1704770B5002304009A4201D15E
:103CC000002007E0E55CCE5CA81BB54202D10133C1
:103CD000002DF3D170BD0200002310B5D05CCC5C88
:103CE000A04201D0001B02E001330028F6D110BD34
:103CF000FA21094B10B51868890003F0A9F8FFF7FD
:103D000043FB96200002FFF76FFD0120FCF7A2FAAB
:103D1000FEF730FF10BDC0469804001010B5FEF746
:103D2000B3FFFFF7F1F8FFF791F9FEF753FBFEF74A
:103D300003FBFFF7DDFFFFF7DFF810BD10B5040050
:103D40002078002800D110BD0134FCF7D9FAF7E73C
:103D500070B50500441E0D35A54200D170BD29780F
:103D60000248FFF72AFF013DF6E7C0466B740000EA
:103D700070B51748FFF721FF164D2800FFF7E8FF41
:103D8000154C42212000FFF718FF1448FFF7E0FF11
:103D900043212000FFF711FF1148FFF7D9FF114819
:103DA000FFF70BFF1048FFF7D3FF1048FFF705FFA1
:103DB0000F48FFF7CDFF4E212000FFF7FEFE0D4814
:103DC000FFF7C6FF696D0C48FFF7F7FE70BDC046F0
:103DD000C08E0000B8060010C68E0000C606001097
:103DE000D4060010CD8E0000FE060010D38E000019
:103DF000E2060010F0060010D98E00000A2302111E
:103E000053430F2210401818704770B50A2105005F
:103E100003F01EF80A210401280003F0FFF8200037
:103E2000084370BDC12210B5520002210E20FEF7DA
:103E300001FE0122014B5A7110BDC046AE060010B2
:103E400010B5084C6379002B01D1FFF7EBFFA27985
:103E50002379520001211A430C2308001A43FEF76C
:103E6000E9FD10BDAE06001010B5074C2379002BFC
:103E700008D16379002B01D1FFF7D4FF012323710F
:103E8000FFF7DEFF10BDC046AE06001010B5054BB3
:103E90001A79002A05D000221A711A72DA70FFF717
:103EA000CFFF10BDAE06001010B501210220FEF7B5
:103EB000FDFD064B040018787F231840FFF79EFF96
:103EC000034B5870DC71200010BDC046EC0500109B
:103ED000AE0600100122014B9A707047AE0600102A
:103EE0000022024B9A701A727047C046AE0600104C
:103EF00010B5FFF7D9FF094B09499A78002A03D07A
:103F00001A7A012A02D801321A7202E00868054AB8
:103F100010600022DA700A6010BDC046AE060010C4
:103F2000C0050010BC05001010B5FEF701FE0C2204
:103F300003001340104203D0024A11780B43137060
:103F400010BDC046AE06001010B5FFF7EDFF044CE3
:103F500023785B0701D5FFF7CBFF0023237010BD4B
:103F6000AE06001010B50020FEF7BEFB002801D001
:103F7000FFF7EAFF10BD0000002310B5044CE37109
:103F8000FFF7F0FFE379002B01D1FFF78DFF10BDA4
:103F9000AE06001010B50921084803F073F9FA22A3
:103FA000074BD2001A80FFF7E7FF0022054B1A608B
:103FB000FA22054B92001A6010BDC046AE060010F2
:103FC000AC060010C0050010BC05001010B5FFF7CE
:103FD000C9FF002010BD704710B5FFF757FF10BD97
:103FE00070B51D4C0D0061782378A2780902194341
:103FF000E378120411431B06184A0B4313401A0AB4
:10400000237062701A0C1B0EE37063792179A27021
:104010001B02134A0B43134023711B0A06006371F2
:10402000A079FFF7EBFE0F4B1B881B1833806079DC
:10403000FFF7E4FEB070E078FFF7E0FEF070A078E4
:10404000FFF7DCFE28706078FFF7D8FE68702078F4
:10405000FFF7D4FEA87070BDEC0500107F7F3F3FD6
:10406000071F0000AC060010F0B58DB00400FEF78D
:104070002DFD002805D120001249FFF7A9FD0DB044
:10408000F0BD0AAE0BAD29003000FFF7A9FF338861
:104090000793F378B77808932B7809930A4B6E78D7
:1040A0001879AD7800F0D2F8099B04900193089B31
:1040B00020000093079A3B00044903950296FFF7FE
:1040C00087FDDCE7E58E0000EC050010EA8E0000BD
:1040D00070B505000E001400FEF7F8FC00280AD0A9
:1040E00028003100FFF77CFF201E03D00020034B87
:1040F0001B79236070BD01204042FBE7EC050010F6
:10410000F7B504880E000500642120000092019399
:1041100002F09AFE114B8FB2E41B1C80B078FFF7BF
:1041200074FE0F4CA0707078FFF76FFEE07030786F
:10413000FFF76BFE2071E878FFF767FE009B607168
:10414000A371A878FFF761FEE0713800FFF75DFE0C
:1041500020720198FEF7CAFCFEBDC046AC060010F6
:10416000D405001010B50223FFF7CAFF10BD431E8F
:10417000984110B5420101210020FEF75BFC10BD03
:1041800070B5040001200D00FFF7F1FF200000F0E2
:1041900085F8072102F042FF20000A002900FFF7FE
:1041A000E1FF96204000FFF707F90020FFF7DFFF4F
:1041B00070BD000073B50400FFF776FE002801D142
:1041C000002076BD1D4D6E780A20FFF7F5F8FFF749
:1041D0006BFE0028F4D06B78B342F5D0FEF776FC86
:1041E0000028EDD001A96846FFF7FAFE684600F006
:1041F00055F8050001A800F031F8114B04199C4254
:104200000DD90122E3171343ED186946280000F089
:1042100077F80C4AE31713400B4A9B18E418200068
:1042200001A900F025F82800072102F0F7FE6846F2
:104230000A0001A9FFF796FFC3E7C046AE060010CB
:104240007F51010000A3020080AEFEFF072318404B
:10425000014B8000C0587047288F00003C230200AB
:1042600000785178584340184343907818187047A5
:1042700070B50C003C21050002F0D0FE2800A170B2
:104280003C2102F0E5FD3C2102F0C8FE6170E12115
:104290002800090102F0DCFD207070BD70B5962287
:1042A00083780688050000205201B618010002221A
:1042B0009A424141761A022B00D80C30C01899233B
:1042C000033858436E240521023002F0C1FD6421F9
:1042D000FF3474430419B01024184942300002F02E
:1042E000B7FDC82124184900300002F0B1FD034B8E
:1042F0002018EC78C018001970BDC046D382FFFFAB
:10430000F8B5214B050080000E00C0181F4902F0CF
:104310009FFD032703007B43D8173840C018801047
:104320001B4B2D18AD00ED1828001A4902F076FE3F
:10433000CC173C4064180237A4107C4302342000A0
:10434000992102F06BFE0800390002F081FD013076
:10435000F0709921200002F07BFD0C21023002F068
:104360005DFE0131C8B20E21B070081A023902F0A8
:104370006FFD08490400280002F06AFD064BC018D2
:1043800024183480F8BDC046652F0400B13A0200FD
:104390004F150000B505000094EDFFFF012210B598
:1043A00011001000FEF70AFE012202211000FEF7A4
:1043B00005FE012100220800FEF7B4FD00220221C3
:1043C0000120FEF7AFFD0120FFF778F910BD0000D6
:1043D00070B50D00072101240600174B20001A6854
:1043E0008A431A601A6822431A60144B1A688A4377
:1043F0001A601A68210022431A602200FEF792FD1B
:10440000220002212000FEF78DFD0D4B31001868BF
:1044100002F01EFD01002000FFF770F92000FFF7F9
:104420005DF9084E20003560FFF738F93368002B3E
:10443000FCD1FFF7B3FF70BD7C40044080400440D6
:10444000980400100C0600100300F8200A00C000B9
:10445000890101405005800E0143F820000202400E
:1044600011430A22514330B5CC101A191000EB3019
:1044700055780078EA32684012781B5D00021043DC
:1044800058400723194008418005800D30BD704712
:10449000C023010010B55B01984201DB024BC1183B
:1044A0000248FFF7D1FF10BD00F8FFFF5E8E00004D
:1044B0000723020010B50F245943074B9C31C9183C
:1044C0000E320B78234003700B7801311B094370C7
:1044D00002309042F5D110BDB8060010072302004B
:1044E000594310B5064B9C31C9180E3243780478F5
:1044F0001B01234302300B7001318242F6D110BD03
:10450000B806001070B5B64D1726EB6E86B05A1E71
:1045100093416E443370B34BEA58D006400F0138D4
:10452000062808D802F0ECFB443104363C3F420038
:104530000D23002404E06B6E16339B005C592300AE
:1045400050111F283BD802F0EFFB35003F0044001C
:1045500048004E00560059005F0063006900780073
:10456000830090009F00AC00B700C400D100DF00C2
:10457000EC00FD00FB000A011101160123012E01D0
:10458000330137013D01410145016B6E16339B003C
:10459000EB58CEE7AC6DEB6D9C42D1DD0D23CFE740
:1045A00002231C00CCE70C230324C9E70D23F8E702
:1045B0000223BEE7191B0131281902F063FE012016
:1045C0003378EB6606B070BD191B8748013120189F
:1045D000F3E7191B85480131F9E7220082492800D9
:1045E00001F035FAEBE71A1B7F4801322919201830
:1045F000FFF7F9FAE3E722007C49F0E77A491A1B52
:104600007A4801326118F2E7220078497648E7E7F4
:1046100076491A1B013261182819E9E7296E0A2226
:10462000002900D106320093230002926E4A0196BF
:104630002900280001F015FAC1E7296E0A22002995
:1046400000D1063202920093684A23000196EFE7F8
:104650000122296E32700932002900D106320292FD
:104660000093002223000196E2E7296E0A22002926
:1046700000D106320093230002925B4A0196290082
:10468000280001F019FA9AE70122296E32700932E6
:10469000002900D1063202920093002223000196E5
:1046A000EDE7296E0A22002900D10632029200931A
:1046B0004E4A23000196E2E7296E0A22002900D122
:1046C00006324A480292009302002300019601003C
:1046D000B0E7296E0A22002900D10632434802922F
:1046E00000930200230029000196A3E70122296E0E
:1046F00032700932002900D1063202920093002262
:1047000023003A480196E2E7296E0A22002900D1E7
:1047100006323648029200930200230029000196D7
:10472000AFE70122296E32700932002900D106322A
:104730002E48029200930022230001000196A0E778
:1047400001223270296E0A22002900D10632274840
:1047500002920093020023000021019691E72200BB
:1047600000212148009601F009FA28E722000021E3
:104770001E480096F7E7296E0A22002900D106326A
:10478000009323000292194A01962900002078E73D
:10479000296E0A22002900D1063202920093124AA1
:1047A00023000196F1E72200002100962800DAE7B5
:1047B00022000E490096F9E71A002100280001F0B6
:1047C000F4F9FCE61A0021000748F8E71A00210076
:1047D0000648F4E71A002100280001F0F7F9EEE698
:1047E000B8060010C4070000C6060010D40600106A
:1047F000064B10B519001A1DD46F0831CC67D96F5C
:10480000D1679A6F9867DA6710BDC046B806001086
:10481000064BDA6F986F9A671A1DD16F0833596784
:10482000D96FD1670022DA677047C046B80600101A
:10483000F8B5134D2F008C373B68581CFFF728FE46
:10484000F923DB00E8500123AA6E040003409A42DA
:1048500013D10C4BEE58830703D438680230FFF7AE
:10486000C7FFFF202B000122A40100020440B61064
:104870008C3334431C60044BEA500220F8BDC04620
:10488000B8060010C4070000AC0700000D4B0E492D
:104890000120CA5810B5D3059B0E94050ED5403B98
:1048A0008C6E92100240944206D10A008C32146839
:1048B000E3181360054BC850012010BD002BEFD149
:1048C0000300EDE7C4070000B8060010AC070000C5
:1048D00010B5084B5A1CD07F9A1CD27F00011202DF
:1048E000104303331A7FDB7F10431B031843FFF78A
:1048F0007FFF10BDB806001010B5FFF789FF0F2429
:104900000323044A01002140D15401330011072B35
:10491000F8D110BDD406001010B5FFF779FF044B95
:1049200001211A008C321060024A995010BDC04615
:10493000B8060010AC07000010B5064CA36E002BA3
:1049400007D0FFF765FF230001228C331860024B6C
:10495000E25010BDB8060010AC07000010B5064CC0
:10496000A36E002B07D1FFF753FF230001228C33E6
:104970001860024BE25010BDB8060010AC070000F2
:104980000121054B054A10B5D150054B1B68002B82
:1049900000D0984710BDC046BC070000B806001004
:1049A0008C0E00100020144B144A70B5985004323D
:1049B0009A5882421AD0F622D2009958814214DDC8
:1049C000012909D1F721C9005C58844204D058500C
:1049D0000A210B4D99505C51F621C9005A58032AFF
:1049E00001DD0120D866013A5A5070BD054B1B68A5
:1049F000002BFAD09847F8E7B8060010BC07000073
:104A0000B40700008C0E0010F822094BD2009A580F
:104A1000002A04D0F622D2009A58002A07DD0F217E
:104A2000044A9A580133114012119977DA77704786
:104A3000B8060010B4070000044A537F917F1B01A1
:104A400009020B43117F0B4353677047B8060010F0
:104A50000B00093B30B5012B0BD80023074AD55C6E
:104A6000C45CA54206D0064A064B0839D05801431B
:104A7000D15030BD01330E2BF1D1FAE7D40600102E
:104A8000B8060010A407000010B508290FD0192996
:104A900008D1082342781A4205D0002202704370E0
:104AA000FFF71CFD10BD0F230370083BF7E7020062
:104AB000030000240E321C7001339342FBD1EFE758
:104AC00030B5114B85B05C6F002802D00F229443A3
:104AD00004430E4D5C67FF2C05DD0E21280002F01B
:104AE000D1FB05B030BD21006846FFF7E1FC210095
:104AF0006846FFF7C9FF00236A46D25CEA540133D7
:104B00000E2BF9D1EDE7C046B8060010D406001010
:104B10001FB50F22104B5C6F944304435C67082C55
:104B200018D0FF2C16DC21006846FFF7C1FC2100DD
:104B30006846FFF78DFF002308496846CA5CC254E7
:104B400001330E2BF9D12100FFF79EFF21006846AB
:104B5000FFF7C4FC1FBDC046B8060010D406001005
:104B60001FB50E4C616F082917D0FF2915DC684668
:104B7000FFF79EFC616F6846FFF76AFF0023084954
:104B80006846CA5CC25401330E2BF9D1616FFFF73E
:104B90007BFF6846616FFFF7A1FC1FBDB8060010E0
:104BA000D406001010B50D4C631CD87FA31CDB7F0E
:104BB00000011B021843E37F1843E31CDB7F1B0348
:104BC0001843FFF765FC0F220300134023770311FE
:104BD000134000126377A07710BDC046B8060010DE
:104BE000024A536E16339B00D0507047B80600102F
:104BF00004494A6E1632920053581B1A5A425341C6
:104C0000CB667047B8060010054A536E16339B00FA
:104C10009958013901D4995070470D21FBE7C046DE
:104C2000B8060010064A536E16339B009958481C6C
:104C30000D2901D09850704700219950FBE7C046DC
:104C4000B80600100F4B5A6E16329200D058191841
:104C50000A7F0C2804DC497F09010A435A65704722
:104C6000F5200949120159588000814205D00748B2
:104C70000140B7208000814202D1596D0911ECE753
:104C8000197FEAE7B8060010CC070000FFFEFFFF1F
:104C9000224B30B55A6E16329200D2580C2A05D1EA
:104CA000F5211F4889001858884204D0FA21C9000C
:104CB000595800290DD00F20596D9A1808400C1131
:104CC00050771477FF220901114021431877596565
:104CD00030BD0F25586D041105400C2A03DC9B18CC
:104CE0001D775C77F4E70E4A9958F52292009142BD
:104CF00005D00C4A1140B7229200914208D11A0007
:104D0000FF212932157002010A4022435A65DFE76C
:104D10001A00293214701D77DAE7C046B806001071
:104D2000CC070000FFFEFFFF0F21254B70B55A6E28
:104D3000586D16329200D258014000110C2A05D14C
:104D4000F524204DA4005D59A54204D0FA24E400C6
:104D50001C59002C0CD0551C5D192C7F9A18167FFD
:104D6000240134435C651C7F2C77107719770CE0A5
:104D7000C9B20C2A0ADC551C5D192C7F9A18167FC3
:104D80002401344328775C65117770BD1D00F5263A
:104D90000C4A29359C582A78B6001201B44205D035
:104DA000094E3440B726B600B44204D102435A65D6
:104DB00029331970E9E71C7F287022435A65D5E72B
:104DC000B8060010CC070000FFFEFFFF10B50E2252
:104DD00002490348FEF707FF10BDC046D406001085
:104DE000F006001010B50E2202490348FEF7FBFE44
:104DF00010BDC046F0060010D406001010B50D23FB
:104E000000220249024800F022FE10BDF006001008
:104E1000D406001010B50E2202490348FEF7E3FE47
:104E200010BDC046D4060010E206001010B50E22D8
:104E300002490348FEF7D7FE10BDC046E206001047
:104E4000D406001010B50D2300220249024800F0DC
:104E5000FEFD10BDE2060010D4060010024B18182B
:104E600046300278DA667047B8060010044B00221C
:104E700019009A6408314C33CA871A807047C046BB
:104E8000B8060010C21C431E002010B504499A4207
:104E900000D110BD8C5C40002043013AF7E7C046CA
:104EA000FE06001030B50124054A0B1D994200D1C1
:104EB00030BD05002540555440100131F6E7C0468D
:104EC000FE06001070B50020FFF7DCFF0500084C5F
:104ED0000021207FFFF7E6FF25770420FFF7D2FFB0
:104EE00005000421607FFFF7DDFF657770BDC046D8
:104EF000B806001010B50020FFF7C4FF034C207760
:104F00000420FFF7BFFF607710BDC046B806001051
:104F100010B5054C0021207FFFF7C4FF0421607FFE
:104F2000FFF7C0FF10BDC046B806001010B50A4C10
:104F300023008C3318680130FFF7AAFAF923DB004D
:104F40000F22E05003001340237703111340001297
:104F50006377A07710BDC046B806001010B50E21CB
:104F6000054802F08FF90E21044802F08BF90E215A
:104F7000034802F087F910BDB8060010C6060010FD
:104F8000D40600100022054B197F18780132014326
:104F9000197701330E2AF7D17047C046B8060010C2
:104FA0000022054B187F197801320140197701332F
:104FB0000E2AF7D17047C046B80600101FB500236F
:104FC0000A4A6C461118097F013019550D2800DD79
:104FD000002001330E2BF4D10023054A6946C95C39
:104FE000D15401330E2BF9D11FBDC046B8060010B5
:104FF000D4060010074A10B5536E16339B0099581B
:105000004C1E51189C500877002C01DA0D21995044
:1050100010BDC046B8060010034B0022190098339B
:1050200094310A601A607047B80600100122034BE1
:10503000943319684A401A607047C046B806001099
:10504000074B002219008C310A6001211A67054ABA
:1050500099501A009432126851424A41DA667047F8
:10506000B8060010AC07000070B5874B874DEC58B0
:10507000874BA210A41119570F231340581E0E2856
:105080003DD801F03DFE0810171E223C283C3C2E66
:105090003C3C3C323600002931DB002269184631A5
:1050A0000A70180070BD002929DB012369184631F8
:1050B0000B70F6E7002922DB0800FFF7CFFE012383
:1050C000EFE72000FFF796FFF9E7002917DB08005C
:1050D000FFF78EFDF3E7002911DB0800FFF780FDE5
:1050E000EDE72000FFF714FDE9E72000FFF7E8FCFB
:1050F000E5E7002903DB0800FFF760FFDFE7982AF8
:1051000000D19CE063DC382A00D186E03DDC1C2A1B
:1051100000D179E029DC162A70D021DC0123002A95
:10512000BFD0023B0C2ABCD1012398352B60B8E7D5
:10513000D63A1000222A15D801F0E2FD90149314FB
:1051400014149614141414141414141499149C1490
:1051500014149F14141414A2ACAF14B2B5B8BB004D
:10516000182A4ED001235B429BE72C2A52D007DC41
:10517000262A4CD0282AF5D100236B66013390E70C
:10518000362AEFD1FFF7D0FD99E7662A4ED00FDC23
:10519000562A48D007DC3C2A42D04C2AE2D1FFF7FD
:1051A000C5FE02237DE75C2ADCD1FFF791FB86E791
:1051B000762A41D006DC682A3BD06C2AD2D1FFF790
:1051C0009BFB7CE7882ACDD1FFF71EFC77E7F82A06
:1051D000C8DCD52AACDCBC2A3AD008DCA82A31D0FD
:1051E000B82A32D09C2ABDD1FFF726FC67E7C82A2F
:1051F00031D0CC2AB6D1FFF7D5FC60E7FFF722FD0E
:105200005DE7FFF71DFF5AE7FFF7E0FD57E7FFF700
:105210003FFD54E7FFF7E6FD51E701236B6640E7EA
:10522000FFF7ECFD4BE7FFF7F5FD48E7FFF7FEFD65
:1052300045E7FFF793FE42E7FFF704FE3FE7002351
:105240002B669BE701232B662BE7FFF7E5FE36E78E
:10525000FFF786FC33E7FFF7E9FE30E7FFF758FE7C
:105260002DE7FFF769FB2AE7FFF78CFE27E7FFF73B
:1052700041FE24E7FFF772FB21E7FFF791FE1EE7EF
:10528000FFF7F4FD1BE7C046C4070000B806001096
:1052900048AD0000FFF774FB11E7FFF783FB0EE753
:1052A000FFF7B2FC0BE7FFF70DFE08E7FFF7BAFCCC
:1052B00005E7FFF731FB02E770B51D4C1D4D1E4B96
:1052C0006259E25023008C331868FFF7E1F8E36E6F
:1052D0006051A3660023194DE36663510333184000
:1052E00002281FD0984220D0012818D0FFF7BCFE1A
:1052F00000280CDD6359002B04D122008C32136886
:105300001B1813602200903213681B181360FA22D6
:10531000D200A358002B01D0013BA35070BDFFF772
:1053200087FAE5E7FFF7EEF8E2E7FFF7AFFADFE726
:10533000B8060010C4070000CC070000AC0700004E
:105340000122034BDA66034A9A830F229A77704749
:10535000B80600100F0F000070B5F425074CED00E3
:1053600066592000064901F08DFF6651FFF7E8FFFE
:105370000123044A6366A35470BDC046B8060010FA
:10538000D40700009C0700007047000030B50D4DA9
:10539000049C28600C4801600C490A600C4A1360A8
:1053A0000C4B039A1A600C4B0C4A1C60F423DB0074
:1053B000D4500B4B0B4A1A600B4B0C4A13600C4A2F
:1053C000136030BD940E0010AC0E0010C80E00101B
:1053D000B40E0010D40E001024000010B806001007
:1053E0008C0E001055550000895300009C0E0010D3
:1053F000D00E0010014B18607047C046A80E001078
:10540000084B10B51968084A002906D1074C2468D2
:105410002160106001221A6010BD11688842F8DA1C
:105420000800F6E7A00E0010A40E0010A80E001051
:10543000034B1B68002B01D1024A13607047C04622
:10544000980E0010A00E001070B51A4D2B00983366
:105450001B68002B0DD0184B1C6801231C40F52342
:10546000DB00EB58A34208D1144BEB58002B10D1B2
:1054700070BD2B0094331C68F1E7002C0BD1002B7E
:10548000F6D00F4B1B68002B0FD02100200098474F
:105490000BE0002CECD00A4B084E1B68002B02D00E
:1054A0002000A95998470023AB51F523DB00EC50AD
:1054B000DEE7C046B8060010900E0010A4070000FA
:1054C000940E0010054B10B51B68002B04D0044946
:1054D000044A01208958984710BDC046940E001018
:1054E000B8060010A40700000023F821054AC900EF
:1054F0001370054A53500549535004315350044A20
:1055000013707047B10E0010B8060010B407000009
:10551000B80E0010084B1860084B196000280AD01C
:1055200001230021064A1370064A1170064A0749F2
:105530008850074A13707047BC0E0010C00E001050
:10554000B10E0010B00E0010B4070000B806001035
:10555000B80E00102C4B73B51A682C4B11681868E4
:1055600081421AD000210091019112681A60284BE3
:105570001B688B4202D0684601A9984725490098CC
:105580000C68019A244BA04202D11C68944202D0BC
:105590000125224C257008601A60214C214BE358EC
:1055A000002B10D000231D49CB56002B0AD000221F
:1055B0001D4B9A56012A05D100220A701B490A7018
:1055C00002321A7073BD134B174D1868002807D0AC
:1055D0000023EB56002B03D10F4B1968FFF79AFFFE
:1055E0000023EB56114E022B08D10023104A3370D2
:1055F000A3502B700023F356E366E3E7002BF9D0AA
:105600000A20FFF7FDFEF5E7B40E00102C00001095
:10561000AC0E0010BC0E0010C00E0010B00E00103A
:10562000B8060010BC070000B80E0010B10E001044
:10563000B4070000F82370B5054CDB00E358002BDD
:1056400005D1E56E034AA350FFF784FFE56670BD00
:10565000B8060010BC070000084A094B11681B6817
:1056600010B5CB1A03D41360FFF7EEFE10BDFA237A
:105670005B001360034A13680133F4E7280000104D
:10568000D40E0010900E00100122034B1A60034B41
:10569000F432FF321A607047900E0010280000109C
:1056A00073B5040000250026134B00961B68019675
:1056B000B34218D101350220FAF73CFE0F4B1A68AD
:1056C0000F4B11681868814208D012681A60FFF702
:1056D000C3FF002C02D0013C002C02D0042DE2D1EB
:1056E0000124200076BD684601A99847009B002B45
:1056F000E0D03500DFE7C046AC0E0010B40E00105D
:10570000C40E0010F7B5A94BA94C0500E0500433B6
:10571000E150230094331B680E00002B0ED1182893
:105720000AD1C32908D1A34B1B680F2B04D1162221
:105730000E21A14800F076F9FFF702FE00239D42FA
:1057400000D00A33F6223100D2002800A350FFF720
:10575000E1FE9A4F26003B688C361A68984B1A6017
:10576000FFF766FE012323671D3301930023009397
:10577000944B1B68002B14D0934D2B68002B10D03A
:105780001B68002B5ED02A681368013B13608F4AA8
:105790001368002B05DD013B1360002B01D1FFF7DF
:1057A00047FEFFF789FD002807DA220033689032B0
:1057B00001333360136801331360854B009A854DC4
:1057C0009A420CD040239A43834B9A4207D0834B92
:1057D000009A9A4203D05333FF339A4211D163594E
:1057E0007F4A93420AD02022190091437D4A914278
:1057F00004D0402293437C4A934202D10A20FFF70F
:10580000FFFD6359794A0093336893425AD036DCDE
:10581000BA229200934200D199E018DCEE22FF32C6
:10582000934255D0D732934200D180E0019B002BA8
:1058300000DCA4E0013B0193236F002B98D1FFF71C
:1058400003FEF7BD6A4B1B6898472B6898E78222D6
:105850001201934239D0674A9342E7D1FBF7FCFB30
:10586000FFF730FEFAF710FE634B554A18604F4BB6
:10587000E0501368013B1360604B3360D6E7604A29
:10588000934218D011DC5F4A93422DD05E4A934276
:10589000CCD15E48FEF7FCFDE0231B1A60781B119B
:1058A000C01A0F2318406070C0E7594A9342BDD117
:1058B000FBF7C0FBBAE7FAF741FDFFF7E5FEFFF79C
:1058C00001FEB3E7FBF7A2FFB0E7FBF735FBADE75F
:1058D0004E48FEF7DDFDE0231B1A607F1B111B18ED
:1058E0000F2003406377A1E7E31CDD7FA31CDB7F70
:1058F0002D01ED18631CDB7F2D01ED18E37F2D01D9
:10590000ED180E21280001F089FB230029331970BE
:1059100028000E2101F09CFA0F2302121A40A270F7
:1059200002111A40184062703A4B2070A5E700231C
:10593000A27F9A4208D0637F217F1B015B18FC2164
:10594000C91A07234B439B18334A13606EE7324B47
:105950000A211D68280001F061FB2800A1720A21BC
:1059600001F076FA0A2101F059FB2800E172642166
:1059700001F06EFA0A2101F051FB217356E7274B23
:105980001B6898471E203A68254B019011681868DB
:10599000814200D150E712681A60FFF74BFEFFF713
:1059A0005BFE134B1B68984746E7C046B4070000F0
:1059B000B806001024000010F0060010B40E00100D
:1059C0002C000010A00E0010A80E0010A40E001055
:1059D0006E020000C4070000260200007A020000E8
:1059E000FB030000CB030000A3030000490F0000ED
:1059F0009C0E00106A0C0000BC0E00106F0C000022
:105A0000FA130000A1100000D5100000D91000000A
:105A10003A150000BC100000CC0E0010D00E001093
:105A2000C40E0010F0B50125002A00DCF0BD03789B
:105A30004C1E2B40002C01DA013AF5E7065DDB0035
:105A400077083B4303553300013C2B40F2E730B568
:105A50009A4200DD30BD845C8D5C85548C540132EB
:105A6000F6E7F0B5060007A8057806980124007847
:105A7000002A1DD0059CA34204DD01231840069B8B
:105A80001870F0BDD75CCC5CBC4664442418002080
:105A9000A54201DC641B0130F4540133EAE7CA5C1F
:105AA00012180020954201DC2000521BF2540133F1
:105AB000059A9342F3DDE0E7F7B50AAC2478089F36
:105AC0000194099C2478002839D00F25002933D06F
:105AD000002A1ED1019E0F32013E1640BB421ADC45
