:10000000F01F0010C5660000C3660000C366000054
:10001000C3660000C3660000C36600000000000065
:10002000000000000000000000000000C3660000A7
:10003000C366000000000000C3660000D129000074
:10004000D1270000D1270000D1270000D1270000D0
:10005000D1270000D1270000D1270000D1270000C0
:10006000D1270000D1270000D1270000D1270000B0
:10007000D1270000C1660000C1660000C100000079
:100080006D2A0000852A0000852C00009D2C0000B0
:10009000C1660000E52D0000C1660000C1660000D9
:1000A000C1660000C1660000C1660000C1660000B4
:1000B000C1660000C1660000C1660000C1660000A4
:1000C000594A10B5136801331360584B584A1B68DE
:1000D000DBB2302B00D176E018D8182B5AD005D8D7
:1000E000082B37D0102B46D0082351E0202B00D10D
:1000F0007AE0282BF8D14F4B4F491868096888429D
:1001000052D21968481C18604C4B48E0482B00D16B
:100110006AE00AD8382B60D0402BE5D1484B1968EB
:10012000042301295DD11360DEE7502B66D0582BE4
:10013000DAD14448444B1B680168DBB24C1C0460B4
:10014000424843540221424BFF3119608023F13968
:10015000DB0530E00021374B19601968481C186036
:10016000364B5B5C3849DBB20B60282313600122FD
:10017000374B1A6010BD0021324B19602D490B68B6
:10018000581C08602D49CB5C2F49DBB20B6028233B
:100190001360EFE727490B68581C086027495B5C30
:1001A0002949DBB20B609FE7254B19688023DB05EB
:1001B000002902D02021196096E702202449FF304F
:1001C00008601021F7E780231021DB051960082360
:1001D000136081221E4B5200CBE782211C4B490049
:1001E000E9E78021C905DDE780231021DB051960DF
:1001F000082313600422164BFF32BAE71149124B51
:100200001B680868DBB2441C0C60104C23540C4B78
:100210001B680868013B0421834202D98023DB0567
:10022000C9E7116060E7C046CC030010040000403D
:1002300018000040C8030010C0030010980300100D
:10024000AC030010C403001008000040B00300100D
:10025000A803001002231B4A70B511681A4D0B4306
:1002600013602023194A040011680B431360184BD4
:100270001A682A401A600122186810431860154B4A
:1002800019682940196019680A431A606C22124BD8
:1002900012491A60124B186806F0DCFA114B18600C
:1002A000114B1860022C02D1A022104B1A60802240
:1002B0000F4B12021A6080234022DB0501201A60D6
:1002C00070BDC04604800440F8FCFFFF80800440FD
:1002D000304004403440044018000040400D03000A
:1002E0005C02001014000040100000400C000040B0
:1002F00000E100E00000000000000000FFFFFFFF41
:10030000202303490A681A42FCD0024B1860704748
:10031000148000400080004010B503F095F910BD36
:1003200070B504000D002900200002F04DFB024BC7
:100330001B68002BF7D170BD7803001010B502F0D8
:1003400075FB10BD7FB5050000200C0001F006FD17
:10035000002801D003F066F9002323602B60174BBF
:100360001E78002E28D12100280001F025FD300044
:1003700001F0F4FC002807D003F054F926602100B6
:1003800028002E6001F018FD0D4B1B78002B13D0B8
:100390000C4B2A6818680C49824203D120680D680A
:1003A000A84209D01A60236801A80B60074902F02F
:1003B00049FF01A802F0E6FF7FBDC04628000010FB
:1003C000380000102000001024000010386A0000DF
:1003D00070B504000D00FFF7B5FF094A1368002B44
:1003E00009D0013B1360032B06DD064B1B6823601D
:1003F000054B1B682B6070BD00232B602360FAE760
:10040000340000102C00001030000010002310B544
:100410000B60036001F0D0FC10BD000010B501249A
:1004200003F0BEF80C4B0020196802F0A1FC00207C
:1004300002F08EFC002002F06BFC084B20001C60D8
:10044000074B196889B202F059FB200002F046FB05
:10045000200002F023FB10BD640200109403001082
:100460006002001037B50C240321012002F0ACFA21
:10047000684601A9FFF7ACFF009D002D02D1013CA9
:10048000002CF1D1FFF7CAFF28003EBD10B50020B7
:1004900002F04EFC012002F011FB03F089F810BDC0
:1004A00070B50D000400FFF7B9FFB1230121064A22
:1004B0005B01D1502000290005F014FEFFF7E6FF94
:1004C00005F00CFD70BDC0460005001010B504001D
:1004D000FFF7A4FF200005F0D3FD0400FFF7D6FFCF
:1004E000200010BD10B50020FFF7F0FF10BD37B59C
:1004F00004000025FFF7F6FFA54203DBFFF7F2FF3C
:1005000000983EBD0321062002F05EFA684601A96C
:10051000FFF75EFF009B002BF0D10135ECE70000F8
:1005200010B502000249034802F081FE10BDC0462A
:10053000466A00004B6A0000F0B5354B85B01B6879
:1005400000900193002805D0019B002B02D00020D1
:1005500001F06CFE01F03BFA002001F083FA01F09B
:100560006BFA2C4C032223680221013323602A48B2
:100570002A4B01F051FB2368FA26013B236001F06E
:1005800077FAFFF7AFFF2648FFF7CAFF962300244C
:10059000244D9B002B60B60002F0FAFC002807D027
:1005A00001F0D8FF00242B680134A342F4DC1AE0E8
:1005B000009B002B27D01C4F3100386806F04AF909
:1005C0006423584302F01AFA02F086F831003868C2
:1005D00006F040F902F012FA03A902A8FFF7F8FEAC
:1005E000029B002BDFD0009B002B05D0019B002B32
:1005F00002D0012001F01AFEFFF774FF0B4802F051
:1006000016FE05B0F0BD0A2002F010FAE4E7C0467D
:100610000C00001004000010536A0000B07B0000C2
:10062000626A00001C0000105C020010686A000092
:100630001A4B73B504001A49186806F00BF9194BE8
:10064000194A1A490090200002F0FCFD01F09AFCC2
:10065000002812D001F0B4FCFA218900060006F04F
:10066000F9F80500200002F03BFE114B2A006B4315
:1006700010499B19201802F0E5FD200002F030FE21
:100680000D4B0E4A1B682018002B02D00C4A00DBD1
:100690000C4A0D4902F0D6FD73BDC0465C02001045
:1006A00040420F00796A0000466A00007D6A00003F
:1006B00018FCFFFF8A6A000058020010736A0000ED
:1006C000766A00004B7C0000956A000070B50D0052
:1006D00006001400002001F0C5F901F0ADF9310069
:1006E00028000022054B01F097FA09220121044B52
:1006F000200001F091FA01F0BBF970BDB07B000061
:10070000987B000007B5144A14490120FFF7DEFF6B
:10071000642002F08BF972B60021114B114A196066
:10072000012313601160136011681942FCD00E4A56
:100730006846136080230D4A5B0211680B43136007
:1007400080230B4A11680B431360392301A90093DE
:10075000084B984707BDC0469D6A0000AC6A000080
:10076000708004407480044078800440808004409D
:1007700038820440F11FFF1FF0B5012500232F0030
:100780008DB002AA13763C01FFF7ACFE2C43362C49
:1007900024D0512C23D1364904A802F053FD142053
:1007A000962608AA04A9FFF791FF760002A803A9DC
:1007B000FFF70EFE029800283CD0C0B201F04AFAC2
:1007C0000200512C06D0039B002B03D1412C0CD0EE
:1007D00041280AD1FFF786FE0DB0F0BD4624220065
:1007E000244904A802F02EFDD9E794422AD02249D8
:1007F00008A802F027FD039800280CD0C0B201F031
:1008000029FA019008A802F06BFD08AB019A1B4978
:10081000181802F017FD08AA142004A9FFF756FFC4
:10082000FA20C821400003F03FFDFFF75BFE029B6A
:10083000002B13D103210420013EFFF771FD002E90
:10084000B4D1C9E7002402AB64210D481C76013500
:1008500003F02AFD0A2D05D1250094E7C82002F0F7
:10086000E5F8E7E76B1E5A425341FF188BE7C04695
:10087000BF6A0000CB6A0000C76A0000D46A0000AB
:10088000B80B000000B5084B084A89B01B786846D1
:100890001278074902F0D6FC69460120054AFFF7A5
:1008A00015FF09B000BDC046010000104B0200104A
:1008B000DC6A0000EA6A0000F0B52C4C2C4D23786D
:1008C00085B001932F780026FFF7DCFFFFF70AFEC3
:1008D00002A803A9FFF77CFD0298002815D0C0B23A
:1008E00001F0B8F9492805D83F281ED830282CD067
:1008F000392835D001F08CF8FFF7C4FF029E002E96
:1009000003D0C82002F092F800260321042001360B
:10091000FFF706FD1E2EDBD1019B2F70237001F027
:1009200077F8FFF7DFFD05B0F0BD40380928E1D8C2
:1009300005F0E8FE05F2E0E0E0E0F7E0E0102B78FB
:100940003E2BD7D801332B70D4E72B78002BD1D096
:10095000013BF8E72378062BCCD801332370C9E795
:100960002378002BC6D0013BF8E7C04601000010F9
:100970004B02001010B590B06846FFF759FE0020FA
:1009800001F070F801F058F80122084C1100230022
:10099000684601F041F9230009220121044801F0D1
:1009A0003BF901F065F810B010BDC046987B00001F
:1009B000FE6A000010B50F490F4A104B521A10483A
:1009C0008AB0103A1C68844212D01031591A531A56
:1009D000009102A80B4902F035FC02AA01200A4945
:1009E000FFF774FE00213220FFF79AFC0AB010BD19
:1009F0000433E7E7901B0010F01F0010A01B00104D
:100A00001DBAFE7A186B0000306B000000B52B2277
:100A10008DB0002800D1023268460D4902F012FC68
:100A200004A802F091FE6946012004AAFFF74EFED9
:100A300003200021FFF774FC0220FFF747FD002888
:100A4000EED000210A20FFF76BFC0DB000BDC046C0
:100A5000376B0000F8B5040016000D00002702F007
:100A600073FE2100E7741431681C02F041FC380069
:100A700000F0F8FF00F0E0FF3A00042120000A4BEC
:100A800001F0CAF8094C092223000421280001F0D2
:100A9000C3F8BE4205D0230009227821044801F0A2
:100AA000BBF800F0E5FFF8BDB07B0000987B0000CC
:100AB000817C000030B58DB0134902A802F018FC0B
:100AC0002E24002202A904A8FFF7C4FF0025FFF787
:100AD00009FDFF34002202A904A8FFF7BBFF032190
:100AE000002001F071FF684601A901950095FFF70C
:100AF0006FFC009B002B02D1013C002CEAD1FFF7D8
:100B0000F1FC0DB030BDC046656D0000F0B50024AD
:100B100091B020009626039400F0A4FFFFF7E2FCBA
:100B20000223270000940193760000F085FF009BCC
:100B3000002B00D0AAE008AD280002F005FE009BC3
:100B4000EB742B746B73AB72EB712B71002C01D1B6
:100B5000012F05D10022042128008E4B01F05CF802
:100B60008C4D00222B001E218B4801F055F8012CE2
:100B700001D1012F07D11D202B0002AD002225211C
:100B8000401901F049F8834D00222B00332182489F
:100B900001F042F8022C6ED1012F6CD0232002AD5F
:100BA00000224D217B4B401901F036F8794D00228F
:100BB0002B005921794801F02FF8042C01D1012F85
:100BC00007D126202B0002AD00225F21401901F041
:100BD00023F8704D00222B006C21704801F01CF8A6
:100BE000052C01D1012F07D129202B0002AD0022B5
:100BF0007221401901F010F809220421684B0DA858
:100C000001F00AF800F034FF039B002B07D0143BDF
:100C1000012B40D8052C3ED0962001F007FF032180
:100C20000800FFF77DFB002001F098F80023050085
:100C300004A903A804930393FFF7CAFB039B002BAB
:100C400000D198E006AE05AD3100280007AA02F0F9
:100C5000AFFD0090002827D1280003F045FA0700D7
:100C600003981438032800D97DE005F055FD55227E
:100C700017201E0059E72B0000223A210AA800F095
:100C8000CBFF032C8AD1012F90D187E700220421CA
:100C9000404B4448B4E7FFF725FCC0E7601C062141
:100CA00005F0BEFE00270C009626760067E0601D6A
:100CB000F5E7601E042804D805F02EFD0D141D264E
:100CC00047002B88013300242B80280003F00CFA06
:100CD0000523070016E00C21A87805F0B7FD0131C7
:100CE000A970F2E701372900380003F02FFA052335
:100CF000022401932BE030780130182105F090FE9A
:100D000004233170019322E0707801303C2105F01A
:100D100087FE03237170F5E7601E042804D805F0F0
:100D2000FBFC060C0E1114002B88013BCBE7A878C6
:100D30000C210A3005F074FED1E7013FD3E730788B
:100D40001730DAE770783B30E0E70023B370072113
:100D5000380005F065FE0A000791052C05D1310029
:100D6000280002F07DFD01279EE731002800019B4D
:100D700002F036FDF7E7002D01D101235F40039B10
:100D8000132B05D0182B03D0731E002E00D070E754
:100D900011B0F0BDB07B0000406B0000356B00006F
:100DA000987B0000426B000010B5002802D1FFF7CD
:100DB000A9FC10BD002000F055FE00F03DFE012210
:100DC0000A4C012123005242094800F025FF23006C
:100DD00007220121074800F01FFF00F049FE78209C
:100DE000FFF785FB1328E4D1E1E7C046A07B0000B4
:100DF000506B0000626B000070B505000E0000F043
:100E0000E6FD292D15DC00240F2D1FDD28001038EC
:100E1000192812D805F080FC43131124562F3711DE
:100E20001129111111111111111C111111113A1166
:100E30001153442D36D0452D3BD0002406E0234BE2
:100E400001241B68002B01D0FFF734FE200070BD89
:100E50001E4B01241B68002BF8D0FFF757FEF5E767
:100E60000120FFF769FB0124F0E70120184B1B6804
:100E7000C01A01F0DBF90120FFF77CFDFFF732FB20
:100E8000FFF7F0FAEFE7FFF717FDECE70022114B51
:100E90001A70114B05321A7000F0BAFDE3E7FFF744
:100EA0006BFCE0E70D4802F0F5FC0020FFF7AEFD1B
:100EB000D9E7E120000102F0EDFC0120F6E7FFF7A1
:100EC00079FDD0E73000FFF76FFFCCE75802001044
:100ED0000C0000104B02001001000010F0F1FFFFA9
:100EE000F8B5012706000C00002000F0BBFD00F063
:100EF000A3FD0B4D7F422B003A000121094800F071
:100F00008BFE2B003A0030002A2100F085FE2B00DA
:100F100007220121200000F07FFE00F0A9FDF8BDAE
:100F2000A07B0000796B000010B5002804D10449B3
:100F30000448FFF7D5FF10BD81680348F9E7C046B4
:100F4000806B0000956B00004B7C000070B50026A4
:100F500086B000F03CFD2B492B48FFF7C1FF340061
:100F6000FFF7C0FA0C250321062001F02DFD68468D
:100F700001A9FFF72DFA0098002804D10136772E39
:100F8000F1DD06B070BDC0B200F064FE462808D0A6
:100F9000002C0AD00023E356834206D100202056BD
:100FA000EFE7002CFAD10026DDE74328E9D0352809
:100FB00001D0412822D115481549FFF791FFFFF7CD
:100FC00091FA0020DDE7834206D164182000FFF784
:100FD000ABFFFFF787FAE6E701322900514363567A
:100FE000002BF0DCF1D002000A4902A802F02AF935
:100FF00009490A48FFF774FF0024EAE70022084C79
:10100000EBE7C046806B0000956B0000B46B0000FE
:10101000A16B0000B66B0000BD6B00004B7C0000B4
:10102000B46C0000F0B585B002F028FBB1270021B8
:101030001820FFF735FA00256B4E7F01FFF726FADF
:1010400000236A4CE351280002F04CFF002D4BD0E6
:101050000121002001F0B8FC280002F0A3FE03A942
:101060000300019002A8002B41D0FFF7CFF9012324
:101070000193002D11D002F0BFFE029B182B02D06D
:10108000019B002BDAD0002000F0ECFC00F006FD04
:101090005748FFF745FA0123E36602F00FFA029B77
:1010A000182B0DD1002D0BD0039BD8B200F0D2FD30
:1010B0000121FFF7A1FEE051002801D00023039396
:1010C000230046331B78002B5ED0029BD8B200F081
:1010D000C1FD322844D0432846D0312854D1F023D2
:1010E0000293444B03934FE003210620B2E7FFF73E
:1010F0008DF9029B002BBCD1002DA4D13E4B1B6867
:10110000002BA0D1230098331B68002B1CD13B4B34
:101110000025F61897D53A4B1B78002B0BD0394891
:1011200002F030F9642001F081FC374802F02AF91E
:10113000642001F07BFC00F033FC23000022943398
:101140000225294E1A607EE7304A13681133136076
:1011500004F07EFF029B01330293102BF8DDD6E7EB
:10116000F02302932A4BBDE7F0230293294B03930C
:10117000FFF7ECFE0500432806D00123E3510028C9
:1011800021D1113302930390FFF748F90399029894
:1011900004F0A8FF03F044F8E359002B01D0FFF757
:1011A000A1F9943423685D425D41002B01D100F028
:1011B000F7FB194B1A78002A03D000221A70FFF7A8
:1011C00091F9094E3AE700211220FFF769F9002151
:1011D0001820FFF765F900212800FFF70DFE1823FE
:1011E000029300237EE7C04620BF020000050010E6
:1011F000DC6B00009BA60000780300100CFEFFFFD4
:1012000038000010C86B0000D26B0000D80300103B
:101210008BA600009CA600002800001073B5534C5C
:10122000534B2268534D9A4202D1256001F09EF83B
:101230002368AB4201D100232360072602F092F815
:1012400000F04CFD00214C4801F014FA012500216A
:101250004A4801F00FFA00F021FE02F0F3FF00F01F
:10126000C3FF0022464C100023680B21B3432360C8
:1012700023682B43236001F08FF92000414C10219B
:1012800001F0F8F923680022B343236023682800A3
:101290002360042101F080F90021200001F0EAF927
:1012A00001F064F99620000201F0D8FD0123364DCB
:1012B0005B4200202B60FFF75DFB002350242B6076
:1012C0000120FEF7C7FF00F08FFF02F09BF92B68AB
:1012D000002B05D16420043C01F0A8FB142CEFD1B5
:1012E0000020FFF747FB2821284802F0DDFF1420EB
:1012F00001F09CFB2548282102F0D6FF244801F08C
:1013000096FF192001F092FB01F042FE002826D042
:101310000020FFF711F908211E4801F0ABF91E4A21
:101320001E4B013A1E49FF3A93421CD902F0F8FFC6
:1013300004F0B0FC292301930B3B002219491A4801
:1013400000931A4B04F0E4FC194804F025FD1948F9
:1013500004F028FD184804F02BFDFFF763FE013C64
:10136000002CCED1D7E702C3DEE7C046080000104C
:10137000BE153E37E45BE173984004409C40044056
:10138000744004409440044058020010DE03000002
:10139000E66B000010400440F01F0010A01B00107E
:1013A0001DBAFE7AD10300008D660000D80300103C
:1013B000E94100001903000094030010F7B5031E73
:1013C000019137D00278303A504242419B181A7846
:1013D000782A13D11026012501331A7800242D2AEA
:1013E00001D10133013400221878002809D1002CE2
:1013F00000D05242019B01201A601BE00A26002502
:10140000EBE70700303FF9B2092903D87243BA1855
:101410000133E9E720210843002D07D00700613F91
:10142000052F03D8120157380243F1E7024801F0B3
:10143000FEFE0020FEBDC046446D00000378202B58
:1014400000D070470130F9E703003038C2B2092AF2
:1014500008D9202018430300613B5738052B01D9D8
:1014600001204042704770B50E00FFF7E7FF0025EE
:1014700004002078002802D13560200070BDFFF7FD
:10148000E3FF0028F8DB2D0105430134F1E70000FC
:1014900010B500F095FD0100014801F0C8FE10BD37
:1014A000526D000000B589B0684602F04DF96946FA
:1014B000024801F0BCFE09B000BDC0468E6D0000C0
:1014C000F7B50E0001A91500FFF778FF002814D02A
:1014D000019F0B49380005F0A3FA0C00642120009D
:1014E00005F09EFA20003170642105F0B3F904493B
:1014F0002870380005F0AEF9FEBD01204042FBE740
:101500001027000013B50C006B4660689A1DD91DAA
:10151000FFF7D6FF6B4698805A1C991CA068FFF70E
:10152000CFFF6B466A4618709288044B9A4203D9E3
:10153000694601A802F094F913BDC0466B0700008C
:101540000B0007B5586801A9FFF738FF3C20019B45
:10155000584302F09FF907BD07235843074B9C30BF
:10156000C018831D0138834201D1012070471A78C9
:10157000013B002AF7D00020F8E7C0460005001024
:10158000F0B51B48BC2685B001F051FE00240327AE
:10159000B600651C3C421ED12000FFF7DDFF00288D
:1015A00015D02800FFF7D8FF002810D0A01CFFF7A7
:1015B000D3FF00280BD0E01CFFF7CEFF002806D099
:1015C0000434B442E5DB01F0F7FE05B0F0BD2100C4
:1015D000084801F02CFE2100684602F01DFF684615
:1015E00001F0DAFE044801F022FE2C00E9E7C046D3
:1015F000466A00005E6D0000646D000070B50D006D
:10160000FFF71CFF060004000D350E36207801346C
:10161000FFF71AFF002807DB2870013DB442F5D11F
:101620002000FFF70BFF70BD0020FCE7F0B5404C39
:1016300087B02368002B07D13E4801F0F8FD04F085
:1016400029FB012323602DE00868012B0FD1042220
:10165000394901F054FE002802D123680133F1E733
:10166000364801F0E4FD04F015FB35493FE003780E
:10167000412B19D133490230FFF7C0FF0028F2D0C7
:101680000378422BEFD130490230FFF7B7FF002833
:10169000E9D00378432BE6D12C490230FFF7AEFFA7
:1016A0000028E0D007B0F0BD532B02D1284902300A
:1016B000F4E74D2B20D127490230FFF79FFF002888
:1016C000D1D003784E2BCED123490230FFF796FFBD
:1016D0000028C8D00378472BC5D1023001A9FFF7F5
:1016E000C2FE019B002BBEDB164A1C4953651C48F9
:1016F00001F09DFD0023A5E701A9FFF7B4FE20231B
:10170000057806009D43AED1BC27BF00300002A97A
:10171000FFF774FF019B0600E918B94202DA02A83C
:1017200002F090FE002E9ED00135042DEED1B9E7D7
:1017300070030010676D0000466A00007D6D0000B8
:10174000936D0000000500100E0500101C05001030
:10175000460500102A05001038050010C46A000074
:10176000896D000037B54C682378002B00D137BD58
:101770002000FFF763FE01A9FFF775FE019B04003F
:10178000002BF4D0D8B2FF2B13DD00F07FFA019BC1
:1017900005001812C0B200F079FA019001980028F3
:1017A00002D02900FEF77CFE23785A1E9341E418EC
:1017B000DAE700F06BFA00250190EFE70123064A13
:1017C00010B511784B401370044900D10449054805
:1017D00001F02DFD10BDC04639000010E36B000084
:1017E0009A6D00009E6D00000123064A10B5117825
:1017F0004B401370044900D10449054801F017FD1E
:1018000010BDC04638000010E36B00009A6D000068
:10181000AD6D00000B0007B5586801A9FFF7CEFDBC
:10182000019B002B0CDC012301939623019A9B0062
:101830005343054A01990548136001F0F8FC07BDC0
:101840001E2BF2DD1E23EFE71C000010BD6D000013
:1018500010B50C4A1378013BDBB21370002B0AD091
:10186000012B05D10849094A094801F0E0FC10BDE7
:101870000849094AF8E7094801F0D9FCFEF742FF98
:10188000F5E7C04600000010E56D00004B7C00004D
:10189000E96D0000E16D0000BD7E00000D6E0000EE
:1018A00070B50400002C00D170BD64250021022019
:1018B000013D00F093FE002DF8D1013CF2E700005D
:1018C000F0B580250F4B6D001A6804262A431A6074
:1018D00008220D4F0D491C683C401C6044B2002C8E
:1018E0000CDA0C6834430C601C68013A2C4340004D
:1018F000D2B21C60C0B2002AEDD1F0BD0C68B44376
:10190000F1E7C046FC3F0150FFFEFFFFFC3F0050E7
:101910000121044A10B513688B431360FFF7D0FF11
:1019200010BDC046FC3F0250F0B583B072B6012333
:10193000843001270600194D0193B0202B68340034
:10194000BB432B60019B843C1843FFF7B9FF2B6816
:101950000020BB432B60FFF7B3FF2B681020BB4375
:101960002B60FFF7ADFF2B68E020BB432B60FFF738
:10197000A7FF2B683B432B6020780134FFF7A0FFC3
:10198000B442F6D1019B84342600002B02D162B60A
:1019900003B0F0BD00230193CFE7C046FC3F0250E7
:1019A00010B5AC20FFF7B4FFAE20FFF7B1FFA520C4
:1019B000FFF7AEFF10BD70B50D000400012200F06E
:1019C000EBFD29000122200000F032FE70BD10B5B1
:1019D000AF20FFF79DFFA420FFF79AFF10BD10B5C1
:1019E000AE20FFF795FF10BD10B50400F820FFF7FB
:1019F0008FFF2000FFF78CFF10BD10B50400812081
:101A0000FFF786FF3F202040FFF782FF10BD000058
:101A1000202010B5064B1B781843FFF779FF0A20EA
:101A2000FFF73EFF034B1878FFF7E7FF10BDC046F6
:101A3000010000104B020010842210B5064B07482D
:101A400019785200002903D0054901F006FC10BDA9
:101A500001F024FCFBE7C0464C02001042010010DC
:101A60003A000010014B18707047C0464C0200103D
:101A7000002310B5074AD356002B07D0013B59B2BB
:101A80001B0601D4117010BD002313700248FFF72C
:101A90004BFFF8E74A0200104201001010B5082180
:101AA0000120FFF788FF02210020FFF784FF0021BB
:101AB0000220FFF780FF06210220FFF77CFF0321B1
:101AC0000800FFF778FF03210022080000F0B0FDB6
:101AD00000220621022000F0ABFD01220621022097
:101AE00000F0A6FDFFF7A8FFFFF7C2FFA220FFF757
:101AF0000FFFA020FFF70CFFC020FFF709FF002019
:101B0000FFF772FF0A20FFF7CBFE4020FFF700FF30
:101B10002C20FFF7FDFE3220FFF7C2FE2E20FFF73C
:101B2000F7FE3220FFF7BCFE2F20FFF7F1FE0A2060
:101B3000FFF7B6FEFFF76CFFFFF749FF10BD00008F
:101B4000030083280DD80F290BD88420CA085043DE
:101B5000C0180723194079330B41024A115C0B432B
:101B60001354704742010010F0B587B005921E0073
:101B7000DB78834203D23778380007B0F0BDB47801
:101B80007268244B041B00209A4216D103231F00C5
:101B90005C43A418E318CDB20393EB19DBB20493B2
:101BA00000230193049BAB42E6D008230293002359
:101BB000009327E00233D21801301378A042F9DBFA
:101BC0005778941CE6E7029B082B07D1039B9C42A5
:101BD000D2D0237801340193002302930122019B88
:101BE000134206D0059B009A28009918C9B2FFF746
:101BF000A7FF019B5B100193009B01330093029BA5
:101C0000013302937378009A9342DCDC0135EDB224
:101C1000C8E7C046286E0000F7B505001F000C009D
:101C2000160001F05DFB2B180193019B9D4201D032
:101C3000832C01D92000FEBD3B0021002878320012
:101C4000FFF792FF024B01351B68C0182418ECE720
:101C50000400001000210122042330B50A4C0D5D60
:101C6000854203D118011043C0B230BD013B002BA7
:101C700004D101320433092A00DD00220131282970
:101C8000EDD10020F1E7C046C27B00003C2310B537
:101C9000040980001840011F00D52831621E002071
:101CA000032A06D8242904DC0423024A1B1B5218E9
:101CB000D05C10BDC27B000070B505000024054B50
:101CC0002900E05C044B0134C01800F0D3FC0A2C5E
:101CD000F5D170BDB87B000000400440F7B50E4E52
:101CE0003468002C16D11020FFF7E6FF0B4D2B783F
:101CF0006F781800002239000193013400F04CFC89
:101D000001223900019800F093FC02350A2CEED133
:101D100001233360F7BDC04650020010F27B000083
:101D2000F8B500250B4C2678677801223900300081
:101D300000F032FC013500223900300000F078FC60
:101D400002340A2DEFD10020FFF7B6FF0022024B2C
:101D50001A60F8BDF27B00005002001070B505005B
:101D6000FFF7BCFF002D09D001220721022000F05F
:101D700013FC80210F4A13688B4313600B21002052
:101D800000F02CFC0124002805D00B21002000F0DD
:101D900025FC44424441002D09D0002207210220A5
:101DA00000F0FAFB8023034A11680B431360200004
:101DB00070BDC046FC3F02500023F0B58BB00690CA
:101DC000012009930791FFF7C9FF0400031E01D00A
:101DD00018230124089300232C4E0193377875783B
:101DE00001222900380000F0D7FB0022290038002A
:101DF00000F01EFC264B0293019B04330593022C3A
:101E00001CD0029B9B790393029B0398DB791900FA
:101E1000049300F0E3FB00282AD101991D4AA30096
:101E20008A5C08A95A500134019B01330193029B3B
:101E3000019A023B0293059B9342E0D100222900C4
:101E4000380000F0A9FB01222900380000F0F0FB67
:101E5000114B0236B342C1D1002C06D00124069B9F
:101E6000089A1A60079B099A1A6020000BB0F0BD0F
:101E70000499039800F0B2FB0028CED0049903988F
:101E800000F0ACFB0028C8D0CEE7C046F27B0000D3
:101E9000EA7B0000C27B0000067C0000012210B536
:101EA00010000B2100F078FB00220B21012000F034
:101EB000BFFB01220221032000F06EFB0022022161
:101EC000032000F0B5FB10BD37B51021244A0500F2
:101ED000136801208B4313608023224A9B01116801
:101EE000214C0B4313600B21002200F055FB002214
:101EF0000B21012000F09CFB9F211C4B1A688A4398
:101F00001A601A681A491A601A4B186804F0A2FC81
:101F100003028020184320602A000320022100F0E1
:101F200087FB0A20002D00D0012000F07FFDFF225A
:101F300023689343236022680F4B13430F4A2360A7
:101F400013680193019B002BFADA23680C4A1340B3
:101F50002360FFF7A3FF01980004800D3EBDC0463B
:101F6000388204408080044000C001409840044012
:101F700000093D005C020010800000012CC00140FF
:101F8000FFFFFFF810B50D4C2068002814DA002080
:101F90002060FFF799FF0A280BDC0120FFF794FF70
:101FA000E0234138FF385B00984202D8C03BFF3B3A
:101FB0002360FFF773FF206810BDC04608000010C3
:101FC00010B5FFF7DFFF002801D1002010BD002071
:101FD000FFF77AFF0120FFF777FF011EF5D00248D7
:101FE00004F038FCF2E7C0462D47130010B5FFF7A8
:101FF000C9FF002809D0FFF7E3FF00210300034ACF
:10200000C00F9A424841024B186010BD34080000CE
:10201000540200100222074B10B51A60064BA03282
:102020001960064B1A70013258709A7000F0F0FD7A
:1020300010BDC046C0030010AC0300109803001090
:102040000022064B023110B51960054B1A60054B92
:10205000A2321A70587000F0DBFD10BDC0030010F2
:10206000AC0300109803001070B505000E000324A7
:1020700031002800FFF7CEFF0223FF33984202D041
:10208000013C002CF4D170BD70B505000E00032496
:1020900031002800FFF7D4FF0223FF33984202D01B
:1020A000013C002CF4D170BD0A4B10B51B68002B0D
:1020B0000ED0094CA31CA270140A5C70140C120EF2
:1020C000DA709C70FFF7E0FF831EFF3B5A425341DA
:1020D000180010BD580200109803001070B50E4C87
:1020E0002468002C15D00D4C160AA270E670160C50
:1020F000120E6271A371A21D26711C0A54701C0C71
:102100001B0E9470D370FFF7BFFF841EFF3C634229
:102110005C41200070BDC0465802001098030010BA
:10212000064B10B51B68002B05D0FFF79DFF831EE3
:10213000FF3B5A425341180010BDC04658020010E0
:10214000064B10B51868002807D007210220FFF7BA
:102150008BFF0238FF384342584110BD580200102F
:102160000E4B70B504001868002813D0A11E062974
:1021700011D807256D1A072D04D009482A0009181F
:1021800001F06BF82900E0B2FFF77EFF0238FF385C
:102190004342584170BD01204042FBE75802001005
:1021A0009A030010012110B50800FFF75DFF02231C
:1021B000FF3398420FD10120084B1860084B1C7860
:1021C000230706D00323074A234001009370FFF73B
:1021D0005BFF200010BD01246442FAE758020010A2
:1021E000B00300109803001010B5FFF7DBFF0121CA
:1021F0000220FFF739FF0223FF3398420FD1084B2B
:102200001B787F2B06D9842207210220054B52041C
:10221000FFF764FF04210920034AFFF745FF10BDC3
:10222000B0030010020114008080808010B50028E7
:1022300048D08021254A13688B4313600123244929
:102240000A681A42FCD00322224B1A6001230021A3
:10225000214A13601160136011681942FCD01F4AB3
:102260001F49136080230C685B0223430B60002826
:1022700004D1802315490C6823430B60194B19685E
:1022800081421ED01860431E9841174B40421840AF
:10229000164B1168C01804F053FAFA21144B890048
:1022A0001860040004F0D6FA1E23C8214343114AE3
:1022B00020001360490104F0CDFA0F4B186001F0C3
:1022C0003BF810BD034B1860C0E7C046388204409D
:1022D0000C80044070800440748004407880044086
:1022E000808004400C00001000512502001BB70044
:1022F0005C020010640200106002001010B500F0D3
:102300003DF9134A002113681B0B1B031360114A8C
:1023100013681B0B1B0313600F4A13681B0B1B0373
:1023200013600E4A13681B0B1B03136001220C4B36
:1023300019600C4B1A6019601A6019681142FCD0C0
:102340002322094B01201A60FFF770FF10BDC04621
:102350000080005000800150008002500080035037
:10236000408004404480044008800440014B024AFD
:102370001A60FEE70CED00E00400FA0570B50025D8
:102380000B490C4800F053FF0B4E300000F04FFF9C
:102390000A4CE268216833000948013500F047FF24
:1023A00014340C2DF5D1074800F041FF70BDC04634
:1023B000466A0000067C0000497C0000847D000025
:1023C000187C0000237C0000F0B500253D4F040080
:1023D0003B6828008BB0AB425ED03B4B02941B683D
:1023E00002A99B68013098473B68002B02D137480F
:1023F00000F01DFF0BB0F0BD01342378202BFBD083
:10240000002B2FD0431C0193800002ABC450FF2D42
:1024100006D1019B1800022B45D1002526E01C00A7
:102420002278002A05D0631C202AF8D100222270CD
:102430001C00019B012B2ED10C26234D244B2B601D
:102440002B680298196800F06AFF2B68002821D0D9
:102450001433013E2B60002EF2D131003000FFF723
:102460008DFFC4E70028BFD002281AD1194903986C
:1024700000F055FF00280BD1134C17482368D9688A
:1024800000F0D5FE23681548196900F0D0FEABE7CF
:10249000022006E01D7901982378002BE2D008285D
:1024A000ABD18542E8D2084CC0B2236802A99B6830
:1024B000984722680A4B92689A4295D00322094BAA
:1024C0001A7091E770030010680200104C7C000045
:1024D000847D0000776A0000457C00008E6D00005E
:1024E000511800000000001070B50400154D0D28B3
:1024F0001BD00CD808280CD00A2816D0210012486E
:1025000000F095FE2B685A1C2A601C7018E07F288A
:10251000F4D10E4B2A689A4212D921000A4800F0E1
:1025200086FE2B68013B2B600AE000232A680848DE
:10253000137000F07CFE054C2000FFF745FF2C6077
:1025400070BDC0466C030010557C00006C0200108A
:10255000497C000010B500F01BFD002800D110BD23
:1025600000F0F4FCFFF7C0FFF5E70000014B024A62
:102570001A6070476C0300106C0200104023044A7C
:1025800011680B4313600122024B1A707047C0465A
:1025900080800440740300100E4B70B51B7804005B
:1025A0000E001500002B01D1FFF7E8FF631E022B80
:1025B0000AD8094B2004C01801230268B340012D3A
:1025C00004D11343036070BD0348F5E79A430260EA
:1025D000F9E7C04674030010008000500F4B70B53F
:1025E0001B7805000C00002B01D1FFF7C7FF00206E
:1025F000032D0BD82800012304F08EF802090B0DDF
:10260000074AA34010681840431E984170BD054A10
:10261000F7E7054AF5E7054AF3E7C04674030010FB
:10262000FC3F0050FC3F0150FC3F0250FC3F035078
:102630000E4B70B51B7804000E001500002B01D165
:10264000FFF79CFF631E022B0AD8094B2004C01819
:1026500001230268B340012D04D11343036070BD10
:102660000348F5E79A430260F9E7C0467403001097
:10267000FC3F0050084B70B51B7804000D00002B88
:1026800001D1FFF77BFF1822236893432360216861
:102690000D43256070BDC046740300103F224021E9
:1026A000044B1A60044B3E3A1A60044A13688B4389
:1026B0001360704724800440D8800440388204406E
:1026C0004021044A10B513688B431360FFF7E6FFFF
:1026D00010BDC0463882044009490A4A0B681A40B6
:1026E00080235B0013430B600421074A13688B436C
:1026F0001360064B1A68064B1A6030BF7047C0461D
:1027000000800340FFF7FFFF10ED00E03882044037
:102710003482044010B500F041FAFFF701FB0021BC
:102720000948FFF7A7FF00210848FFF7A3FF002192
:102730000748FFF79FFF00210648FFF79BFF002196
:102740000548FFF797FF10BD0840044000400440D3
:10275000AC400440144004401C40044010B501202B
:10276000FDF778FD10BD00008022124B10B5DA672E
:102770009218DA678022D200DA6780225201DA6783
:1027800080221201DA6780229200DA670023012199
:10279000094A49421360094A1160094A1360094A0B
:1027A0001360094A01331360084A1360FFF7D6FF2C
:1027B00010BDC04604E100E00482044008820440E9
:1027C00004C000403CC0004000C000400040014048
:1027D000064A10B5136801331360054B1868FFF7FC
:1027E00025FDFFF7C1FFC046C04610BD7C030010A9
:1027F0000C000010F0B585B00C00019072B6FFF728
:1028000089FF554B554D1A68554B1A60019B5A1E4E
:1028100093413F225B429343524A9B18524A1360B2
:102820000423524A11680B43136000232B60A30753
:102830001AD04F4A4F4913680B40136029684E4B1A
:10284000A20700D482E0EC2252010A432A608022CF
:102850001A6092181A608022D2001A6080225201F7
:102860001A60802212011A60019B002B53D00024B1
:10287000424B434F434E3C601C60434B21001C6065
:10288000424B30001C60FFF7F5FE220009212000BA
:10289000FFF782FE220009212000FFF7C9FE8021F8
:1028A0003B4A3C4813680B43136007223368763970
:1028B000934333603368053A13433360019B5843B5
:1028C00003F03EFF0322344B34491860344B1C6044
:1028D000344B1A60344B1A680A4080211A601A6817
:1028E0000A431A608023244A21499B0013600A6826
:1028F0001A430A602A68022113432B6001232B4AE2
:1029000013602B4A11602B4A136014601360116826
:102910001942FCD03B6001220021274B52421A6031
:10292000264A13680393264B196062B630BFC0462F
:1029300003991268914207D101221A60214B18684D
:10294000FFF774FCFFF710FF05B0F0BD8022120105
:102950000A432A6085E7C046388204400482044066
:1029600034820440FF1800003082044010ED00E083
:10297000008204407FE2FFFF00E100E0040001402C
:1029800004C0004064400440044001400480014011
:1029900080800440841E000018C000400FF0FFFF3C
:1029A00008C0004014C000403CC000407880044093
:1029B0007080044074800440088204407C0300104E
:1029C000780300100C00001010B5FFF713FF10BDC6
:1029D000074B1A68013203D106490A6801320A60BE
:1029E0001A6801321A60044A136801331360704791
:1029F0008C030010880300108403001080235B0404
:102A000098420AD20023054A01381360044A106034
:102A1000044A13600722044B1A6070478C030010AD
:102A200014E000E018E000E010E000E00B4A13685A
:102A3000002800D10130C143994209D2591C08181D
:102A40001168994200D2704711688842FCD8F7E7B4
:102A50001168C91A8142FBD3F5E7C0468C03001008
:102A6000014B18687047C0468C0300100122034BCD
:102A70001A60034A136801331360704700C00040B6
:102A8000900300100122034B1A60034A13680133BC
:102A9000136070470000014094030010002803D128
:102AA0000122044B1A6070470128FCD1024B1860C8
:102AB000F9E7C04604C0004004000140002802D1EC
:102AC000044B186070470128FCD10022024B1A60A9
:102AD000F8E7C04604C0004004000140002805D1CA
:102AE000044A022311680B43136070470128FCD18C
:102AF000014AF6E704C000400400014010B5002977
:102B000000D11449002810D18023134A14682343AC
:102B100013600322114B1860114B1960114B1A609E
:102B20008022114B52021A6010BD0128FCD1802373
:102B3000094A5B0010680343136000220B4B1A60C4
:102B40000B4B033219600B4B1A608022064B92022A
:102B5000E9E7C046FFFF00008080044090030010BA
:102B600018C0004014C0004000E100E094030010D1
:102B70001800014014000140802210210820064B5B
:102B8000D2051160186080235B011068084202D0F2
:102B9000013B002BF9D17047180000408022164BF2
:102BA000120210B5DA676C22144B15481A60154BE7
:102BB0001968014019601A6804211A60124B1A68DA
:102BC00002401A601A6800201A600122FFF7E4FC34
:102BD000012204210020FFF72BFD01220521002006
:102BE000FFF7DAFC012205210020FFF721FD00227A
:102BF000064B1A6010BDC04604E100E0180000401A
:102C0000F8FCFFFF3040044034400440048004409E
:102C1000F8B50023164A174C202123601360164A8A
:102C200013608022D2051160144A2168012907D05F
:102C3000934203D1FFF7A0FF0020F8BD0133F4E772
:102C40009342F7D000250E4F3E68013E2368FF2BCC
:102C500001D92068F1E73B68B34204D03E68FFF732
:102C6000FFFE0A300500FFF7FBFEA842EED1E1E7C8
:102C7000C4030010A8030010C8030010FF0F0000D9
:102C8000CC0300100122034B1A60034A136801337E
:102C90001360704700400140D803001070B5012454
:102CA000164B174A1C6013681B191360154B1A68E2
:102CB000002A13D01A68144D013A1A601E68002EBB
:102CC0000DD0210020002A68FFF7B2FC2B680221FA
:102CD000E31A2B6020002A68FFF7AAFC70BD1B686E
:102CE00021002B6020002A68FFF7A2FC02212000AF
:102CF0002A68FFF79DFC054B1E60EFE7008001404E
:102D0000DC030010D0030010D40300100480014045
:102D1000002803D10122044B1A6070470128FCD11E
:102D2000024B1860F9E7C0460440014004800140AE
:102D3000002802D1044B186070470128FCD1002202
:102D4000024B1A60F8E7C04604400140048001408D
:102D5000002805D1044A022311680B431360704711
:102D60000128FCD1014AF6E70440014004800140FB
:102D700010B5002811D18023124A9B001468234308
:102D800013600322104B1860104B1960104B1A602F
:102D90008022104BD2021A6010BD0128FCD1802382
:102DA000084ADB0010680343136000220A4B1A60D4
:102DB0000A4B033219600A4B1A608022054B12033A
:102DC000E9E7C04680800440D80300101840014065
:102DD0001440014000E100E0DC03001018800140D5
:102DE000148001400E22174B10B51B681340062BB0
:102DF00012D1154B90321B68134205D0134ADBB237
:102E00005360134B1B6810BDDB07FCD5104B1868D3
:102E1000C0B200F0ACF8F6E7042BF7D00C2B05D1CC
:102E20000A4AF43351680B435360ECE7022BEAD1B2
:102E3000054B1A68054B920602D500229A60E2E71C
:102E40000122FBE70880004014800040E0030010EE
:102E50000080004000487047E0030010F7B5802272
:102E6000002107252A4B2B4C9203070001912000DB
:102E7000DA67902200F012FA019B274EA360274BDD
:102E80001A68AA431A600122196811431960244B79
:102E90001968A943196019681143196080232149F1
:102EA0005B01086803430B601F4B1A60823232607B
:102EB0001E4A126819681E4B1868504303F040FC04
:102EC0003900000903F03CFC10221A4B1A491A6021
:102ED000030A0B600323194FC0B2386060203360CF
:102EE000174B1D60174B1A6801921A680240602A3E
:102EF000FBD15F3A1868104207D122708022124B32
:102F000092031A6005230B60F7BD38680190F1E762
:102F100004E100E0E00300100C800040A440044005
:102F2000A840044080800440988004407880044099
:102F30005C020010288000400480004000800040B7
:102F4000088000401480004000E100E010B5FFF769
:102F500081FF0200837BC318D87B937B0133DBB2F4
:102F600093735BB2002B01DA0023937310BD10B58D
:102F70000400FFF76FFF437BC318DC73437B01330F
:102F8000DBB243735BB2002B01DA0023437310BD45
:102F900010B5FFF75FFF0300807B5B7BC01A431E09
:102FA0009841C0B210BD70B504001D0000202E5C19
:102FB0002318002E09D1121AD518EC1A002C07DCA0
:102FC000D343DB171A40101870BD26540130EEE7CA
:102FD00019700133F1E7F8B5541E0F001E0005000B
:102FE00023000100092E16D90A21300003F0A8FBA6
:102FF0002200030039002800FFF7EDFF04002D1820
:1030000030000A2103F022FC30312970601CF8BD29
:103010000F70013B0131002BFADC0020824200DD01
:1030200020002D18002A00DC0122541EE8E7F7B525
:103030000E00D9175F18040001934F40551E092F49
:1030400017D90A21380003F07BFB019A0300002AFC
:1030500000DA43422A0020003100FFF7E8FF0500B4
:10306000241838000A2103F0F1FB3031681C21706C
:10307000FEBD019B002B00DA951E23006119CA1AC0
:10308000002A0CDCE843019AC017054064196B1C48
:10309000002AE6DA2D221D0022700134E1E71E70BD
:1030A0000133ECE7F7B51E00089B1400013A1F0935
:1030B00005001300002F11D033000097FFF7F2FF37
:1030C0002D180F23089F1F40FAB2092F12D8303253
:1030D0002A700130FEBD0170013B0130002BFADC8B
:1030E0000020844200DD10002D18201E00DC01208D
:1030F0000138E6E7002E01D03732E9E75732E7E73B
:10310000F0B505000F001C0085B0002801D0002399
:10311000037000261378002B00D16DE0B74204D86D
:103120000023013D2B70013E32E0252B04D00132FB
:103130002B7001360135EDE75178252902D1297030
:103140000232F6E7931C0393302902D02021531C4E
:103150000393039B1B782D3B5A425341039AD31888
:1031600000220393039B1B7818003038092812D9DA
:103170009019B84201D9BA1BD2B2692B1FD013D80B
:10318000632B35D0642B1AD0582B2DD001267642D4
:10319000300005B0F0BD0A2042439A18039B303A34
:1031A0000133D2B20393DDE7752B11D0782B14D005
:1031B000732BEBD1280008CCFFF7F5FE03E02800C5
:1031C00008CCFFF734FF039A2D1801323618A1E717
:1031D000280008CCFFF7FFFEF5E708CC009300239A
:1031E0002800FFF75FFFEEE708CC00930123F7E725
:1031F00008CC01202B70E6E7B74200D890E72B708F
:10320000C6E710B513000A006421FFF779FF10BD6F
:1032100000B59BB00A00010001A8FFF7F2FF632888
:1032200000DDFEE701A800F0ADF81BB000BD0FB453
:1032300007B504A901C90191FFF7EAFF03B008BC73
:1032400004B018470EB403B503AA02CA0192FFF7EF
:10325000D8FF02B008BC03B0184770B506000E4393
:103260000325340003002C402E420FD1AA420DD971
:103270000B5903510434131B032BF9D80324131FD8
:103280009B0801339B00C9182240C3180024A242A6
:1032900000D170BD0D5D1D550134F8E770B5830791
:1032A00004D003009A189A4217D170BD0300032A74
:1032B000F8D90C040B0623430B430C0223430400F0
:1032C000861808C4351B032DFBD80324131F9B0845
:1032D00001339B00C3182240E4E719700133E2E791
:1032E000030000201A5C002A00D170470130F9E782
:1032F0000023CA5CC2540133002AFAD1704770B56A
:10330000002304009A4201D1002007E0E55CCE5C76
:10331000A81BB54202D10133002DF3D170BD0200CC
:10332000002310B5D05CCC5CA04201D0001B02E0B1
:1033300001330028F6D110BDFA21094B10B51868E9
:10334000890003F087FAFFF759FB96200002FFF788
:1033500085FD0120FCF77EFFFEF746FF10BDC0464D
:103360005C02001010B5FEF7C9FFFFF707F9FFF781
:10337000A7F9FEF793FBFEF75FFBFFF7DDFFFFF713
:10338000F5F810BD10B504002078002800D110BD5C
:103390000134FCF7B5FFF7E770B50500441E0D35A5
:1033A000A54200D170BD29780248FFF740FF013DDA
:1033B000F6E7C046BA6B000070B51748FFF737FF55
:1033C000164D2800FFF7E8FF154C42212000FFF7BB
:1033D0002EFF1448FFF7E0FF43212000FFF727FFEF
:1033E0001148FFF7D9FF1148FFF721FF1048FFF7F9
:1033F000D3FF1048FFF71BFF0F48FFF7CDFF4E210B
:103400002000FFF714FF0D48FFF7C6FF696D0C4859
:10341000FFF70DFF70BDC046747E00000005001070
:103420007A7E00000E0500101C050010817E000051
:1034300046050010877E00002A05001038050010A0
:103440008D7E00000A23021153430F2210401818EA
:10345000704770B50A21050003F0FCF90A21040148
:10346000280003F0DDFA2000084370BDC12210B52A
:10347000520002210E20FEF717FE0122014B4E33AF
:103480001A7010BD7404001010B50B4C23004E339D
:103490001B78002B01D1FFF7E9FF23004F331A7887
:1034A0004D342378520001211A430C2308001A439B
:1034B000FEF7FAFD10BDC0467404001010B5094CAB
:1034C00023004D331B78002B0BD123004E331B7888
:1034D000002B01D1FFF7CAFF01234D342370FFF702
:1034E000D3FF10BD74040010074B10B51A004D3205
:1034F0001278002A07D0190000224C3351311A806B
:103500000A70FFF7C1FF10BD7404001070B504000D
:103510004079FFF79EFF0B4DA8702079FFF799FFC8
:10352000E870E078FFF795FF802328716B71042124
:103530000920FEF7A9FD0122034B4F331A70FFF754
:10354000A3FF70BD980300107404001010B5012192
:103550000220FEF7E5FD074B040018787F23184092
:10356000FFF770FF044B1A0050334A3210701C7082
:10357000200010BDB0030010740400106420064B3E
:10358000064A1B6810B51168584303F063F96328B5
:1035900000DD632010BDC0468403001080030010CE
:1035A0000122024B4B331A707047C046740400105E
:1035B000034B0022190051334B310A701A707047C7
:1035C0007404001010B5FFF7C1FF0B4B0B481A0035
:1035D00019004B3212785131002A03D00A78012A9F
:1035E00002D801320A7002E00168054A1160002227
:1035F0004C331A70026010BD740400108403001074
:103600008003001010B5FEF7CDFD0C2302001A4018
:10361000184204D0024B493319780A431A7010BD7E
:103620007404001010B5FFF7EDFF064C230049337A
:103630001B785B0701D5FFF7C5FF002349342370D2
:1036400010BDC0467404001010B50020FEF786FBC4
:10365000002801D0FFF7E6FF10BD0000002310B5E1
:10366000054C50342370FFF7EFFF2378002B01D176
:10367000FFF76CFF10BDC0467404001010B5542154
:10368000094803F0D3F9FA22084BD2001A80FFF759
:10369000E5FF0022064B1A60FA22064B92001A60E0
:1036A000054B064A1A6010BD740400107004001027
:1036B00084030010800300103C1B0010CD3F00006D
:1036C00070B51D4C0D0061782378A278090219436A
:1036D000E378120411431B06184A0B4313401A0ADD
:1036E000237062701A0C1B0EE37063792179A2704B
:1036F0001B02134A0B43134023711B0A060063711C
:10370000A079FFF79FFE0F4B1B881B183380607951
:10371000FFF798FEB070E078FFF794FEF070A078A5
:10372000FFF790FE28706078FFF78CFE68702078B5
:10373000FFF788FEA87070BDB00300107F7F3F3F89
:10374000071F000070040010F0B58DB00400FEF7F4
:10375000F7FC002805D120001249FFF773FD0DB0DA
:10376000F0BD0AAE0BAD29003000FFF7A9FF33888A
:103770000793F378B77808932B7809930A4B6E7800
:103780001879AD7800F062FC099B04900193089BC6
:1037900020000093079A3B00044903950296FFF727
:1037A00051FDDCE7997E0000B00300109E7E000012
:1037B00070B505000E001400FEF7C2FC00280AD008
:1037C00028003100FFF77CFF201E03D00020034BB0
:1037D0001B79236070BD01204042FBE7B00300105D
:1037E000F7B504880E0005006421200000920193C3
:1037F00003F02CF8114B8FB2E41B1C80B078FFF75C
:1038000028FE0F4CA0707078FFF723FEE070307830
:10381000FFF71FFE2071E878FFF71BFE009B607129
:10382000A371A878FFF715FEE0713800FFF711FECD
:1038300020720198FEF794FCFEBDC0467004001093
:103840009803001010B50223FFF7CAFF10BD431EF6
:10385000984110B5420101210020FEF725FC10BD62
:1038600070B5040001200D00FFF7F1FF200000F00B
:103870003BFC072103F0D4F820000A002900FFF7E1
:10388000E1FF96204000FFF7D1F80020FFF7DFFFAF
:1038900070BD000073B50400FFF758FE002801D189
:1038A000002076BD1F4D2B004A331E780A20FFF7FB
:1038B000BDF8FFF74BFE0028F2D02B004A331B78EF
:1038C000B342F3D0FEF73CFC0028E9D001A96846DA
:1038D000FFF7F6FE684600F007FC050001A800F0BF
:1038E000BDFB114B24189C420DD90122E317134351
:1038F000ED186946280000F029FC0C4AE317134034
:103900000B4A9B18E418200001A900F0BAFB28001C
:10391000072103F085F868460A0001A9FFF792FF26
:10392000BFE7C046740400107F51010000A30200ED
:1039300080AEFEFF084B094A09489A5C910709D4FA
:1039400001210A400749595C0A4303D00222FF3291
:103950001A5270470022FBE700050010EC1500002A
:1039600094150000EB1500000300082210B510406C
:10397000134206D017481849405C1040421E90413F
:10398000C0000122134205D0124C1449615C490762
:1039900000D51043022213420BD00E4C0F49615C3C
:1039A000C90706D5FA210E4C8900A46A8C4200DAB8
:1039B0001043042213420BD00649084BCB5C9B07F3
:1039C00006D5FA2306499B00096B994200DA104399
:1039D00010BDC04600050010EC150000ED150000FC
:1039E000740400100300020010B509330E32197878
:1039F000082908D901339342F9D1092102F0CDFDFC
:103A0000024B181A10BD0248FCE7C04600CA9A3B98
:103A100000987F3302680300642A04DC03485B6873
:103A20005043C01870470248FCE7C04600D68300E8
:103A300000987F33022310B50349044A885C03438E
:103A40008B54FFF777FF10BD00050010EC15000048
:103A500070B50C0005000E21200002F0E7FFD82110
:103A60002B6889005943201D02F072FD696820000F
:103A700002F06EFD70BD000070B50D000421040061
:103A800002F08BFD09210600201D02F086FDD821E1
:103A90008900040002F0C4FF054B20004B43D821ED
:103AA0009E196E60890002F0D5FE286070BDC04688
:103AB0001027000070B505000C000368044A981830
:103AC00000F044FB6868211D00F0F1FA70BDC046AB
:103AD000ADD92400F0B53D4D85B02B004C331A789C
:103AE0006C68002A56D101262A691E700392FEF7DF
:103AF00027FB00284CD0364B1A787F2A04D9FFF7D1
:103B000099FF0224644240E05A795B795BB2002B52
:103B100009DA304907200B8864330B801F233100FA
:103B20001A40FEF7C1FA2E002F001436103731006C
:103B30003800FFF7C5FDFFF721FDE875300000F004
:103B400097FA39006860061B03A800F0BFFA041E4C
:103B50000FD12B683800019300F0C6FA1E4BC01835
:103B6000019B2860C01A431EEE2B05D81B4B5843FF
:103B70003618F443E4173440194A1A4BD35C5B07F8
:103B800003D528001849FFF763FF200005B0F0BDFA
:103B90000124B7E7FFF7F2FCE875070028001430AE
:103BA00000F066FA0F4B68600D4D041BEB5C5B0781
:103BB000EBD50A21380002F033FF0C4B3800E954F2
:103BC0000A2102F047FE0A4BE854DEE774040010B5
:103BD000B0030010700400105326DBFF00D68300F2
:103BE00000050010EC150000971A00109715000052
:103BF00098150000054A4368934200DC7047044969
:103C00005B184360036801330360F4E700D6830068
:103C1000002A7CFF4268002A02DA0368002B00DCDD
:103C200070470349013B521842600360F2E7C04607
:103C300000D683000368054A10B59B180360044A48
:103C400043689B184360FFF7D5FF10BD3A9BB00057
:103C500000C40900436810B50400002B08DAFFF720
:103C6000D9FF2368002B02DA2000FFF7E3FF10BD25
:103C7000FFF7C0FFF5E7436810B5591A040041602B
:103C8000FFF7C8FF00206368834206DC2368834295
:103C900003DC2000FFF7CEFF012010BDF8B5FFF7D1
:103CA00019FF254F254C0600E35D254D254A5B078E
:103CB0000BD5AB6BE96BC318AB638B4205D3012308
:103CC000A15C0B43A3540023AB63A35C0822134203
:103CD00019D031001C4802F03BFC002804D0082118
:103CE0001A4AA35C0B43A354E35D9B070BD5280042
:103CF00031003030FFF7BFFF002804D00423134AFF
:103D0000A15C0B43A354E35D01273B420AD028008A
:103D100031002830FFF7AFFF002803D00B4BE25CE7
:103D20001743E7546B6C002B02D02B6C9E192E644A
:103D3000FFF700FEF8BDC046ED15000000050010BD
:103D400074040010EC150000A51A0010EB1500001B
:103D500010B50F20FFF708FE002804D0FFF79EFFE4
:103D6000014A024BD05C10BD000500109415000004
:103D7000F8B50A4D04002E004A363778FFF76EFC7E
:103D8000002C02D13378BB4204D00023044A4C35C6
:103D90002B7013602000FFF7DBFFF8BD74040010E8
:103DA0008403001010B5FFF7E3FF10BD70B5114C90
:103DB000636C002B1CD0FFF771FF206C616C884294
:103DC00016DD02F047FD23000130C50F48332D18E2
:103DD0001B786D102800002B00D06842FFF75AFDB9
:103DE000002805D0636C5D43236C6D005D1B25646A
:103DF00070BDC0467404001010B5FFF7D7FF10BDAA
:103E00007FB504000F20FFF7AFFD0500002C59D04F
:103E1000FFF7CCFF002D0FD1FFF766FB2C4B5B6C3F
:103E2000002B53D001236A46D3720223FF339381C0
:103E300002A8FFF76BFB49E0264EEB0708D5244BA1
:103E4000DC6B9B6BE41AB44203DCFFF737FB3DE00D
:103E5000214C2B0705D52148FFF7C4FD844200DD26
:103E60000400AB0706D51A482830FFF7D3FD84427B
:103E700000DD04006B0706D515483030FFF7CAFD9A
:103E8000844200DD0400B442DFDD6D46FFF72CFB09
:103E90002A000F4B03CB03C22000114902F0C0FDE2
:103EA0006B682000591869600D4902F0D3FC009B33
:103EB000181800902800FFF7CDFE280002A9FFF790
:103EC000F9FDB5E7002801D1FFF70EFB7FBDC04625
:103ED000740400104F4600000085E201A51A00108E
:103EE00000D6830010B5FFF78BFF10BD70B506003C
:103EF000C5000E2070430E4B0E4CC0180E4B6519BA
:103F00002900C018FFF7B8FD002E0FD1260010368B
:103F100031002800FFF7CEFD0721286802F080FD60
:103F20000A00210030001431FFF78CFC70BDC04640
:103F30009715000074040010000500100300C20073
:103F40000E20584310B5054B0549C018054B1831D4
:103F50008918C018FFF790FD10BDC046B3150000CA
:103F60007404001000050010C200094810B50100DB
:103F700018318918841828300B68801822689B1A19
:103F8000036062684B689B1A4360FFF763FE10BDD5
:103F900074040010002310B5084C09492364230061
:103FA000084A48338A5C084803211A7002F0F5FA7F
:103FB000C8231B024343636410BDC0467404001051
:103FC00000050010F2150000EF1A0010013810B5BE
:103FD000062807D802F0A0FB04070D12212A2D00A5
:103FE000FFF75CFE10BD144A144BD05CFFF77EFF58
:103FF000F8E7114A114BD05CFFF7A0FF0E4B0F4AB8
:10400000985C0F4A9B5C002804D09B07EAD5FFF719
:10401000ABFFE7E7DB07E5D5F9E70521094802F043
:10402000BCFA0022084BD8639A63DBE7FFF782FCF7
:10403000D8E7FFF7AFFFD5E70005001096150000A1
:10404000ED150000F31A0010740400100723184047
:10405000014B8000C0587047DC7E00003C2302000A
:1040600000785178584340184343907818187047A7
:1040700010B50400FFF7F2FF64225043E3781818EC
:1040800010BD70B50C003C21050002F0C9FC2800F1
:10409000A1703C2102F0DEFB3C2102F0C1FC61700A
:1040A000E1212800090102F0D5FB207070BD70B538
:1040B0000C006421050002F0B3FC2800E1706421CB
:1040C00002F0C8FB2100FFF7DCFF70BD10B54A8885
:1040D000448803000020944204D118880B88C01A39
:1040E0004342584110BD000070B59622837806887F
:1040F000050000205201B618010002229A424141F7
:10410000761A022B00D80C30C01899230338584374
:104110006E240521023002F09DFB6421FF347443BC
:104120000419B01024184942300002F093FBC82152
:1041300024184900300002F08DFB034B2018EC7866
:10414000C018001970BDC046D382FFFFF8B5214BDF
:10415000050080000E00C0181F4902F07BFB0327FA
:1041600003007B43D8173840C01880101B4B2D1814
:10417000AD00ED1828001A4902F052FCCC173C4063
:1041800064180237A4107C4302342000992102F005
:1041900047FC0800390002F05DFB0130F070992106
:1041A000200002F057FB0C21023002F039FC0131F3
:1041B000C8B20E21B070081A023902F04BFB084950
:1041C0000400280002F046FB064BC0182418348077
:1041D000F8BDC046652F0400B13A02004F1500003B
:1041E000B505000094EDFFFF0B4B1A68002A01D1C2
:1041F00001321A60094B02221968002806D00A43CE
:1042000004211A601A688A431A6070479143042295
:10421000196019680A43F7E7C8040010FC3F015011
:104220000221064B1A688A431A601A6849188A43A1
:104230001A600022024B1A607047C046FC3F0150D2
:10424000C804001070B5124E124D30000021FEF768
:1042500011FA28000021FEF70DFA07220124336825
:1042600021009343336033682000234333602B687D
:1042700093432B602B68220023432B60FEF78CF9BD
:10428000220002212000FEF787F9FFF7C9FF70BD69
:104290007C4004408040044010B5FFF7C1FF01207E
:1042A000FEF746FD10BD000070B50D00072101248A
:1042B0000600174B20001A688A431A601A682243C6
:1042C0001A60144B1A688A431A601A682100224344
:1042D0001A602200FEF760F9220002212000FEF79A
:1042E0005BF90D4B3100186802F0B4FA01002000B0
:1042F000FEF73EFD2000FEF72BFD084E2000356046
:10430000FEF706FD3368002BFCD1FFF7C5FF70BD3B
:104310007C400440804004405C020010D003001048
:1043200000210C4B0C4A0D481A600D4A9A600D4A48
:104330001A610D4A11540D4811520D4801311154A2
:104340000C4898610C4811540C4A9A620C4ADA6283
:104350007047C046CC040010FC7E000077150000BA
:10436000FC920000FCA6000000050010781500007B
:104370007A150000FCCE00007C150000FCBA00009D
:10438000FCE200000300021310B50020052A22DC25
:1043900011491248891809180978002001291ADCE6
:1043A000520052180E4992005158814213D0802079
:1043B00006241A05920D40018A18121810785A0026
:1043C00014400822121B9040C0221B051B0DCB5C21
:1043D00092001040184310BD000500106715000042
:1043E000CC04001003130020052B0BDC074A0849FE
:1043F000D21852181278012A04DC5B009B18054A77
:104400009B009858431E98417047C0460005001015
:1044100067150000CC0400100723020010B50F241C
:104420005943074B9C31C9180E320B782340037057
:104430000B7801311B09437002309042F5D110BD59
:104440000005001007230200594310B5064B9C31AC
:10445000C9180E32437804781B01234302300B70D5
:1044600001318242F6D110BD0005001070B5B64D85
:104470001726EB6E86B05A1E93416E443370B34BD1
:10448000EA58D006400F0138062808D802F044F94F
:10449000443104363C3F42000D23002404E06B6E9F
:1044A00016339B005C59230050111F283BD802F0A3
:1044B0003DF935003F00440048004E0056005900C9
:1044C0005F00630069007800830090009F00AC00EB
:1044D000B700C400D100DF00EC00FD00FB000A01C2
:1044E0001101160123012E01330137013D01410164
:1044F00045016B6E16339B00EB58CEE7AC6DEB6D50
:104500009C42D1DD0D23CFE702231C00CCE70C2316
:104510000324C9E70D23F8E70223BEE7191B013185
:10452000281902F083FA01203378EB6606B070BDDB
:10453000191B874801312018F3E7191B8548013101
:10454000F9E722008249280001F032FFEBE71A1B4D
:104550007F48013229192018FEF77FFEE3E7220089
:104560007C49F0E77A491A1B7A4801326118F2E770
:10457000220078497648E7E776491A1B013261182C
:104580002819E9E7296E0A22002900D10632009392
:10459000230002926E4A01962900280001F012FFC2
:1045A000C1E7296E0A22002900D106320292009347
:1045B000684A23000196EFE70122296E3270093222
:1045C000002900D1063202920093002223000196B6
:1045D000E2E7296E0A22002900D106320093230067
:1045E00002925B4A01962900280001F016FF9AE723
:1045F0000122296E32700932002900D1063202925E
:104600000093002223000196EDE7296E0A2200297B
:1046100000D10632029200934E4A23000196E2E74F
:10462000296E0A22002900D106324A4802920093DC
:104630000200230001960100B0E7296E0A2200293A
:1046400000D1063243480292009302002300290061
:104650000196A3E70122296E32700932002900D1A8
:10466000063202920093002223003A480196E2E7C4
:10467000296E0A22002900D10632364802920093A0
:104680000200230029000196AFE70122296E327053
:104690000932002900D106322E48029200930022EE
:1046A000230001000196A0E701223270296E0A2240
:1046B000002900D10632274802920093020023000D
:1046C0000021019691E7220000212148009601F087
:1046D00006FF28E7220000211E480096F7E7296E12
:1046E0000A22002900D10632009323000292194ABF
:1046F00001962900002078E7296E0A22002900D1BE
:10470000063202920093124A23000196F1E722003A
:10471000002100962800DAE722000E490096F9E70A
:104720001A002100280001F0F1FEFCE61A00210029
:104730000748F8E71A0021000648F4E71A002100AC
:10474000280001F0F4FEEEE600050010241600003B
:104750000E0500101C050010064B10B519001A1D9F
:10476000D46F0831CC67D96FD1679A6F9867DA67D1
:1047700010BDC04600050010064BDA6F986F9A67AF
:104780001A1DD16F08335967D96FD1670022DA67D4
:104790007047C04600050010F8B5154C27008C374F
:1047A0003B68581CFFF7EEFD124BA26EE050012350
:1047B000060003409A4218D1FF220F4B8501E358AF
:1047C00012029B1015401D432800FFF7DBFD002857
:1047D0000BD0B30703D438680230FFF7BDFF2300C6
:1047E00001228C331D60054BE2500220F8BDC0460B
:1047F0000005001028160000241600000C1600000A
:104800000D4B0E490120CA5810B5D3059B0E9405D7
:104810000ED5403B8C6E92100240944206D10A00A5
:104820008C321468E3181360054BC850012010BD8A
:10483000002BEFD10300EDE7241600000005001067
:104840000C1600000A4A1000531C911CDB7FC97F24
:104850001B0109020B43D17F8C300B43D11CC97F54
:1048600009030B4303600120024BD0507047C04640
:10487000000500100C160000074A0020938C518C94
:104880001B040B4305498B4204D1054BD08CC01847
:10489000434258417047C04600050010080100041B
:1048A00000F8FFFF10B5154C631CDB7F042B07D10C
:1048B000FFF7E2FF002802D0227F114B1A7010BDD3
:1048C000052B0AD100230F4C2380FFF7D5FF0028CA
:1048D000F5D00B4B1B782380F1E7082B08D1002281
:1048E000094BE254094B1B68002BE8D09847E6E7D8
:1048F000093B042BF6D80122034BF2E70005001018
:10490000441B0010FC0400102C150000401B00107C
:1049100010B5FDF76BFB014BD86610BD000500100C
:1049200010B5084B5A1CD07F9A1CD27F000112028E
:10493000104303331A7FDB7F10431B031843FFF739
:104940000BFF10BD0005001010B5FFF715FF0F2479
:104950000323044A01002140D15401330011072BE5
:10496000F8D110BD1C05001010B5FFF705FF044B72
:1049700001211A008C321060024A995010BDC046C5
:10498000000500100C16000010B5064CA36E002B9D
:1049900007D0FFF7F1FE230001228C331860024B91
:1049A000E25010BD000500100C16000010B5064CBA
:1049B000A36E002B07D1FFF7DFFE230001228C330B
:1049C0001860024BE25010BD000500100C160000EC
:1049D0000121054B054A10B5D150054B1B68002B32
:1049E00000D0984710BDC0461C16000000050010FE
:1049F000381B00100020124B124A70B59850043238
:104A00009A58824216D0104A9958814211DD0129E4
:104A100008D10E495C58844204D058500A210C4DEC
:104A200099505C519958032901DD0120D86601395C
:104A3000995070BD074B1B68002BFAD09847F8E7D8
:104A4000000500101C1600001016000018160000CB
:104A500014160000381B0010B122094B52019A585D
:104A6000002A03D0074A9A58002A07DD0F21064A78
:104A70009A580133114012119977DA777047C0467E
:104A80000005001010160000141600000B4BFF224A
:104A900019008C310868120202400A60B1214901F4
:104AA0005958002903D006495958002905DD190035
:104AB00004488C311B581A430A60704700050010E7
:104AC000101600001416000070B5094C01252200D4
:104AD0008C3213680133136023008C331868421C36
:104AE0001A60FFF74FFC2842F6D0024BE55070BD2C
:104AF000000500100C160000114BF7B51A008C329F
:104B00001268019012139B180E4A9B181E78002EF3
:104B100015D000250C4C237CB34208D1019B27788B
:104B200028002370FFF75EFC002800D12770802347
:104B30005B01ED18802301345B029D42EBD1F7BD90
:104B40000005001077150000671A0010034B044A97
:104B5000181880180278DA667047C0460005001001
:104B600088150000034AD16D936D5B1A59424B4181
:104B7000D366704700050010034A537F117F1B0165
:104B80000B43024953547047000500102D150000D7
:104B9000074B084A197F9954597F074A9954997FBE
:104BA000064A995402220649585802435A507047FF
:104BB00000050010591500005A1500005B15000093
:104BC000FC150000054B064A9A5C1A77054A9A5C68
:104BD0005A77054A9A5C9A777047C04600050010DC
:104BE000591500005A1500005B1500000023F7B5A9
:104BF0001C0000900191019A944200DBF7BD002057
:104C000001250E4A00990D4211D011000A310E788B
:104C10000F004E700139BA42F9D1094E591CF318F0
:104C20001B7F022801D10126334013700B00013095
:104C30006D000E320328E5D10134DCE72F1A001095
:104C4000000500100023F7B51C0000900191019AA7
:104C5000944200DBF7BD002001250E4A00990D4269
:104C600011D0170011000B374E780E7001318F42B2
:104C7000FAD1094E591CF3181B7F022801D10126D5
:104C80003340D3720B0001306D000E320328E5D1A2
:104C90000134DCE72F1A001000050010F7B5019170
:104CA0000021009008000F4E019B984200DBF7BDE9
:104CB00001240D4B009A14420DD01A000B321578C6
:104CC00017005570013A9F42F9D1084D1A7B6F18B1
:104CD0001A7001313A770E336400B342EAD10130E1
:104CE000E2E7C046591A00102F1A00100005001004
:104CF000F7B501910021009008000F4E019B9842EA
:104D000000DBF7BD01240D4B009A14420ED01A7837
:104D10001F001A731A000C37557815700132BA4209
:104D2000FAD1074ADF7A5218177701310E3364003F
:104D3000B342E9D10130E1E7591A00102F1A0010EF
:104D40000005001010B50E210400254801F06EFE8C
:104D50000F2C2CD8200001F0DFFC080D171A1D20A5
:104D600024262C2F3235383B3D400C210120FFF703
:104D700095FF1CE00C210220FFF790FF194A1A4B07
:104D8000D1580C43D45010BD0C210420EFE706216C
:104D90000320ECE704210720E9E7FFF713FF0224D3
:104DA000ECE70121F1E701210800FFF7A1FF012451
:104DB000E4E701210220F8E701210420F5E70121C1
:104DC0000800D4E701210220D1E701210320ECE70C
:104DD0000121DDE701210720E7E70121DBE7C046EC
:104DE0001C05001000050010FC150000002210B585
:104DF000204B214CE2500F280DD801F08DFC0812F9
:104E000015181B1E212427292B30333537390C2147
:104E10000120FFF717FF0123184AA1580B43A350A5
:104E200010BD0C210220F4E70C210420F1E706213B
:104E30000320EEE704210720EBE7062103200BE027
:104E40000421072008E001210800E2E70121E9E749
:104E50000121EAE701210800FFF7C8FEDBE7012195
:104E60000220F9E70121E3E70121E7E70121E2E779
:104E70000121E6E70416000000050010FC15000003
:104E8000034B10B51B68002B00D0984710BDC046DF
:104E90003C1B0010012010B5FFF7F2FF064A074B3C
:104EA0000749D35C002B04D00720535C03405354C4
:104EB00010BD0B20535CF9E70005001096150000AB
:104EC000EC15000070B50F2817D801F025FC080874
:104ED0001724434F16636D7C8A95A6A9BABF5D4B14
:104EE0005D4A5E49985C0E2250434018C0185C49E8
:104EF000FEF7B3F90220FFF7C3FF70BD554B564ACA
:104F00005849985C0E2250434018C0185449FEF787
:104F1000A4F90320EFE74F4C4F4BE35C002B0BD081
:104F2000042251495148FEF798F90121504A0720BF
:104F3000A35C0B40A354DEE74E4A237FA15C06200E
:104F40000B40A3540C23627F4B491A43635C13400C
:104F50006354D0E73F4B404A4849985C0E22504387
:104F60004018C0183E49FEF778F9C6E7444C0522C0
:104F700020003B49FEF771F904233649414A885C19
:104F800003438B540520FFF77BFF0521200001F030
:104F90004DFDB2E70120FFF773FF0B202D49394A81
:104FA0008B5C03405354A8E72A4B2B4A9A5C002A97
:104FB00005D00E2034495A5C02405A549DE73149CD
:104FC00007205A5CF8E7234B234A9A5C002A04D056
:104FD00001222D49585C0243EFE72A490822585C18
:104FE000F9E71C4A1C482749105C535C002801D093
:104FF0000D20D6E70E20D4E7164B174A21489A5CBD
:10500000195C002A07D00222114200D075E70A433A
:105010001A5404206FE70122F6E7FFF73BFF6CE725
:105020000C4C0D4B144DE35C002B07D00120FFF717
:1050300027FF0823625D134363555EE70423625D27
:10504000F9E70121034A044BD15456E70021014AF4
:10505000014BF9E7000500109615000097150000B8
:105060001C050010B31500001D050010EF1A0010FC
:10507000F2150000EB150000EC150000CF15000044
:10508000F31A0010ED150000EE15000010B505280C
:1050900027D8244C01F040FB03031017333A0120BA
:1050A000FFF7EEFE204A214B2148995C0E22514326
:1050B0000918C918200012E01B4A1C4B1D48995CB6
:1050C0000E225143F4E7194A174BD35C002B09D049
:1050D0000E21200001F0AAFC042217491748FEF710
:1050E000BCF810BD0120FFF7CBFE154904222000BB
:1050F000FEF7B3F80A21134801F098FCF1E70A4AD9
:105100000A4B1148995C0E225143D1E70120FFF769
:10511000B7FE0E4905222000FEF79FF809210C4832
:10512000EAE7C0461C0500109615000000050010B7
:1051300097150000B3150000EF1A00101D050010B0
:10514000EB1A001020050010CF150000F31A001014
:1051500021050010064A537F917F1B0109020B4372
:10516000117F0B4300215367024BD1547047C04657
:10517000000500102D15000080239B00994203DAE2
:1051800010390F290BD97047C0229200914204DDDB
:10519000FC239B00994202DAF5E7994207D103000C
:1051A00000220E33027001308342FBD1EBE7BC23B7
:1051B000EFE7000030B5264B85B05C6F002802D0C9
:1051C0000F2294430443234A5C679A5CFD2A03D16F
:1051D000FFF7B8FD05B030BDFB2A02D1FFF756FF3F
:1051E000F8E7F02A1AD1042809D100225A77DA8385
:1051F000194A9A5C002A00D005221A77EAE70228A9
:10520000E8D1164A1288110BD9770F21100A0840ED
:1052100098771009084058770A40EEE7BC23104DF4
:105220009B009C4204DB0E21280001F0FFFBD1E72C
:1052300021006846FFF7F0F821006846FFF79CFF61
:1052400000236A46D25CEA5401330E2BF9D1C1E740
:10525000000500102D1500002C150000FC040010A6
:105260001C0500101FB50F22144B5C6F94430443C0
:10527000134A5C679B5CFD2B02D1FFF7B7FD1FBD96
:10528000FB2B02D1FFF71EFEF9E7BC239B009C42DB
:10529000F5DA21006846FFF7BFF8002309496846A0
:1052A000CA5CC25401330E2BF9D12100FFF764FF11
:1052B00021006846FFF7C6F8E1E7C0460005001088
:1052C0002D1500001C0500101FB5134C134BE35C9B
:1052D000FD2B02D1FFF75CFC1FBDFB2B03D100208F
:1052E000FFF7F0FDF8E7BC23616F9B009942F3DA0A
:1052F0006846FFF791F8002309496846CA5CC25422
:1053000001330E2BF9D1616FFFF736FF6846616FED
:10531000FFF798F8E0E7C046000500102D150000E3
:105320001C05001010B50D4C631CD87FA31CDB7F3F
:1053300000011B021843E37F1843E31CDB7F1B03C0
:105340001843FFF71FF80F220300134023770311C0
:10535000134000126377A07710BDC046000500100F
:10536000024A536E16339B00D05070470005001060
:1053700004494A6E1632920053581B1A5A4253413E
:10538000CB66704700050010054A536E16339B002C
:105390009958013901D4995070470D21FBE7C04657
:1053A00000050010064A536E16339B009958481C9E
:1053B0000D2901D09850704700219950FBE7C04655
:1053C000000500100F4B5A6E16329200D058191873
:1053D0000A7F0C2804DC497F09010A435A6570479B
:1053E000F5200949120159588000814205D007482B
:1053F0000140B7208000814202D1596D0911ECE7CC
:10540000197FEAE7000500102C160000FFFEFFFFE1
:10541000214B30B55A6E16329200D2580C2A05D163
:10542000F5211E4889001858884203D01C49595854
:1054300000290DD00F20596D9A1808400C11507793
:105440001477FF220901114021431877596530BDB7
:105450000F25586D041105400C2A03DC9B181D779D
:105460005C77F4E70D4A9958F5229200914205D0F5
:105470000C4A1140B7229200914208D11A00FF2134
:105480002932157002010A4022435A65DFE71A00EB
:10549000293214701D77DAE7000500102C16000081
:1054A00030160000FFFEFFFF0F21254B70B55A6E2E
:1054B000586D16329200D258014000110C2A05D1C5
:1054C000F524204DA4005D59A54203D01E4C1C5963
:1054D000002C0CD0551C5D192C7F9A18167F2401C6
:1054E00034435C651C7F2C77107719770CE0C9B2C8
:1054F0000C2A0ADC551C5D192C7F9A18167F240192
:10550000344328775C65117770BD1D00F5260D4A80
:1055100029359C582A78B6001201B44205D00B4EAA
:105520003440B726B600B44204D102435A65293349
:105530001970E9E71C7F287022435A65D5E7C046F9
:10554000000500102C16000030160000FFFEFFFFC3
:1055500010B50E2202490348FDF77FFE10BDC0467C
:105560001C0500103805001010B50E220249034832
:10557000FDF773FE10BDC046380500101C05001075
:1055800010B50D2300220249024800F011FF10BDA2
:10559000380500101C05001010B50E220249034802
:1055A000FDF75BFE10BDC0461C0500102A0500106B
:1055B00010B50E2202490348FDF74FFE10BDC0464C
:1055C0002A0500101C05001010B50D230022024909
:1055D000024800F0EDFE10BD2A0500101C05001069
:1055E000024B181846300278DA6670470005001042
:1055F000044B002219009A6408314C33CA871A8080
:105600007047C04600050010C21C431E002010B5A4
:1056100004499A4200D110BD8C5C40002043013AFD
:10562000F7E7C0464605001030B50124054A0B1DBA
:10563000994200D130BD050025405554401001313C
:10564000F6E7C0464605001070B50020FFF7DCFF06
:105650000500084C0021207FFFF7E6FF2577042096
:10566000FFF7D2FF05000421607FFFF7DDFF6577BC
:1056700070BDC0460005001010B50020FFF7C4FF44
:10568000034C20770420FFF7BFFF607710BDC046B2
:105690000005001010B5054C0021207FFFF7C4FF66
:1056A0000421607FFFF7C0FF10BDC0460005001059
:1056B00010B50020FFF7A8FF04000420FFF7A4FFA7
:1056C000054B064A00012043D054054B1B68002BB4
:1056D00000D0984710BDC0462E15000000050010F0
:1056E000341B00100F2370B5064D074C0021285DB8
:1056F0001840FFF799FF285D04210009FFF794FF88
:1057000070BDC046000500102E150000F8B5002041
:10571000FFF77AFF07000420FFF776FF0F2304004E
:105720000A4E0B4D0021705D24011840FFF77CFFED
:10573000705D04210009FFF777FF064B3C431B68AF
:105740007455002B00D09847F8BDC04600050010E6
:105750002E150000341B001010B5094C23008C33AB
:1057600018680130FEF70EFE064B0F22E0500300D2
:10577000134023770311134000126377A07710BD05
:10578000000500102816000010B50E21054801F094
:105790004DF90E21044801F049F90E21034801F0AA
:1057A00045F910BD000500100E0500101C05001085
:1057B0000022054B197F1878013201431977013314
:1057C0000E2AF7D17047C046000500100022054B95
:1057D000187F197801320140197701330E2AF7D169
:1057E0007047C046000500101FB500230A4A6C46EA
:1057F0001118097F013019550D2800DD00200133F3
:105800000E2BF4D10023054A6946C95CD1540133FB
:105810000E2BF9D11FBDC046000500101C0500105D
:10582000074A10B5536E16339B0099584C1E5118F9
:105830009C500877002C01DA0D21995010BDC0460C
:1058400000050010034B00221900983394310A60C0
:105850001A607047000500100122034B9433196849
:105860004A401A607047C046000500100B4A0023EA
:10587000110001208C3110B50B600949094C5050C2
:1058800018001367191901330870102BFAD113008F
:1058900094331B6859424B41D36610BD000500107C
:1058A0000C160000671A001070B5824B824DEC5840
:1058B000824BA210A41119570F231340581E0E2813
:1058C00047D800F029FF0810171E224628462E321E
:1058D0003646463C400000293BDB00226918463131
:1058E0000A70180070BD002933DB012369184631A6
:1058F0000B70F6E700292CDB0800FFF771FE01238F
:10590000EFE72000FFF78CFFF9E7002921DB080013
:10591000FFF72EFDF3E700291BDB0800FFF720FD52
:10592000EDE72000FFF7D0F8E9E72000FFF79AFC49
:10593000E5E700290DDB0800FFF708F9DFE72000A5
:10594000FFF738FCDBE7002903DB0800FFF74CFF1B
:10595000D5E77F2A00D106E100DD8FE0482A00D19B
:10596000E1E074DC262A00D1CBE065DC162A00D108
:10597000BEE05BDC082A00D1B3E00C2A00D1B3E022
:105980000123002AADD05B42ABE7D63A1000262AAD
:1059900050D800F0CBFE03014F0006014F004F002E
:1059A0004F0009014F004F004F004F004F004F00C4
:1059B0004F004F004F000C014F000F014F004F00F0
:1059C0004F0012014F004F004F004F00150118010A
:1059D0001B014F001E012101240127014F004F0030
:1059E0004F002A01663A10000A2A23D800F094FEDC
:1059F000AD22B0222222B3222222B600563A100053
:105A00000A2A17D800F088FE9616991616169C16C4
:105A100016169F00363A10000A2A0BD800F07CFEBA
:105A2000780A7B0A0A0A7E0A0A0A8100182A62D0CA
:105A30001C2A63D00123A6E7402AFBDC352AE9DCD7
:105A4000282A61D02C2AF5D1FFF78EFD57E7702A5E
:105A50000DDC652AC6DC602AECDC552ACEDC4C2A3B
:105A600064D00220502AE5D1FFF746F847E7762AAE
:105A700076D0782ADED1FEF7E5FE40E7FC2AD9DCB5
:105A8000D52A82DCA82A00D17CE019DC982A73D0C0
:105A900008DC8C2A6AD0962A6BD0882ACAD1FEF7F5
:105AA000DBFF2CE79C2A6AD0A62AC3D1FFF71AFE97
:105AB00025E7C0462416000000050010FCF6000093
:105AC000BC2A65D006DCB62A5FD0B82AB2D1FFF76F
:105AD000B9FE14E7C82A5ED0CC2AABD1FFF722FC6E
